:020000040800F2
:10000000000003201DA20008CB7C0008CD7C000866
:10001000CF7C0008D17C0008D37C000800000000E1
:10002000000000000000000000000000D57C000877
:10003000D77C000800000000D97C0008DB7C0008A9
:1000400075A2000875A2000875A20008E37C0008EC
:1000500075A2000875A2000875A2000875A2000824
:1000600075A2000875A2000875A2000875A2000814
:1000700075A2000875A2000875A2000875A2000804
:1000800075A2000875A2000875A2000875A20008F4
:10009000ED7C000875A2000875A2000875A2000892
:1000A00075A20008FD7C000875A2000875A2000872
:1000B00075A2000875A2000875A2000875A20008C4
:1000C00075A2000875A2000875A2000875A20008B4
:1000D00075A2000875A2000875A2000875A20008A4
:1000E00075A2000875A2000875A2000875A2000894
:1000F000157D00081D7D0008257D000875A20008FB
:1001000075A2000875A2000875A2000875A2000873
:1001100075A2000875A2000875A2000875A2000863
:1001200075A2000875A2000875A2000875A2000853
:0C01300075A2000875A2000875A2000866
:1001400001F0FF01102A2BDB10F0070F08D010F888
:10015000013B013A8B422DD010F0070F42B3F6D18C
:10016000F0B441EA012141EA014122F007047FF0A5
:1001700000070023F0E80256083C85EA010586EAFC
:10018000010685FA47F5A3FA87F586FA47F6A5FA38
:1001900087F68EB9EED1F0BC01F0FF0102F0070244
:1001A00032B110F8013B013A83EA010313B1F8D1EF
:1001B0000020704701387047002D06BF35460338D0
:1001C000073815F0010F07D1013015F4807F02BF09
:1001D000013015F4C03F0130F0BC0138704700BF5A
:1001E00081F0004102E000BF83F0004330B54FEAE8
:1001F00041044FEA430594EA050F08BF90EA020F55
:100200001FBF54EA000C55EA020C7FEA645C7FEAE7
:10021000655C00F0E2804FEA5454D4EB5555B8BF0A
:100220006D420CDD2C4480EA020281EA030382EA7B
:10023000000083EA010180EA020281EA0303362D0D
:1002400088BF30BD11F0004F4FEA01314FF4801CE0
:100250004CEA113102D0404261EB410113F0004FF2
:100260004FEA03334CEA133302D0524263EB4303A9
:1002700094EA050F00F0A780A4F10104D5F1200E47
:100280000DDB02FA0EFC22FA05F2801841F10001A2
:1002900003FA0EF2801843FA05F359410EE0A5F176
:1002A00020050EF1200E012A03FA0EFC28BF4CF0A7
:1002B000020C43FA05F3C01851EBE37101F000455D
:1002C00007D54FF0000EDCF1000C7EEB00006EEB6A
:1002D0000101B1F5801F1BD3B1F5001F0CD34908F4
:1002E0005FEA30004FEA3C0C04F101044FEA44524B
:1002F00012F5800F80F09A80BCF1004F08BF5FEAD2
:10030000500C50F1000041EB045141EA050130BDB1
:100310005FEA4C0C404141EB0101013C28BFB1F5C3
:10032000801FE9D291F0000F04BF01460020B1FA0E
:1003300081F308BF2033A3F10B03B3F120020CDAE1
:100340000C3208DD02F1140CC2F10C0201FA0CF0BF
:1003500021FA02F10CE002F11402D8BFC2F1200C24
:1003600001FA02F120FA0CFCDCBF41EA0C019040DA
:10037000E41AA2BF01EB0451294330BD6FEA040423
:100380001F3C1CDA0C340EDC04F11404C4F120020E
:1003900020FA04F001FA02F340EA030021FA04F320
:1003A00045EA030130BDC4F10C04C4F1200220FA77
:1003B00002F001FA04F340EA0300294630BD21FAB5
:1003C00004F0294630BD94F0000F83F4801306BF7B
:1003D00081F480110134013D4EE77FEA645C18BF6F
:1003E0007FEA655C29D094EA050F08BF90EA020F06
:1003F00005D054EA000C04BF1946104630BD91EAFE
:10040000030F1EBF0021002030BD5FEA545C05D100
:100410004000494128BF41F0004130BD14F580043F
:100420003CBF01F5801130BD01F0004545F0FE41B3
:1004300041F470014FF0000030BD7FEA645C1ABFE8
:10044000194610467FEA655C1CBF0B46024650EA1F
:10045000013406BF52EA033591EA030F41F400214B
:1004600030BD00BF90F0000F04BF0021704730B5D1
:100470004FF4806404F132044FF000054FF00001A6
:1004800050E700BF90F0000F04BF0021704730B567
:100490004FF4806404F1320410F0004548BF40423C
:1004A0004FF000013EE700BF42004FEAE2014FEA91
:1004B00031014FEA02701FBF12F07F4393F07F4F6C
:1004C00081F06051704732F07F4208BF704793F06F
:1004D0007F4F04BF41F40021704730B54FF4607482
:1004E00001F0004521F000411CE700BF50EA010285
:1004F00008BF704730B54FF000050AE050EA01022E
:1005000008BF704730B511F0004502D5404261EB9D
:1005100041014FF4806404F132045FEA915C3FF4DE
:10052000D8AE4FF003025FEADC0C18BF03325FEA7B
:10053000DC0C18BF033202EBDC02C2F1200300FA2C
:1005400003FC20FA02F001FA03FE40EA0E0021FA51
:1005500002F11444BDE600BF53B94AB9002908BFEF
:1005600000281CBF4FF0FF314FF0FF3000F00CB8F7
:10057000ADF1080C6DE904CE0AF0F6FDDDF804E0FB
:10058000DDE9022304B07047704700BF0348044B05
:10059000834202D0034B03B118477047C8010020C3
:1005A000C8010020000000000548064B1B1AD90FA7
:1005B00001EBA301491002D0034B03B11847704768
:1005C000C8010020C80100200000000010B5064C42
:1005D000237843B9FFF7DAFF044B13B10448AFF3B4
:1005E00000800123237010BD1402002000000000D1
:1005F00024B4000808B5054B1BB105490548AFF305
:100600000080BDE80840FFF7CFBF00BF000000003A
:100610001802002024B4000808B5064B93F8803077
:10062000052B00D108BD00F0AAFA024B002283F886
:100630008020F7E73402002000B583B0054B00931B
:10064000054B01936946054800F05EFF03B05DF875
:1006500004FB00BF280003207B0600086106000899
:1006600010B504464068083008F0FEFA10B10123C6
:10067000237010BD00232370FBE708B528B10128C3
:1006800006D1032002F090FE02E0032002F07EFE7D
:1006900008BD000008B50F4BD3F88025B2F1FF3F2D
:1006A00010D0D3F884350C480270C2F30722427090
:1006B0008370C3F30722C270C3F3074202711B0E9B
:1006C000437108BD002002F0C5FC0028F9D10348A1
:1006D000F7E700BF0070FF1FB802002044B6000813
:1006E00070B588B00024ADF8184000F0B7FDFFF7F2
:1006F000D1FF02460621204600F030FD2A4A102193
:10070000182000F02BFD294A1021082000F026FDBA
:100710001821012000F052FD00F0F1FB0DF11A0349
:10072000019307AB00930DF11E030822214601201F
:1007300000F02FFB1E4B009308232246BDF81C102F
:10074000BDF81E0000F0ADFC06AB0093022322466C
:10075000BDF81A10BDF81E0000F0A3FC02221146DD
:10076000204600F09BFD134D01262E70304600F010
:1007700081FA6E7008232B7110226A71EC700E4999
:10078000A960AC70049403910294019200932346F3
:1007900032463146204600F093FAAB780BB908B0E8
:1007A00070BD00F062FBFAE734B6000824B600081A
:1007B000C0B400083402002007B2010000B589B0BF
:1007C0000B4B83F880000020069005900490039066
:1007D0000290019000900346A022802100F0F0F9E1
:1007E0000449072000F014FB09B05DF804FB00BFCA
:1007F000340200200800002030B591B00DF1040C47
:100800001E4C0FCCACE80F000FCCACE80F000FCCA7
:10081000ACE80F0094E80700ACE80300ACF8002057
:10082000FFF70AFF0121022002F086FD144A002191
:10083000022002F0A5FE01A802F020FCD8B9FFF7C3
:100840004FFF08F0F9F90F4C002584F880504FF65F
:10085000FF73E3820C4A2946012002F091FE062034
:1008600000F0D5FC00F047FD657625760120FFF706
:10087000A5FF11B030BD02F02FF9E0E73CB400084D
:100880002D150008340200201906000808B5437829
:100890003E2B1BD0FF2B35D0052B0FD18288294B47
:1008A000DB8A9A420CD00120FFF788FF26480123FB
:1008B0000370244BDB8A438000F01CFD012008BD3F
:1008C000204B0022DA8283F88020ECE7C378012BEA
:1008D000F4D11C4B93F88030042B0ED0194B052219
:1008E00083F88020B0F80530164AD38216480022DB
:1008F0000270438000F0FEFCE0E7124B062283F812
:100900008020EFE7B0F8033040F2094293420DD067
:1009100040F60E4293420FD040F202429342CDD1B4
:100920000A49084BD88A00F00BFAC7E70121054BAA
:10093000D88A00F0BBFAC1E7024BD88A00F0E6FB88
:10094000BCE700BF340200203002002007B20100E3
:1009500008B50021022002F005FD08BD08B5012000
:1009600002F02EFD08BD08B5012002F0DDFD08BD36
:1009700010B588B00DF1040C094C0FCCACE80F0099
:1009800094E80700ACE803002CF8022B120C8CF85A
:10099000002008F037FB01A802F07FFB08B010BD73
:1009A00078B40008054BCA225A6253225A629A68E8
:1009B00022F007029A60FF225A6270470028004026
:1009C0007047000008B5002002F044FB68B181794F
:1009D0004FF0B042054BC2F89C30D2F89C3023F463
:1009E0007C5343EA0123C2F89C3008BDFECAFECA0C
:1009F00008B54FF0B042936843F40043936002F0AF
:100A000091FC054AD2F8803023F0070343F0040339
:100A1000C2F8803008BD00BF0004005800B589B09E
:100A200008F0EAF90E4A0021042002F0A9FD0D4B5E
:100A300000930D4B019369460C4802F0DDFB0C4B13
:100A400002930C4B03930C4B049340F23C530593DD
:100A500002A808F0A5FA08F0CBF909B05DF804FB8C
:100A60001D32000810040320C1090008DD0A000837
:100A7000F8010320040303201C05032000B585B002
:100A80000023009301930293039343685B7B23B19C
:100A9000012B1ED005B05DF804FBFFF769FF0F23A3
:100AA0008DF800307F238DF802300B4A13681B0C41
:100AB000ADF80C301368C3F30B03ADF80E30684685
:100AC00002F0FAFAFFF798FE0021012002F034FC50
:100AD000E0E700230370DDE7002004E04368B3F89B
:100AE0000B30B3F5124F00D0704710B584B00446F8
:100AF000684602F0EFFA2046FFF7C0FF04B010BDD1
:100B000008B5034B4FF400421A61FFF75BFF08BDC5
:100B100000400058034AD2F8903043F05003C2F826
:100B2000903070470008005808B5FFF7F3FFFFF753
:100B300039FF08BD08B5FFF7F7FFFFF759FF034975
:100B4000002001F0FDF8FFF769FF08BD2C0500202B
:100B500008B54FF0FF3002F04BFC08BD704708B5F8
:100B60000021042002F0FEFB08BD08B5022002F0BF
:100B700027FC08BD08B5022002F0D6FC08BD10B560
:100B800088B000248DF807401822214602A802F000
:100B90005DFA3F23ADF808308123ADF80A300DF13E
:100BA0000703069301230793214602A800F0FEFCE9
:100BB000A04203DB9DF8070008B010BDFF20FBE753
:100BC0002DE9F04FCBB09C469DF854619DF85C51E7
:100BD00006F1080A04AC04EB0A0B77190937E3198C
:100BE00001930DF10F094FF000088DF80F808DF87B
:100BF0001000ADF81110ADF813208DF815C09DF858
:100C000050318DF816308DF817603246569906A887
:100C100002F018FA04F80A5009362A4658990BF1DE
:100C2000010002F00FFA3544BDF86431E353BDF81A
:100C30006831019A538004351822414644A802F0D5
:100C400005FA3F23ADF810318323ADF812314694F5
:100C50004795CDF8209101234993414644A800F0DF
:100C6000A5FC404504DB9DF80F004BB0BDE8F08FBC
:100C7000FF20FAE770B5C8B00DF1070500248DF824
:100C8000074002AE8DF808001822214642A802F063
:100C9000DDF93F23ADF808318523ADF80A314496DC
:100CA0000123459346954793214642A800F07EFCD8
:100CB000A04203DB9DF8070048B070BDFF20FBE7B2
:100CC00070B5C8B00DF1070600258DF8075002ACCD
:100CD0008DF808008DF809108DF80A208DF80B307A
:100CE0009DF830318DF80C309DF834318DF80D3091
:100CF0009DF838318DF80E304F9BCDF80F309DF8B0
:100D000040318DF813301822294642A802F09EF98E
:100D10003F23ADF808318623ADF80A3144940C2303
:100D20004593469601234793294642A800F03EFC8E
:100D3000A84203DB9DF8070048B070BDFF20FBE729
:100D400070B5C8B00DF1070600248DF8074002AD5C
:100D5000ADF80800CDF80A101822214642A802F08A
:100D600075F93F23ADF808318823ADF80A31449571
:100D700006234593469601234793214642A800F057
:100D800015FCA04203DB9DF8070048B070BDFF20B2
:100D9000FBE72DE9F041C8B007460E4615469846D8
:100DA00007220021684602F051F902AC8DF8087064
:100DB0008DF809608DF80A501822002142A802F02F
:100DC00045F93F23ADF808318A23ADF80A31449440
:100DD00003234593CDF818D107234793002142A858
:100DE00000F0E4FB002811DB9DF8000058B9BDF8C5
:100DF0000130A8F80030BDF803204E9B1A80BDF8E2
:100E000005204F9B1A8048B0BDE8F081FF20FAE72B
:100E1000F0B5C9B004460DF1070600258DF807505E
:100E200002AF8DF8080002460DF1090002F00AF940
:100E300001341822294642A802F008F93F23ADF8F0
:100E400008318E23ADF80A31449745944696012324
:100E50004793294642A800F0A9FBA84203DB9DF86E
:100E6000070049B0F0BDFF20FBE710B588B00024B3
:100E70008DF807401822214602A802F0E7F83F2328
:100E8000ADF808309223ADF80A300DF10703069350
:100E900001230793214602A800F088FBA04203DB50
:100EA0009DF8070008B010BDFF20FBE770B5C8B083
:100EB0000DF1070600248DF8074002ADADF80800DB
:100EC0008DF80A101822214642A802F0BFF83F23ED
:100ED000ADF80831A523ADF80A31449503234593B5
:100EE000469601234793214642A800F05FFBA042AB
:100EF00003DB9DF8070048B070BDFF20FBE710B58D
:100F000088B000248DF807401822214602A802F07C
:100F10009DF83F23ADF8083040F20113ADF80A30D8
:100F20000DF10703069301230793214602A800F061
:100F30003DFBA04203DB9DF8070008B010BDFF2079
:100F4000FBE72DE9F041C8B00446884617461E4627
:100F5000012813D002280FD0012502AB1D44032223
:100F6000002101A802F072F88DF80840012C07D08A
:100F7000022C32D1102404E01125EEE70325ECE722
:100F80000224224641460DF1090002F05BF82F7061
:100F90006E7003341822002142A802F057F83F2354
:100FA000ADF808314FF48173ADF80A3102AB4493C8
:100FB000459401AB469303234793002142A800F0D8
:100FC000F5FA00280BDB9DF8040018B9BDF80520E0
:100FD0004E9B1A8048B0BDE8F0819720FAE7FF20C9
:100FE000F8E72DE9F041C8B006460C4690461F468A
:100FF000012915D0022911D0032502AB1D4403227B
:10100000002101A802F022F8ADF808608DF80A402E
:10101000012C07D0022C40D1102404E01325ECE76A
:101020000525EAE70224224641460DF10B0002F0B5
:1010300009F82F809DF83831AB709DF83C31EB708A
:101040009DF840312B719DF844316B719DF848310A
:10105000AB710A341822002142A801F0F7FF3F23A8
:10106000ADF808314FF48273ADF80A3102AB449306
:10107000459401AB469303234793002142A800F017
:1010800095FA00280BDB9DF8040018B9BDF805207F
:10109000539B1A8048B0BDE8F0819720FAE7FF2003
:1010A000F8E7F0B5C9B01C460DF1070700268DF82A
:1010B000076002ADADF80800ADF80A108DF80C20FD
:1010C0008DF80D301A464E990DF10E0001F0BAFF61
:1010D00006341822314642A801F0B8FF3F23ADF88C
:1010E00008314FF48373ADF80A314495459446971F
:1010F00001234793314642A800F058FAB04203DB7F
:101100009DF8070049B0F0BDFF20FBE770B5C8B0FF
:101110000DF1070500248DF8074002AEADF8080078
:101120001822214642A801F091FF3F23ADF8083173
:1011300040F22513ADF80A314496022345934695B3
:1011400001234793214642A800F030FAA04203DB76
:101150009DF8070048B070BDFF20FBE7F0B5C9B0AF
:101160000C4611460DF1070700258DF8075002AE19
:101170008DF808008DF8094022460DF10A0001F0B3
:1011800061FF02341822294642A801F05FFF3F2385
:10119000ADF808310C23ADF80A31449645944697D2
:1011A00001234793294642A800F000FAA84203DB36
:1011B0009DF8070049B0F0BDFF20FBE770B5C8B04F
:1011C0000DF1070600248DF8074002AD8DF80800E8
:1011D0008DF809101822214642A801F037FF3F235D
:1011E000ADF808310F23ADF80A3144950223459339
:1011F000469601234793214642A800F0D7F9A04222
:1012000003DB9DF8070048B070BDFF20FBE770B519
:10121000C8B00DF1070500248DF8074002AEADF807
:1012200008001822214642A801F010FF3F23ADF824
:1012300008311823ADF80A314496022345934695A8
:1012400001234793214642A800F0B0F9A04203DBF6
:101250009DF8070048B070BDFF20FBE710B588B0CF
:1012600000248DF807401822214602A801F0EEFE66
:101270000323ADF80830ADF80A300DF107030693EB
:1012800001230793214602A800F090F9A04203DB56
:101290009DF8070008B010BDFF20FBE770B5C8B08F
:1012A0000DF1070600258DF8075002AC8DF80800F7
:1012B0008DF809108DF80A201822294642A801F05D
:1012C000C5FE0823ADF808313123ADF80A31449446
:1012D00003234593469601234793294642A800F0ED
:1012E00065F9A84203DB9DF8070048B070BDFF20F8
:1012F000FBE77047704770474378FF2B01D0002011
:101300007047B0F8033040F61342934210D040F6D5
:101310001B42934215D040F60142934221D1B0F8CE
:101320000720134B5B8801339A421CD00020704782
:10133000B0F807200E4B5B8801339A4215D000208D
:10134000704700B587B001238DF80430B0F8053040
:10135000ADF8143001A8FFF7CCFF002007B05DF80E
:1013600004FB00207047012070470120704700BF38
:10137000C002002030B58BB03A4807F06BFC8F23D9
:101380008DF81830E5238DF81930B3238DF81A3015
:10139000D5238DF81B302E238DF81C307F238DF83C
:1013A0001D304A238DF81E3098238DF81F302A23D4
:1013B0008DF8203048238DF821307A238DF82230A3
:1013C000CC238DF8233000248DF824408DF825405F
:1013D0008DF826408DF82740234D009503230122E8
:1013E00006A90220FFF7ADFD19238DF81830ED2373
:1013F0008DF8193082228DF81A20AE228DF81B202C
:101400008DF81C3021238DF81D304C238DF81E30B3
:101410009D238DF81F3041238DF8203045238DF812
:10142000213022238DF822308E238DF823308DF841
:1014300024408DF825408DF826408DF8274035F85A
:10144000020B059504941023039307230293019440
:1014500008230093054B1B8806AA0221FFF7C1FD54
:101460000BB030BDF9120008C002002010000020AF
:1014700008B520B9054B1B6803B1984708BD034B5D
:101480001B68002BFAD001209847F7E7C80200201C
:1014900010B584B004460A4807F058FB094B1C609D
:1014A000094807F053FB094B01221A70084B1B68CF
:1014B00023B10294074A00926846984704B010BDD1
:1014C000CC020020CC010020D0010020C801002067
:1014D000D40200205916000810B50B461146084AE0
:1014E0001468A4F80900E3721A4604F10C0009F02C
:1014F0001CF9044B1B6900210846984710BD00BF2A
:10150000CC010020D402002010B50C464A68054BDF
:101510001A60054BD861184600F0B8F82068FFF74C
:10152000B7FF10BDC8020020D402002000B585B06E
:101530001B4807F00EFB10B91A4B1B784BB9184823
:1015400007F007FB10B9174B1B7823BB05B05DF8FC
:1015500004FB03A9124807F02CFB134BDB698BB18A
:10156000039A029201228DF8042001A898479DF861
:1015700004200C4B1A700B4B1B783BB1039807F0FF
:1015800033FDDCE7074B01221A70F4E703990448A6
:1015900007F0EBFAD3E70248FFF7DAF9D6E700BF26
:1015A000D0010020C8010020D4020020F0B583B093
:1015B00007460020FFF75CFF7D883B88C5F30905DF
:1015C00045EA8325ADB2224B01221A70BA68397BF5
:1015D0002846FFF781FF0026002E33D148F2E800AD
:1015E000FFF7C1F905E0B4F80D30AB4216D0237B0C
:1015F00033BB184807F0ADFA0028EDD101A9154812
:1016000007F0D7FA019C637A0F2BECD0A389AB4289
:1016100008D0E37A002BECD00126EAE73B69E27AB6
:101620001A70E4E7A27A033AD2B27B699A42A8BF61
:101630001A467A6104F10E01386909F076F8E8E794
:101640000126D6E70120FFF713FF002003B0F0BD0D
:10165000C4020020CC02002010B50146437A0E3BA4
:10166000DBB2012B07D9074C204607F08AFA204647
:10167000FFF76EF910BD044807F083FA0020FFF76A
:101680006DF9F7E7D0010020CC020020024B036087
:10169000024B0361704700BF598E0008A18E0008FD
:1016A00010B5EFF3108272B6064C636843F4002362
:1016B000636082F31088044B1B6898474FF4002343
:1016C000A36010BD000C0058F402002082B04FF05F
:1016D000B043D3F8502142F48012C3F85021D3F81C
:1016E000503103F480130193019B0A4B1A6A42F4B0
:1016F00000721A62D3F8D42042F40072C3F8D420E6
:1017000040BF20BF044AD36843F40043D36002B013
:10171000704700BF000800580004005800B583B0AF
:101720004FF0B0431A6D42F480121A651B6D03F43A
:1017300080130193019B094B1A6842F001021A6061
:101740001A6842F480321A602C2002F027FC2D2007
:1017500002F024FC03B05DF804FB00BF000C00584D
:10176000EFF3108172B6044A536823F0010353600B
:1017700081F31088704700BF000C0058024B4FF4F3
:1017800080329A60704700BF000C005808B5EFF334
:10179000108172B6044A536843F40013536081F316
:1017A000108807F0A3FB08BD000C005808B507F02F
:1017B00085FB024B01229A6008BD00BF000C005857
:1017C000EFF3108172B6044A536823F002035360AA
:1017D00081F31088704700BF000C0058064B4FF48F
:1017E00000329A60EFF3108172B65A6822F4003228
:1017F0005A6081F310887047000C005808B5EFF369
:10180000108172B6044A536843F40033536081F385
:10181000108807F09FFB08BD000C005808B5144B5A
:10182000DB6813F0020F04D1114B5B6813F4003F27
:1018300014D00F4BDB6813F0080F04D10C4B5B681E
:1018400013F4002F0DD00A4BDB6813F0200F04D1E6
:10185000074B5B6813F4001F06D008BDFFF7CEFFEF
:10186000FBE7FFF71DFFF8E7FFF790FFF5E700BF85
:10187000000C005808B507F07BFB024B02229A606F
:1018800008BD00BF000C005808B50C4BDB6813F016
:10189000080F05D18047094B4FF400229A6008BD1C
:1018A000074B1860EFF3108172B6044A536823F4B3
:1018B0000023536081F31088F1E700BF000C00584B
:1018C000F4020020EFF3108172B6044A536823F04B
:1018D0000803536081F31088704700BF000C005864
:1018E00008B507F0A1FB024B08229A6008BD00BFB3
:1018F000000C005808B5144BDB6913F0020F0AD135
:10190000114BDB6913F0010F0DD10F4BDB6913F0A5
:10191000080F10D108BD0C4B5B6813F0020FEFD11C
:10192000FFF7A8FFF6E7084B5B6813F0010FECD157
:10193000FFF73CFFEEE7044B5B6813F0080FE9D1BB
:10194000FFF7CEFFE6E700BF000C0058064A936A97
:101950009BB2906A80B203E0034B9A6A034690B24E
:101960008342F9D1704700BF0028004001EB4102DB
:101970000D4B03EBC2035B7DDBB2062B05D003EB03
:10198000430C094A02EBCC021075074A00EB400CED
:1019900002EBCC0C8CF815308CF8141001EB4101E3
:1019A00002EBC1025075704708030020174B1B78EB
:1019B000DBB28B421DD0164B01EB410203EBC2029E
:1019C000127D5FFA82FC02EB420203EBC202507509
:1019D00000EB400203EBC202517500EB400203EB47
:1019E000C20282F814C001EB410103EBC103187578
:1019F0007047074B00EB400203EBC202517501EB4D
:101A0000410103EBC1031875704700BF05030020B7
:101A10000803002010B4234B1B78DBB283422CD088
:101A2000214C00EB400204EBC20292F814C0537D3B
:101A3000DBB2527DD2B20CEB4C0C04EBCC046275E1
:101A4000062B0BD0184A00EB400402EBC404247DA3
:101A5000E4B203EB430302EBC302147500EB400056
:101A6000114B03EBC00301221A730E4B1B78DBB240
:101A7000062B10D05DF8044B70470A4C2378DBB27C
:101A80000A4A137000EB4002074B03EBC2035B7D75
:101A9000DBB22370E2E70029ECD1054B4FF0FF32B7
:101AA0001A60E7E705030020080300200403002074
:101AB0000003002008B5104B1B68B3F1FF3F02D1B3
:101AC000002080B208BDFFF741FF0B4B1B6883422B
:101AD0000AD3094B1B681B1A084A107803FB00F055
:101AE000074B1B78D840ECE7064B1A88121A024BBA
:101AF0001B681344F0E700BF00030020FC02002035
:101B0000FD020020FA02002070B50446314B1B781C
:101B1000DBB2062B13D12F4A1378DBB22E490B70A0
:101B2000107000EB40042D4B03EBC40406236375D7
:101B30002B4B4FF0FF321A600025284670BDFFF78F
:101B4000B9FF0546254B04EB440203EBC202916842
:101B50000144916004EB440203EBC20290681D4A09
:101B6000127802EB420203EBC2039B68834225D842
:101B7000184B1B78D9B203EB4303184A02EBC3039B
:101B80005B7DDBB20CE0154A01EB410102EBC101C8
:101B90004B7DD9B203EB430302EBC302537DDBB2AF
:101BA000062B07D003EB43030C4A02EBC3039B68ED
:101BB0008342E8D92046FFF7D9FEBEE7054E3178CB
:101BC0002046FFF7F3FE3378DBB2034A137034701C
:101BD000B3E700BF05030020040300200803002032
:101BE0000003002010B548B3044601282ED9013C5B
:101BF000A4B2194B1B68DA6812F0040FF9D0DA6846
:101C0000D2B262F49062DA60144B4FF40022DA60D0
:101C1000032002F0EDF9124A53696FF30F031C43DE
:101C20005461FFF793FE0F4B18600B4B1A689368D3
:101C300043F480639360AFF3008010BDFFF786FE2E
:101C4000084B1860032002F0C5F9F6E7064B1B7835
:101C5000012BCCD1CDE700BF2C0500200008005897
:101C60000028004000030020FD02002038B52E4B64
:101C70009B6813F4806F05D02C4B1B68DB6813F056
:101C8000040FF9D1294B1A68936823F48063936099
:101C9000274B1B78DCB203EB4303264A02EBC3035A
:101CA0009D68FFF707FF8446A84204D9224B012212
:101CB0001A70002024E0214B1B8810FA83F3AB42FA
:101CC00006D21E4B188880B21B4B00221A7017E0F8
:101CD000A8B2A0EB0C0080B2174B01221A700FE0E3
:101CE00004EB4404134A02EBC404A268A2EB0C0206
:101CF000A26003EB43030F4A02EBC3035C7DE4B233
:101D0000062C0ED0234604EB44010A4A02EBC10222
:101D100092689445E4D9074A02EBC1040022A2600C
:101D2000E7E7FFF75FFF38BD002800402C050020E3
:101D30000503002008030020FE020020F802002016
:101D400010B5484B1B68CA225A6253225A62464B4E
:101D50009A6842F020029A609A6802F00702C2F183
:101D60000402D2B241490A701B6903F4FE034FF426
:101D7000FE0191FAA1F1002931D0B1FA81F1CB40F5
:101D8000DBB20133DBB23A490B7037490969C1F361
:101D90000E010131374C2180013901FB03F3A3F51A
:101DA000A073D3404FF6FE7293421AD9324B4FF6CE
:101DB000FF721A80314B1A6842F400221A60D3F87D
:101DC000802042F40022C3F8802000283FD12C4B11
:101DD00001221A702B4B4FF0FF321A600EE02021C7
:101DE000CDE79BB2244A1380E4E700EB4002264B88
:101DF00003EBC20300221A730130C0B20528F4D9E4
:101E0000224B06221A70174C2268936823F48063D1
:101E10009360D368DBB263F49063D360174B4FF4E5
:101E20000022DA60032002F0E3F82268936843F4AA
:101E3000804393600B4B1B68FF225A6200220321F0
:101E4000084602F09BF8032002F0A8F810BD054BED
:101E50001B68DB6813F4806FECD0032002F0BAF843
:101E6000E8E700BF2C05002000280040FD0200200C
:101E7000FC020020FA020020F802002000080058AE
:101E8000FE020020000300200803002005030020BC
:101E900038B50446EFF3108572B6032002F082F8DD
:101EA000254B1B68CA225A6253225A6204EB440231
:101EB000224B03EBC2031B7BDBB2022B09D01E4B70
:101EC0001B68FF225A62032002F068F885F310882D
:101ED00038BD00212046FFF79DFD194B1B78DBB272
:101EE000062B07D0174A1278D2B29A42E7D0FFF7F2
:101EF000BDFEE4E7144B9B6813F4806F05D00E4BD6
:101F00001B68DB6813F0040FF9D10B4B1A68936858
:101F100023F480639360D36813F0040FFBD0D3687D
:101F2000DBB263F49063D360084B4FF40022DA60B5
:101F3000032002F05DF8C2E72C0500200803002012
:101F4000050300200403002000280040000800587A
:101F500070B504460D4600EB4002214B03EBC20373
:101F60001B7BDBB2022B35D0EFF3108672B6032059
:101F700002F018F81B4B1B68CA225A6253225A629D
:101F800004EB4402164B03EBC20302221A739D605A
:101F90005D602046FFF7B8FD134B1B78DBB2134A98
:101FA0001278D2B29A4218D10D4B04EB440203EBE3
:101FB000C2029268121A04EB440403EBC4039A6051
:101FC000084B1B68FF225A62032001F0E7FF86F3EB
:101FD000108870BDFFF75CFFC6E7FFF747FEEFE72D
:101FE000080300202C050020050300200403002026
:101FF00008B5904708BD0000F8B5EFF3108572B63C
:10200000314B1B68CA225A6253225A629A6822F4E0
:1020100080629A602D4A1478E4B204EB4402D10045
:102020002B4A0A44127BD2B2022A13D0DA6812F089
:10203000040FFBD0DA68D2B262F49062DA60254B0A
:102040004FF40022DA6085F310881F4B1B68FF22D3
:102050005A62F8BD1E4A04EB4401CB00D118D75890
:102060000E691D4B1B7853B34B7BDBB2012B10D099
:1020700085F310882046FFF70BFF134B1B68CA221D
:102080005A6253225A623A4621463046FFF7B0FF61
:10209000DBE701212046FFF7BDFC85F3108804EB48
:1020A0004403DA000A4B134459682046FFF750FFF7
:1020B000054B1B68CA225A6253225A62E3E7FFF7B4
:1020C000D5FD85F31088C0E72C050020050300200E
:1020D0000803002000080058FE02002010B5284B1D
:1020E0001B78FBB1274C0121207800F059F92278A8
:1020F000254B1A60254B1978002000F0EDFB0446B3
:10210000642818D81F4A13780133DBB213701C4AB5
:10211000127852B3212B28D90023194A1370194A77
:1021200013701DE0174C0021207800F039F9227857
:10213000174B1A60DEE7174808F00EFA104B1B78B1
:102140007BB1104A117873B90E4B1A7823461248A6
:1021500008F002FA0A2008F011FA104B02221A7055
:1021600010BD0021EFE70022F0E7002AF8D12C2B68
:10217000F6D9034B01221A70024B00221A70EFE7C6
:10218000120000209803002014000020A00300206B
:10219000A4030020CCB40008D8B40008B003002089
:1021A00038B5144C204608F0D7F9134808F0D4F994
:1021B0000A2008F0E3F900F0EBFA00F00BFB0F4BFC
:1021C00000221A600021596001251D720C4B1A6013
:1021D00059601A729FED0B0A00F00CFB0A4B1D7040
:1021E000204608F0B9F9094808F0B6F90A2008F0C5
:1021F000C5F938BDCCB40008FCB4000814000020B8
:10220000A40300200024F448B00300201CB50008FB
:1022100038B504460D461BB3144B93E8070084E819
:102220000700134B1D7007EE905AB8EEE70ADFED7A
:10223000117A20EE270ADFED107A30EE270A0F4BD5
:1022400083ED000A00F0D6FA2946002000F044FB96
:1022500007EE900AF8EE677AC4ED017A204638BDA1
:10226000074B93E8070084E80700DAE71400002032
:10227000A0030020005043470050C3479C030020A8
:10228000A40300202DE9F0412DED028B8AB007AFA9
:10229000304EDFF8D8800123326898F800103846B5
:1022A000FFF7B6FF04AD2C4C0023226898F800100D
:1022B0002846FFF7ADFF97E8070086E8070095E896
:1022C000070084E807009DED088AF2EE047A28EE04
:1022D000277ABCEEC77A17EE103AADF80030DDED84
:1022E000058A68EEA77AFCEEE77A17EE903AADF829
:1022F00002304FF47A73ADF80A300023ADF80430A1
:10230000ADF80630ADF80830ADF80C30ADF80E3051
:10231000684600F035FBDFED117AB4EEE78AF1EEA6
:1023200010FA04D5F4EEE78AF1EE10FA04D40AB0FC
:10233000BDEC028BBDE8F081094808F00DF90948B1
:1023400008F00AF90A2008F019F9074B01221A705F
:10235000EDE700BF14000020A40300200000484265
:10236000CCB4000844B50008B0030020A00300204E
:1023700008B50A4B1B78012B05D0022B06D043B9B8
:10238000FFF70EFF08BDFFF7A9FEFBE7FFF77AFF97
:10239000F8E7024B00221A70F4E700BFB0030020F8
:1023A00010B582B0002306E003F108026A4401245C
:1023B00002F8084C2344052BF6D9002900F0D580FB
:1023C000212800F2DF81212800F2DC81DFE800F023
:1023D000112C31363B40454A4F53585D62676C7152
:1023E000767A7F84898E93989DA1A6ABB0B5BABF4B
:1023F000C4C800248DF8004004F001024FF480614D
:10240000B74801F0DDFEC4F340024FF400414FF045
:10241000904001F0D5FEA2084FF480414FF090406B
:1024200001F0CEFE0024ABE100238DF80030012442
:10243000E2E700238DF800300224DDE700238DF869
:1024400000300324D8E700238DF800300424D3E7BC
:1024500000238DF800300524CEE700238DF80030EE
:102460000624C9E700238DF800300724C4E70024C0
:102470008DF80140C0E700238DF801300124BBE74F
:1024800000238DF801300224B6E700238DF80130D7
:102490000324B1E700238DF801300424ACE70023C6
:1024A0008DF801300524A7E700238DF801300624BC
:1024B000A2E700238DF8013007249DE700248DF862
:1024C000024099E700238DF80230012494E70023AD
:1024D0008DF8023002248FE700238DF802300324A8
:1024E0008AE700238DF80230042485E700238DF865
:1024F0000230052480E700238DF8023006247BE7B4
:1025000000238DF80230072476E700248DF803407D
:1025100072E700238DF8033001246DE700238DF866
:102520000330022468E700238DF80330032463E7B7
:1025300000238DF8033004245EE700238DF8033078
:10254000052459E700238DF80330062454E70023BF
:102550008DF8033007244FE700248DF804404BE743
:1025600000238DF80430012446E72C2800F20A816C
:102570002C2800F20781DFE800F0171C21262B3001
:1025800035393E43484D52575C60656A6F74797EB9
:1025900083878C91969BA0A5AAAEB5BABFC4C9CEBD
:1025A000D3D7DCE1E6EBF00000238DF80030022405
:1025B00022E700238DF8003003241DE700238DF867
:1025C0000030042418E700238DF80030052413E7B9
:1025D00000238DF8003006240EE700238DF800302C
:1025E000072409E700248DF8014005E700238DF852
:1025F0000130012400E700238DF801300224FBE6BE
:1026000000238DF801300324F6E600238DF8013015
:102610000424F1E600238DF801300524ECE60023C4
:102620008DF801300624E7E600238DF801300724F9
:10263000E2E600248DF80240DEE600238DF8023049
:102640000124D9E600238DF802300224D4E60023C9
:102650008DF802300324CFE600238DF802300424E5
:10266000CAE600238DF802300524C5E600238DF864
:1026700002300624C0E600238DF802300724BBE6B2
:1026800000248DF80340B7E600238DF803300124C1
:10269000B2E600238DF803300224ADE600238DF866
:1026A00003300324A8E600238DF803300424A3E6B6
:1026B00000238DF8033005249EE600238DF80330B7
:1026C000062499E600238DF80330072494E60024BD
:1026D0008DF8044090E600238DF8043001248BE649
:1026E0000008004800238DF80430022484E600230B
:1026F0008DF8043003247FE600238DF80430042491
:102700007AE600238DF80430052475E600238DF861
:102710000430062470E600238DF8043007246BE6AD
:1027200000248DF8054067E600238DF8053001246C
:1027300062E600238DF8053002245DE600238DF863
:102740000530032458E600238DF80530042453E6B1
:1027500000238DF8053005244EE600238DF8053062
:10276000062449E604F108036B4413F8082C064BD1
:1027700033F81410054B53F8240001F021FD013407
:10278000052CEFD902B010BD200000202C00002045
:1027900010B50D4C0021204604F048FE236880222D
:1027A000DA6240225A63094807F0D6FE04A3D3E94F
:1027B0000023074807F0D0FE0A2007F0DFFE10BD17
:1027C0000000000080841E41E0040020CCB400081A
:1027D00068B5000808B5054807F0BEFE044807F0D4
:1027E000BBFE0A2007F0CAFE08BD00BFCCB400083B
:1027F00090B50008DFED1A7AB4EEE70AF1EE10FAB0
:102800002CD408B52DED028BB0EE408ADFED157AA1
:10281000B4EEE70AF1EE10FA02DDBDEC028B08BD62
:102820009FED117AC7EE007AFCEEE77A17EE903A48
:102830009BB20E4A1268D3625B0853630C4807F0E0
:102840008BFE18EE100AFDF72FFE02460B460948D4
:1028500007F082FE0A2007F091FEDEE7704700BF16
:102860000050C347002474490024744CE004002045
:10287000CCB40008A0B5000830B583B0002411E046
:10288000134D284601F0D8FA4FF0FF31284600F0EA
:10289000F7FF284601F04EF802AB03EB440323F8A0
:1028A000080C0134022CEBD90023184606E002AADA
:1028B00002EB430232F8082C10440133022BF6D904
:1028C000044BA3FB0030C0F34F0003B030BD00BF8A
:1028D000E0050020ABAAAAAA38B572B6264B402262
:1028E0009A6130B90023B3F5C87F08DA00BF01331D
:1028F000F9E70023632B02DC00BF0133FAE74FF056
:1029000090434FF480329A61002301E000BF01330D
:1029100041F287329342F9DDFFF7AEFF04464FF0F4
:10292000904301229A61002301E000BF0133632B31
:10293000FBDD4FF090434FF480329A61002301E0B9
:1029400000BF0133C72BFBDD0C4D284601F074FAA4
:102950004FF0FF31284600F093FF284600F0EAFFD1
:1029600083B2E01A80B2643080B262B64FF0904316
:1029700001229A6138BD00BF00040048E005002034
:1029800010B50446064807F0E7FD63896288218890
:10299000044807F0E1FD0A2007F0F0FD012010BD1A
:1029A000CCB40008B8B500082DE9F0418AB0002485
:1029B000059406940794089409944FF0B043DA6C98
:1029C00042F00402DA64DA6C02F004020492049A1F
:1029D000DA6C42F08002DA64DA6C02F08002039270
:1029E000039ADA6C42F00202DA64DA6C02F0020254
:1029F0000292029ADA6C42F00102DA64DA6C02F0B6
:102A000001020192019ADA6C42F00802DA64DB6C8E
:102A100003F008030093009B22464FF440414FF01F
:102A2000904001F0CDFB284E22464FF4A051304695
:102A300001F0C6FBDFF89C8022460321404601F0EE
:102A4000BFFB224F22463821384601F0B9FB4FF434
:102A5000005305930694079405A9304601F0D6FA71
:102A6000082305930694079405A9194801F0CEFAA6
:102A70004FF440430593012506950794089405A952
:102A80004FF0904001F0C2FA4FF4A0530593069521
:102A90000794089405A9304601F0B8FA032305937A
:102AA00006950794089405A9404601F0AFFA38232B
:102AB000059306950794089405A9384601F0A6FAEF
:102AC0000AB0BDE8F08100BF0008004800040048DB
:102AD000001C0048000C004872B6FEE708B5044828
:102AE000044B036001F05CFC00B908BDFFF7F4FF84
:102AF00050050020000C005800B587B0002300935B
:102B0000019302930393049305931848184A0260B3
:102B100043608360C36003610422426103764376AD
:102B20000122C26180F820308362C36280F83030B5
:102B3000436380F8383000F0B7FD90B90D4B009337
:102B400006230193002302937F220392042204921E
:102B500005936946054800F0F1FE20B907B05DF81D
:102B600004FBFFF7B9FFFFF7B7FF00BFE005002048
:102B7000000004500800900C08B51148114B036088
:102B8000114B4360002383600122C26003614361F3
:102B90008361C361036201F027FB50B9002108483B
:102BA00001F086FB38B90021054801F0AFFB20B9E0
:102BB00008BDFFF791FFFFF78FFFFFF78DFF00BF05
:102BC0008C05002000540040B57DB11010B59CB0BC
:102BD0000024189419941A941B941594169417941D
:102BE0000E940F941094119412941394149434220C
:102BF000214601A807F00DFD3748384B03604460BB
:102C000084604FF6FF73C36004614461846104F023
:102C10009DF900284FD14FF48053189318A92E48DE
:102C200004F074FB002848D12B4804F0EFF9002889
:102C300045D1294804F0BAF9002842D10023159360
:102C40001693179315A9244804F088FC00283AD15C
:102C500060230E9300220F921092119212921392FF
:102C600014920EA91C4804F0A6FA00282DD10023C6
:102C70000E9308220EA9184804F060FA38BB00230E
:102C8000019302930393049305934FF40052069229
:102C90000793089309934FF000720A920B930C93D9
:102CA0000D9301A90C4804F08DFC90B90A4801F07D
:102CB000D1FC1CB010BDFFF70FFFFFF70DFFFFF7B2
:102CC0000BFFFFF709FFFFF707FFFFF705FFFFF710
:102CD00003FFFFF701FF00BFE0040020002C0140CC
:102CE00010B594B000240D940E940F941094119488
:102CF0001294139434222146684607F08AFC224835
:102D0000224B0360446084604FF6FF73C36004612C
:102D10004461846104F01AF900282BD11A4804F0A8
:102D200075F948BB0821184804F0A0F930BB6023AE
:102D30000D9300220E920F92109211921292139202
:102D40000DA9114804F037FAD0B90023009301937C
:102D50000293039304934FF40052059206930C934D
:102D60006946094804F02EFC60B9074801F072FC7E
:102D700014B010BDFFF7B0FEFFF7AEFEFFF7ACFEDC
:102D8000FFF7AAFEFFF7A8FE480400200044014018
:102D900008B51548154B03604FF4E1334360002339
:102DA0008360C36003610C2242618361C36103627B
:102DB0004362836204F0C7FE70B900210A4804F040
:102DC0003AFF58B90021084804F05AFF40B90648B4
:102DD00004F012FF30B908BDFFF77EFEFFF77CFE5E
:102DE000FFF77AFEFFF778FEB403002000380140B9
:102DF00000B58BB0002307930893099300930193C8
:102E0000029303930493059306931E484FF0804268
:102E10000260436083604FF0FF32C26003618361F0
:102E200004F0F4F820BB00230793099307A9154881
:102E300004F094FBF0B96023009300220192029207
:102E4000049269460F4804F0B6F9A8B9042269460D
:102E50000C4804F0B0F988B908226946094804F022
:102E6000AAF968B9074801F0F5FB0BB05DF804FB5F
:102E7000FFF732FEFFF730FEFFF72EFEFFF72CFEC6
:102E8000FFF72AFE9404002008B50E480E4B03609D
:102E9000002343600F22826047F6FF72C260036125
:102EA0008361C361436103F035FD30B900221146EF
:102EB000044803F085FD10B908BDFFF70DFEFFF7CC
:102EC0000BFE00BF2C0500200028004010B59AB072
:102ED0004822002108A807F09CFB002401940294DA
:102EE0000394049405940694079402F069FC4FF04F
:102EF000B042D2F8903023F0180343F01003C2F828
:102F0000903002F58062136823F4C06343F40073C9
:102F10001360136803F4C0630093009B2F2308938E
:102F20004FF48033099301230A934FF480720B927C
:102F30000F9340220C9210946022119205220D9260
:102F40000222139214931594202316934FF4003306
:102F500017934FF0005319934FF00073189308A87C
:102F600002F03CFD90B96F230193032102910023ED
:102F700003930493059380220692079301A803F01C
:102F8000B9F828B903F06AFC1AB010BDFFF7A4FD28
:102F9000FFF7A2FD00B595B050220021684607F06A
:102FA00038FB4FF454530093182301934FF400332C
:102FB00002934FF0007303934FF0005304934FF0CC
:102FC000885305934FF080630D934FF080530F9318
:102FD0004FF44043119310231393684603F0C5FA4E
:102FE00028B9044BD3F8943015B05DF804FBFFF713
:102FF00073FD00BF0014005808B500F0F9FAFDF7A2
:103000007FFDFFF763FFFFF7C5FFFFF767FDFFF7E2
:10301000CBFCFFF771FDFFF7AFFDFFF7D7FDFFF723
:103020005FFEFFF7B5FE06F013F8FFF7E1FEFFF7CE
:103030002BFFFFF7B5F8FDF77DFDFDF789FDFFF7E5
:1030400097F9FAE708B507F070FB08BD08B507F077
:10305000E0FA08BD01460748C3798B4204D0064A0E
:10306000904201D00838F7E78B4200D1704700202A
:10307000FCE700BFF873FF1F0070FF1F00B585B0AD
:103080006B4600F10C022E214FF6664000F006F967
:103090009DF80E0005B05DF804FB00B585B06B46E9
:1030A00000F10C020F214FF6684000F0F7F89DF890
:1030B0000E0005B05DF804FB00B585B002466B4616
:1030C00010214FF6754000F0E9F89DF80E0005B0AC
:1030D0005DF804FB30B4214BDB6BC3F30D039B00A5
:1030E00003F1005303F540331A6811681C4B9942F1
:1030F0002DD0136954699569516892684FEA136C31
:1031000080F800C04FEA134C80F801C04FEA132C3E
:1031100080F802C0C3F3031C80F803C003F00F0360
:103120000371230E4371230C8371230AC37104724C
:1031300045720B0E83720B0CC372090A0173130ED6
:103140004373130C8373C273002030BC7047536900
:103150009469D569D1681269D0E700BF0040005872
:10316000B95646A908B538B9084B1B6803B198474A
:10317000074B00221A7008BD054B01221A70034B41
:103180001B68002BF7D010469847F4E7480600204C
:103190000802002010B584B004460B4B18600B48A1
:1031A00005F0D4FC0120FFF7DDFF094B01221A7066
:1031B000084B1B6833B10394074A0192074A0292F5
:1031C00001A8984704B010BD040200200C020020A2
:1031D000000200204C06002005330008E131000801
:1031E00010B50146034C204605F0CBFC2046FDF708
:1031F000B6FC10BD0C02002010B50C464A68054B09
:103200001A60054BD861184600F082F82068FFF775
:10321000C1FF10BD480600204C06002000B585B057
:103220001B4805F096FC10B91A4B1B784BB918488F
:1032300005F08FFC10B9174B1B7823BB05B05DF868
:1032400004FB03A9124805F0B4FC134BDB698BB1F6
:10325000039A029201228DF8042001A898479DF854
:1032600004200C4B1A700B4B1B783BB1039805F0F4
:10327000BBFEDCE7074B01221A70F4E70399044810
:1032800005F073FCD3E70248FDF769FCD6E700BF01
:103290000C020020000200204C0600202DE9F04125
:1032A00007460C4616461D460020FFF75BFFDFF879
:1032B0005080D8F80000A0F80970C4722246314648
:1032C0000C3007F032FA01240B4B1C700B4B1B69BE
:1032D00000210846984748F2E800FDF74BFCD8F873
:1032E00000108A78033205F1080007F01EFA204624
:1032F000FFF738FFBDE8F081440600204C060020AF
:103300000402002008B50020FDF72FFC08BD0000D6
:10331000024B0360024B0361704700BFFD8E000843
:10332000398F00080023024A1360024A1360704775
:10333000700600206C060020EFF3108372B641B1D6
:10334000012903D106490A6802430A6083F3108801
:10335000704703490A6822EA00020A60F6E700BFE4
:103360006C060020EFF3108C72B6064A1368034314
:103370001360054A52F83130034342F831308CF380
:10338000108870470807002074060020EFF31081B2
:1033900072B6044A136823EA0000106081F31088B3
:1033A000704700BF48000020EFF3108172B6034A57
:1033B00013681843106081F310887047480000209C
:1033C000EFF3108172B6034A13681843106081F35B
:1033D00010887047040700207047704728B1B0FA82
:1033E00080F0C0F11F00C0B270472020F9E7000054
:1033F00070B5424B1C6820401860414B1A68414B25
:103400001B6841490868414909682FE0013334E0ED
:103410003F4D05EBC30568681040FFF7DFFF3D4EE9
:1034200030606A68012303FA00F022EA00026A6051
:10343000EFF3108172B6326803FA02F2D643304DD0
:10344000286820EA02022A60002B2DD181F310881F
:10345000304B1A68304B53F822309847284B1A6883
:10346000284B1B6828490868284909680240234DF1
:103470002D682A4220D00B401ED1254A52F8332015
:1034800002402A42C2D0224951F8332002402A4049
:1034900001EBC30149681142BAD11D4901EBC301D7
:1034A0004FF0FF304860B3E7013B194850F8332034
:1034B000324040F83320C7E7164B4FF0FF321A6016
:1034C000FFF78AFFEFF3108572B60D4B1B680D4AAC
:1034D00011680D4A12681340084A1268134203D15A
:1034E0000A4B1B680B4206D085F31088FFF775FF67
:1034F000024B1C6070BDFDF731FBF5E74400002076
:1035000008070020040700204800002000070020D2
:1035100074060020FC0600207C06002008B5C0438D
:10352000FFF766FF08BD0000F8B50446114B1E68A2
:10353000B6F1FF3F05D00125B5400F4B1F681C6059
:1035400005E00025F9E721462846FFF7E7FF0B4B8A
:103550001B682342F7D0074B1E60EFF3108172B651
:10356000064A136823EA0403136081F31088024BB0
:103570001F60F8BDFC0600200007002004070020A3
:1035800038B51446EFF3108572B6FFF727FF034BEB
:1035900043F8204085F3108838BD00BF7C0600202A
:1035A000114B1B780BB90120704710B5044602F08F
:1035B00005FA0D4B1A784FF47A73B3FBF2F3B0FBB4
:1035C000F3F000F0F3FC68B90F2C01D901200AE0F8
:1035D000002221464FF0FF3000F0D0FC034B1C606E
:1035E000002000E0012010BD4C0000205000002011
:1035F00010B5094A136843F480731360032000F088
:10360000ABFC0F20FFF7CCFF10B10124204610BD0A
:10361000044600F0E3FEF9E700400058034B1B7836
:10362000034A11680B441360704700BF4C00002030
:103630000C070020014B1868704700BF0C070020E2
:10364000014B1868704700BF5000002010B43030A4
:103650000B0A9B0003F00C03C45801F01F014FF04C
:103660001F0C0CFA01FC24EA0C0CC2F384628A40A1
:103670004CEA0202C2505DF8044B704710B414309B
:103680004B0E9B0003F00403C458C1F304514FF0E8
:10369000070C0CFA01FC24EA0C0C8A404CEA0202EA
:1036A000C2505DF8044B704730B583B000230193DE
:1036B000002800F0D8800446436D13B323689A684D
:1036C00012F0005F05D09A6822F0204222F03F02FB
:1036D0009A602268936813F0805F1FD1936823F08B
:1036E000104323F03F0343F0805393605F4B1B680C
:1036F0009B095F4AA2FB03239B0901335B000193F3
:1037000009E000F083FE0023A36584F85030D5E77C
:10371000019B013B0193019B002BF9D12268936827
:1037200013F0805F78D1636D43F010036365A36D80
:1037300043F00103A3650120936813F0040300D054
:103740000123616D11F0100F40F08680002B40F0D6
:103750008380636D23F4817343F002036365936890
:1037600013F0010F0BD1434B9B6813F0010F06D1EF
:10377000636841498A6822F47C1213438B60627E3D
:10378000636B43EA4233E2681343A268134394F83D
:10379000202043EA0243012A40D0A26A22B102F467
:1037A0007072E16A0A4313432168CD68334A2A40A4
:1037B0001A43CA6021688B6813F0040300D0012308
:1037C0008A6812F0080200D00122B3B9AAB9237E98
:1037D00094F83020520042EA8332CB6823F48043CD
:1037E00023F002031343CB6094F83830012B1AD036
:1037F0002268136923F0010313612369012B22D08E
:103800002268136B23F00F031363636D23F003032C
:1038100043F00103636524E000208DE7626A013A0A
:1038200043EA4243B9E721680B696FF38A03E26B0D
:10383000256C2A43656C2A43A56C2A43134343F045
:1038400001030B61D9E721680B6B23F00F03E269D9
:10385000013A13430B63D8E7636D43F010036365CC
:10386000012003B030BD0120FBE700BF5400002061
:10387000632D3E05000004500003045007C0F0FF14
:10388000F8B504460E464569082D05D00368DB6887
:1038900013F0010F1ED10425FFF7CCFE0746236865
:1038A0001A682A421CD1B6F1FF3FF8D0FFF7C2FEDA
:1038B000C31BB34201D8002EF1D123681B682B42F1
:1038C000EDD1636D43F004036365002384F8503049
:1038D000032004E0436D43F0200343650120F8BD5D
:1038E000626D42F400726265DA6812F4406F11D1C1
:1038F000627E7AB91A6812F0080F0BD0626D22F45A
:1039000080726265626D12F4805F03D1626D42F075
:1039100001026265082D07D0DA6812F4804F07D1E2
:103920000C221A600020DAE708221A600020D6E78D
:103930000020D4E70368186C70470000F0B583B02E
:103940000023019390F85030012B00F002820446CE
:103950000D46012380F850300068836813F0040F8F
:1039600009D0636D43F0200363650120002384F8D0
:10397000503003B0F0BD0A684968FFF767FE206861
:10398000836813F0040300D00123826812F0080258
:1039900000D001220BB9002A3AD02268936813F0B4
:1039A000010F40F0D0812B68E868D2F8B010C3F363
:1039B000120621EA060100F0180CA74820FA0CF0C4
:1039C0000340C3F312030B43C2F8B030EA68A34BC1
:1039D0009A4200F0A2802B68A14A134200F0B58100
:1039E000A04A926802F0E0709F49896811F0010FC7
:1039F00040F055819D498B4200F057819C498B4294
:103A000000F07A819B498B4200F08A810020ADE76B
:103A1000AA682968FFF732FE69692268D368C3F390
:103A2000C1035B009940286904280ED02E686032DB
:103A300052F82070904B3B4006F0F84631430B4360
:103A400043F0004342F82030A7E7136E116EC1F334
:103A500084612B68C3F3120080BBC3F38463994273
:103A600034D021684B6E4A6EC2F384622B68C3F374
:103A7000120080BBC3F384639A4234D021688B6EFA
:103A80008A6EC2F384622B68C3F3120080BBC3F357
:103A900084639A4234D02168CB6ECA6EC2F38462CA
:103AA0002B68C3F3120080BBC3F384639A427FF494
:103AB00074AFCB6E23F00043CB666EE793FAA3F3AB
:103AC00013B1B3FA83F3CAE72023C8E7136E23F0D8
:103AD00000431366C5E793FAA3F313B1B3FA83F374
:103AE000CAE72023C8E74B6E23F000434B66C5E7C7
:103AF00093FAA3F313B1B3FA83F3CAE72023C8E719
:103B00008B6E23F000438B66C5E793FAA3F313B1E2
:103B1000B3FA83F3CAE72023C8E720682B68C3F30E
:103B200012063EBB9A0E013202F01F02092A8CBF18
:103B300000220122002A55D05EBB990E0131890670
:103B400001F0F8418EBB4FEA936C0CF1010C0CF0C4
:103B50001F0C012202FA0CF21143AEBB9B0E013383
:103B600003F01F0303EB43031B051943AA68FFF788
:103B700085FD30E793FAA3F24AB1B2FA82F201323C
:103B800002F01F02092A8CBF00220122D2E7202264
:103B9000F5E793FAA3F131B1B1FA81F10131890668
:103BA00001F0F841CEE72021F8E793FAA3F24AB1F9
:103BB000B2FA82F2013202F01F024FF0010C0CFA4D
:103BC00002F2C9E72022F5E793FAA3F343B1B3FA6F
:103BD00083F3013303F01F0303EB43031B05C4E727
:103BE0002023F6E7E6B9990E0131890601F0F84184
:103BF00016BB4FEA936C0CF1010C0CF01F0C012268
:103C000002FA0CF21143CEBB9B0E013303F01F03EB
:103C100003EB43031E3B1B0543F000731943A5E769
:103C200093FAA3F131B1B1FA81F10131890601F0C2
:103C3000F841DDE72021F8E793FAA3F24AB1B2FA9E
:103C400082F2013202F01F024FF0010C0CFA02F274
:103C5000D8E72022F5E700BFFFFF070000007F4004
:103C6000000008800003045000000450000052C708
:103C7000000084CB0100008000F0FF0393FAA3F35F
:103C80005BB1B3FA83F3013303F01F0303EB430388
:103C90001E3B1B0543F00073C0E72023F3E7636D71
:103CA00043F020036365012060E612F4000F7FF407
:103CB000A5AE2268284B9A4201D0002056E640F477
:103CC000000326498A6822F0E07213438B60244B7C
:103CD0001B689B09234AA2FB03239B09013303EBC7
:103CE00043039B00019302E0019B013B0193019B75
:103CF000002BF9D1002039E612F0807F7FF482AEEC
:103D00002268154B9A4201D000202FE640F08073C4
:103D100012498A6822F0E07213438B60002025E686
:103D200012F4800F13D122680B4B9A4201D000206D
:103D30001CE640F4800309498A6822F0E0721343CC
:103D40008B60002012E6002010E600200EE6002026
:103D50000CE602200DE600BF0000045000030450F2
:103D600054000020632D3E0530B583B0002301933D
:103D700003689A6812F0010F52D1044699682A4AE2
:103D8000114216D19A6822F0004222F03F0242F01E
:103D900001029A60254B9B6813F4000F19D0244B45
:103DA0001B689B09234AA2FB03239B090133019350
:103DB0000CE0436D43F010034365836D43F0010352
:103DC000836501202DE0019B013B0193019B002BAA
:103DD000F9D1FFF72FFC054604E0FFF72BFC431B4E
:103DE000022B11D823681A6812F0010F16D19A68B5
:103DF00012F0010FF1D19A6822F0004222F03F0246
:103E000042F001029A60E8E7636D43F010036365D6
:103E1000A36D43F00103A365012002E0002000E050
:103E2000002003B030BD00BF3F00008000030450FD
:103E300054000020632D3E0503689B6813F0040FB7
:103E400032D110B5044690F85030012B2ED001230A
:103E500080F85030FFF788FF10BB636D23F4706368
:103E600023F0010343F480736365636D13F4805F93
:103E700013D0A36D23F00603A36523681C221A60E8
:103E8000002384F850302268936823F0004323F025
:103E90003F0343F00403936010BD0023A365ECE7E8
:103EA000002384F85030F7E7022070470220F3E740
:103EB000002807DB00F01F02400901239340024A5B
:103EC00042F82030704700BF00E100E000280CDB22
:103ED00000F01F024009012393402030034A42F8BA
:103EE0002030BFF34F8FBFF36F8F704700E100E0CA
:103EF000002808DB0901C9B200F1604000F561400B
:103F000080F80013704700F00F000901C9B2014B9F
:103F10001954704714ED00E000B500F00700C0F13F
:103F2000070CBCF1040F28BF4FF0040C031D062B37
:103F30000FD9C31E4FF0FF3E0EFA0CF021EA00012C
:103F400099400EFA03FE22EA0E0241EA02005DF8F1
:103F500004FB0023EEE70000074AD36823F4E06384
:103F60001B041B0C000200F4E060034343F0BF633A
:103F700043F40033D360704700ED00E010B5044611
:103F8000054BD868C0F30220FFF7C6FF0146204664
:103F9000FFF7AEFF10BD00BF00ED00E008B5FFF772
:103FA00087FF08BD08B5FFF791FF08BD0138B0F1E4
:103FB000807F0BD24FF0E0235861054AF02182F850
:103FC00023100020986107221A6170470120704772
:103FD00000ED00E0002808DB00F01F02400901238B
:103FE00093404030014A42F82030704700E100E041
:103FF000002808DB00F01F024009012393406030D5
:10400000014A42F82030704700E100E0F0B500239B
:1040100066E085685E000324B44025EA0405CC68A8
:10402000B4402C438460456825EA0C054C68C4F311
:1040300000149C402C43446063E0DD08083550F8D0
:10404000254003F0070C4FEA8C0C4FF00F0E0EFAD0
:104050000CFE24EA0E0E0C6904FA0CF444EA0E0479
:1040600040F8254064E0042400E0002404FA0EF443
:104070002C430CF1020C4F4D45F82C404E4C25685A
:10408000D44325EA02064F6817F4801F01D042EAA4
:104090000506494D2E606D6804EA05064F6817F461
:1040A000001F01D042EA0506434D6E60D5F88050EE
:1040B00004EA05064F6817F4803F01D042EA05067E
:1040C0003D4DC5F88060D5F884502C404E6816F4FC
:1040D000003F01D042EA0504374AC2F88440013368
:1040E0000A6832FA03F464D04FF0010C0CFA03FCB6
:1040F0001CEA0202F3D04C6804F00304013C012CDA
:1041000087D94C6804F00304032C0CD0C4685D000C
:104110004FF0030C0CFA05FC24EA0C0C8C68AC4044
:1041200044EA0C04C4604C6804F00304022C84D0FC
:1041300004684FEA430E4FF0030C0CFA0EFC24EA1D
:104140000C0C4C6804F0030404FA0EF444EA0C046A
:1041500004604C6814F4403FC1D04FEA930C0CF15A
:104160000205144C54F8255003F0030E4FEA8E0E4E
:104170000F2404FA0EF425EA0405B0F1904F3FF441
:1041800074AF0E4CA0420ED004F58064A0420CD057
:1041900004F58064A0420AD004F58064A0423FF494
:1041A00062AF072462E7012460E702245EE703248C
:1041B0005CE7F0BD00000140000800580004004822
:1041C0000AB18161704781627047704708B5054B3D
:1041D000D8681A6822EA00021A605860FFF7F5FFF3
:1041E00008BD00BF0015005800285FD010B5044678
:1041F00090F84130002B48D0242384F841302268C5
:10420000136823F0010313606368226823F070636E
:1042100013612268936823F400439360E368012BE1
:1042200038D0A368226843F404439360E368022B08
:1042300036D02268536823F40063536022685368C1
:1042400043F0007343F4004353602268D36823F4BF
:104250000043D360236962691343A169226843EA7A
:104260000123D360E369216A22680B43136022684B
:10427000136843F00103136000206064202384F876
:104280004130206384F8420010BD80F8403000F0D7
:10429000EDF8B1E7A368226843F400439360C5E7F3
:1042A0002268536843F400635360C7E701207047F6
:1042B000034690F84120D2B2202A23D190F8402022
:1042C000012A21D0012280F84020242280F84120B8
:1042D0000068026822F0010202601868026822F495
:1042E00080520260186802681143016019680A6808
:1042F00042F001020A60202283F84120002083F866
:10430000400070470220704702207047034690F833
:104310004120D2B2202A21D190F84020012A1FD07A
:10432000012280F84020242280F8412000680268A1
:1043300022F0010202601868026822F4706242EA08
:104340000122026019680A6842F001020A60202214
:1043500083F84120002083F8400070470220704716
:104360000220704770477047002309E000EB83028A
:10437000054951609A1D00EB8202044951600133E6
:10438000052BF3D9704700BF654300086743000859
:10439000002303604FF03F1343603F238360704767
:1043A000C0B138B5044690F8383083B10A4D28467C
:1043B000FFF7EEFF2B6843F001132B602046FFF759
:1043C000D3FF00206063012384F8383038BD00F04B
:1043D00093F8EBE701207047000C005800B583B05C
:1043E0004FF0B0431A6D42F400221A651B6D03F4BE
:1043F00000230193019B002211462E20FFF7BEFDF2
:104400002E20FFF7CBFD03B05DF804FB00B589B0AB
:104410000023039304930593069307930268114BBB
:104420009A4202D009B05DF804FB4FF0B043DA6C59
:1044300042F40052DA64DA6C02F400520292029AF8
:10444000DA6C42F00402DA64DB6C03F004030193DB
:10445000019B042303930323049303A90248FFF75A
:10446000D5FDDFE7000004500008004810B59CB0FF
:10447000044600211791189119911A911B9150220D
:1044800003A806F0C6F82268194B9A4201D01CB066
:1044900010BD042303934FF440330B9303A802F0A1
:1044A00064F810BB4FF0B044E36C43F00203E364E4
:1044B000E36C03F002030293029B4FF440731793E3
:1044C00012231893002319931A9304231B9317A9FB
:1044D0000848FFF79BFDA36D43F40013A365A36D8C
:1044E00003F400130193019BD1E7FEF7F5FAD9E736
:1044F00000540040000400480268124B9A4200D069
:10450000704700B583B04FF0B0431A6D42F480128B
:104510001A651B6D03F480130193019B0022114661
:104520002C20FFF72BFD2C20FFF738FD0022114631
:104530002D20FFF723FD2D20FFF730FD03B05DF8A0
:1045400004FB00BF000C005810B596B00446502282
:10455000002102A806F05DF82268174B9A4201D0AC
:1045600016B010BD01F02CF94FF4006302934FF424
:104570000073129302A801F0F8FFC8B94FF0B043DE
:10458000D3F8902042F40042C3F890209A6D42F490
:1045900080629A659B6D03F480630193019B002206
:1045A00011460320FFF7EAFC0320FFF7F7FCD7E7EB
:1045B000FEF792FAE2E700BF0028004000B583B0A2
:1045C0000368184A934205D0174A934216D003B0A5
:1045D0005DF804FB4FF0B0431A6E42F400621A66B5
:1045E0001B6E03F400630093009B00221146192008
:1045F000FFF7C4FC1920FFF7D1FCE8E74FF0B04308
:104600001A6E42F400321A661B6E03F400330193F3
:10461000019B002211461920FFF7B0FC1920FFF77B
:10462000BDFCD4E7002C0140004401400368B3F115
:10463000804F00D0704782B04FF0B0439A6D42F087
:1046400001029A659B6D03F001030193019B02B087
:104650007047000030B58BB0002305930693079395
:10466000089309930368324A934207D0B3F1804F0D
:1046700031D0304A934245D00BB030BD4FF0B043FB
:10468000DA6C42F00102DA64DA6C02F001020292A2
:10469000029ADA6C42F00202DA64DB6C03F0020385
:1046A0000193019B4FF4B063059302250695012405
:1046B000099405A94FF09040FFF7A8FC4FF4004380
:1046C00005930695002307930893099405A91A48B2
:1046D000FFF79CFCD0E74FF0B043DA6C42F00102E8
:1046E000DA64DB6C03F001030393039B0723059358
:1046F000022306930123099305A94FF09040FFF789
:1047000085FCB9E74FF0B043DA6C42F00202DA649C
:10471000DB6C03F002030493049B40230593022304
:1047200006930E23099305A90348FFF76FFCA3E73F
:10473000002C0140004401400004004870B59CB0CA
:10474000044600211791189119911A911B9150223A
:1047500003A805F05EFF2268224B9A4201D01CB0EC
:1047600070BD0123039303A801F0FFFE002836D19A
:104770004FF0B0431A6E42F480421A661A6E02F489
:1047800080420292029ADA6C42F00102DA64DA6C38
:1047900002F001020192019ADA6C42F00202DA643C
:1047A000DB6C03F002030093009B4FF4007317933C
:1047B00002261896002419941A9407251B9517A908
:1047C0004FF09040FFF722FC80231793189619941E
:1047D0001A941B9517A90448FFF718FCBFE7FEF7CA
:1047E0007BF9C5E7003801400004004838B512F4F1
:1047F000804F43D00468B4F8503091F800C04FEABD
:10480000CC0E1EFA83F32344B3F80244C4F3090424
:104810008B69A34228D31B1B8B618B697BB905680D
:1048200035F82C309BB223F4804323F0700383F4DB
:10483000005343F4004343F0800325F82C3012F07A
:10484000400F0ED002680D7832F825309BB223F469
:10485000E04323F0700343F4004343F0C00322F825
:10486000253024B9204638BD00238B61D5E7234687
:104870000A894969006804F051F9F3E70468B4F85B
:10488000503091F800C04FEACC0E1EFA83F3234457
:10489000B3F80644C4F309048B69A3422FD31B1B4E
:1048A0008B618B697BB9056835F82C309BB223F49A
:1048B000804323F0700383F4005343F4004343F038
:1048C000800325F82C3012F0400F0FD1026891F8C8
:1048D00000C032F82C309BB223F4E04323F0700385
:1048E00043F4004343F0C00322F82C30002CB9D02D
:1048F00023464A894969006804F010F9B2E70023A9
:104900008B61CEE7002856D010B5044690F891325E
:104910003BB1032384F89132206803F010FA00239E
:1049200015E080F8903204F0C1FBF2E703EB83025C
:1049300004EBC2020121517413740021D17411627D
:104940005162013303EB8302D200A150DBB2207924
:104950009842EBD8002316E003EB830204EBC2027B
:10496000002182F8511182F8503182F85311C2F8B7
:104970006011C2F8641103EB830204EBC202C2F8B7
:1049800068110133DBB29842E6D8234653F8040B92
:1049900093E8060003F0DDF900232373012384F874
:1049A0009132A37A012B01D0002010BD204600F0E7
:1049B000F0FE0020F9E70120704790F89032012BBB
:1049C0000ED010B50446012380F89032006803F041
:1049D000ADF9206803F0BFFD002084F8900210BDFF
:1049E0000220704770B505460C46164612F0400F7F
:1049F00000F020810268B2F8503009784FEAC10C0B
:104A00001CFA83F31344B3F80224C2F30902A36926
:104A100093422CD99B1AA361A06958B316F4804F16
:104A20000DD0286830F821309BB223F4E04323F006
:104A3000700343F4404343F0800320F8213094F89E
:104A40002430012B00F08D802A68217832F8213043
:104A50009BB223F4E04323F0400383F0300343F49C
:104A6000004343F0800322F82130002070BD002372
:104A7000A361D1E76378002B48D12A68B2F850309F
:104A800012FA83F36344B3F80224C2F30902A3F8D1
:104A90000224B3F802246FEA42426FEA524292B211
:104AA000A3F802242A686378002B3BD1B2F8503077
:104AB00012FA83F3227803EBC203B3F80624C2F39D
:104AC0000902A3F80624B3F806246FEA42426FEA0B
:104AD000524292B2A3F80624E378022B2FD0217819
:104AE000284604F031FB16F4804FBED02A682178A6
:104AF00032F821309BB223F4E04323F0700343F4F7
:104B0000404343F0800322F82130AEE7012BC9D1A6
:104B10002A68B2F8503012FA83F363440022A3F8F3
:104B20000224BFE7012BD7D1B2F8503012FA83F339
:104B3000227803EBC2030022A3F80624CCE72A68FC
:104B4000217832F821309BB223F4E04323F0400374
:104B500083F0200343F4004343F0800322F8213024
:104B6000BDE7636913446361E3691344E361216A48
:104B7000236999421DD3C91A21626278002A44D15F
:104B80002968B1F8502011FA82F2217802EBC102B3
:104B9000B2F80214C1F30901A2F80214ABB9B2F8D9
:104BA00002146FEA41416FEA514189B2A2F802143E
:104BB0002DE021B9002384F824301346DDE70023DB
:104BC00084F8243023620B46D7E73E2B0DD85908D2
:104BD00013F0010F00D00131B2F8020480B2890253
:104BE00089B20143A2F8021411E0580913F01F0F13
:104BF00000D10138B2F8021489B2800280B20143B8
:104C000041F40041A2F8021401E0012A06D09BB24F
:104C100022896169286803F0ADFC15E72968B1F8BD
:104C2000502011FA82F2217802EBC10299B2A2F867
:104C30000214ECE70268B2F850300978C80010FAA4
:104C400083F31344B3F80624C2F30902A369934221
:104C500046D39B1AA361A369002B44D016F4804F5E
:104C60000DD1286830F821309BB223F4E04323F0C3
:104C7000700343F4404343F0800320F8213094F85C
:104C80002430012B7FF4E0AE636913446361E36970
:104C90001344E361216A23699942C0F09C80C91AD8
:104CA000216229686278002A40F0C180B1F8502062
:104CB00011FA82F2217802EBC102B2F80614C1F3B4
:104CC0000901A2F80614002B40F09180B2F80614F6
:104CD0006FEA41416FEA514189B2A2F80614A8E097
:104CE0000023A361B7E76378002B49D12A68B2F8A3
:104CF000503012FA83F30344B3F80224C2F30902DA
:104D0000A3F80224B3F802246FEA42426FEA524247
:104D100092B2A3F802242A686378002B3CD1B2F83F
:104D2000503012FA83F3227803EBC203B3F806245F
:104D3000C2F30902A3F80624B3F806246FEA42423C
:104D40006FEA524292B2A3F80624E378022B30D0E5
:104D50002178284604F0F8F916F4804F7FF485AEE8
:104D60002A68217832F821309BB223F4E04323F003
:104D7000700343F4404343F0800322F8213074E68B
:104D8000012BC8D12A68B2F8503012FA83F30344D9
:104D90000022A3F80224BEE7012BD6D1B2F850308E
:104DA00012FA83F3227803EBC2030022A3F806244D
:104DB000CBE72A68217832F821309BB223F4E04314
:104DC00023F0400383F0200343F4004343F08003C7
:104DD00022F82130BCE721B9002384F8243013469F
:104DE0005FE70023236284F824300B4659E73E2B0B
:104DF0000DD8590813F0010F00D00131B2F80604A4
:104E000080B2890289B20143A2F8061411E0580960
:104E100013F01F0F00D10138B2F8061489B28002D6
:104E200080B2014341F40041A2F8061401E0012AD6
:104E300006D09BB262896169286803F09BFB03E698
:104E4000B1F8502011FA82F2217802EBC10299B236
:104E5000A2F80614EDE72DE9F04105462868B0F800
:104E6000443013F4004F00F05582B0F84440A3B230
:104E700014F00F0440F09F8013F0100F4AD0038805
:104E80009AB213F4006F75D112F4004FE6D0038884
:104E900023F070031B051B0D43F08003038028687B
:104EA000B0F8503095F85021D20012FA83F3034441
:104EB000B3F80634C3F30903C5F86C318BB1D5F8E8
:104EC000641171B1B5F8562103F028FED5F86431AC
:104ED000D5F86C211344C5F864310021284604F04C
:104EE00027F92A68138899B213F4006FB6D101F438
:104EF0004051B1F5405FB1D013889BB223F4804399
:104F000023F0700383F4405343F4004343F08003E1
:104F10001380A3E703889BB223F4E14323F07003DB
:104F20006FEA43436FEA53439BB203802968B1F8A9
:104F300050302A7CD20012FA83F30B44B3F80234C7
:104F4000C3F30903EB626A6A1A446A6200212846C5
:104F500004F0FAF82B7B002B80D0AB6A002B7FF497
:104F60007DAF2B7B2A6843F08003A2F84C300023EE
:104F70002B7373E7B0F8503095F85021D20012FA35
:104F800083F30344B3F80634C3F30903C5F86C3163
:104F9000B5F8562105F5267103F0C0FD2A6813887F
:104FA00023F070031B051B0D43F08003138028467C
:104FB00004F0B6F852E730F824309EB213F4004FF4
:104FC0004ED116F0800F3FF449AF04EB8401C900C5
:104FD000103129442A6832F824309BB223F4E1438B
:104FE00023F070036FEA43436FEA53439BB222F806
:104FF000243004EB840305EBC303DB7C012B00F0BE
:10500000E98016F4807F40F080812868B0F8503045
:1050100004EB840205EBC202167CF20012FA83F361
:105020000344B3F80234C3F30903621C02EB8202A7
:1050300055F832209A4240F24B81671C07EB8707F4
:10504000D21A45F83720621C02EB820255F8322052
:10505000002A40F044813146284604F075F8FDE608
:1050600030F8243023F070031B051B0D43F0800340
:1050700020F8243004EB8401C90001F5A87105EB88
:10508000010804EB840305EBC30393F85C31002BA8
:1050900040D12868B0F8503004EB840205EBC2021E
:1050A00092F85021D20012FA83F30344B3F8067445
:1050B000C7F3090717BB04EB840305EBC303D3F85D
:1050C0006C213A44C3F86C21D3F864213A44C3F804
:1050D0006421D3F868313BB104EB840305EBC303CF
:1050E000D3F860319F4270D204EB840305EBC30315
:1050F00093F85011284604F01BF862E704EB840192
:1051000005EBC1013B46B1F85621D1F8641103F01B
:1051100005FDD0E704EB840305EBC30393F853319B
:10512000022B33D0296804EB840205EBC20292F80B
:10513000500131F820309BB223F4E04323F0700398
:1051400043F4004343F0C00321F82030286892F86C
:10515000503130F8232012F4804F1ED0B0F8502088
:10516000DB0013FA82F30344B3F80274C7F30907B0
:10517000002FA0D004EB840105EBC1013B46B1F840
:105180005821D1F8641103F0C9FC94E73246414636
:105190002846FFF72BFB07468DE7B0F85020DB00D1
:1051A00013FA82F30344B3F80674C7F30907002F18
:1051B00081D004EB840105EBC1013B46B1F85A21D3
:1051C000D1F8641103F0AAFC75E74146286803F0A2
:1051D000E3F9F6E6631C03EB8303DB000022EA50ED
:1051E00004EB840305EBC3031B7F1BB316F0400FD6
:1051F0003BD004EB840305EBC3035B7C1BBB2A6839
:10520000B2F8503012FA83F304EB840205EBC202C9
:10521000127C03EBC203B3F80224C2F30902A3F821
:105220000224B3F802246FEA42426FEA524292B279
:10523000A3F8022404EB840405EBC404217C284673
:1052400003F082FF0AE6012BF4D12A68B2F850304D
:1052500012FA83F304EB840205EBC202127C03EB27
:10526000C2030022A3F80224E4E72A6804EB8403C3
:1052700005EBC3035B7CD3B9B2F8503012FA83F369
:1052800004EB840205EBC202127C03EBC203B3F809
:105290000624C2F30902A3F80624B3F806246FEA31
:1052A00042426FEA524292B2A3F80624C2E7012BAF
:1052B000C0D1B2F8503012FA83F304EB840205EB4C
:1052C000C202127C03EBC2030022A3F80624B1E75A
:1052D000621C02EB8202D2000027AF50B3E604EB5F
:1052E000840205EBC202566A1E445662013404EB86
:1052F000840205EBC202526804EB840405EBC4048B
:105300001344636003F048F9A8E532462846FFF7E6
:1053100069FBA3E50020BDE8F08190F89032012BF5
:105320000CD010B50446012380F890320173006858
:1053300003F00BF9002084F8900210BD02207047A2
:1053400010B50446006803F011F910F4004F23D1A2
:1053500010F4806F24D110F4804F32D110F4005F2C
:1053600039D110F4805F40D110F4006F67D110F094
:10537000800F40F0818010F4007F40F0AD8010F489
:10538000807F27D02268B2F844309BB223F4807328
:105390009BB2A2F844301DE02046FFF75CFD19E007
:1053A0002268B2F844309BB223F480639BB2A2F827
:1053B0004430204603F0D9FE00212046FFF7ADFF20
:1053C00008E02268B2F844309BB223F480439BB2D9
:1053D000A2F8443010BD2268B2F844309BB223F4E6
:1053E00000539BB2A2F84430F4E72268B2F8403090
:1053F0009BB223F004039BB2A2F840302268B2F8BB
:1054000040309BB223F008039BB2A2F8403094F8DE
:10541000C832012B0CD0204603F0CAFE2268B2F835
:1054200044309BB223F480539BB2A2F84430D1E7BE
:10543000002184F8C812204603F060FFEBE72268E1
:10544000B2F840309BB243F00803A2F84030226823
:10545000B2F844309BB223F400639BB2A2F844300C
:105460002268B2F840309BB243F00403A2F8403007
:10547000204603F08DFEADE72268B2F844309BB2BF
:1054800023F080039BB2A2F8443094F8C832FBB9F1
:105490002268B2F840309BB243F00403A2F84030D7
:1054A0002268B2F840309BB243F00803A2F84030C3
:1054B000012184F8C8122368B3F85430C3F38D0374
:1054C00003F03C03C4F8CC32204603F017FF81E719
:1054D000204603F05DFE7DE72268B2F844309BB2BF
:1054E00023F400739BB2A2F84430204603F037FE49
:1054F00070E710B50446084611F0800F27D101F07F
:10550000070C0CEB8C01C90001F5A87E04EB0E0121
:105510000CEB8C0C04EBCC0C4FF0000E8CF851E132
:1055200000F007000870C2F30A020A61CB70022B78
:105530001DD094F89032012B1CD0012384F89032B6
:10554000206802F017FC002084F8900210BD01F0E2
:10555000070C0CEB8C01C900103121440CEB8C0CB6
:1055600004EBCC0C4FF0010E8CF811E0D8E70023CF
:105570000B71DEE70220E9E710B504460A4611F098
:10558000800F1FD101F0070000EB8003DB0003F563
:10559000A873E11800EB800004EBC000002380F842
:1055A000513102F007020A7094F89032012B17D0A3
:1055B000012384F89032206802F069FE002084F80C
:1055C000900210BD01F0070000EB8003DB001033F8
:1055D000E11800EB800004EBC00001234374E0E716
:1055E0000220EEE710B501F0070C0CEB8C01C900AE
:1055F00001F5A8710CEB8C0E00EBCE0ECEF86421F9
:10560000CEF868310024CEF86C418EF851418EF806
:1056100050C10144006802F0BFFF204610BD38B5FC
:1056200001F0070C0CEB8C01C90010310CEB8C0E57
:1056300000EBCE0ECEF824200CF1010202EB820426
:1056400040F8343001258EF83450CEF8303000EB7D
:10565000C402002454608EF811508EF810C001442A
:10566000006802F099FF204638BD0B4601F00702A2
:10567000017991422ED310B5044613F0800F1DD14D
:1056800003EB8301C90001F5A871014403EB830317
:1056900000EBC303002083F8510101238B700A70D3
:1056A00094F89032012B17D0012384F890322068AF
:1056B00002F0D8FE002084F8900210BD02EB8201B7
:1056C000C9001031014402EB820300EBC303012047
:1056D0005874E2E7012070470220EEE70B4601799B
:1056E00003F00F02914234D310B5044613F0800F3B
:1056F00021D103F0070202EB8201C90001F5A87174
:10570000014402EB820200EBC202002082F8510148
:1057100000228A7003F007030B7094F89032012B7B
:1057200019D0012384F89032206802F0C0FE0020D6
:1057300084F8900210BD03F0070202EB8201C90059
:105740001031014402EB820200EBC20201205074CE
:10575000DEE7012070470220ECE711F0800F0BD04C
:1057600001F0070101EB8101C9001031084452B971
:105770000273C3800020704701EB8101C90001F56D
:10578000A8710844F3E70122027303811B0C4381D3
:10579000F0E7034602680121C0F8D012002083F828
:1057A000C802B2F854309BB20B43A2F85430B2F89E
:1057B00054309BB243F00203A2F85430704700000B
:1057C000024A136843F48073136070470004005862
:1057D000024B186800F4C060704700BF0004005816
:1057E000024A536843F480635360704700040058D2
:1057F00030B58DB005468E462B4C94E80F000DF168
:10580000300C0CE90F0005AB04F1100207CA83E865
:1058100007000DF1040C1C3494E80F008CE80F0015
:10582000BEF5007F07D0002314E00CAA02EB83032F
:1058300053F82C5C1EE00023032B08D80CAA02EBC3
:10584000830252F8102CAA42EFD20133F4E700256C
:1058500010E00133022B0CD80CAA02EB830252F8A1
:105860001C2CAA42F5D30CAA02EB830353F82C5C40
:1058700000E000250D4A136823F007032B43136053
:10588000FDF7D8FE0446094B1B6803F00703AB4243
:1058900006D0FDF7CFFE001B0228F4D9032000E05C
:1058A00000200DB030BD00BF94B400080040005887
:1058B00010B5B02816D90E4BDC6A4FF0B043D3F8C0
:1058C000083103F00F030B4A52F82330B4FBF3F412
:1058D000FFF77EFF0146084BA3FB0434A00CFFF743
:1058E00087FF10BDC0F30310014B53F82040E4E7DD
:1058F000A4B7000804B8000883DE1B434FF0B04390
:105900009B6813F00C030DD14FF0B0431B6803F0FC
:10591000F003B02B04D81B09254A52F82300704726
:10592000B023F8E7042B3ED0082B10D04FF0B04343
:10593000DB6803F00303022B31D0032B0FD14FF0B0
:10594000B0431B6813F4801F2BD11A4812E04FF0AC
:10595000B0431B6813F4801F27D0174870474FF0DF
:10596000B0431B6803F0F003B02B16D81B09104A94
:1059700052F823004FF0B042D368C3F3062303FB71
:1059800000F0D368C3F302130133B0FBF3F0D36824
:105990005B0F0133B0FBF3F07047B023E6E7064836
:1059A000E8E70548E6E7044870470248704700BF4B
:1059B000A4B700080048E8010024F40008B5FFF788
:1059C0009DFF4FF0B0439B68C3F30313024A52F8A4
:1059D0002330B0FBF3F008BD04B80008002800F045
:1059E000728338B50446036813F0200F2DD04FF0B2
:1059F000B0429368D26802F0030213F00C0358D04F
:105A00000C2B54D0E369002B00F0A0804FF0B04283
:105A1000136843F001031360FDF70CFE05464FF0D9
:105A2000B0431B6813F0020F00F08880636A4FF0E8
:105A3000B042116821F0F0010B431360216A5368F2
:105A400023F47F4343EA01235360236813F0010FDB
:105A500000F09A804FF0B042936803F00C03D268D4
:105A600002F00302082B00F08B800C2B00F08580E5
:105A70006368B3F5803F00F0B0804FF0B042136828
:105A800023F4803313606368002B00F0AD80FDF7D2
:105A9000D1FD05464FF0B0431B6813F4003F73D1AE
:105AA000FDF7C8FD401B6428F4D9032016E3012A42
:105AB000A8D1E369002B00F00883606A4FF0B0437F
:105AC0001B6803F0F003B02B21D8984221D9FFF7CF
:105AD000EFFE002840F0FB82636A4FF0B04211688D
