:020000040800F2
:100000000000032015C20008099500080B950008A0
:100010000D9500080F9500081195000800000000DC
:100020000000000000000000000000001395000820
:1000300015950008000000001795000819950008A4
:100040006DC200086DC200086DC20008219500084D
:100050006DC200086DC200086DC200086DC20008C4
:100060006DC200086DC200086DC200086DC20008B4
:100070006DC200086DC200086DC200086DC20008A4
:100080006DC200086DC200086DC200082995000805
:10009000399500086DC200086DC200086DC20008E5
:1000A0006DC20008499500086DC200086DC20008C5
:1000B0006DC200086DC200086DC200086DC2000864
:1000C0006DC200086DC200086DC200086DC2000854
:1000D0006DC200086DC200086DC200086DC2000844
:1000E0006DC200086DC200086DC200086DC2000834
:1000F0006195000869950008719500086DC20008B7
:100100006DC200086DC200086DC200086DC2000813
:100110006DC200086DC200086DC200086DC2000803
:100120006DC200086DC200086DC200086DC20008F3
:0C0130006DC200086DC200086DC200081E
:10014000034613F8012B002AFBD1181A0138704717
:1001500001F0FF01102A2BDB10F0070F08D010F878
:10016000013B013A8B422DD010F0070F42B3F6D17C
:10017000F0B441EA012141EA014122F007047FF095
:1001800000070023F0E80256083C85EA010586EAEC
:10019000010685FA47F5A3FA87F586FA47F6A5FA28
:1001A00087F68EB9EED1F0BC01F0FF0102F0070234
:1001B00032B110F8013B013A83EA010313B1F8D1DF
:1001C0000020704701387047002D06BF35460338C0
:1001D000073815F0010F07D1013015F4807F02BFF9
:1001E000013015F4C03F0130F0BC0138704700BF4A
:1001F00081F0004102E000BF83F0004330B54FEAD8
:1002000041044FEA430594EA050F08BF90EA020F44
:100210001FBF54EA000C55EA020C7FEA645C7FEAD7
:10022000655C00F0E2804FEA5454D4EB5555B8BFFA
:100230006D420CDD2C4480EA020281EA030382EA6B
:10024000000083EA010180EA020281EA0303362DFD
:1002500088BF30BD11F0004F4FEA01314FF4801CD0
:100260004CEA113102D0404261EB410113F0004FE2
:100270004FEA03334CEA133302D0524263EB430399
:1002800094EA050F00F0A780A4F10104D5F1200E37
:100290000DDB02FA0EFC22FA05F2801841F1000192
:1002A00003FA0EF2801843FA05F359410EE0A5F166
:1002B00020050EF1200E012A03FA0EFC28BF4CF097
:1002C000020C43FA05F3C01851EBE37101F000454D
:1002D00007D54FF0000EDCF1000C7EEB00006EEB5A
:1002E0000101B1F5801F1BD3B1F5001F0CD34908E4
:1002F0005FEA30004FEA3C0C04F101044FEA44523B
:1003000012F5800F80F09A80BCF1004F08BF5FEAC1
:10031000500C50F1000041EB045141EA050130BDA1
:100320005FEA4C0C404141EB0101013C28BFB1F5B3
:10033000801FE9D291F0000F04BF01460020B1FAFE
:1003400081F308BF2033A3F10B03B3F120020CDAD1
:100350000C3208DD02F1140CC2F10C0201FA0CF0AF
:1003600021FA02F10CE002F11402D8BFC2F1200C14
:1003700001FA02F120FA0CFCDCBF41EA0C019040CA
:10038000E41AA2BF01EB0451294330BD6FEA040413
:100390001F3C1CDA0C340EDC04F11404C4F12002FE
:1003A00020FA04F001FA02F340EA030021FA04F310
:1003B00045EA030130BDC4F10C04C4F1200220FA67
:1003C00002F001FA04F340EA0300294630BD21FAA5
:1003D00004F0294630BD94F0000F83F4801306BF6B
:1003E00081F480110134013D4EE77FEA645C18BF5F
:1003F0007FEA655C29D094EA050F08BF90EA020FF6
:1004000005D054EA000C04BF1946104630BD91EAED
:10041000030F1EBF0021002030BD5FEA545C05D1F0
:100420004000494128BF41F0004130BD14F580042F
:100430003CBF01F5801130BD01F0004545F0FE41A3
:1004400041F470014FF0000030BD7FEA645C1ABFD8
:10045000194610467FEA655C1CBF0B46024650EA0F
:10046000013406BF52EA033591EA030F41F400213B
:1004700030BD00BF90F0000F04BF0021704730B5C1
:100480004FF4806404F132044FF000054FF0000196
:1004900050E700BF90F0000F04BF0021704730B557
:1004A0004FF4806404F1320410F0004548BF40422C
:1004B0004FF000013EE700BF42004FEAE2014FEA81
:1004C00031014FEA02701FBF12F07F4393F07F4F5C
:1004D00081F06051704732F07F4208BF704793F05F
:1004E0007F4F04BF41F40021704730B54FF4607472
:1004F00001F0004521F000411CE700BF50EA010275
:1005000008BF704730B54FF000050AE050EA01021D
:1005100008BF704730B511F0004502D5404261EB8D
:1005200041014FF4806404F132045FEA915C3FF4CE
:10053000D8AE4FF003025FEADC0C18BF03325FEA6B
:10054000DC0C18BF033202EBDC02C2F1200300FA1C
:1005500003FC20FA02F001FA03FE40EA0E0021FA41
:1005600002F11444BDE600BF70B54FF0FF0C4CF42F
:10057000E06C1CEA11541DBF1CEA135594EA0C0FE1
:1005800095EA0C0F00F0DEF82C4481EA030621EA1C
:100590004C5123EA4C5350EA013518BF52EA033557
:1005A00041F4801143F4801338D0A0FB02CE4FF009
:1005B0000005E1FB02E506F00042E0FB03E54FF039
:1005C0000006E1FB03569CF0000F18BF4EF0010E31
:1005D000A4F1FF04B6F5007F64F5407404D25FEA2D
:1005E0004E0E6D4146EB060642EAC62141EA5551E0
:1005F0004FEAC52040EA5E504FEACE2EB4F1FD0C22
:1006000088BFBCF5E06F1ED8BEF1004F08BF5FEA9F
:10061000500E50F1000041EB045170BD06F0004651
:1006200046EA010140EA020081EA0301B4EB5C04FE
:10063000C2BFD4EB0C0541EA045170BD41F48011F6
:100640004FF0000E013C00F3AB8014F1360FDEBF1B
:10065000002001F0004170BDC4F10004203C35DAF7
:100660000C341BDC04F11404C4F1200500FA05F37A
:1006700020FA04F001FA05F240EA020001F000421B
:1006800021F0004110EBD37021FA04F642EB060191
:100690005EEA430E08BF20EAD37070BDC4F10C04BB
:1006A000C4F1200500FA04F320FA05F001FA04F27F
:1006B00040EA020001F0004110EBD37041F100016B
:1006C0005EEA430E08BF20EAD37070BDC4F1200576
:1006D00000FA05F24EEA020E20FA04F301FA05F2DE
:1006E00043EA020321FA04F001F0004121FA04F286
:1006F00020EA020000EBD3705EEA430E08BF20EA56
:10070000D37070BD94F0000F0FD101F0004640008F
:1007100041EB010111F4801F08BF013CF7D041EA11
:10072000060195F0000F18BF704703F00046520015
:1007300043EB030313F4801F08BF013DF7D043EAE6
:100740000603704794EA0C0F0CEA135518BF95EA9C
:100750000C0F0CD050EA410618BF52EA4306D1D123
:1007600081EA030101F000414FF0000070BD50EA42
:10077000410606BF1046194652EA430619D094EACC
:100780000C0F02D150EA013613D195EA0C0F05D1B6
:1007900052EA03361CBF104619460AD181EA03010A
:1007A00001F0004141F0FE4141F470014FF00000C2
:1007B00070BD41F0FE4141F4780170BD70B54FF05D
:1007C000FF0C4CF4E06C1CEA11541DBF1CEA1355DD
:1007D00094EA0C0F95EA0C0F00F0A7F8A4EB0504BF
:1007E00081EA030E52EA03354FEA013100F08880B6
:1007F0004FEA03334FF0805545EA131343EA12637F
:100800004FEA022245EA111545EA10654FEA002633
:100810000EF000419D4208BF964244F1FD0404F5EC
:10082000407402D25B084FEA3202B61A65EB030548
:100830005B084FEA32024FF480104FF4002CB6EB05
:10084000020E75EB030E22BFB61A754640EA0C0085
:100850005B084FEA3202B6EB020E75EB030E22BFC5
:10086000B61A754640EA5C005B084FEA3202B6EB06
:10087000020E75EB030E22BFB61A754640EA9C00C5
:100880005B084FEA3202B6EB020E75EB030E22BF95
:10089000B61A754640EADC0055EA060E18D04FEA53
:1008A000051545EA16754FEA06164FEAC30343EAF3
:1008B00052734FEAC2025FEA1C1CC0D111F4801FC0
:1008C0000BD141EA00014FF000004FF0004CB6E7B9
:1008D00011F4801F04BF01430020B4F1FD0C88BF58
:1008E000BCF5E06F3FF6AFAEB5EB030C04BFB6EB63
:1008F000020C5FEA500C50F1000041EB045170BD56
:100900000EF0004E4EEA113114EB5C04C2BFD4EB82
:100910000C0541EA045170BD41F480114FF0000E06
:10092000013C90E645EA060E8DE60CEA135594EA82
:100930000C0F08BF95EA0C0F3FF43BAF94EA0C0F85
:100940000AD150EA01347FF434AF95EA0C0F7FF4FA
:1009500025AF104619462CE795EA0C0F06D152EA4E
:1009600003353FF4FDAE1046194622E750EA410632
:1009700018BF52EA43067FF4C5AE50EA41047FF443
:100980000DAF52EA43057FF4EBAE12E74FF0FF3CA8
:1009900006E000BF4FF0010C02E000BF4FF0010C79
:1009A0004DF804CD4FEA410C7FEA6C5C4FEA430CF2
:1009B00018BF7FEA6C5C1BD001B050EA410C0CBF41
:1009C00052EA430C91EA030F02BF90EA020F0020A3
:1009D000704710F1000F91EA030F58BF994208BF0A
:1009E00090422CBFD8176FEAE37040F001007047C7
:1009F0004FEA410C7FEA6C5C02D150EA013C07D11E
:100A00004FEA430C7FEA6C5CD6D152EA033CD3D068
:100A10005DF8040B704700BF8446104662468C4662
:100A20001946634600E000BF01B5FFF7B7FF002895
:100A300048BF10F1000F01BD4DF808EDFFF7F4FFBE
:100A40000CBF012000205DF808FB00BF4DF808ED49
:100A5000FFF7EAFF34BF012000205DF808FB00BF6C
:100A60004DF808EDFFF7E0FF94BF012000205DF88E
:100A700008FB00BF4DF808EDFFF7CEFF94BF012043
:100A800000205DF808FB00BF4DF808EDFFF7C4FF3C
:100A900034BF012000205DF808FB00BF4FEA41028F
:100AA00012F5001215D211D56FF47873B3EB6252C0
:100AB00012D94FEAC12343F0004343EA505311F0E7
:100AC000004F23FA02F018BF404270474FF0000079
:100AD000704750EA013005D111F0004008BF6FF0B7
:100AE000004070474FF00000704700BF4FEA4102DE
:100AF000B2F1E04324BFB3F5001CDCF1FE5C0DD97C
:100B000001F0004C4FEAC0024CEA5070B2F1004FC5
:100B100040EB830008BF20F00100704711F0804FC8
:100B200021D113F13872BCBF01F00040704741F48D
:100B300080114FEA5252C2F11802C2F1200C10FA91
:100B40000CF320FA02F018BF40F001004FEAC12375
:100B50004FEAD32303FA0CFC40EA0C0023FA02F319
:100B60004FEA4303CCE77FEA625307D150EA0133EF
:100B70001EBF4FF0FE4040F44000704701F00040BF
:100B800040F0FE4040F40000704700BF53B94AB93E
:100B9000002908BF00281CBF4FF0FF314FF0FF3085
:100BA00000F00CB8ADF1080C6DE904CE0CF0C0FA01
:100BB000DDF804E0DDE9022304B07047704700BFB0
:100BC0000348044B834202D0034B03B118477047DC
:100BD000C4010020C4010020000000000548064BAD
:100BE0001B1AD90F01EBA301491002D0034B03B12B
:100BF00018477047C4010020C40100200000000015
:100C000010B5064C237843B9FFF7DAFF044B13B154
:100C10000448AFF300800123237010BD10020020B0
:100C200000000000ECD3000808B5054B1BB10549D6
:100C30000548AFF30080BDE80840FFF7CFBF00BF15
:100C40000000000014020020ECD3000800B587B0BB
:100C5000002300930193029303930493059319488F
:100C6000194A026043608360C360036104224261E9
:100C7000037643760122C26180F820308362C3622A
:100C800080F83030436380F8383003F0DFFE90B9ED
:100C90000E4B009306230193002302937F220392BD
:100CA0000422049205936946064804F019F828B90D
:100CB00007B05DF804FB02F05BF8E9E702F058F8D2
:100CC000F6E700BF2C020020000004500800900C42
:100CD00000B589B00023039304930593069307930B
:100CE0000268114B9A4202D009B05DF804FB4FF044
:100CF000B043DA6C42F40052DA64DA6C02F4005267
:100D00000292029ADA6C42F00402DA64DB6C03F0BD
:100D100004030193019B042303930323049303A976
:100D2000024804F045FBDFE70000045000080048DB
:100D300008B5064B93F88030052B00D108BD00F0B4
:100D400019FC024B002283F88020F7E79402002070
:100D500000B583B0054B0093054B019369460548E8
:100D600001F072F903B05DF804FB00BF2800032016
:100D7000930D0008790D000810B50446406808304E
:100D800009F0B2FB10B10123237010BD00232370C2
:100D9000FBE708B528B1012806D1032003F0D0FCF9
:100DA00002E0032003F0BEFC08BD000008B50F4BB5
:100DB000D3F88025B2F1FF3F10D0D3F884350C482A
:100DC0000270C2F3072242708370C3F30722C2701D
:100DD000C3F3074202711B0E437108BD002002F0ED
:100DE000CFF80028F9D10348F7E700BF0070FF1FD4
:100DF0001803002070D5000870B588B00024ADF845
:100E0000184000F026FFFFF7D1FF024606212046DA
:100E100000F09FFE2A4A1021182000F09AFE294A6D
:100E20001021082000F095FE1821012000F0C1FEDD
:100E300000F060FD0DF11A03019307AB00930DF173
:100E40001E0308222146012000F09EFC1E4B009349
:100E500008232246BDF81C10BDF81E0000F01CFE41
:100E600006AB009302232246BDF81A10BDF81E00FF
:100E700000F012FE02221146204600F00AFF134D38
:100E800001262E70304600F0F0FB6E7008232B71A7
:100E900010226A71EC700E49A960AC700494039141
:100EA000029401920093234632463146204600F0D8
:100EB00002FCAB780BB908B070BD00F0D1FCFAE7CA
:100EC00060D5000850D500088CD40008940200209A
:100ED00007B2010000B589B00B4B83F880000020F9
:100EE00006900590049003900290019000900346B4
:100EF000A022802100F05FFB0449072000F083FC62
:100F000009B05DF804FB00BF940200200800002037
:100F100030B591B00DF1040C1E4C0FCCACE80F00B5
:100F20000FCCACE80F000FCCACE80F0094E8070042
:100F3000ACE80300ACF80020FFF70AFF0121022013
:100F400003F0C6FB144A0021022003F0E5FC01A8CF
:100F500003F060FAD8B9FFF74FFF09F0ADFA0F4C74
:100F6000002584F880504FF6FF73E3820C4A29462F
:100F7000012003F0D1FC062000F044FE00F0B6FE94
:100F8000657625760120FFF7A5FF11B030BD01F091
:100F9000EFFEE0E708D400086D200008940200206E
:100FA000310D000808B543783E2B1BD0FF2B35D000
:100FB000052B0FD18288294BDB8A9A420CD0012065
:100FC000FFF788FF264801230370244BDB8A438008
:100FD00000F08BFE012008BD204B0022DA8283F84E
:100FE0008020ECE7C378012BF4D11C4B93F88030C0
:100FF000042B0ED0194B052283F88020B0F8053061
:10100000164AD382164800220270438000F06DFE1B
:10101000E0E7124B062283F88020EFE7B0F80330B8
:1010200040F2094293420DD040F60E4293420FD057
:1010300040F202429342CDD10A49084BD88A00F0CF
:101040007AFBC7E70121054BD88A00F02AFCC1E7EB
:10105000024BD88A00F055FDBCE700BF9402002087
:101060009002002007B2010008B50021022003F021
:1010700045FB08BD08B5012003F06EFB08BD08B5AF
:10108000012003F01DFC08BD10B588B00DF1040C63
:10109000094C0FCCACE80F0094E80700ACE8030063
:1010A0002CF8022B120C8CF8002009F03DFD01A851
:1010B00003F0BFF908B010BD44D40008054BCA22A4
:1010C0005A6253225A629A6822F007029A60FF22FB
:1010D0005A627047002800407047000008B50020A1
:1010E00001F04EFF68B181794FF0B042054BC2F874
:1010F0009C30D2F89C3023F47C5343EA0123C2F89D
:101100009C3008BDFECAFECA08B54FF0B0429368D5
:1011100043F40043936003F0D1FA054AD2F88030DB
:1011200023F0070343F00403C2F8803008BD00BF7A
:101130000004005800B589B009F0F0FB0E4A002108
:10114000042003F0E9FB0D4B00930D4B019369461E
:101150000C4803F01DFA0C4B02930C4B03930C4B01
:10116000049340F23C53059302A809F0ABFC09F04C
:10117000D1FB09B05DF804FBB5450008100403205D
:10118000D9100008F5110008F8010320040303201A
:101190001C05032000B585B0002300930193029342
:1011A000039343685B7B23B1012B1ED005B05DF830
:1011B00004FBFFF769FF0F238DF800307F238DF8C4
:1011C00002300B4A13681B0CADF80C301368C3F3E4
:1011D0000B03ADF80E30684603F03AF9FFF798FEBE
:1011E0000021012003F074FAE0E700230370DDE73B
:1011F000002004E04368B3F80B30B3F5124F00D081
:10120000704710B584B00446684603F02FF92046B5
:10121000FFF7C0FF04B010BD08B5034B4FF4004208
:101220001A61FFF75BFF08BD00400058034AD2F87F
:10123000903043F05003C2F89030704700080058D7
:1012400008B5FFF7F3FFFFF739FF08BD08B5FFF753
:10125000F7FFFFF759FF0349002001F011FBFFF7EB
:1012600069FF08BD4C05002038B5044603F0AEFB0D
:101270000546B4F1FF3F09D003F0B4FB044405E098
:10128000054A136923F00403136130BF03F09EFB8A
:10129000401BA042F4D338BD00ED00E008B54FF08C
:1012A000FF3003F071FA08BD704708B50021042033
:1012B00003F024FA08BD08B5022003F04DFA08BD7A
:1012C00008B5022003F0FCFA08BD018042804360AB
:1012D000704700002DE9F04F83B0D0F804A0D1F89A
:1012E00004B0B0F800E0B0F802C075465B4612E00A
:1012F000002143F8041B013A002AF9D14FF07E5235
:1013000043F8042B013D2A4603E0002143F8041B67
:10131000013A002AF9D115B1AEEB0502ECE7E1463E
:10132000DFED686AD846019093E0F1EE677AF4EE5B
:10133000C77AF1EE10FA13DC02EB8C02013373452D
:1013400011D2D2ED007AF5EEC07AF1EE10FAECDDB2
:10135000F4EEC77AF1EE10FAEEDDB0EE677AEBE765
:10136000B0EE677AE8E7B5EE407AF1EE10FA00F0F9
:101370009B80F5EEC06AF1EE10FA13DDF0EE667AAE
:10138000B4EE677AF1EE10FA0FD1F5EE406AF1EEA5
:1013900010FA00F08E80009BD3ED006AACEB0506DE
:1013A000324611E0F1EE667AEAE7AEEB0503013B67
:1013B00000E0013B002BFCD1E7E793ED007AC7EE9C
:1013C000267AE3EC017A013A002AF6D160465B46C0
:1013D00006E093ED007AC7EE267AE3EC017A013855
:1013E0000028F6D174464246534625E003EB8603B7
:1013F00002EB8C021CE0D3ED007AB1EC017A27EE0F
:10140000267A77EEC77AE3EC017A013F002FF2D11A
:10141000674659460AE0D2ED007AB1EC017A27EE30
:10142000267A77EEC77AE2EC017A013F002FF2D1FB
:1014300003EB8503013C013034B1A842D6D0D3ED93
:10144000006A37460099E1E70AF1040A09F1FF3919
:101450000135B9F1000F0CD00CFB05F30AEB830248
:10146000009208EB830BD2ED006A2B469FED157AB4
:1014700065E70198F5EE406AF1EE10FA1CD141687B
:1014800001E009F101090CFB0EF34B4508D901EB12
:101490008902D2ED007AF5EE407AF1EE10FAF0D042
:1014A0004B450BD0002001E06FF0040003B0BDE815
:1014B000F08F6FF00400F9E70020F7E76FF0040009
:1014C000F4E700BF000000002DE9F047034688461E
:1014D000D0F804C04D68D2F804904888B3F802E010
:1014E0001F8800261FE0F3EC017AD2ED006A67EE58
:1014F000A67A37EE277A02EB800201390029F2D171
:101500005346A3EC017A013C021B05EB82022CB18D
:101510009A46714663469FED087AEFE706440CEB66
:101520008E0C013F05D009EB860AD8F8042004464A
:10153000EFE70020BDE8F0870000000070B54368C9
:101540004E68B0F800C0458864464FF0000E0BE0CE
:1015500053F8040B086001EB8C01013A002AF7D123
:101560000EF1010E013C03D006EB8E012A46F5E791
:10157000002070BD10B588B000248DF807401822F7
:10158000214602A801F0F8FC3F23ADF80830812382
:10159000ADF80A300DF107030693012307932146A6
:1015A00002A800F0A3FDA04203DB9DF8070008B0ED
:1015B00010BDFF20FBE72DE9F04FCBB09C469DF816
:1015C00054619DF85C5106F1080A04AC04EB0A0B67
:1015D00077190937E31901930DF10F094FF000084E
:1015E0008DF80F808DF81000ADF81110ADF81320B4
:1015F0008DF815C09DF850318DF816308DF81760B4
:101600003246569906A801F0B3FC04F80A50093690
:101610002A4658990BF1010001F0AAFC3544BDF8A7
:101620006431E353BDF86831019A538004351822C0
:10163000414644A801F0A0FC3F23ADF810318323BC
:10164000ADF8123146944795CDF820910123499386
:10165000414644A800F04AFD404504DB9DF80F00D8
:101660004BB0BDE8F08FFF20FAE770B5C8B00DF1C0
:10167000070500248DF8074002AE8DF808001822F7
:10168000214642A801F078FC3F23ADF808318523BC
:10169000ADF80A3144960123459346954793214678
:1016A00042A800F023FDA04203DB9DF8070048B0EC
:1016B00070BDFF20FBE770B5C8B00DF1070600252F
:1016C0008DF8075002AC8DF808008DF809108DF8E0
:1016D0000A208DF80B309DF830318DF80C309DF8D4
:1016E00034318DF80D309DF838318DF80E304F9B28
:1016F000CDF80F309DF840318DF81330182229466F
:1017000042A801F039FC3F23ADF808318623ADF83B
:101710000A3144940C234593469601234793294666
:1017200042A800F0E3FCA84203DB9DF8070048B0A4
:1017300070BDFF20FBE770B5C8B00DF107060024AF
:101740008DF8074002ADADF80800CDF80A10182258
:10175000214642A801F010FC3F23ADF80831882350
:10176000ADF80A31449506234593469601234793E5
:10177000214642A800F0BAFCA04203DB9DF8070016
:1017800048B070BDFF20FBE72DE9F041C8B0074627
:101790000E461546984607220021684601F0ECFBEC
:1017A00002AC8DF808708DF809608DF80A50182287
:1017B000002142A801F0E0FB3F23ADF808318A2365
:1017C000ADF80A31449403234593CDF818D107238B
:1017D0004793002142A800F089FC002811DB9DF806
:1017E000000058B9BDF80130A8F80030BDF803205A
:1017F0004E9B1A80BDF805204F9B1A8048B0BDE86B
:10180000F081FF20FAE7F0B5C9B004460DF10706F4
:1018100000258DF8075002AF8DF8080002460DF143
:10182000090001F0A5FB01341822294642A801F065
:10183000A3FB3F23ADF808318E23ADF80A3144975E
:101840004594469601234793294642A800F04EFC52
:10185000A84203DB9DF8070049B0F0BDFF20FBE77D
:1018600010B588B000248DF807401822214602A840
:1018700001F082FB3F23ADF808309223ADF80A3027
:101880000DF10703069301230793214602A800F0F8
:101890002DFCA04203DB9DF8070008B010BDFF201F
:1018A000FBE770B5C8B00DF1070600248DF80740BE
:1018B00002ADADF808008DF80A101822214642A8A2
:1018C00001F05AFB3F23ADF80831A523ADF80A31EA
:1018D000449503234593469601234793214642A806
:1018E00000F004FCA04203DB9DF8070048B070BD87
:1018F000FF20FBE710B588B000248DF807401822C0
:10190000214602A801F038FB3F23ADF8083040F231
:101910000113ADF80A300DF1070306930123079375
:10192000214602A800F0E2FBA04203DB9DF807007D
:1019300008B010BDFF20FBE72DE9F041C8B0044618
:10194000884617461E46012813D002280FD00125CD
:1019500002AB1D440322002101A801F00DFB8DF80C
:101960000840012C07D0022C32D1102404E01125AC
:10197000EEE70325ECE70224224641460DF109007B
:1019800001F0F6FA2F706E7003341822002142A87D
:1019900001F0F2FA3F23ADF808314FF48173ADF84E
:1019A0000A3102AB4493459401AB4693032347931A
:1019B000002142A800F09AFB00280BDB9DF80400F0
:1019C00018B9BDF805204E9B1A8048B0BDE8F081DB
:1019D0009720FAE7FF20F8E72DE9F041C8B0064666
:1019E0000C4690461F46012915D0022911D0032527
:1019F00002AB1D440322002101A801F0BDFAADF89D
:101A000008608DF80A40012C07D0022C40D1102428
:101A100004E01325ECE70525EAE7022422464146C7
:101A20000DF10B0001F0A4FA2F809DF83831AB7056
:101A30009DF83C31EB709DF840312B719DF844319D
:101A40006B719DF84831AB710A341822002142A80D
:101A500001F092FA3F23ADF808314FF48273ADF8EC
:101A60000A3102AB4493459401AB46930323479359
:101A7000002142A800F03AFB00280BDB9DF804008F
:101A800018B9BDF80520539B1A8048B0BDE8F08115
:101A90009720FAE7FF20F8E7F0B5C9B01C460DF132
:101AA000070700268DF8076002ADADF80800ADF815
:101AB0000A108DF80C208DF80D301A464E990DF154
:101AC0000E0001F055FA06341822314642A801F002
:101AD00053FA3F23ADF808314FF48373ADF80A3160
:101AE00044954594469701234793314642A800F018
:101AF000FDFAB04203DB9DF8070049B0F0BDFF20BE
:101B0000FBE770B5C8B00DF1070500248DF807405C
:101B100002AEADF808001822214642A801F02CFAC6
:101B20003F23ADF8083140F22513ADF80A31449651
:101B300002234593469501234793214642A800F08E
:101B4000D5FAA04203DB9DF8070048B070BDFF2026
:101B5000FBE7F0B5C9B00C4611460DF107070025AB
:101B60008DF8075002AE8DF808008DF80940224626
:101B70000DF10A0001F0FCF902341822294642A8AE
:101B800001F0FAF93F23ADF808310C23ADF80A3122
:101B900044964594469701234793294642A800F06E
:101BA000A5FAA84203DB9DF8070049B0F0BDFF206D
:101BB000FBE770B5C8B00DF1070600248DF80740AB
:101BC00002AD8DF808008DF809101822214642A8B0
:101BD00001F0D2F93F23ADF808310F23ADF80A31F7
:101BE000449502234593469601234793214642A8F4
:101BF00000F07CFAA04203DB9DF8070048B070BDFE
:101C0000FF20FBE770B5C8B00DF1070500248DF883
:101C1000074002AEADF808001822214642A801F0A4
:101C2000ABF93F23ADF808311823ADF80A314496DB
:101C300002234593469501234793214642A800F08D
:101C400055FAA04203DB9DF8070048B070BDFF20A5
:101C5000FBE710B588B000248DF807401822214614
:101C600002A801F089F90323ADF80830ADF80A3075
:101C70000DF10703069301230793214602A800F004
:101C800035FAA04203DB9DF8070008B010BDFF2025
:101C9000FBE770B5C8B00DF1070600258DF80750B9
:101CA00002AC8DF808008DF809108DF80A20182272
:101CB000294642A801F060F90823ADF80831312324
:101CC000ADF80A3144940323459346960123479384
:101CD000294642A800F00AFAA84203DB9DF8070053
:101CE00048B070BDFF20FBE77047704770470000A9
:101CF0004378FF2B01D000207047B0F8033040F646
:101D00001342934210D040F61B42934215D040F646
:101D10000142934221D1B0F80720134B5B88013375
:101D20009A421CD000207047B0F807200E4B5B8809
:101D300001339A4215D00020704700B587B00123C7
:101D40008DF80430B0F80530ADF8143001A8FFF775
:101D5000CBFF002007B05DF804FB00207047012096
:101D600070470120704700BF2003002030B58BB0C2
:101D70003A4808F0AFFB8F238DF81830E5238DF833
:101D80001930B3238DF81A30D5238DF81B302E234C
:101D90008DF81C307F238DF81D304A238DF81E30BE
:101DA00098238DF81F302A238DF8203048238DF892
:101DB00021307A238DF82230CC238DF82330002473
:101DC0008DF824408DF825408DF826408DF8274069
:101DD000234D00950323012206A90220FFF7ACFD45
:101DE00019238DF81830ED238DF8193082228DF8E3
:101DF0001A20AE228DF81B208DF81C3021238DF87F
:101E00001D304C238DF81E309D238DF81F3041234B
:101E10008DF8203045238DF8213022238DF8223093
:101E20008E238DF823308DF824408DF825408DF8D1
:101E300026408DF8274035F8020B059504941023B1
:101E4000039307230293019408230093054B1B88F7
:101E500006AA0221FFF7C0FD0BB030BDF11C00083F
:101E600020030020100000202DE9F0418AB000245A
:101E7000059406940794089409944FF0B043DA6CE3
:101E800042F00402DA64DA6C02F004020492049A6A
:101E9000DA6C42F08002DA64DA6C02F080020392BB
:101EA000039ADA6C42F00202DA64DA6C02F002029F
:101EB0000292029ADA6C42F00102DA64DA6C02F001
:101EC00001020192019ADA6C42F00802DA64DB6CDA
:101ED00003F008030093009B22464CF201014FF0EF
:101EE000904003F03FFB2E4E22464FF4A051304667
:101EF00003F038FBDFF8B48022460321404603F0AC
:101F000031FB284F22463821384603F02BFB4FF493
:101F1000005305930694079405A9304603F048FA48
:101F2000082305930694079405A91F4803F040FA77
:101F30004CF201030593012506950794089405A921
:101F40004FF0904003F034FA0623059302230693E2
:101F500007940894099505A94FF0904003F028FADA
:101F60004FF4A053059306950794089405A93046AD
:101F700003F01EFA0323059306950794089405A918
:101F8000404603F015FA3823059306950794089404
:101F900005A9384603F00CFA0AB0BDE8F08100BF8D
:101FA0000008004800040048001C0048000C0048DD
:101FB00008B520B9054B1B6803B1984708BD034B12
:101FC0001B68002BFAD001209847F7E72803002070
:101FD00010B584B004460A4808F0F8F9094B1C60B3
:101FE000094808F0F3F9094B01221A70084B1B68E5
:101FF00023B10294074A00926846984704B010BD86
:102000002C030020C8010020CC010020C4010020C6
:10201000340300209921000810B50B461146084AE8
:102020001468A4F80900E3721A4604F10C000AF0DF
:102030003BFA044B1B6900210846984710BD00BFBE
:10204000C80100203403002010B50C464A68054B37
:102050001A60054BD861184600F0B8F82068FFF701
:10206000B7FF10BD280300203403002000B585B061
:102070001B4808F0AEF910B91A4B1B784BB9184839
:1020800008F0A7F910B9174B1B7823BB05B05DF812
:1020900004FB03A9124808F0CCF9134BDB698BB1A0
:1020A000039A029201228DF8042001A898479DF816
:1020B00004200C4B1A700B4B1B783BB1039808F0B3
:1020C00025FDDCE7074B01221A70F4E70399044869
:1020D00008F08BF9D3E70248FEF7C6FFD6E700BF4A
:1020E000CC010020C401002034030020F0B583B0EF
:1020F00007460020FFF75CFF7D883B88C5F3090594
:1021000045EA8325ADB2224B01221A70BA68397BA9
:102110002846FFF781FF0026002E33D148F2E80061
:10212000FEF7ADFF05E0B4F80D30AB4216D0237BCF
:1021300033BB184808F04DF90028EDD101A9154826
:1021400008F077F9019C637A0F2BECD0A389AB429E
:1021500008D0E37A002BECD00126EAE73B69E27A6B
:102160001A70E4E7A27A033AD2B27B699A42A8BF16
:102170001A467A6104F10E0138690AF095F9E8E728
:102180000126D6E70120FFF713FF002003B0F0BDC2
:10219000240300202C03002010B50146437A0E3B97
:1021A000DBB2012B07D9074C204608F02AF920465C
:1021B000FEF75AFF10BD044808F023F90020FEF78F
:1021C00059FFF7E7CC0100202C030020024B0360ED
:1021D000024B0361704700BF7DA90008C5A9000834
:1021E00010B5EFF3108272B6064C636843F4002317
:1021F000636082F31088044B1B6898474FF40023F8
:10220000A36010BD000C00585403002082B04FF0B2
:10221000B043D3F8502142F48012C3F85021D3F8D0
:10222000503103F480130193019B0A4B1A6A42F464
:1022300000721A62D3F8D42042F40072C3F8D4209A
:1022400040BF20BF044AD36843F40043D36002B0C8
:10225000704700BF000800580004005800B583B064
:102260004FF0B0431A6D42F480121A651B6D03F4EF
:1022700080130193019B094B1A6842F001021A6016
:102280001A6842F480321A602C2003F059F82D208D
:1022900003F056F803B05DF804FB00BF000C0058D3
:1022A000EFF3108172B6044A536823F001035360C0
:1022B00081F31088704700BF000C0058024B4FF4A8
:1022C00080329A60704700BF000C005808B5EFF3E9
:1022D000108172B6044A536843F40013536081F3CB
:1022E000108808F095FB08BD000C005808B508F0F0
:1022F00077FB024B01229A6008BD00BF000C00581A
:10230000EFF3108172B6044A536823F0020353605E
:1023100081F31088704700BF000C0058064B4FF443
:1023200000329A60EFF3108172B65A6822F40032DC
:102330005A6081F310887047000C005808B5EFF31D
:10234000108172B6044A536843F40033536081F33A
:10235000108808F091FB08BD000C005808B5144B1C
:10236000DB6813F0020F04D1114B5B6813F4003FDC
:1023700014D00F4BDB6813F0080F04D10C4B5B68D3
:1023800013F4002F0DD00A4BDB6813F0200F04D19B
:10239000074B5B6813F4001F06D008BDFFF7CEFFA4
:1023A000FBE7FFF71DFFF8E7FFF790FFF5E700BF3A
:1023B000000C005808B508F06DFB024B02229A6031
:1023C00008BD00BF000C005808B50C4BDB6813F0CB
:1023D000080F05D18047094B4FF400229A6008BDD1
:1023E000074B1860EFF3108172B6044A536823F468
:1023F0000023536081F31088F1E700BF000C005800
:1024000054030020EFF3108172B6044A536823F09E
:102410000803536081F31088704700BF000C005818
:1024200008B508F093FB024B08229A6008BD00BF74
:10243000000C005808B5144BDB6913F0020F0AD1E9
:10244000114BDB6913F0010F0DD10F4BDB6913F05A
:10245000080F10D108BD0C4B5B6813F0020FEFD1D1
:10246000FFF7A8FFF6E7084B5B6813F0010FECD10C
:10247000FFF73CFFEEE7044B5B6813F0080FE9D170
:10248000FFF7CEFFE6E700BF000C0058064A936A4C
:102490009BB2906A80B203E0034B9A6A034690B203
:1024A0008342F9D1704700BF0028004001EB410290
:1024B0000D4B03EBC2035B7DDBB2062B05D003EBB8
:1024C000430C094A02EBCC021075074A00EB400CA2
:1024D00002EBCC0C8CF815308CF8141001EB410198
:1024E00002EBC1025075704768030020174B1B7840
:1024F000DBB28B421DD0164B01EB410203EBC20253
:10250000127D5FFA82FC02EB420203EBC2025075BD
:1025100000EB400203EBC202517500EB400203EBFB
:10252000C20282F814C001EB410103EBC10318752C
:102530007047074B00EB400203EBC202517501EB01
:10254000410103EBC1031875704700BF650300200C
:102550006803002010B4234B1B78DBB283422CD0DD
:10256000214C00EB400204EBC20292F814C0537DF0
:10257000DBB2527DD2B20CEB4C0C04EBCC04627596
:10258000062B0BD0184A00EB400402EBC404247D58
:10259000E4B203EB430302EBC302147500EB40000B
:1025A000114B03EBC00301221A730E4B1B78DBB2F5
:1025B000062B10D05DF8044B70470A4C2378DBB231
:1025C0000A4A137000EB4002074B03EBC2035B7D2A
:1025D000DBB22370E2E70029ECD1054B4FF0FF326C
:1025E0001A60E7E765030020680300206403002009
:1025F0006003002008B5104B1B68B3F1FF3F02D108
:10260000002080B208BDFFF741FF0B4B1B688342DF
:102610000AD3094B1B681B1A084A107803FB00F009
:10262000074B1B78D840ECE7064B1A88121A024B6E
:102630001B681344F0E700BF600300205C03002028
:102640005D0300205A03002070B50446314B1B780F
:10265000DBB2062B13D12F4A1378DBB22E490B7055
:10266000107000EB40042D4B03EBC404062363758C
:102670002B4B4FF0FF321A600025284670BDFFF744
:10268000B9FF0546254B04EB440203EBC2029168F7
:102690000144916004EB440203EBC20290681D4ABE
:1026A000127802EB420203EBC2039B68834225D8F7
:1026B000184B1B78D9B203EB4303184A02EBC30350
:1026C0005B7DDBB20CE0154A01EB410102EBC1017D
:1026D0004B7DD9B203EB430302EBC302537DDBB264
:1026E000062B07D003EB43030C4A02EBC3039B68A2
:1026F0008342E8D92046FFF7D9FEBEE7054E317880
:102700002046FFF7F3FE3378DBB2034A13703470D0
:10271000B3E700BF650300206403002068030020C6
:102720006003002010B548B3044601282ED9013CAF
:10273000A4B2194B1B68DA6812F0040FF9D0DA68FA
:10274000D2B262F49062DA60144B4FF40022DA6085
:10275000032002F01FFE124A53696FF30F031C435C
:102760005461FFF793FE0F4B18600B4B1A68936888
:1027700043F480639360AFF3008010BDFFF786FEE3
:10278000084B1860032002F0F7FDF6E7064B1B78B4
:10279000012BCCD1CDE700BF4C050020000800582C
:1027A00000280040600300205D03002038B52E4B58
:1027B0009B6813F4806F05D02C4B1B68DB6813F00B
:1027C000040FF9D1294B1A68936823F4806393604E
:1027D000274B1B78DCB203EB4303264A02EBC3030F
:1027E0009D68FFF707FF8446A84204D9224B0122C7
:1027F0001A70002024E0214B1B8810FA83F3AB42AF
:1028000006D21E4B188880B21B4B00221A7017E0AC
:10281000A8B2A0EB0C0080B2174B01221A700FE097
:1028200004EB4404134A02EBC404A268A2EB0C02BA
:10283000A26003EB43030F4A02EBC3035C7DE4B2E7
:10284000062C0ED0234604EB44010A4A02EBC102D7
:1028500092689445E4D9074A02EBC1040022A260C1
:10286000E7E7FFF75FFF38BD002800404C05002078
:1028700065030020680300205E0300205803002049
:1028800010B5484B1B68CA225A6253225A62464B03
:102890009A6842F020029A609A6802F00702C2F138
:1028A0000402D2B241490A701B6903F4FE034FF4DB
:1028B000FE0191FAA1F1002931D0B1FA81F1CB40AA
:1028C000DBB20133DBB23A490B7037490969C1F316
:1028D0000E010131374C2180013901FB03F3A3F5CF
:1028E000A073D3404FF6FE7293421AD9324B4FF683
:1028F000FF721A80314B1A6842F400221A60D3F832
:10290000802042F40022C3F8802000283FD12C4BC5
:1029100001221A702B4B4FF0FF321A600EE020217B
:10292000CDE79BB2244A1380E4E700EB4002264B3C
:1029300003EBC20300221A730130C0B20528F4D998
:10294000224B06221A70174C2268936823F4806386
:102950009360D368DBB263F49063D360174B4FF49A
:102960000022DA60032002F015FD2268936843F428
:10297000804393600B4B1B68FF225A6200220321A5
:10298000084602F0CDFC032002F0DAFC10BD054B36
:102990001B68DB6813F4806FECD0032002F0ECFCC2
:1029A000E8E700BF4C050020002800405D03002040
:1029B0005C0300205A030020580300200008005840
:1029C0005E030020600300206803002065030020F0
:1029D00038B50446EFF3108572B6032002F0B4FC5C
:1029E000254B1B68CA225A6253225A6204EB4402E6
:1029F000224B03EBC2031B7BDBB2022B09D01E4B25
:102A00001B68FF225A62032002F09AFC85F31088AB
:102A100038BD00212046FFF79DFD194B1B78DBB226
:102A2000062B07D0174A1278D2B29A42E7D0FFF7A6
:102A3000BDFEE4E7144B9B6813F4806F05D00E4B8A
:102A40001B68DB6813F0040FF9D10B4B1A6893680D
:102A500023F480639360D36813F0040FFBD0D36832
:102A6000DBB263F49063D360084B4FF40022DA606A
:102A7000032002F08FFCC2E74C0500206803002011
:102A8000650300206403002000280040000800586F
:102A900070B504460D4600EB4002214B03EBC20328
:102AA0001B7BDBB2022B35D0EFF3108672B603200E
:102AB00002F04AFC1B4B1B68CA225A6253225A621C
:102AC00004EB4402164B03EBC20302221A739D600F
:102AD0005D602046FFF7B8FD134B1B78DBB2134A4D
:102AE0001278D2B29A4218D10D4B04EB440203EB98
:102AF000C2029268121A04EB440403EBC4039A6006
:102B0000084B1B68FF225A62032002F019FC86F36F
:102B1000108870BDFFF75CFFC6E7FFF747FEEFE7E1
:102B2000680300204C05002065030020640300209A
:102B300008B5904708BD0000F8B5EFF3108572B6F0
:102B4000314B1B68CA225A6253225A629A6822F495
:102B500080629A602D4A1478E4B204EB4402D100FA
:102B60002B4A0A44127BD2B2022A13D0DA6812F03E
:102B7000040FFBD0DA68D2B262F49062DA60254BBF
:102B80004FF40022DA6085F310881F4B1B68FF2288
:102B90005A62F8BD1E4A04EB4401CB00D118D75845
:102BA0000E691D4B1B7853B34B7BDBB2012B10D04E
:102BB00085F310882046FFF70BFF134B1B68CA22D2
:102BC0005A6253225A623A4621463046FFF7B0FF16
:102BD000DBE701212046FFF7BDFC85F3108804EBFD
:102BE0004403DA000A4B134459682046FFF750FFAC
:102BF000054B1B68CA225A6253225A62E3E7FFF769
:102C0000D5FD85F31088C0E74C0500206503002042
:102C100068030020000800585E03002008B5124831
:102C2000124B0360124B4360002383600122C26099
:102C3000036143618361C361036202F0A7FC50B981
:102C40000021094802F006FD40B90021064802F0C3
:102C50002FFD30B908BD00F08BF8F1E700F088F8DF
:102C6000F3E700F085F8F5E7F80300200054004092
:102C7000B57DB11010B59CB0044600211791189194
:102C800019911A911B91502203A809F0C9FB2268DF
:102C9000194B9A4201D01CB010BD042303934FF48A
:102CA00040330B9303A804F04AFC10BB4FF0B04430
:102CB000E36C43F00203E364E36C03F0020302936A
:102CC000029B4FF440731793122318930023199318
:102CD0001A9304231B9317A9084802F069FBA36DFC
:102CE00043F40013A365A36D03F400130193019B48
:102CF000D1E700F03DF8D9E7005400400004004857
:102D000008B50548054B036002F01CFD00B908BD7D
:102D100000F02EF8FBE700BF4C040020000C005828
:102D20000268124B9A4200D0704700B583B04FF052
:102D3000B0431A6D42F480121A651B6D03F48013C0
:102D40000193019B002211462C2002F0E9FA2C206D
:102D500002F0F6FA002211462D2002F0E1FA2D20B1
:102D600002F0EEFA03B05DF804FB00BF000C00585F
:102D700072B6FEE710B59AB04822002108A809F003
:102D80004FFB002401940294039404940594069448
:102D9000079403F0FFFC4FF0B042D2F8903023F0DC
:102DA000180343F01003C2F8903002F580621368F4
:102DB00023F4C06343F400731360136803F4C06327
:102DC0000093009B2F2308934FF480330993012332
:102DD0000A934FF480720B920F9340220C9210943E
:102DE0006022119205220D920222139214931594DF
:102DF000202316934FF4003317934FF00053199389
:102E00004FF00073189308A803F0D2FD90B96F2318
:102E100001930321029100230393049305938022DD
:102E20000692079301A804F04FF928B904F000FDB9
:102E30001AB010BDFFF79CFFFFF79AFF00B595B0E1
:102E400050220021684609F0EBFA4FF454530093E6
:102E5000182301934FF4003302934FF00073039350
:102E60004FF0005304934FF0885305934FF0806365
:102E70000D934FF080530F934FF440431193102361
:102E80001393684604F05BFB28B9044BD3F89430E5
:102E900015B05DF804FBFFF76BFF00BF001400588E
:102EA00000B587B001F070FDFEF7B6F9FFF762FFDD
:102EB000FFF7C4FFFFF724FFFEF7D6FFFDF7C6FEBE
:102EC000FFF7ACFE07F026FC07F0ACFC07F052FE63
:102ED00001F042FA07F0DAFE01F03CFA07F0D6FE04
:102EE0004FF47A70FEF7C0F90D211B4808F09EF9E7
:102EF0000F211A4808F09AF900F0AEF8002000F00F
:102F0000EFF94FF47A70FEF7AFF9154B1B683222D8
:102F10001A630023019302930393049305934023C0
:102F20000193012302930223039301A90D4802F0A8
:102F30003FFA14210C4808F079F94FF47A70FEF743
:102F400093F91421094808F071F9FEF77FF9FEF7AB
:102F5000A5F900F0CBF9FAE798D40008A8D4000846
:102F60004407002000040048B8D40008D0D400086A
:102F700008B509F099FA08BD08B509F051FA08BD7D
:102F800001460748C3798B4204D0064A904201D0DB
:102F90000838F7E78B4200D170470020FCE700BFFC
:102FA000F873FF1F0070FF1F2DE9F0418EB08046BF
:102FB0000F4615461E4643B11C23012D07DD9A1E00
:102FC000AA4200DCDD1E00241BE01223F5E70225E7
:102FD000F5E7A81E3146204400F09CF9394686F0FA
:102FE000010000F031FB07EE900AF8EE677A9FEDE2
:102FF000197A77EEC77A0EAB03EB840343ED057ABB
:103000000134042CE5DD2022002101A809F008FA92
:1030100005238DF804304FF08143039309AB0493EB
:1030200001A801F019F907EE905AF8EEE77A77EE69
:10303000807AB0EE007A77EEC77A059B2B44023B8C
:10304000C8F80030C8ED017A88F8086040460EB034
:10305000BDE8F0810000C84208B50121002000F061
:1030600059F900F09DFA01F021F80321014801F01F
:10307000B5F808BDC4040020F0B52DED048B8DB06B
:10308000724E6C46724F0123326839782046FFF742
:103090008BFF94E8070086E807006E4D00232A683E
:1030A00039782046FFF780FF94E8070085E807009D
:1030B000D6ED018A95ED018A0024254600E0013411
:1030C000072C11DC0121614B186800F023F9E1B2F3
:1030D000002000F0B9FA604B23F81400A842EED9A2
:1030E0005B4B1C600546EAE7962D40F2A88000F095
:1030F00013FB0F21594808F099F8554C236803F148
:103100000043023B05A9544800EB430001F03EF8A0
:10311000DDED077A77EEA77ADDED066A86EEA77A0F
:10312000D4ED007AF8EEE77A77EEC77AB2EE067A57
:1031300077EE677A17EE900AFDF7BEF941EC100BB7
:1031400009F03EFD51EC100BFDF7D0FC00EE100A2B
:10315000DFED437AB4EEE70AF1EE10FA68D4414BA2
:103160001B7833B93F4B01221A703F4B1A683F4B13
:103170001A609FED3F9AB0EE682ADFED3E1AB0EE7E
:10318000491AF2EE050AB6EE000A00F063FF10EEEF
:10319000100AFDF791F941EC100B09F06DFD51ECAF
:1031A000100BFDF77BFC0446B0EE482AF0EE491AFE
:1031B0009FED311AF1EE0E0AB6EE000A00F04AFF5A
:1031C00010EE100AFDF778F941EC100B09F054FDF0
:1031D00051EC100BFDF762FC234B93ED007A234B6F
:1031E000D3ED007A37EE677ADFED246AC7EE267AF0
:1031F00067EEA77AB0EE677ABEEECA7A17EE103A9B
:10320000B3F5805F01DB40F6FF730022089209925C
:103210000A920B92ADF82040ADF822009B00ADF869
:103220002A3008A800F07AFA0DB0BDEC048BF0BD8E
:10323000134800F0ECFF0C4B83ED000A8FE7094BBD
:1032400000221A7000F069FAEEE700BF9404002033
:103250001400002088040020A8040020E8D40008FE
:103260000000FA44A4040020BC040020A0040020B4
:10327000000000000000FA4600409C46CD4C6BC4A4
:10328000C404002010B5002408E00121204600F00D
:1032900041F80021084600F0D7F901341B2CF4D97D
:1032A000002301E000BF01334CF24F329342F9DDBD
:1032B00010BD10B5002408E00021204600F02AF8D7
:1032C0000021012000F0C0F90134112CF4D90023B1
:1032D00001E000BF01334CF24F329342F9DD10BDE3
:1032E000014B1870704700BFC004002008B5084BA0
:1032F0001B78012B05D0022B06D00BB9FFF7BCFEC3
:1033000008BDFFF7BFFFFBE7FFF7D3FFF8E700BFFC
:10331000C004002010B582B0002306E003F10802CB
:103320006A44012402F8084C2344052BF6D90029ED
:1033300000F09F801B2800F22B811B2800F22881BF
:10334000DFE800F00E13181D22272C31353A3F44D8
:10335000494E53585C61666B70757A7F83888D9295
:1033600000238DF80030012498E000238DF8003010
:10337000022493E000238DF8003004248EE0002323
:103380008DF80030062489E000238DF800300724F2
:1033900084E000238DF8003005247FE000238DF8C1
:1033A000013003247AE000248DF8014076E0002308
:1033B0008DF80130012471E000238DF801300224E2
:1033C0006CE000238DF80130042467E000238DF8C1
:1033D0000130062462E000238DF8013007245DE00F
:1033E00000238DF80130052458E000238DF80230C9
:1033F000032453E000248DF802404FE000238DF8B1
:10340000023001244AE000238DF80230022445E016
:1034100000238DF80230042440E000238DF80230B0
:1034200006243BE000238DF80230072436E0002319
:103430008DF80230052431E000238DF80330032499
:103440002CE000248DF8034028E000238DF80330A1
:10345000012423E000238DF8033002241EE0002322
:103460008DF80330042419E000238DF8033006247E
:1034700014E0112800F28C80112800F28980DFE826
:1034800000F00925292E33383D42474C50555A5FEC
:1034900064696E7300238DF80430032404F0010284
:1034A0004FF480613B4802F05DF8C4F340024FF4F2
:1034B00000414FF0904002F055F8A2084FF48041CF
:1034C0004FF0904002F04EF800245FE000248DF8A9
:1034D0000440E3E700238DF804300124DEE70023F5
:1034E0008DF804300224D9E700238DF80430042439
:1034F000D4E700238DF804300624CFE700238DF8AD
:1035000004300724CAE700238DF804300524C5E7FA
:1035100000238DF805300324C0E700248DF8054012
:10352000BCE700238DF805300124B7E700238DF8B0
:1035300005300224B2E700238DF805300424ADE7FE
:1035400000238DF805300624A8E700238DF8053008
:103550000724A3E700238DF8053005249EE7002308
:103560008DF80030032499E700248DF8004095E79A
:1035700004F108036B4413F8082C074B33F81410BC
:10358000064B53F8240001F0EDFF0134052CEFD970
:1035900002B010BD000800481800002024000020E0
:1035A00010B5104C0021204604F0BCFE0821204636
:1035B00004F0B8FE0021204604F05CFF08212046FC
:1035C00004F058FF084C0021204604F053FF074B3D
:1035D000074A1A6023687C22DA623E225A633C2240
:1035E0001A6310BD90070020440700203C0700200C
:1035F0000077FB4830B583B0002419E0104D284611
:1036000001F0ECFD4FF0FF31284601F00BFB28469E
:1036100001F062FB02AB03EB440323F8080C022128
:1036200080B207F003FE0121064807F0FFFD0134D8
:10363000022CE3D90321684600F019FD03B030BD28
:103640002C020020F8D4000838B5044672B62F4B7F
:103650001B6953F8213098478CB90023B12B06DC45
:1036600000BF0133FAE700BF01332B2BFBDD002243
:1036700001214FF0904001F075FF002303E000238B
:10368000F3E700BF013340F6AD029342F9DDFFF7E7
:10369000B1FF0446012211464FF0904001F062FF55
:1036A000002301E000BF01332B2BFBDD00220121B1
:1036B0004FF0904001F056FF002301E000BF0133BE
:1036C000582BFBDD124D284601F088FD4FF0FF31ED
:1036D000284601F0A7FA284601F0FEFA054662B630
:1036E000012211464FF0904001F03CFFADB2631B48
:1036F00007EE903AF8EEE77A9FED067A77EE877A52
:10370000FCEEE77A17EE903A98B238BD3C00002004
:103710002C0200200000C8427047704710B58AB0E4
:10372000044609210B4807F081FDB4F90A300093E3
:10373000B4F90230B4F90020074902A808F04EFE9F
:1037400002A8FCF7FDFC81B202A807F06FFD012082
:103750000AB010BDFCD4000808D500084F4A136811
:1037600043F4805313604E4B188900238CE04B4A7E
:103770004021916100BF00BF00BF00BF00BF00BF7C
:1037800000BF00BF00BF00BF00BF00BF00BF00BF41
:1037900000BF00BF00BF00BF00BF00BF00BF00BF31
:1037A00000BF00BF00BF00BF00BF00BF00BF00BF21
:1037B00000BF00BF00BF00BF00BF00BF00BF00BF11
:1037C00000BF00BF00BF00BF00BF00BF00BF00BF01
:1037D00000BF00BF00BF00BF00BF00BF00BF00BFF1
:1037E00000BF00BF00BF00BF00BF00BF00BF00BFE1
:1037F00000BF00BF00BF00BF4FF48001916100BF58
:1038000000BF00BF00BF00BF00BF00BF00BF00BFC0
:1038100000BF00BF00BF00BF00BF00BF00BF00BFB0
:1038200000BF00BF00BF00BF00BF00BF00BF00BFA0
:1038300000BF00BF00BF00BF00BF00BF00BF00BF90
:1038400000BF00BF00BF00BF00BF00BF00BF00BF80
:1038500000BF00BF00BF00BF00BF00BF00BF00BF70
:1038600000BF00BF00BF00BF00BF00BF00BF00BF60
:1038700000BF00BF00BF00BF00BF00BF00BF00BF50
:1038800000BF00BF01339BB298423FF670AF034ABE
:10389000136823F440531360704700BF00040048CE
:1038A0003C0000204E4A136843F4805313604D4B94
:1038B000188900238AE04A4A4021916100BF00BF75
:1038C00000BF00BF00BF00BF00BF00BF00BF00BF00
:1038D00000BF00BF00BF00BF00BF00BF00BF00BFF0
:1038E00000BF00BF00BF00BF00BF00BF00BF00BFE0
:1038F00000BF00BF00BF00BF00BF00BF00BF00BFD0
:1039000000BF00BF00BF00BF00BF00BF00BF00BFBF
:1039100000BF00BF00BF00BF00BF00BF00BF00BFAF
:1039200000BF00BF00BF00BF00BF00BF00BF00BF9F
:1039300000BF00BF00BF00BF00BF00BF00BF4FF40B
:103940008001916100BF00BF00BF00BF00BF00BF8A
:1039500000BF00BF00BF00BF00BF00BF00BF00BF6F
:1039600000BF00BF00BF00BF00BF00BF00BF00BF5F
:1039700000BF00BF00BF00BF00BF00BF00BF00BF4F
:1039800000BF00BF00BF00BF00BF00BF00BF00BF3F
:1039900000BF00BF00BF00BF00BF00BF00BF00BF2F
:1039A00000BF00BF00BF00BF00BF00BF00BF00BF1F
:1039B00000BF00BF00BF00BF00BF00BF00BF00BF0F
:1039C00000BF00BF00BF00BF01339BB298423FF66B
:1039D00072AF034A136823F440531360704700BF6B
:1039E000000400483C000020444A136843F480531C
:1039F0001360434B1889002378E0404A40219161CD
:103A000000BF00BF00BF00BF00BF00BF00BF00BFBE
:103A100000BF00BF00BF00BF00BF00BF00BF00BFAE
:103A200000BF00BF00BF00BF00BF00BF00BF00BF9E
:103A300000BF00BF00BF00BF00BF00BF00BF00BF8E
:103A400000BF00BF00BF00BF00BF00BF00BF00BF7E
:103A500000BF00BF00BF00BF00BF00BF00BF00BF6E
:103A600000BF00BF00BF00BF00BF00BF00BF00BF5E
:103A700000BF00BF00BF00BF00BF00BF4FF4800108
:103A8000916100BF00BF00BF00BF00BF00BF00BF0B
:103A900000BF00BF00BF00BF00BF00BF00BF00BF2E
:103AA00000BF00BF00BF00BF00BF00BF00BF00BF1E
:103AB00000BF00BF00BF00BF00BF00BF00BF00BF0E
:103AC00000BF00BF00BF00BF00BF00BF00BF00BFFE
:103AD00000BF00BF00BF00BF00BF00BF00BF00BFEE
:103AE00000BF00BF00BF00BF01339BB2984284D823
:103AF000024A136823F440531360704700040048DF
:103B00003C000020434A136843F480531360424B47
:103B10001889002375E03F4A4021916100BF00BF32
:103B200000BF00BF00BF00BF00BF00BF00BF00BF9D
:103B300000BF00BF00BF00BF00BF00BF00BF00BF8D
:103B400000BF00BF00BF00BF00BF00BF00BF00BF7D
:103B500000BF00BF00BF00BF00BF00BF00BF00BF6D
:103B600000BF00BF00BF00BF00BF00BF00BF00BF5D
:103B700000BF00BF00BF00BF00BF00BF00BF00BF4D
:103B800000BF00BF00BF00BF00BF00BF00BF00BF3D
:103B900000BF00BF4FF48001916100BF00BF00BFB4
:103BA00000BF00BF00BF00BF00BF00BF00BF00BF1D
:103BB00000BF00BF00BF00BF00BF00BF00BF00BF0D
:103BC00000BF00BF00BF00BF00BF00BF00BF00BFFD
:103BD00000BF00BF00BF00BF00BF00BF00BF00BFED
:103BE00000BF00BF00BF00BF00BF00BF00BF00BFDD
:103BF00000BF00BF00BF00BF00BF00BF00BF013358
:103C00009BB2984287D8034A136823F44053136049
:103C1000704700BF000400483C000020414A136880
:103C200043F480531360404B1889002372E03D4AEF
:103C30004021916100BF00BF00BF00BF00BF00BFB7
:103C400000BF00BF00BF00BF00BF00BF00BF00BF7C
:103C500000BF00BF00BF00BF00BF00BF00BF00BF6C
:103C600000BF00BF00BF00BF00BF00BF00BF00BF5C
:103C700000BF00BF00BF00BF00BF00BF00BF00BF4C
:103C800000BF00BF00BF00BF00BF00BF00BF00BF3C
:103C900000BF00BF00BF00BF00BF00BF00BF00BF2C
:103CA00000BF00BF00BF00BF00BF4FF480019161A3
:103CB00000BF00BF00BF00BF00BF00BF00BF00BF0C
:103CC00000BF00BF00BF00BF00BF00BF00BF00BFFC
:103CD00000BF00BF00BF00BF00BF00BF00BF00BFEC
:103CE00000BF00BF00BF00BF00BF00BF00BF00BFDC
:103CF00000BF00BF00BF00BF00BF00BF00BF00BFCC
:103D000000BF00BF00BF00BF00BF00BF00BF00BFBB
:103D100001339BB298428AD8024A136823F4405375
:103D200013607047000400483C000020414A1368BB
:103D300043F480531360404B1889002371E03D4ADF
:103D40004021916100BF00BF00BF00BF00BF00BFA6
:103D500000BF00BF00BF00BF00BF00BF00BF00BF6B
:103D600000BF00BF00BF00BF00BF00BF00BF00BF5B
:103D700000BF00BF00BF00BF00BF00BF00BF00BF4B
:103D800000BF00BF00BF00BF00BF00BF00BF00BF3B
:103D900000BF00BF00BF00BF00BF00BF00BF00BF2B
:103DA00000BF00BF00BF00BF00BF00BF00BF00BF1B
:103DB00000BF00BF00BF00BF4FF48001916100BF92
:103DC00000BF00BF00BF00BF00BF00BF00BF00BFFB
:103DD00000BF00BF00BF00BF00BF00BF00BF00BFEB
:103DE00000BF00BF00BF00BF00BF00BF00BF00BFDB
:103DF00000BF00BF00BF00BF00BF00BF00BF00BFCB
:103E000000BF00BF00BF00BF00BF00BF00BF00BFBA
:103E100000BF00BF00BF00BF00BF00BF00BF013335
:103E20009BB298428BD8034A136823F44053136023
:103E3000704700BF000400483C000020404A13685F
:103E400043F4805313603F4B1889002370E03C4AD1
:103E50004021916100BF00BF00BF00BF00BF00BF95
:103E600000BF00BF00BF00BF00BF00BF00BF00BF5A
:103E700000BF00BF00BF00BF00BF00BF00BF00BF4A
:103E800000BF00BF00BF00BF00BF00BF00BF00BF3A
:103E900000BF00BF00BF00BF00BF00BF00BF00BF2A
:103EA00000BF00BF00BF00BF00BF00BF00BF00BF1A
:103EB00000BF00BF00BF00BF00BF00BF00BF00BF0A
:103EC00000BF00BF00BF00BF4FF48001916100BF81
:103ED00000BF00BF00BF00BF00BF00BF00BF00BFEA
:103EE00000BF00BF00BF00BF00BF00BF00BF00BFDA
:103EF00000BF00BF00BF00BF00BF00BF00BF00BFCA
:103F000000BF00BF00BF00BF00BF00BF00BF00BFB9
:103F100000BF00BF00BF00BF00BF00BF00BF00BFA9
:103F200000BF00BF00BF00BF00BF00BF01339BB296
:103F300098428CD8024A136823F4405313607047A8
:103F4000000400483C000020404A136843F48053BA
:103F500013603F4B188900236FE03C4A4021916178
:103F600000BF00BF00BF00BF00BF00BF00BF00BF59
:103F700000BF00BF00BF00BF00BF00BF00BF00BF49
:103F800000BF00BF00BF00BF00BF00BF00BF00BF39
:103F900000BF00BF00BF00BF00BF00BF00BF00BF29
:103FA00000BF00BF00BF00BF00BF00BF00BF00BF19
:103FB00000BF00BF00BF00BF00BF00BF00BF00BF09
:103FC00000BF00BF00BF00BF00BF00BF00BF00BFF9
:103FD00000BF4FF48001916100BF00BF00BF00BF70
:103FE00000BF00BF00BF00BF00BF00BF00BF00BFD9
:103FF00000BF00BF00BF00BF00BF00BF00BF00BFC9
:1040000000BF00BF00BF00BF00BF00BF00BF00BFB8
:1040100000BF00BF00BF00BF00BF00BF00BF00BFA8
:1040200000BF00BF00BF00BF00BF00BF00BF00BF98
:1040300000BF00BF00BF01339BB298428DD8034A36
:10404000136823F440531360704700BF0004004816
:104050003C00002071EEC11A32EE402A61EE821A55
:1040600070EEC00A81EEA00A30EE010A704710B56A
:104070004FF0000E0FE001339BB28B420AD230F8B2
:1040800013C030F81E209445F5D220F81EC020F849
:104090001320F0E7A6468E4504D20EF10104A4B227
:1040A0002346EAE7490830F8110010BD00B5B9B061
:1040B00029AB0322052106A8FDF707F91AAB052253
:1040C000032104A8FDF701F911AB0322114602A850
:1040D000FDF7FBF808AB032211466846FDF7F5F83B
:1040E000244B052203212448FDF7EFF8234B01223E
:1040F00005212348FDF7E9F8224B0122032122483C
:10410000FDF7E3F800231EE003EB430238A901EBBF
:1041100082014FF07E5041F83C0C0133511C38A80D
:1041200000EB810107EE903AF8EEE77A41ED0F7A65
:1041300003FB03F107EE901A023200EB8202F8EE65
:10414000E77A42ED0F7A042BDEDD04A906A8FDF71D
:10415000F5F902AA06A904A8FDF7B6F9694602A86E
:10416000FDF7B8F8044A04A96846FDF7ADF939B07F
:104170005DF804FB1005002008050020E004002085
:10418000D8040020FC040020F404002010B50C46E4
:1041900000230BE030F9132007EE902AF8EEE77ABF
:1041A000094A02EB8302C2ED007A0133042BF1DDF0
:1041B000064A07490748FDF787F9074B07CB2060F8
:1041C0006160A260204610BDE0040020F4040020DD
:1041D000D804002008050020FC04002038B504465F
:1041E0000D46880008F044F8206065600023A36055
:1041F0000022E260226107E0226802EB83024FF0B6
:10420000000CC2F800C00133AB42F5DB38BDD0ED85
:10421000037A0368826803EB820393ED007A77EEFA
:10422000C77AC0ED037A83ED000A90ED037A37EE8A
:10423000007A80ED037A83680133426893FBF2F1E0
:1042400002FB1133836007EE902AF8EEE77A87EEDF
:10425000270A80ED040A704710B501780023036136
:104260009FED3B7A00E001338B420DDAC26802EB2E
:104270008302D2ED007AF4EEC77AF1EE10FAF2DDA5
:104280000361B0EE677AEEE70269002A4AD10023A3
:10429000037713464FF0010CC46804EB830EDEED88
:1042A000006A04EB820292ED006A04EB8C0494ED48
:1042B000005A07EE903AB8EEE77AF0EE087A66EE2A
:1042C000A77AF1EE005A66EE255A77EEE57A77EE98
:1042D000857AF6EE005A67EEA57A36EE066A76EE35
:1042E000C66A76EE856A87EEA66A77EE067AC0ED34
:1042F000057A037F022B24D090ED010A90ED027A1B
:1043000037EE407AD0ED057A27EE277A013907EEAD
:10431000901AF8EEE77AC7EE276A30EE260A80EDAB
:10432000060A10BD01F1FF3C624505D00123037769
:10433000531E02F1010CAFE7022303778B1E624686
:10434000AAE7B7EE007A77EEC77AC0ED057AD3E731
:104350000000C8C27047000008B50F480F4B03604B
:10436000002343600F22826047F6FF72C260036140
:104370008361C361436103F0B7FA30B9002211468B
:10438000054803F007FB18B908BDFEF7F1FCF5E797
:10439000FEF7EEFCF8E700BF4C05002000280040C7
:1043A00010B596B004465022002102A808F038F853
:1043B0002268174B9A4201D016B010BD02F0EAF9FC
:1043C0004FF4006302934FF40073129302A803F0BA
:1043D000B6F8C8B94FF0B043D3F8902042F4004289
:1043E000C3F890209A6D42F480629A659B6D03F445
:1043F00080630193019B00221146032000F090FF8F
:10440000032000F09DFFD7E7FEF7B2FCE2E700BF14
:104410000028004000B585B06B4600F10C022E214B
:104420004FF6664000F006F99DF80E0005B05DF805
:1044300004FB00B585B06B4600F10C020F214FF66E
:10444000684000F0F7F89DF80E0005B05DF804FB39
:1044500000B585B002466B4610214FF6754000F05E
:10446000E9F89DF80E0005B05DF804FB30B4214B6F
:10447000DB6BC3F30D039B0003F1005303F54033E3
:104480001A6811681C4B99422DD0136954699569BB
:10449000516892684FEA136C80F800C04FEA134CE1
:1044A00080F801C04FEA132C80F802C0C3F3031C4C
:1044B00080F803C003F00F030371230E4371230C34
:1044C0008371230AC371047245720B0E83720B0C45
:1044D000C372090A0173130E4373130C8373C273FF
:1044E000002030BC704753699469D569D16812695E
:1044F000D0E700BF00400058B95646A908B538B902
:10450000084B1B6803B19847074B00221A7008BD7F
:10451000054B01221A70034B1B68002BF7D0104685
:104520009847F4E7740500200402002010B584B019
:1045300004460B4B18600B4805F048FF0120FFF7BD
:10454000DDFF094B01221A70084B1B6833B103943D
:10455000074A0192074A029201A8984704B010BD89
:104560000002002008020020FC0100207805002045
:104570009D4600087945000810B50146034C2046C9
:1045800005F03FFF2046FCF790FE10BD080200201A
:1045900010B50C464A68054B1A60054BD8611846A1
:1045A00000F082F82068FFF7C1FF10BD74050020FD
:1045B0007805002000B585B01B4805F00AFF10B94A
:1045C0001A4B1B784BB9184805F003FF10B9174B6D
:1045D0001B7823BB05B05DF804FB03A9124805F066
:1045E00028FF134BDB698BB1039A029201228DF8ED
:1045F000042001A898479DF804200C4B1A700B4B1F
:104600001B783BB1039806F081FADCE7074B0122E7
:104610001A70F4E70399044805F0E7FED3E702486F
:10462000FCF743FED6E700BF08020020FC01002093
:10463000780500202DE9F04107460C4616461D4638
:104640000020FFF75BFFDFF85080D8F80000A0F8EB
:104650000970C472224631460C3007F025FF012450
:104660000B4B1C700B4B1B6900210846984748F206
:10467000E800FCF725FED8F800108A78033205F12F
:10468000080007F011FF2046FFF738FFBDE8F08172
:1046900070050020780500200002002008B50020E9
:1046A000FCF709FE08BD0000024B0360024B0361EA
:1046B000704700BF21AA00085DAA00080023024A33
:1046C0001360024A136070479C0500209805002083
:1046D000EFF3108372B641B1012903D106490A688C
:1046E00002430A6083F31088704703490A6822EA8C
:1046F00000020A60F6E700BF98050020EFF3108C77
:1047000072B6064A136803431360054A52F8313003
:10471000034342F831308CF3108870473406002090
:10472000A0050020EFF3108172B6044A136823EA53
:104730000000106081F31088704700BF74000020F3
:10474000EFF3108172B6034A13681843106081F3C7
:104750001088704774000020EFF3108172B6034A8E
:1047600013681843106081F31088704730060020EA
:104770007047704728B1B0FA80F0C0F11F00C0B296
:1047800070472020F9E7000070B5424B1C682040BC
:104790001860414B1A68414B1B6841490868414900
:1047A00009682FE0013334E03F4D05EBC30568682D
:1047B0001040FFF7DFFF3D4E30606A68012303FAC7
:1047C00000F022EA00026A60EFF3108172B63268EC
:1047D00003FA02F2D643304D286820EA02022A602A
:1047E000002B2DD181F31088304B1A68304B53F8D1
:1047F00022309847284B1A68284B1B6828490868BC
:10480000284909680240234D2D682A4220D00B40D8
:104810001ED1254A52F8332002402A42C2D02249F2
:1048200051F8332002402A4001EBC301496811428C
:10483000BAD11D4901EBC3014FF0FF304860B3E727
:10484000013B194850F83320324040F83320C7E785
:10485000164B4FF0FF321A60FFF78AFFEFF3108517
:1048600072B60D4B1B680D4A11680D4A1268134051
:10487000084A1268134203D10A4B1B680B4206D048
:1048800085F31088FFF775FF024B1C6070BDFCF7C5
:104890000BFDF5E7700000203406002030060020F4
:1048A000740000202C060020A0050020280600200F
:1048B000A805002008B5C043FFF766FF08BD00004B
:1048C000F8B50446114B1E68B6F1FF3F05D001252F
:1048D000B5400F4B1F681C6005E00025F9E7214635
:1048E0002846FFF7E7FF0B4B1B682342F7D0074B27
:1048F0001E60EFF3108172B6064A136823EA0403C0
:10490000136081F31088024B1F60F8BD2806002059
:104910002C0600203006002038B51446EFF3108531
:1049200072B6FFF727FF034B43F8204085F310884A
:1049300038BD00BFA8050020114B1B780BB9012022
:10494000704710B5044602F023F80D4B1A784FF467
:104950007A73B3FBF2F3B0FBF3F000F0F9FC68B943
:104960000F2C01D901200AE0002221464FF0FF3030
:1049700000F0D6FC034B1C60002000E0012010BDBD
:10498000780000207C00002010B5094A136843F429
:1049900080731360032000F0B1FC0F20FFF7CCFF01
:1049A00010B10124204610BD044600F0E9FEF9E7ED
:1049B00000400058034B1B78034A11680B441360F6
:1049C000704700BF7800002038060020014B1868AF
:1049D000704700BF38060020014B1868704700BFC1
:1049E0007C000020014B1878704700BF7800002041
:1049F00010B430300B0A9B0003F00C03C45801F0D4
:104A00001F014FF01F0C0CFA01FC24EA0C0CC2F33E
:104A100084628A404CEA0202C2505DF8044B70473F
:104A200010B414304B0E9B0003F00403C458C1F3C0
:104A300004514FF0070C0CFA01FC24EA0C0C8A40DC
:104A40004CEA0202C2505DF8044B704730B583B0A7
:104A500000230193002800F0D8800446436D13B36F
:104A600023689A6812F0005F05D09A6822F020420D
:104A700022F03F029A602268936813F0805F1FD192
:104A8000936823F0104323F03F0343F08053936077
:104A90005F4B1B689B095F4AA2FB03239B09013301
:104AA0005B00019309E0FCF713F90023A36584F888
:104AB0005030D5E7019B013B0193019B002BF9D1BD
:104AC0002268936813F0805F78D1636D43F0100320
:104AD0006365A36D43F00103A3650120936813F0A0
:104AE000040300D00123616D11F0100F40F08680A7
:104AF000002B40F08380636D23F4817343F0020345
:104B00006365936813F0010F0BD1434B9B6813F05F
:104B1000010F06D1636841498A6822F47C1213436D
:104B20008B60627E636B43EA4233E2681343A268A0
:104B3000134394F8202043EA0243012A40D0A26A9A
:104B400022B102F47072E16A0A4313432168CD680E
:104B5000334A2A401A43CA6021688B6813F0040361
:104B600000D001238A6812F0080200D00122B3B9F4
:104B7000AAB9237E94F83020520042EA8332CB68EF
:104B800023F4804323F002031343CB6094F83830BE
:104B9000012B1AD02268136923F0010313612369E2
:104BA000012B22D02268136B23F00F031363636D74
:104BB00023F0030343F00103636524E000208DE745
:104BC000626A013A43EA4243B9E721680B696FF32D
:104BD0008A03E26B256C2A43656C2A43A56C2A4341
:104BE000134343F001030B61D9E721680B6B23F0FA
:104BF0000F03E269013A13430B63D8E7636D43F097
:104C000010036365012003B030BD0120FBE700BF46
:104C100080000020632D3E05000004500003045076
:104C200007C0F0FFF8B504460E464569082D05D0CB
:104C30000368DB6813F0010F1ED10425FFF7C6FEE1
:104C4000074623681A682A421CD1B6F1FF3FF8D004
:104C5000FFF7BCFEC31BB34201D8002EF1D123687D
:104C60001B682B42EDD1636D43F0040363650023A1
:104C700084F85030032004E0436D43F02003436583
:104C80000120F8BD626D42F400726265DA6812F4C8
:104C9000406F11D1627E7AB91A6812F0080F0BD0FA
:104CA000626D22F480726265626D12F4805F03D1DE
:104CB000626D42F001026265082D07D0DA6812F4D5
:104CC000804F07D10C221A600020DAE708221A6010
:104CD0000020D6E70020D4E70368186C7047000076
:104CE000F0B583B00023019390F85030012B00F011
:104CF000028204460D46012380F850300068836824
:104D000013F0040F09D0636D43F0200363650120A5
:104D1000002384F8503003B0F0BD0A684968FFF7FB
:104D200067FE2068836813F0040300D001238268C3
:104D300012F0080200D001220BB9002A3AD02268F2
:104D4000936813F0010F40F0D0812B68E868D2F827
:104D5000B010C3F3120621EA060100F0180CA748B0
:104D600020FA0CF00340C3F312030B43C2F8B03037
:104D7000EA68A34B9A4200F0A2802B68A14A134232
:104D800000F0B581A04A926802F0E0709F498968FE
:104D900011F0010F40F055819D498B4200F0578181
:104DA0009C498B4200F07A819B498B4200F08A81BA
:104DB0000020ADE7AA682968FFF732FE696922681A
:104DC000D368C3F3C1035B009940286904280ED05F
:104DD0002E68603252F82070904B3B4006F0F84647
:104DE00031430B4343F0004342F82030A7E7136EF2
:104DF000116EC1F384612B68C3F3120080BBC3F34F
:104E00008463994234D021684B6E4A6EC2F3846247
:104E10002B68C3F3120080BBC3F384639A4234D07F
:104E200021688B6E8A6EC2F384622B68C3F3120012
:104E300080BBC3F384639A4234D02168CB6ECA6EC0
:104E4000C2F384622B68C3F3120080BBC3F3846394
:104E50009A427FF474AFCB6E23F00043CB666EE7CB
:104E600093FAA3F313B1B3FA83F3CAE72023C8E795
:104E7000136E23F000431366C5E793FAA3F313B14F
:104E8000B3FA83F3CAE72023C8E74B6E23F000434D
:104E90004B66C5E793FAA3F313B1B3FA83F3CAE7FA
:104EA0002023C8E78B6E23F000438B66C5E793FA97
:104EB000A3F313B1B3FA83F3CAE72023C8E720684A
:104EC0002B68C3F312063EBB9A0E013202F01F029A
:104ED000092A8CBF00220122002A55D05EBB990E00
:104EE0000131890601F0F8418EBB4FEA936C0CF159
:104EF000010C0CF01F0C012202FA0CF21143AEBBA4
:104F00009B0E013303F01F0303EB43031B051943FF
:104F1000AA68FFF785FD30E793FAA3F24AB1B2FA27
:104F200082F2013202F01F02092A8CBF0022012204
:104F3000D2E72022F5E793FAA3F131B1B1FA81F17A
:104F40000131890601F0F841CEE72021F8E793FA14
:104F5000A3F24AB1B2FA82F2013202F01F024FF01C
:104F6000010C0CFA02F2C9E72022F5E793FAA3F349
:104F700043B1B3FA83F3013303F01F0303EB43039D
:104F80001B05C4E72023F6E7E6B9990E013189062F
:104F900001F0F84116BB4FEA936C0CF1010C0CF0D8
:104FA0001F0C012202FA0CF21143CEBB9B0E0133FF
:104FB00003F01F0303EB43031E3B1B0543F0007389
:104FC0001943A5E793FAA3F131B1B1FA81F10131A7
:104FD000890601F0F841DDE72021F8E793FAA3F212
:104FE0004AB1B2FA82F2013202F01F024FF0010C14
:104FF0000CFA02F2D8E72022F5E700BFFFFF070016
:1050000000007F40000008800003045000000450AE
:10501000000052C7000084CB0100008000F0FF03B5
:1050200093FAA3F35BB1B3FA83F3013303F01F03E5
:1050300003EB43031E3B1B0543F00073C0E7202333
:10504000F3E7636D43F020036365012060E612F42B
:10505000000F7FF4A5AE2268284B9A4201D00020B1
:1050600056E640F4000326498A6822F0E0721343B2
:105070008B60244B1B689B09234AA2FB03239B09DB
:10508000013303EB43039B00019302E0019B013BCF
:105090000193019B002BF9D1002039E612F0807FAB
:1050A0007FF482AE2268154B9A4201D000202FE691
:1050B00040F0807312498A6822F0E07213438B60DB
:1050C000002025E612F4800F13D122680B4B9A4280
:1050D00001D000201CE640F4800309498A6822F0D0
:1050E000E07213438B60002012E6002010E60020DF
:1050F0000EE600200CE602200DE600BF0000045082
:105100000003045080000020632D3E0530B583B0BD
:105110000023019303689A6812F0010F52D10446EC
:1051200099682A4A114216D19A6822F0004222F068
:105130003F0242F001029A60254B9B6813F4000F76
:1051400019D0244B1B689B09234AA2FB03239B090C
:10515000013301930CE0436D43F010034365836D0D
:1051600043F00103836501202DE0019B013B019386
:10517000019B002BF9D1FFF729FC054604E0FFF75E
:1051800025FC431B022B11D823681A6812F0010F6B
:1051900016D19A6812F0010FF1D19A6822F00042FC
:1051A00022F03F0242F001029A60E8E7636D43F0AB
:1051B00010036365A36D43F00103A365012002E0C2
:1051C000002000E0002003B030BD00BF3F000080A1
:1051D0000003045080000020632D3E0503689B6897
:1051E00013F0040F32D110B5044690F85030012B63
:1051F0002ED0012380F85030FFF788FF10BB636D7D
:1052000023F4706323F0010343F480736365636DDB
:1052100013F4805F13D0A36D23F00603A365236806
:105220001C221A60002384F850302268936823F00F
:10523000004323F03F0343F00403936010BD0023B9
:10524000A365ECE7002384F85030F7E702207047AD
:105250000220F3E7002807DB00F01F0240090123CA
:105260009340024A42F82030704700BF00E100E05E
:1052700000280CDB00F01F0240090123934020307E
:10528000034A42F82030BFF34F8FBFF36F8F704750
:1052900000E100E0002808DB0901C9B200F160402C
:1052A00000F5614080F80013704700F00F0009011D
:1052B000C9B2014B1954704714ED00E000B500F07D
:1052C0000700C0F1070CBCF1040F28BF4FF0040C1D
:1052D000031D062B0FD9C31E4FF0FF3E0EFA0CF034
:1052E00021EA000199400EFA03FE22EA0E0241EA89
:1052F00002005DF804FB0023EEE70000074AD368D4
:1053000023F4E0631B041B0C000200F4E060034381
:1053100043F0BF6343F40033D360704700ED00E017
:1053200010B50446054BD868C0F30220FFF7C6FF4E
:1053300001462046FFF7AEFF10BD00BF00ED00E0C4
:1053400008B5FFF787FF08BD08B5FFF791FF08BD57
:105350000138B0F1807F0BD24FF0E0235861054A4D
:10536000F02182F823100020986107221A6170470B
:105370000120704700ED00E0002808DB00F01F026C
:105380004009012393404030014A42F820307047E1
:1053900000E100E0002808DB00F01F0240090123C3
:1053A00093406030014A42F82030704700E100E04D
:1053B000F0B5002366E085685E000324B44025EA6A
:1053C0000405CC68B4402C438460456825EA0C058C
:1053D0004C68C4F300149C402C43446063E0DD0837
:1053E000083550F8254003F0070C4FEA8C0C4FF0BD
:1053F0000F0E0EFA0CFE24EA0E0E0C6904FA0CF4E1
:1054000044EA0E0440F8254064E0042400E000244F
:1054100004FA0EF42C430CF1020C4F4D45F82C40CD
:105420004E4C2568D44325EA02064F6817F4801FC6
:1054300001D042EA0506494D2E606D6804EA050672
:105440004F6817F4001F01D042EA0506434D6E6015
:10545000D5F8805004EA05064F6817F4803F01D064
:1054600042EA05063D4DC5F88060D5F884502C40D1
:105470004E6816F4003F01D042EA0504374AC2F8EC
:10548000844001330A6832FA03F464D04FF0010C0F
:105490000CFA03FC1CEA0202F3D04C6804F003048B
:1054A000013C012C87D94C6804F00304032C0CD078
:1054B000C4685D004FF0030C0CFA05FC24EA0C0CE8
:1054C0008C68AC4044EA0C04C4604C6804F00304EB
:1054D000022C84D004684FEA430E4FF0030C0CFA00
:1054E0000EFC24EA0C0C4C6804F0030404FA0EF4DD
:1054F00044EA0C0404604C6814F4403FC1D04FEA05
:10550000930C0CF10205144C54F8255003F0030ED3
:105510004FEA8E0E0F2404FA0EF425EA0405B0F1CA
:10552000904F3FF474AF0E4CA0420ED004F580644F
:10553000A0420CD004F58064A0420AD004F5806437
:10554000A0423FF462AF072462E7012460E702242F
:105550005EE703245CE7F0BD00000140000800584E
:10556000000400480AB1816170478162704770474A
:1055700008B5054BD8681A6822EA00021A6058601C
:10558000FFF7F5FF08BD00BF0015005800285FD0E9
:1055900010B5044690F84130002B48D0242384F8FD
:1055A00041302268136823F00103136063682268A6
:1055B00023F0706313612268936823F400439360BF
:1055C000E368012B38D0A368226843F40443936056
:1055D000E368022B36D02268536823F400635360DB
:1055E0002268536843F0007343F400435360226819
:1055F000D36823F40043D360236962691343A1692C
:10560000226843EA0123D360E369216A22680B43DD
:1056100013602268136843F0010313600020606484
:10562000202384F84130206384F8420010BD80F8C4
:105630004030FDF71FFBB1E7A368226843F4004345
:105640009360C5E72268536843F400635360C7E77B
:1056500001207047034690F84120D2B2202A23D17E
:1056600090F84020012A21D0012280F840202422F5
:1056700080F841200068026822F001020260186888
:10568000026822F4805202601868026811430160C7
:1056900019680A6842F001020A60202283F841205A
:1056A000002083F8400070470220704702207047B6
:1056B000034690F84120D2B2202A21D190F8402010
:1056C000012A1FD0012280F84020242280F84120A6
:1056D0000068026822F0010202601868026822F481
:1056E000706242EA0122026019680A6842F001020F
:1056F0000A60202283F84120002083F84000704790
:10570000022070470220704770477047002309E06D
:1057100000EB8302054951609A1D00EB82020449A7
:1057200051600133052BF3D9704700BF09570008BA
:105730000B570008002303604FF03F1343603F23E3
:1057400083607047C0B138B5044690F8383083B1F3
:105750000A4D2846FFF7EEFF2B6843F001132B603C
:105760002046FFF7D3FF00206063012384F8383020
:1057700038BDFDF7D5FAEBE701207047000C005863
:1057800000B583B04FF0B0431A6D42F400221A65A1
:105790001B6D03F400230193019B002211462E2070
:1057A000FFF7BEFD2E20FFF7CBFD03B05DF804FB35
:1057B00038B512F4804F43D00468B4F8503091F8F3
:1057C00000C04FEACC0E1EFA83F32344B3F8024420
:1057D000C4F309048B69A34228D31B1B8B618B691B
:1057E0007BB9056835F82C309BB223F4804323F055
:1057F000700383F4005343F4004343F0800325F81F
:105800002C3012F0400F0ED002680D7832F825309F
:105810009BB223F4E04323F0700343F4004343F0CE
:10582000C00322F8253024B9204638BD00238B61FF
:10583000D5E723460A894969006804F0AFFDF3E71C
:105840000468B4F8503091F800C04FEACC0E1EFA4C
:1058500083F32344B3F80644C4F309048B69A342D9
:105860002FD31B1B8B618B697BB9056835F82C30F6
:105870009BB223F4804323F0700383F4005343F47A
:10588000004343F0800325F82C3012F0400F0FD175
:10589000026891F800C032F82C309BB223F4E04348
:1058A00023F0700343F4004343F0C00322F82C308C
:1058B000002CB9D023464A894969006804F06EFD7E
:1058C000B2E700238B61CEE7002856D010B504461E
:1058D00090F891323BB1032384F89132206803F0B1
:1058E0006EFE002315E080F8903205F0C3FCF2E76D
:1058F00003EB830204EBC2020121517413740021F3
:10590000D17411625162013303EB8302D200A150C2
:10591000DBB220799842EBD8002316E003EB830238
:1059200004EBC202002182F8511182F8503182F852
:105930005311C2F86011C2F8641103EB830204EB47
:10594000C202C2F868110133DBB29842E6D823469E
:1059500053F8040B93E8060003F03BFE0023237387
:10596000012384F89132A37A012B01D0002010BDCD
:10597000204600F0F9FE0020F9E70120704790F87A
:105980009032012B0ED010B50446012380F89032DE
:10599000006803F00BFE206804F01DFA002084F874
:1059A000900210BD0220704770B505460C461646A1
:1059B00012F0400F00F020810268B2F850300978F0
:1059C0004FEAC10C1CFA83F31344B3F80224C2F368
:1059D0000902A36993422CD99B1AA361A06958B309
:1059E00016F4804F0DD0286830F821309BB223F494
:1059F000E04323F0700343F4404343F0800320F876
:105A0000213094F82430012B00F08D802A68217811
:105A100032F821309BB223F4E04323F0400383F0BB
:105A2000300343F4004343F0800322F82130002088
:105A300070BD0023A361D1E76378002B48D12A68A9
:105A4000B2F8503012FA83F36344B3F80224C2F37D
:105A50000902A3F80224B3F802246FEA42426FEA73
:105A6000524292B2A3F802242A686378002B3BD1F9
:105A7000B2F8503012FA83F3227803EBC203B3F882
:105A80000624C2F30902A3F80624B3F806246FEA39
:105A900042426FEA524292B2A3F80624E378022B04
:105AA0002FD02178284605F03BFC16F4804FBED05D
:105AB0002A68217832F821309BB223F4E04323F0A6
:105AC000700343F4404343F0800322F82130AEE7F3
:105AD000012BC9D12A68B2F8503012FA83F363441B
