:020000040800F2
:100000000000032005CA000891A4000893A400087A
:1000100095A4000897A4000899A400080000000017
:100020000000000000000000000000009BA4000889
:100030009DA40008000000009FA40008A1A40008DF
:100040005DCA00085DCA00085DCA0008A9A40008CE
:100050005DCA00085DCA00085DCA00085DCA0008E4
:100060005DCA00085DCA00085DCA00085DCA0008D4
:100070005DCA00085DCA00085DCA00085DCA0008C4
:100080005DCA00085DCA00085DCA00085DCA0008B4
:10009000B1A400085DCA00085DCA00085DCA000876
:1000A0005DCA0008C1A400085DCA00085DCA000856
:1000B0005DCA00085DCA00085DCA00085DCA000884
:1000C0005DCA00085DCA00085DCA00085DCA000874
:1000D0005DCA00085DCA00085DCA00085DCA000864
:1000E0005DCA00085DCA00085DCA00085DCA000854
:1000F000D9A40008E1A40008E9A400085DCA00082A
:100100005DCA00085DCA00085DCA00085DCA000833
:100110005DCA00085DCA00085DCA00085DCA000823
:100120005DCA00085DCA00085DCA00085DCA000813
:0C0130005DCA00085DCA00085DCA000836
:1001400001F0FF01102A2BDB10F0070F08D010F888
:10015000013B013A8B422DD010F0070F42B3F6D18C
:10016000F0B441EA012141EA014122F007047FF0A5
:1001700000070023F0E80256083C85EA010586EAFC
:10018000010685FA47F5A3FA87F586FA47F6A5FA38
:1001900087F68EB9EED1F0BC01F0FF0102F0070244
:1001A00032B110F8013B013A83EA010313B1F8D1EF
:1001B0000020704701387047002D06BF35460338D0
:1001C000073815F0010F07D1013015F4807F02BF09
:1001D000013015F4C03F0130F0BC0138704700BF5A
:1001E00081F0004102E000BF83F0004330B54FEAE8
:1001F00041044FEA430594EA050F08BF90EA020F55
:100200001FBF54EA000C55EA020C7FEA645C7FEAE7
:10021000655C00F0E2804FEA5454D4EB5555B8BF0A
:100220006D420CDD2C4480EA020281EA030382EA7B
:10023000000083EA010180EA020281EA0303362D0D
:1002400088BF30BD11F0004F4FEA01314FF4801CE0
:100250004CEA113102D0404261EB410113F0004FF2
:100260004FEA03334CEA133302D0524263EB4303A9
:1002700094EA050F00F0A780A4F10104D5F1200E47
:100280000DDB02FA0EFC22FA05F2801841F10001A2
:1002900003FA0EF2801843FA05F359410EE0A5F176
:1002A00020050EF1200E012A03FA0EFC28BF4CF0A7
:1002B000020C43FA05F3C01851EBE37101F000455D
:1002C00007D54FF0000EDCF1000C7EEB00006EEB6A
:1002D0000101B1F5801F1BD3B1F5001F0CD34908F4
:1002E0005FEA30004FEA3C0C04F101044FEA44524B
:1002F00012F5800F80F09A80BCF1004F08BF5FEAD2
:10030000500C50F1000041EB045141EA050130BDB1
:100310005FEA4C0C404141EB0101013C28BFB1F5C3
:10032000801FE9D291F0000F04BF01460020B1FA0E
:1003300081F308BF2033A3F10B03B3F120020CDAE1
:100340000C3208DD02F1140CC2F10C0201FA0CF0BF
:1003500021FA02F10CE002F11402D8BFC2F1200C24
:1003600001FA02F120FA0CFCDCBF41EA0C019040DA
:10037000E41AA2BF01EB0451294330BD6FEA040423
:100380001F3C1CDA0C340EDC04F11404C4F120020E
:1003900020FA04F001FA02F340EA030021FA04F320
:1003A00045EA030130BDC4F10C04C4F1200220FA77
:1003B00002F001FA04F340EA0300294630BD21FAB5
:1003C00004F0294630BD94F0000F83F4801306BF7B
:1003D00081F480110134013D4EE77FEA645C18BF6F
:1003E0007FEA655C29D094EA050F08BF90EA020F06
:1003F00005D054EA000C04BF1946104630BD91EAFE
:10040000030F1EBF0021002030BD5FEA545C05D100
:100410004000494128BF41F0004130BD14F580043F
:100420003CBF01F5801130BD01F0004545F0FE41B3
:1004300041F470014FF0000030BD7FEA645C1ABFE8
:10044000194610467FEA655C1CBF0B46024650EA1F
:10045000013406BF52EA033591EA030F41F400214B
:1004600030BD00BF90F0000F04BF0021704730B5D1
:100470004FF4806404F132044FF000054FF00001A6
:1004800050E700BF90F0000F04BF0021704730B567
:100490004FF4806404F1320410F0004548BF40423C
:1004A0004FF000013EE700BF42004FEAE2014FEA91
:1004B00031014FEA02701FBF12F07F4393F07F4F6C
:1004C00081F06051704732F07F4208BF704793F06F
:1004D0007F4F04BF41F40021704730B54FF4607482
:1004E00001F0004521F000411CE700BF50EA010285
:1004F00008BF704730B54FF000050AE050EA01022E
:1005000008BF704730B511F0004502D5404261EB9D
:1005100041014FF4806404F132045FEA915C3FF4DE
:10052000D8AE4FF003025FEADC0C18BF03325FEA7B
:10053000DC0C18BF033202EBDC02C2F1200300FA2C
:1005400003FC20FA02F001FA03FE40EA0E0021FA51
:1005500002F11444BDE600BF70B54FF0FF0C4CF43F
:10056000E06C1CEA11541DBF1CEA135594EA0C0FF1
:1005700095EA0C0F00F0DEF82C4481EA030621EA2C
:100580004C5123EA4C5350EA013518BF52EA033567
:1005900041F4801143F4801338D0A0FB02CE4FF019
:1005A0000005E1FB02E506F00042E0FB03E54FF049
:1005B0000006E1FB03569CF0000F18BF4EF0010E41
:1005C000A4F1FF04B6F5007F64F5407404D25FEA3D
:1005D0004E0E6D4146EB060642EAC62141EA5551F0
:1005E0004FEAC52040EA5E504FEACE2EB4F1FD0C32
:1005F00088BFBCF5E06F1ED8BEF1004F08BF5FEAB0
:10060000500E50F1000041EB045170BD06F0004661
:1006100046EA010140EA020081EA0301B4EB5C040E
:10062000C2BFD4EB0C0541EA045170BD41F4801106
:100630004FF0000E013C00F3AB8014F1360FDEBF2B
:10064000002001F0004170BDC4F10004203C35DA07
:100650000C341BDC04F11404C4F1200500FA05F38A
:1006600020FA04F001FA05F240EA020001F000422B
:1006700021F0004110EBD37021FA04F642EB0601A1
:100680005EEA430E08BF20EAD37070BDC4F10C04CB
:10069000C4F1200500FA04F320FA05F001FA04F28F
:1006A00040EA020001F0004110EBD37041F100017B
:1006B0005EEA430E08BF20EAD37070BDC4F1200586
:1006C00000FA05F24EEA020E20FA04F301FA05F2EE
:1006D00043EA020321FA04F001F0004121FA04F296
:1006E00020EA020000EBD3705EEA430E08BF20EA66
:1006F000D37070BD94F0000F0FD101F000464000A0
:1007000041EB010111F4801F08BF013CF7D041EA21
:10071000060195F0000F18BF704703F00046520025
:1007200043EB030313F4801F08BF013DF7D043EAF6
:100730000603704794EA0C0F0CEA135518BF95EAAC
:100740000C0F0CD050EA410618BF52EA4306D1D133
:1007500081EA030101F000414FF0000070BD50EA52
:10076000410606BF1046194652EA430619D094EADC
:100770000C0F02D150EA013613D195EA0C0F05D1C6
:1007800052EA03361CBF104619460AD181EA03011A
:1007900001F0004141F0FE4141F470014FF00000D2
:1007A00070BD41F0FE4141F4780170BD70B54FF06D
:1007B000FF0C4CF4E06C1CEA11541DBF1CEA1355ED
:1007C00094EA0C0F95EA0C0F00F0A7F8A4EB0504CF
:1007D00081EA030E52EA03354FEA013100F08880C6
:1007E0004FEA03334FF0805545EA131343EA12638F
:1007F0004FEA022245EA111545EA10654FEA002644
:100800000EF000419D4208BF964244F1FD0404F5FC
:10081000407402D25B084FEA3202B61A65EB030558
:100820005B084FEA32024FF480104FF4002CB6EB15
:10083000020E75EB030E22BFB61A754640EA0C0095
:100840005B084FEA3202B6EB020E75EB030E22BFD5
:10085000B61A754640EA5C005B084FEA3202B6EB16
:10086000020E75EB030E22BFB61A754640EA9C00D5
:100870005B084FEA3202B6EB020E75EB030E22BFA5
:10088000B61A754640EADC0055EA060E18D04FEA63
:10089000051545EA16754FEA06164FEAC30343EA03
:1008A00052734FEAC2025FEA1C1CC0D111F4801FD0
:1008B0000BD141EA00014FF000004FF0004CB6E7C9
:1008C00011F4801F04BF01430020B4F1FD0C88BF68
:1008D000BCF5E06F3FF6AFAEB5EB030C04BFB6EB73
:1008E000020C5FEA500C50F1000041EB045170BD66
:1008F0000EF0004E4EEA113114EB5C04C2BFD4EB93
:100900000C0541EA045170BD41F480114FF0000E16
:10091000013C90E645EA060E8DE60CEA135594EA92
:100920000C0F08BF95EA0C0F3FF43BAF94EA0C0F95
:100930000AD150EA01347FF434AF95EA0C0F7FF40A
:1009400025AF104619462CE795EA0C0F06D152EA5E
:1009500003353FF4FDAE1046194622E750EA410642
:1009600018BF52EA43067FF4C5AE50EA41047FF453
:100970000DAF52EA43057FF4EBAE12E74FF0FF3CB8
:1009800006E000BF4FF0010C02E000BF4FF0010C89
:100990004DF804CD4FEA410C7FEA6C5C4FEA430C02
:1009A00018BF7FEA6C5C1BD001B050EA410C0CBF51
:1009B00052EA430C91EA030F02BF90EA020F0020B3
:1009C000704710F1000F91EA030F58BF994208BF1A
:1009D00090422CBFD8176FEAE37040F001007047D7
:1009E0004FEA410C7FEA6C5C02D150EA013C07D12E
:1009F0004FEA430C7FEA6C5CD6D152EA033CD3D079
:100A00005DF8040B704700BF8446104662468C4672
:100A10001946634600E000BF01B5FFF7B7FF0028A5
:100A200048BF10F1000F01BD4DF808EDFFF7F4FFCE
:100A30000CBF012000205DF808FB00BF4DF808ED59
:100A4000FFF7EAFF34BF012000205DF808FB00BF7C
:100A50004DF808EDFFF7E0FF94BF012000205DF89E
:100A600008FB00BF4DF808EDFFF7CEFF94BF012053
:100A700000205DF808FB00BF4DF808EDFFF7C4FF4C
:100A800034BF012000205DF808FB00BF4FEA41029F
:100A900012F5001215D211D56FF47873B3EB6252D0
:100AA00012D94FEAC12343F0004343EA505311F0F7
:100AB000004F23FA02F018BF404270474FF0000089
:100AC000704750EA013005D111F0004008BF6FF0C7
:100AD000004070474FF00000704700BF4FEA4102EE
:100AE000B2F1E04324BFB3F5001CDCF1FE5C0DD98C
:100AF00001F0004C4FEAC0024CEA5070B2F1004FD6
:100B000040EB830008BF20F00100704711F0804FD8
:100B100021D113F13872BCBF01F00040704741F49D
:100B200080114FEA5252C2F11802C2F1200C10FAA1
:100B30000CF320FA02F018BF40F001004FEAC12385
:100B40004FEAD32303FA0CFC40EA0C0023FA02F329
:100B50004FEA4303CCE77FEA625307D150EA0133FF
:100B60001EBF4FF0FE4040F44000704701F00040CF
:100B700040F0FE4040F40000704700BF53B94AB94E
:100B8000002908BF00281CBF4FF0FF314FF0FF3095
:100B900000F00CB8ADF1080C6DE904CE0CF010FFBC
:100BA000DDF804E0DDE9022304B07047704700BFC0
:100BB0000348044B834202D0034B03B118477047EC
:100BC000EC010020EC010020000000000548064B6D
:100BD0001B1AD90F01EBA301491002D0034B03B13B
:100BE00018477047EC010020EC01002000000000D5
:100BF00010B5064C237843B9FFF7DAFF044B13B165
:100C00000448AFF300800123237010BD3802002098
:100C1000000000007CDC000808B5054B1BB105494D
:100C20000548AFF30080BDE80840FFF7CFBF00BF25
:100C3000000000003C0200207CDC000808B5064BE8
:100C400093F88030052B00D108BD00F019FC024B51
:100C5000002283F88020F7E75802002000B583B017
:100C6000054B0093054B01936946054801F0CEF80A
:100C700003B05DF804FB00BF280003209F0C0008B0
:100C8000850C000810B50446406808300AF0E8FBFF
:100C900010B10123237010BD00232370FBE708B5BA
:100CA00028B1012806D1032004F0B4FA02E00320A1
:100CB00004F0A2FA08BD000008B50F4BD3F8802558
:100CC000B2F1FF3F10D0D3F884350C480270C2F364
:100CD000072242708370C3F30722C270C3F3074236
:100CE00002711B0E437108BD002002F0F3F90028C9
:100CF000F9D10348F7E700BF0070FF1FDC020020B6
:100D0000DCDD000870B588B00024ADF8184000F0B4
:100D100026FFFFF7D1FF02460621204600F09FFE86
:100D20002A4A1021182000F09AFE294A1021082092
:100D300000F095FE1821012000F0C1FE00F060FDDA
:100D40000DF11A03019307AB00930DF11E03082266
:100D50002146012000F09EFC1E4B009308232246F2
:100D6000BDF81C10BDF81E0000F01CFE06AB009381
:100D700002232246BDF81A10BDF81E0000F012FE34
:100D800002221146204600F00AFF134D01262E7064
:100D9000304600F0F0FB6E7008232B7110226A7150
:100DA000EC700E49A960AC70049403910294019216
:100DB0000093234632463146204600F002FCAB78D1
:100DC0000BB908B070BD00F0D1FCFAE7CCDD00082B
:100DD000BCDD00081CDD00085802002007B201003D
:100DE00000B589B00B4B83F8800000200690059079
:100DF000049003900290019000900346A02280216D
:100E000000F05FFB0449072000F083FC09B05DF8A7
:100E100004FB00BF580200200800002030B591B04C
:100E20000DF1040C1E4C0FCCACE80F000FCCACE85D
:100E30000F000FCCACE80F0094E80700ACE803000B
:100E4000ACF80020FFF70AFF0121022004F0AAF904
:100E5000144A0021022004F0C9FA01A804F044F861
:100E6000D8B9FFF74FFF0AF0E3FA0F4C002584F8DA
:100E700080504FF6FF73E3820C4A2946012004F0AC
:100E8000B5FA062000F044FE00F0B6FE6576257641
:100E90000120FFF7A5FF11B030BD01F039FEE0E7FA
:100EA00098DC0008311E0008580200203D0C0008A4
:100EB00008B543783E2B1BD0FF2B35D0052B0FD127
:100EC0008288294BDB8A9A420CD00120FFF788FFE9
:100ED000264801230370244BDB8A438000F08BFEFD
:100EE000012008BD204B0022DA8283F88020ECE745
:100EF000C378012BF4D11C4B93F88030042B0ED017
:100F0000194B052283F88020B0F80530164AD382A9
:100F1000164800220270438000F06DFEE0E7124B9D
:100F2000062283F88020EFE7B0F8033040F2094250
:100F300093420DD040F60E4293420FD040F202424F
:100F40009342CDD10A49084BD88A00F07AFBC7E713
:100F50000121054BD88A00F02AFCC1E7024BD88A50
:100F600000F055FDBCE700BF5802002054020020ED
:100F700007B2010008B50021022004F029F908BDDC
:100F800008B5012004F052F908BD08B5012004F0AD
:100F900001FA08BD10B588B00DF1040C094C0FCC56
:100FA000ACE80F0094E80700ACE803002CF8022B33
:100FB000120C8CF800200AF0F7FB01A803F0A3FF45
:100FC00008B010BDD4DC0008054BCA225A62532277
:100FD0005A629A6822F007029A60FF225A627047AA
:100FE000002800407047000008B5002002F072F8A9
:100FF00068B181794FF0B042054BC2F89C30D2F80D
:101000009C3023F47C5343EA0123C2F89C3008BD92
:10101000FECAFECA08B54FF0B042936843F40043DD
:10102000936004F0B5F8054AD2F8803023F0070346
:1010300043F00403C2F8803008BD00BF000400582C
:1010400000B589B00AF0AAFA0E4A0021042004F083
:10105000CDF90D4B00930D4B019369460C4804F0FC
:1010600001F80C4B02930C4B03930C4B049340F28E
:101070003C53059302A80AF065FB0AF08BFA09B00D
:101080005DF804FB8950000810040320E50F0008F8
:1010900001110008F8010320040303201C050320AC
:1010A00000B585B000230093019302930393436836
:1010B0005B7B23B1012B1ED005B05DF804FBFFF76D
:1010C00069FF0F238DF800307F238DF802300B4A23
:1010D00013681B0CADF80C301368C3F30B03ADF8A9
:1010E0000E30684603F01EFFFFF798FE0021012036
:1010F00004F058F8E0E700230370DDE7002004E087
:101100004368B3F80B30B3F5124F00D0704710B5F9
:1011100084B00446684603F013FF2046FFF7C0FF83
:1011200004B010BD08B5034B4FF400421A61FFF73D
:101130005BFF08BD00400058034AD2F8903043F0EE
:101140005003C2F8903070470008005808B5FFF708
:10115000F3FFFFF739FF08BD08B5FFF7F7FFFFF70B
:1011600059FF0349002001F06DFAFFF769FF08BD40
:101170007805002038B5044604F092F90546B4F12C
:10118000FF3F09D004F098F9044405E0054A1369CB
:1011900023F00403136130BF04F082F9401BA04226
:1011A000F4D338BD00ED00E008B54FF0FF3004F097
:1011B00055F808BD704708B50021042004F008F870
:1011C00008BD08B5022004F031F808BD08B50220BA
:1011D00004F0E0F808BD01804280436070470000E1
:1011E0002DE9F04F83B0D0F804A0D1F804B0B0F8E6
:1011F00000E0B0F802C075465B4612E0002143F8FB
:10120000041B013A002AF9D14FF07E5243F8042B17
:10121000013D2A4603E0002143F8041B013A002A5D
:10122000F9D115B1AEEB0502ECE7E146DFED686AF6
:10123000D846019093E0F1EE677AF4EEC77AF1EECA
:1012400010FA13DC02EB8C020133734511D2D2ED9C
:10125000007AF5EEC07AF1EE10FAECDDF4EEC77A22
:10126000F1EE10FAEEDDB0EE677AEBE7B0EE677AFA
:10127000E8E7B5EE407AF1EE10FA00F09B80F5EE6B
:10128000C06AF1EE10FA13DDF0EE667AB4EE677A1A
:10129000F1EE10FA0FD1F5EE406AF1EE10FA00F01F
:1012A0008E80009BD3ED006AACEB0506324611E060
:1012B000F1EE667AEAE7AEEB0503013B00E0013BA5
:1012C000002BFCD1E7E793ED007AC7EE267AE3EC3A
:1012D000017A013A002AF6D160465B4606E093EDBA
:1012E000007AC7EE267AE3EC017A01380028F6D1BD
:1012F00074464246534625E003EB860302EB8C021C
:101300001CE0D3ED007AB1EC017A27EE267A77EE75
:10131000C77AE3EC017A013F002FF2D167465946C4
:101320000AE0D2ED007AB1EC017A27EE267A77EE68
:10133000C77AE2EC017A013F002FF2D103EB85037B
:10134000013C013034B1A842D6D0D3ED006A374613
:101350000099E1E70AF1040A09F1FF390135B9F111
:10136000000F0CD00CFB05F30AEB8302009208EB94
:10137000830BD2ED006A2B469FED157A65E7019845
:10138000F5EE406AF1EE10FA1CD1416801E009F176
:1013900001090CFB0EF34B4508D901EB8902D2ED94
:1013A000007AF5EE407AF1EE10FAF0D04B450BD012
:1013B000002001E06FF0040003B0BDE8F08F6FF093
:1013C0000400F9E70020F7E76FF00400F4E700BF3E
:1013D000000000002DE9F04703468846D0F804C01D
:1013E0004D68D2F804904888B3F802E01F880026C0
:1013F0001FE0F3EC017AD2ED006A67EEA67A37EED1
:10140000277A02EB800201390029F2D15346A3EC7E
:10141000017A013C021B05EB82022CB19A4671460F
:1014200063469FED087AEFE706440CEB8E0C013F14
:1014300005D009EB860AD8F804200446EFE700201F
:10144000BDE8F0870000000070B543684E68B0F852
:1014500000C0458864464FF0000E0BE053F8040BC3
:10146000086001EB8C01013A002AF7D10EF1010E60
:10147000013C03D006EB8E012A46F5E7002070BD43
:1014800010B588B000248DF807401822214602A824
:1014900001F01CFE3F23ADF808308123ADF80A307F
:1014A0000DF10703069301230793214602A800F0DC
:1014B000FFFCA04203DB9DF8070008B010BDFF2031
:1014C000FBE72DE9F04FCBB09C469DF854619DF8A9
:1014D0005C5106F1080A04AC04EB0A0B77190937D2
:1014E000E31901930DF10F094FF000088DF80F80FB
:1014F0008DF81000ADF81110ADF813208DF815C05F
:101500009DF850318DF816308DF817603246569997
:1015100006A801F0D7FD04F80A5009362A46589962
:101520000BF1010001F0CEFD3544BDF86431E35309
:10153000BDF86831019A538004351822414644A809
:1015400001F0C4FD3F23ADF810318323ADF8123113
:1015500046944795CDF8209101234993414644A8EC
:1015600000F0A6FC404504DB9DF80F004BB0BDE841
:10157000F08FFF20FAE770B5C8B00DF10705002421
:101580008DF8074002AE8DF808001822214642A8C7
:1015900001F09CFD3F23ADF808318523ADF80A31F9
:1015A00044960123459346954793214642A800F06F
:1015B0007FFCA04203DB9DF8070048B070BDFF2010
:1015C000FBE770B5C8B00DF1070600258DF8075090
:1015D00002AC8DF808008DF809108DF80A208DF8FE
:1015E0000B309DF830318DF80C309DF834318DF88A
:1015F0000D309DF838318DF80E304F9BCDF80F30FF
:101600009DF840318DF813301822294642A801F088
:101610005DFD3F23ADF808318623ADF80A314494CF
:101620000C234593469601234793294642A800F090
:101630003FFCA84203DB9DF8070048B070BDFF20C7
:10164000FBE770B5C8B00DF1070600248DF8074020
:1016500002ADADF80800CDF80A101822214642A8C4
:1016600001F034FD3F23ADF808318823ADF80A318D
:10167000449506234593469601234793214642A865
:1016800000F016FCA04203DB9DF8070048B070BDD7
:10169000FF20FBE72DE9F041C8B007460E4615468E
:1016A000984607220021684601F010FD02AC8DF833
:1016B00008708DF809608DF80A501822002142A8A0
:1016C00001F004FD3F23ADF808318A23ADF80A315B
:1016D000449403234593CDF818D107234793002161
:1016E00042A800F0E5FB002811DB9DF8000058B986
:1016F000BDF80130A8F80030BDF803204E9B1A80D9
:10170000BDF805204F9B1A8048B0BDE8F081FF204E
:10171000FAE7F0B5C9B004460DF1070600258DF8CB
:10172000075002AF8DF8080002460DF1090001F0E4
:10173000C9FC01341822294642A801F0C7FC3F2306
:10174000ADF808318E23ADF80A314497459446969A
:1017500001234793294642A800F0AAFBA84203DBD5
:101760009DF8070049B0F0BDFF20FBE710B588B039
:1017700000248DF807401822214602A801F0A6FC9B
:101780003F23ADF808309223ADF80A300DF107037E
:10179000069301230793214602A800F089FBA0428B
:1017A00003DB9DF8070008B010BDFF20FBE770B514
:1017B000C8B00DF1070600248DF8074002ADADF862
:1017C00008008DF80A101822214642A801F07EFC7C
:1017D0003F23ADF80831A523ADF80A314495032322
:1017E0004593469601234793214642A800F060FBAB
:1017F000A04203DB9DF8070048B070BDFF20FBE767
:1018000010B588B000248DF807401822214602A8A0
:1018100001F05CFC3F23ADF8083040F20113ADF855
:101820000A300DF10703069301230793214602A80E
:1018300000F03EFBA04203DB9DF8070008B010BD9E
:10184000FF20FBE72DE9F041C8B004468846174663
:101850001E46012813D002280FD0012502AB1D44DB
:101860000322002101A801F031FC8DF80840012C71
:1018700007D0022C32D1102404E01125EEE7032515
:10188000ECE70224224641460DF1090001F01AFC62
:101890002F706E7003341822002142A801F016FC4C
:1018A0003F23ADF808314FF48173ADF80A3102AB34
:1018B0004493459401AB469303234793002142A8E8
:1018C00000F0F6FA00280BDB9DF8040018B9BDF80B
:1018D00005204E9B1A8048B0BDE8F0819720FAE7BA
:1018E000FF20F8E72DE9F041C8B006460C469046C7
:1018F0001F46012915D0022911D0032502AB1D4432
:101900000322002101A801F0E1FBADF808608DF889
:101910000A40012C07D0022C40D1102404E01325EA
:10192000ECE70525EAE70224224641460DF10B00CB
:1019300001F0C8FB2F809DF83831AB709DF83C3129
:10194000EB709DF840312B719DF844316B719DF81F
:101950004831AB710A341822002142A801F0B6FBCD
:101960003F23ADF808314FF48273ADF80A3102AB72
:101970004493459401AB469303234793002142A827
:1019800000F096FA00280BDB9DF8040018B9BDF8AA
:101990000520539B1A8048B0BDE8F0819720FAE7F4
:1019A000FF20F8E7F0B5C9B01C460DF10707002687
:1019B0008DF8076002ADADF80800ADF80A108DF89B
:1019C0000C208DF80D301A464E990DF10E0001F0E5
:1019D00079FB06341822314642A801F077FB3F23F9
:1019E000ADF808314FF48373ADF80A31449545944E
:1019F000469701234793314642A800F059FAB04276
:101A000003DB9DF8070049B0F0BDFF20FBE770B590
:101A1000C8B00DF1070500248DF8074002AEADF8FF
:101A200008001822214642A801F050FB3F23ADF8E0
:101A3000083140F22513ADF80A314496022345934C
:101A4000469501234793214642A800F031FAA0426F
:101A500003DB9DF8070048B070BDFF20FBE7F0B541
:101A6000C9B00C4611460DF1070700258DF8075047
:101A700002AE8DF808008DF8094022460DF10A00EB
:101A800001F020FB02341822294642A801F01EFB77
:101A90003F23ADF808310C23ADF80A314496459444
:101AA000469701234793294642A800F001FAA8422D
:101AB00003DB9DF8070049B0F0BDFF20FBE770B5E0
:101AC000C8B00DF1070600248DF8074002AD8DF86F
:101AD00008008DF809101822214642A801F0F6FAF4
:101AE0003F23ADF808310F23ADF80A3144950223A6
:101AF0004593469601234793214642A800F0D8F922
:101B0000A04203DB9DF8070048B070BDFF20FBE753
:101B100070B5C8B00DF1070500248DF8074002AE7E
:101B2000ADF808001822214642A801F0CFFA3F2361
:101B3000ADF808311823ADF80A31449602234593D5
:101B4000469501234793214642A800F0B1F9A042EF
:101B500003DB9DF8070048B070BDFF20FBE710B520
:101B600088B000248DF807401822214602A801F011
:101B7000ADFA0323ADF80830ADF80A300DF10703D4
:101B8000069301230793214602A800F091F9A04291
:101B900003DB9DF8070008B010BDFF20FBE770B520
:101BA000C8B00DF1070600258DF8075002AC8DF87E
:101BB00008008DF809108DF80A201822294642A83D
:101BC00001F084FA0823ADF808313123ADF80A3169
:101BD000449403234593469601234793294642A8FC
:101BE00000F066F9A84203DB9DF8070048B070BD1D
:101BF000FF20FBE770477047704700004378FF2BDA
:101C000001D000207047B0F8033040F613429342F1
:101C100010D040F61B42934215D040F60142934249
:101C200021D1B0F80720134B5B8801339A421CD0B6
:101C300000207047B0F807200E4B5B8801339A42B2
:101C400015D00020704700B587B001238DF804300F
:101C5000B0F80530ADF8143001A8FFF7CBFF002035
:101C600007B05DF804FB0020704701207047012099
:101C7000704700BFE402002030B58BB03A4809F04D
:101C8000E5FB8F238DF81830E5238DF81930B32349
:101C90008DF81A30D5238DF81B302E238DF81C308B
:101CA0007F238DF81D304A238DF81E3098238DF840
:101CB0001F302A238DF8203048238DF821307A23D5
:101CC0008DF82230CC238DF8233000248DF8244069
:101CD0008DF825408DF826408DF82740234D00953E
:101CE0000323012206A90220FFF7ACFD19238DF87A
:101CF0001830ED238DF8193082228DF81A20AE228B
:101D00008DF81B208DF81C3021238DF81D304C23BD
:101D10008DF81E309D238DF81F3041238DF8203023
:101D200045238DF8213022238DF822308E238DF823
:101D300023308DF824408DF825408DF826408DF80D
:101D4000274035F8020B05950494102303930723CD
:101D50000293019408230093054B1B8806AA0221D5
:101D6000FFF7C0FD0BB030BDFD1B0008E4020020F2
:101D70001000002008B520B9054B1B6803B1984737
:101D800008BD034B1B68002BFAD001209847F7E7EA
:101D9000EC02002010B584B004460A4809F0D2FADB
:101DA000094B1C60094809F0CDFA094B01221A7051
:101DB000084B1B6823B10294074A00926846984773
:101DC00004B010BDF0020020F0010020F40100205A
:101DD000EC010020F80200205D1F000810B50B4642
:101DE0001146084A1468A4F80900E3721A4604F17F
:101DF0000C000AF0A1FF044B1B690021084698471C
:101E000010BD00BFF0010020F802002010B50C4604
:101E10004A68054B1A60054BD861184600F0B8F8BF
:101E20002068FFF7B7FF10BDEC020020F802002089
:101E300000B585B01B4809F088FA10B91A4B1B7819
:101E40004BB9184809F081FA10B9174B1B7823BB1E
:101E500005B05DF804FB03A9124809F0A6FA134B7C
:101E6000DB698BB1039A029201228DF8042001A84C
:101E700098479DF804200C4B1A700B4B1B783BB114
:101E8000039809F083FCDCE7074B01221A70F4E7A2
:101E90000399044809F065FAD3E70248FFF76AF8A6
:101EA000D6E700BFF4010020EC010020F80200207A
:101EB000F0B583B007460020FFF75CFF7D883B88C4
:101EC000C5F3090545EA8325ADB2224B01221A70FC
:101ED000BA68397B2846FFF781FF0026002E33D1F0
:101EE00048F2E800FFF751F805E0B4F80D30AB42D6
:101EF00016D0237B33BB184809F027FA0028EDD110
:101F000001A9154809F051FA019C637A0F2BECD016
:101F1000A389AB4208D0E37A002BECD00126EAE794
:101F20003B69E27A1A70E4E7A27A033AD2B27B699B
:101F30009A42A8BF1A467A6104F10E0138690AF084
:101F4000FBFEE8E70126D6E70120FFF713FF00209C
:101F500003B0F0BDE8020020F002002010B50146F9
:101F6000437A0E3BDBB2012B07D9074C204609F020
:101F700004FA2046FEF7FEFF10BD044809F0FDF903
:101F80000020FEF7FDFFF7E7F4010020F00200203B
:101F9000024B0360024B0361704700BFFDB50008B0
:101FA00045B6000810B5EFF3108272B6064C6368B0
:101FB00043F40023636082F31088044B1B68984746
:101FC0004FF40023A36010BD000C0058180300203C
:101FD00082B04FF0B043D3F8502142F48012C3F8DE
:101FE0005021D3F8503103F480130193019B0A4B25
:101FF0001A6A42F400721A62D3F8D42042F40072D2
:10200000C3F8D42040BF20BF044AD36843F4004340
:10201000D36002B0704700BF0008005800040058A9
:1020200000B583B04FF0B0431A6D42F480121A65C8
:102030001B6D03F480130193019B094B1A6842F056
:1020400001021A601A6842F480321A602C2003F0F0
:10205000E1FE2D2003F0DEFE03B05DF804FB00BFBF
:10206000000C0058EFF3108172B6044A536823F055
:102070000103536081F31088704700BF000C0058C3
:10208000024B4FF480329A60704700BF000C00583A
:1020900008B5EFF3108172B6044A536843F4001395
:1020A000536081F3108809F0F3FA08BD000C005862
:1020B00008B509F0D5FA024B01229A6008BD00BFAD
:1020C000000C0058EFF3108172B6044A536823F0F5
:1020D0000203536081F31088704700BF000C005862
:1020E000064B4FF400329A60EFF3108172B65A68D3
:1020F00022F400325A6081F310887047000C0058B7
:1021000008B5EFF3108172B6044A536843F4003304
:10211000536081F3108809F0EFFA08BD000C0058F5
:1021200008B5144BDB6813F0020F04D1114B5B6848
:1021300013F4003F14D00F4BDB6813F0080F04D1E9
:102140000C4B5B6813F4002F0DD00A4BDB6813F0C7
:10215000200F04D1074B5B6813F4001F06D008BDA5
:10216000FFF7CEFFFBE7FFF71DFFF8E7FFF790FF54
:10217000F5E700BF000C005808B509F0CBFA024B98
:1021800002229A6008BD00BF000C005808B50C4B35
:10219000DB6813F0080F05D18047094B4FF400228C
:1021A0009A6008BD074B1860EFF3108172B6044ABD
:1021B000536823F40023536081F31088F1E700BFD4
:1021C000000C005818030020EFF3108172B6044A87
:1021D000536823F00803536081F31088704700BFF1
:1021E000000C005808B509F0F1FA024B08229A6079
:1021F00008BD00BF000C005808B5144BDB6913F094
:10220000020F0AD1114BDB6913F0010F0DD10F4BF7
:10221000DB6913F0080F10D108BD0C4B5B6813F09D
:10222000020FEFD1FFF7A8FFF6E7084B5B6813F04A
:10223000010FECD1FFF73CFFEEE7044B5B6813F0B6
:10224000080FE9D1FFF7CEFFE6E700BF000C00580A
:10225000064A936A9BB2906A80B203E0034B9A6A83
:10226000034690B28342F9D1704700BF0028004076
:1022700001EB41020D4B03EBC2035B7DDBB2062B8E
:1022800005D003EB430C094A02EBCC021075074A58
:1022900000EB400C02EBCC0C8CF815308CF81410D1
:1022A00001EB410102EBC102507570472C03002085
:1022B000174B1B78DBB28B421DD0164B01EB410252
:1022C00003EBC202127D5FFA82FC02EB420203EBD7
:1022D000C202507500EB400203EBC202517500EBE5
:1022E000400203EBC20282F814C001EB410103EB90
:1022F000C10318757047074B00EB400203EBC202A5
:10230000517501EB410103EBC1031875704700BF24
:10231000290300202C03002010B4234B1B78DBB2D0
:1023200083422CD0214C00EB400204EBC20292F815
:1023300014C0537DDBB2527DD2B20CEB4C0C04EBDB
:10234000CC046275062B0BD0184A00EB400402EB5C
:10235000C404247DE4B203EB430302EBC30214750F
:1023600000EB4000114B03EBC00301221A730E4B2C
:102370001B78DBB2062B10D05DF8044B70470A4C7B
:102380002378DBB20A4A137000EB4002074B03EBE1
:10239000C2035B7DDBB22370E2E70029ECD1054B81
:1023A0004FF0FF321A60E7E7290300202C030020DA
:1023B000280300202403002008B5104B1B68B3F14C
:1023C000FF3F02D1002080B208BDFFF741FF0B4B59
:1023D0001B6883420AD3094B1B681B1A084A1078F2
:1023E00003FB00F0074B1B78D840ECE7064B1A883C
:1023F000121A024B1B681344F0E700BF24030020AD
:1024000020030020210300201E03002070B5044695
:10241000314B1B78DBB2062B13D12F4A1378DBB27A
:102420002E490B70107000EB40042D4B03EBC404DD
:10243000062363752B4B4FF0FF321A6000252846A8
:1024400070BDFFF7B9FF0546254B04EB440203EBD3
:10245000C20291680144916004EB440203EBC202A2
:1024600090681D4A127802EB420203EBC2039B689C
:10247000834225D8184B1B78D9B203EB4303184A83
:1024800002EBC3035B7DDBB20CE0154A01EB4101BB
:1024900002EBC1014B7DD9B203EB430302EBC30254
:1024A000537DDBB2062B07D003EB43030C4A02EB50
:1024B000C3039B688342E8D92046FFF7D9FEBEE7F5
:1024C000054E31782046FFF7F3FE3378DBB2034A3E
:1024D00013703470B3E700BF2903002028030020E5
:1024E0002C0300202403002010B548B30446012823
:1024F0002ED9013CA4B2194B1B68DA6812F0040F04
:10250000F9D0DA68D2B262F49062DA60144B4FF418
:102510000022DA60032003F0A7FC124A53696FF32C
:102520000F031C435461FFF793FE0F4B18600B4BD6
:102530001A68936843F480639360AFF3008010BD22
:10254000FFF786FE084B1860032003F07FFCF6E7D8
:10255000064B1B78012BCCD1CDE700BF78050020BE
:102560000008005800280040240300202103002018
:1025700038B52E4B9B6813F4806F05D02C4B1B682D
:10258000DB6813F0040FF9D1294B1A68936823F420
:1025900080639360274B1B78DCB203EB4303264A2E
:1025A00002EBC3039D68FFF707FF8446A84204D9E6
:1025B000224B01221A70002024E0214B1B8810FAC4
:1025C00083F3AB4206D21E4B188880B21B4B00220D
:1025D0001A7017E0A8B2A0EB0C0080B2174B0122D2
:1025E0001A700FE004EB4404134A02EBC404A2681F
:1025F000A2EB0C02A26003EB43030F4A02EBC303FE
:102600005C7DE4B2062C0ED0234604EB44010A4A5A
:1026100002EBC10292689445E4D9074A02EBC10477
:102620000022A260E7E7FFF75FFF38BD0028004007
:1026300078050020290300202C030020220300201D
:102640001C03002010B5484B1B68CA225A62532253
:102650005A62464B9A6842F020029A609A6802F0E9
:102660000702C2F10402D2B241490A701B6903F4A5
:10267000FE034FF4FE0191FAA1F1002931D0B1FA25
:1026800081F1CB40DBB20133DBB23A490B70374901
:102690000969C1F30E010131374C2180013901FB79
:1026A00003F3A3F5A073D3404FF6FE7293421AD9F9
:1026B000324B4FF6FF721A80314B1A6842F40022F7
:1026C0001A60D3F8802042F40022C3F8802000284A
:1026D0003FD12C4B01221A702B4B4FF0FF321A6066
:1026E0000EE02021CDE79BB2244A1380E4E700EB03
:1026F0004002264B03EBC20300221A730130C0B222
:102700000528F4D9224B06221A70174C22689368C8
:1027100023F480639360D368DBB263F49063D36087
:10272000174B4FF40022DA60032003F09DFB226870
:10273000936843F4804393600B4B1B68FF225A62FB
:1027400000220321084603F055FB032003F062FB3F
:1027500010BD054B1B68DB6813F4806FECD00320C1
:1027600003F074FBE8E700BF780500200028004074
:1027700021030020200300201E0300201C03002052
:102780000008005822030020240300202C0300200E
:102790002903002038B50446EFF3108572B60320F4
:1027A00003F03CFB254B1B68CA225A6253225A6233
:1027B00004EB4402224B03EBC2031B7BDBB2022B74
:1027C00009D01E4B1B68FF225A62032003F022FB34
:1027D00085F3108838BD00212046FFF79DFD194B79
:1027E0001B78DBB2062B07D0174A1278D2B29A4276
:1027F000E7D0FFF7BDFEE4E7144B9B6813F4806F4E
:1028000005D00E4B1B68DB6813F0040FF9D10B4B9E
:102810001A68936823F480639360D36813F0040FFD
:10282000FBD0D368DBB263F49063D360084B4FF402
:102830000022DA60032003F017FBC2E778050020CE
:102840002C0300202903002028030020002800403A
:102850000008005870B504460D4600EB4002214BBD
:1028600003EBC2031B7BDBB2022B35D0EFF31086E8
:1028700072B6032003F0D2FA1B4B1B68CA225A62BD
:1028800053225A6204EB4402164B03EBC2030222AA
:102890001A739D605D602046FFF7B8FD134B1B78EF
:1028A000DBB2134A1278D2B29A4218D10D4B04EB24
:1028B000440203EBC2029268121A04EB440403EBD5
:1028C000C4039A60084B1B68FF225A62032003F07E
:1028D000A1FA86F3108870BDFFF75CFFC6E7FFF72B
:1028E00047FEEFE72C030020780500202903002095
:1028F0002803002008B5904708BD0000F8B5EFF3A5
:10290000108572B6314B1B68CA225A6253225A6232
:102910009A6822F480629A602D4A1478E4B204EB3B
:102920004402D1002B4A0A44127BD2B2022A13D0AD
:10293000DA6812F0040FFBD0DA68D2B262F4906267
:10294000DA60254B4FF40022DA6085F310881F4BC4
:102950001B68FF225A62F8BD1E4A04EB4401CB00FB
:10296000D118D7580E691D4B1B7853B34B7BDBB284
:10297000012B10D085F310882046FFF70BFF134B77
:102980001B68CA225A6253225A623A46214630468E
:10299000FFF7B0FFDBE701212046FFF7BDFC85F321
:1029A000108804EB4403DA000A4B134459682046AC
:1029B000FFF750FF054B1B68CA225A6253225A6226
:1029C000E3E7FFF7D5FD85F31088C0E77805002021
:1029D000290300202C0300200008005822030020B7
:1029E0002DE9F0418AB000240594069407940894D8
:1029F00009944FF0B043DA6C42F00402DA64DA6C06
:102A000002F004020492049ADA6C42F08002DA6462
:102A1000DA6C02F080020392039ADA6C42F002024E
:102A2000DA64DA6C02F002020292029ADA6C42F084
:102A30000102DA64DA6C02F001020192019ADA6CA6
:102A400042F00802DA64DB6C03F008030093009B99
:102A500022464FF440414FF0904003F0EDFA284EEB
:102A600022464FF4A051304603F0E6FADFF89C808E
:102A700022460321404603F0DFFA224F2246382146
:102A8000384603F0D9FA4FF400530593069407949F
:102A900005A9304603F0F6F9082305930694079438
:102AA00005A9194803F0EEF94FF4404305930125B9
:102AB00006950794089405A94FF0904003F0E2F9B9
:102AC0004FF4A053059306950794089405A9304642
:102AD00003F0D8F90323059306950794089405A9F4
:102AE000404603F0CFF938230593069507940894E0
:102AF00005A9384603F0C6F90AB0BDE8F08100BF69
:102B00000008004800040048001C0048000C004871
:102B100072B6FEE708B50448044B036003F07CFB83
:102B200000B908BDFFF7F4FF9C050020000C005819
:102B300000B587B00023009301930293039304939D
:102B400005931848184A026043608360C3600361BC
:102B500004224261037643760122C26180F820306C
:102B60008362C36280F83030436380F8383002F00B
:102B7000D7FC90B90D4B00930623019300230293D9
:102B80007F2203920422049205936946054802F0CD
:102B900011FE20B907B05DF804FBFFF7B9FFFFF79E
:102BA000B7FF00BF2C060020000004500800900C66
:102BB00008B51148114B0360114B4360002383603B
:102BC0000122C260036143618361C361036203F058
:102BD00047FA50B90021084803F0A6FA38B9002195
:102BE000054803F0CFFA20B908BDFFF791FFFFF7C2
:102BF0008FFFFFF78DFF00BFD80500200054004075
:102C0000B57DB11010B59CB00024189419941A9495
:102C10001B941594169417940E940F941094119479
:102C20001294139414943422214601A80AF040F817
:102C30003748384B0360446084604FF6FF73C360CD
:102C400004614461846106F0C1F800284FD14FF45B
:102C50008053189318A92E4806F098FA002848D1F6
:102C60002B4806F013F9002845D1294806F0DEF874
:102C7000002842D1002315931693179315A92448D1
:102C800006F026FC00283AD160230E9300220F9212
:102C9000109211921292139214920EA91C4806F0EF
:102CA000CAF900282DD100230E9308220EA9184836
:102CB00006F084F938BB0023019302930393049335
:102CC00005934FF4005206920793089309934FF02F
:102CD00000720A920B930C930D9301A90C4806F015
:102CE0002BFC90B90A4803F0F1FB1CB010BDFFF7B4
:102CF0000FFFFFF70DFFFFF70BFFFFF709FFFFF7D0
:102D000007FFFFF705FFFFF703FFFFF701FF00BF16
:102D10002C050020002C014010B594B000240D9427
:102D20000E940F941094119412941394342221460B
:102D3000684609F0BDFF2248224B0360446084606E
:102D40004FF6FF73C36004614461846106F03EF88E
:102D500000282BD11A4806F099F848BB08211848DA
:102D600006F0C4F830BB60230D9300220E920F9240
:102D700010921192129213920DA9114806F05BF96C
:102D8000D0B90023009301930293039304934FF46B
:102D90000052059206930C936946094806F0CCFB55
:102DA00060B9074803F092FB14B010BDFFF7B0FE06
:102DB000FFF7AEFEFFF7ACFEFFF7AAFEFFF7A8FE97
:102DC000940400200044014008B51548154B0360E9
:102DD0004FF4E133436000238360C36003610C223E
:102DE00042618361C36103624362836207F0B8F9A1
:102DF00070B900210A4807F001FB58B900210848C2
:102E000007F021FB40B9064807F0D9FA30B908BDF0
:102E1000FFF77EFEFFF77CFEFFF77AFEFFF778FEF6
:102E2000C80300200038014000B58BB00023079391
:102E300008930993009301930293039304930593DA
:102E400006931E484FF080420260436083604FF05B
:102E5000FF32C2600361836106F018F820BB0023D3
:102E60000793099307A9154806F032FBF0B96023D0
:102E70000093002201920292049269460F4806F0E4
:102E8000DAF8A8B9042269460C4806F0D4F888B9E3
:102E900008226946094806F0CEF868B9074803F0E9
:102EA00015FB0BB05DF804FBFFF732FEFFF730FEB9
:102EB000FFF72EFEFFF72CFEFFF72AFEE0040020AE
:102EC00008B50E480E4B0360002343600F2282605A
:102ED00047F6FF72C26003618361C361436105F01D
:102EE00059FC30B900221146044805F0A9FC10B97C
:102EF00008BDFFF70DFEFFF70BFE00BF78050020B1
:102F00000028004010B59AB04822002108A809F016
:102F1000CFFE002401940294039404940594069433
:102F2000079404F08DFB4FF0B042D2F8903023F0BC
:102F3000180343F01003C2F8903002F58062136862
:102F400023F4C06343F400731360136803F4C06395
:102F50000093009B2F2308934FF4803309930123A0
:102F60000A934FF480720B920F9340220C921094AC
:102F70006022119205220D9202221392149315944D
:102F8000202316934FF4003317934FF000531993F7
:102F90004FF00073189308A804F060FC90B96F23F9
:102FA000019303210291002303930493059380224C
:102FB0000692079301A804F0DDFF28B905F08EFB07
:102FC0001AB010BDFFF7A4FDFFF7A2FD00B595B044
:102FD00050220021684609F06BFE4FF454530093D1
:102FE000182301934FF4003302934FF000730393BF
:102FF0004FF0005304934FF0885305934FF08063D4
:103000000D934FF080530F934FF4404311931023CF
:103010001393684605F0E9F928B9044BD3F89430C6
:1030200015B05DF804FBFFF773FD00BF00140058F6
:1030300000B587B002F012FAFEF774F8FFF762FFEE
:10304000FFF7C4FFFFF766FDFFF7CAFCFFF770FD4F
:10305000FFF7AEFDFFF7D6FDFFF75EFEFFF7B4FE0C
:1030600008F0C8FBFFF7E0FEFFF72AFF08F0C2FBFD
:103070004FF4FA70FEF77EF800F098F8002000F0A8
:10308000D3F90E4B1B6832221A630023019302937B
:103090000393049305934FF4005301930123029388
:1030A0000223039301A9064802F0ECFEFEF754F850
:1030B000FEF77AF800F0E6F9FAE700BF2C050020E9
:1030C0000004004808B509F037FE08BD08B509F04E
:1030D000EFFD08BD01460748C3798B4204D0064A7C
:1030E000904201D00838F7E78B4200D170470020AA
:1030F000FCE700BFF873FF1F0070FF1F2DE9F041D0
:103100008EB080460F4615461E4643B11C23012D46
:1031100007DD9A1EAA4200DCDD1E00241BE01223FC
:10312000F5E70225F5E7A81E3146204400F0C6F970
:10313000394686F0010000F06FFB07EE900AF8EECA
:10314000677A9FED197A77EEC77A0EAB03EB8403AB
:1031500043ED057A0134042CE5DD2022002101A88D
:1031600009F0A6FD05238DF804304FF08143039349
:1031700009AB049301A801F039FE07EE905AF8EE6E
:10318000E77A77EE807AB0EE007A77EEC77A059B21
:103190002B44023BC8F80030C8ED017A88F808607B
:1031A00040460EB0BDE8F0810000C84208B50121DC
:1031B000002000F083F900F0E5FA01F041FD032161
:1031C000014801F0D5FD08BDC8060020F0B52DED81
:1031D000048B8DB0704E6C46704F01233268397885
:1031E0002046FFF78BFF94E8070086E807006C4D48
:1031F00000232A6839782046FFF780FF94E807000B
:1032000085E80700D6ED018A95ED018A0024254660
:1032100000E00134072C11DC01215F4B186800F03D
:103220004DF9E1B2002000F0F7FA5E4B23F81400EC
:10323000A842EED9594B1C600546EAE7962D40F2AC
:10324000A48000F053FB554C236803F10043023B7C
:1032500005A9544800EB430001F062FDDDED077A5B
:1032600077EEA77ADDED066A86EEA77AD4ED007ACE
:10327000F8EEE77A77EEC77AB2EE067A77EE677AFB
:1032800017EE900AFDF710F941EC100B0AF0E0F888
:1032900051EC100BFDF722FC00EE100ADFED427A34
:1032A000B4EEE70AF1EE10FA68D4404B1B7833B95C
:1032B0003E4B01221A703E4B1A683E4B1A609FED3E
:1032C0003E9AB0EE682ADFED3D1AB0EE491AF2EEF2
:1032D000050AB6EE000A01F087FC10EE100AFDF7B1
:1032E000E3F841EC100B0AF00FF951EC100BFDF76D
:1032F000CDFB0446B0EE482AF0EE491A9FED301A95
:10330000F1EE0E0AB6EE000A01F06EFC10EE100AA5
:10331000FDF7CAF841EC100B0AF0F6F851EC100B6F
:10332000FDF7B4FB224B93ED007A224BD3ED007AEC
:1033300037EE677ADFED236AC7EE267A67EEA77A63
:10334000B0EE677ABEEECA7A17EE103AB3F5805F38
:1033500001DB40F6FF730022089209920A920B9259
:10336000ADF82040ADF822009B00ADF82A3008A847
:1033700000F0BEFA0DB0BDEC048BF0BD124801F0B8
:1033800010FD0B4B83ED000A8FE7084B00221A70EB
:1033900000F0ADFAEEE700BF9C060020140000200C
:1033A00090060020B00600200000FA44AC06002081
:1033B000C4060020A8060020000000000000FA4615
:1033C00000409C46CD4C6BC4C806002010B50024BC
:1033D00008E00121204600F071F80021084600F0C5
:1033E0001BFA01341B2CF4D9002301E000BF013388
:1033F0004CF24F329342F9DD10BD10B5002408E0C5
:103400000021204600F05AF80021012000F004FAC3
:103410000134112CF4D9002301E000BF01334CF238
:103420004F329342F9DD10BD014B1870704700BF59
:10343000180000200EB430B5C2B0034645AA52F8B9
:10344000045B01920D4A4FF4807102A809F0BEFBA3
:103450000446019B2A46C0F5807102A8204409F069
:1034600019FC2044064AC0F5807102AB184409F0EB
:10347000ADFB42B0BDE8304003B0704728DD000826
:1034800030DD000808B50A4B1A78012A05D0022A57
:1034900006D042B9FFF79AFE08BDFFF797FFFBE79A
:1034A000FFF7ABFFF8E703490348FFF7C3FFF3E774
:1034B0001800002034DD000848DD000810B582B097
:1034C000002308E003F108020DEB02044FF0010CA9
:1034D00004F808CC6344052BF4D9002900F0AA8035
:1034E0001B2812D81B2800F29F80DFE800F0141977
:1034F0001E23282D32373B40454A4F54595E6267A0
:103500006C71767B8085898E93980246974998489E
:10351000FFF790FF27E100238DF800300124A2E09F
:1035200000238DF8003002249DE000238DF8003048
:10353000042498E000238DF80030062493E0002353
:103540008DF8003007248EE000238DF8003005242C
:1035500089E000238DF80130032484E000248DF8F5
:10356000014080E000238DF8013001247BE000233E
:103570008DF80130022476E000238DF80130042418
:1035800071E000238DF8013006246CE000238DF8F3
:103590000130072467E000238DF80130052462E044
:1035A00000238DF8023003245DE000248DF80240F2
:1035B00059E000238DF80230012454E000238DF8F7
:1035C000023002244FE000238DF8023004244AE048
:1035D00000238DF80230062445E000238DF80230E8
:1035E000072440E000238DF8023005243BE000234F
:1035F0008DF80330032436E000248DF8034032E0D8
:1036000000238DF8033001242DE000238DF80330D2
:10361000022428E000238DF80330042423E0002353
:103620008DF8033006241EE0024650495048FFF74B
:1036300001FF98E011280CD811287ED8DFE800F0AF
:103640000F2B2F34393E43484D52565B60656A6FED
:103650007479024647494648FFF7ECFE83E00023B1
:103660008DF80430032404F001024FF480614248D5
:1036700002F0E2FCC4F340024FF400414FF09040EE
:1036800002F0DAFCA2084FF480414FF0904002F0C3
:10369000D3FC002465E000248DF80440E3E7002318
:1036A0008DF804300124DEE700238DF80430022475
:1036B000D9E700238DF804300424D4E700238DF8E3
:1036C00004300624CFE700238DF804300724CAE72E
:1036D00000238DF804300524C5E700238DF805305C
:1036E0000324C0E700248DF80540BCE700238DF8D3
:1036F00005300124B7E700238DF805300224B2E736
:1037000000238DF805300424ADE700238DF8053043
:103710000624A8E700238DF805300724A3E700233B
:103720008DF8053005249EE700238DF80030032432
:1037300099E700248DF8004095E702460D490C48B2
:10374000FFF778FE0FE004F108036B4413F8082C30
:103750000A4B33F814100A4B53F8240002F06CFCA7
:103760000134052CEFD902B010BD00BF54DD0008B4
:1037700048DD00086CDD0008000800481C0000203F
:103780002800002010B5104C0021204605F08EFDC9
:103790000821204605F08AFD0021204605F02EFE76
:1037A0000821204605F02AFE084C0021204605F09D
:1037B00025FE074B074A1A6023687C22DA623E2204
:1037C0005A633C221A6310BD2C050020940400208B
:1037D0001C0900200077FB4830B583B0002411E0BD
:1037E0000C4D284602F064FA4FF0FF31284601F0F4
:1037F00083FF284601F0DAFF02AB03EB440323F812
:10380000080C0134022CEBD90321684601F0F9F9C8
:1038100003B030BD2C06002038B5044672B6304BDC
:103820001B6953F82130984734B90023B3F5C87F9A
:1038300008DA00BF0133F9E70023632B02DC00BF85
:103840000133FAE7002201214FF0904002F0F4FB2F
:10385000002301E000BF013341F287329342F9DDDA
:10386000FFF7BAFF0446012211464FF0904002F0E4
:10387000E3FB002301E000BF0133632BFBDD0022EB
:1038800001214FF0904002F0D7FB002301E000BF80
:103890000133C72BFBDD134D284602F009FA4FF028
:1038A000FF31284601F028FF284601F07FFF05463A
:1038B00062B6012211464FF0904002F0BDFBADB25E
:1038C000631B07EE903AF8EEE77A9FED077A77EE02
:1038D000877AFCEEE77A17EE903A98B238BD00BFCF
:1038E000400000202C0600200000C84270477047AE
:1038F00038B5B0F80AC00488B0F90020B0F802E08A
:10390000B0F902300D4908250D7080254D708C707E
:103910001212CA7081F804E01B124B7181F806C0C4
:1039200090F90B30CB7100230B724B728B72CB7200
:103930000C22034809F004F8012038BDBC03002024
:1039400040090020044A136843F080631360034B6E
:10395000188900231EE100BF000400484000002039
:103960007E4A4FF40051916100BF00BF00BF00BF0D
:1039700000BF00BF00BF00BF00BF00BF00BF00BF4F
:1039800000BF00BF00BF00BF00BF00BF00BF00BF3F
:1039900000BF00BF00BF00BF00BF00BF00BF00BF2F
:1039A00000BF00BF00BF00BF00BF00BF00BF00BF1F
:1039B00000BF00BF00BF00BF00BF00BF00BF00BF0F
:1039C00000BF00BF00BF00BF00BF00BF00BF00BFFF
:1039D00000BF00BF00BF00BF00BF00BF00BF00BFEF
:1039E00000BF00BF00BF00BF00BF00BF00BF00BFDF
:1039F00000BF00BF00BF00BF00BF00BF00BF00BFCF
:103A000000BF00BF00BF00BF00BF00BF00BF00BFBE
:103A100000BF00BF00BF00BF00BF00BF00BF00BFAE
:103A200000BF00BF00BF00BF00BF00BF00BF00BF9E
:103A300000BF00BF00BF00BF00BF00BF00BF00BF8E
:103A400000BF00BF00BF00BF00BF00BF00BF00BF7E
:103A500000BF00BF00BF00BF00BF00BF00BF00BF6E
:103A600000BF00BF00BF00BF00BF00BF00BF00BF5E
:103A700000BF00BF00BF00BF00BF00BF00BF00BF4E
:103A80004FF00051916100BF00BF00BF00BF00BFF9
:103A900000BF00BF00BF00BF00BF00BF00BF00BF2E
:103AA00000BF00BF00BF00BF00BF00BF00BF00BF1E
:103AB00000BF00BF00BF00BF00BF00BF00BF00BF0E
:103AC00000BF00BF00BF00BF00BF00BF00BF00BFFE
:103AD00000BF00BF00BF00BF00BF00BF00BF00BFEE
:103AE00000BF00BF00BF00BF00BF00BF00BF00BFDE
:103AF00000BF00BF00BF00BF00BF00BF00BF00BFCE
:103B000000BF00BF00BF00BF00BF00BF00BF00BFBD
:103B100000BF00BF00BF00BF00BF00BF00BF00BFAD
:103B200000BF00BF00BF00BF00BF00BF00BF00BF9D
:103B300000BF00BF00BF00BF00BF00BF00BF00BF8D
:103B400000BF00BF00BF00BF00BF00BF00BF00BF7D
:103B500000BF00BF00BF00BF02E000BF000400487C
:103B600000BF00BF00BF00BF00BF00BF00BF00BF5D
:103B700000BF00BF00BF00BF00BF00BF00BF00BF4D
:103B800000BF00BF00BF00BF00BF00BF00BF00BF3D
:103B900001339BB298423FF6E3AE034A136823F029
:103BA00040631360704700BF00040048044A136874
:103BB00043F080631360034B188900231AE100BFB0
:103BC00000040048400000207F4A4FF400519161FA
:103BD00000BF00BF00BF00BF00BF00BF00BF00BFED
:103BE00000BF00BF00BF00BF00BF00BF00BF00BFDD
:103BF00000BF00BF00BF00BF00BF00BF00BF00BFCD
:103C000000BF00BF00BF00BF00BF00BF00BF00BFBC
:103C100000BF00BF00BF00BF00BF00BF00BF00BFAC
:103C200000BF00BF00BF00BF00BF00BF00BF00BF9C
:103C300000BF00BF00BF00BF00BF00BF00BF00BF8C
:103C400000BF00BF00BF00BF00BF00BF00BF00BF7C
:103C500000BF00BF00BF00BF00BF00BF00BF00BF6C
:103C600000BF00BF00BF00BF00BF00BF00BF00BF5C
:103C700000BF00BF00BF00BF00BF00BF00BF00BF4C
:103C800000BF00BF00BF00BF00BF00BF00BF00BF3C
:103C900000BF00BF00BF00BF00BF00BF00BF00BF2C
:103CA00000BF00BF00BF00BF00BF00BF00BF00BF1C
:103CB00000BF00BF00BF00BF00BF00BF00BF00BF0C
:103CC00000BF00BF00BF00BF00BF00BF00BF00BFFC
:103CD00000BF00BF00BF00BF00BF00BF00BF00BFEC
:103CE00000BF00BF4FF00051916100BF00BF00BF97
:103CF00000BF00BF00BF00BF00BF00BF00BF00BFCC
:103D000000BF00BF00BF00BF00BF00BF00BF00BFBB
:103D100000BF00BF00BF00BF00BF00BF00BF00BFAB
:103D200000BF00BF00BF00BF00BF00BF00BF00BF9B
:103D300000BF00BF00BF00BF00BF00BF00BF00BF8B
:103D400000BF00BF00BF00BF00BF00BF00BF00BF7B
:103D500000BF00BF00BF00BF00BF00BF00BF00BF6B
:103D600000BF00BF00BF00BF00BF00BF00BF00BF5B
:103D700000BF00BF00BF00BF00BF00BF00BF00BF4B
:103D800000BF00BF00BF00BF00BF00BF00BF00BF3B
:103D900000BF00BF00BF00BF00BF00BF00BF00BF2B
:103DA00000BF00BF00BF00BF00BF00BF00BF00BF1B
:103DB00000BF00BF00BF00BF00BF00BF00BF00BF0B
:103DC00000BF00BF00BF01E00004004800BF00BF0B
:103DD00000BF00BF00BF00BF00BF00BF00BF00BFEB
:103DE00000BF00BF00BF00BF00BF00BF00BF00BFDB
:103DF00001339BB298423FF6E7AE034A136823F0C3
:103E000040631360704700BF00040048044A136811
:103E100043F080631360034B1889002319E100BF4E
:103E200000040048400000207F4A4FF40051916197
:103E300000BF00BF00BF00BF00BF00BF00BF00BF8A
:103E400000BF00BF00BF00BF00BF00BF00BF00BF7A
:103E500000BF00BF00BF00BF00BF00BF00BF00BF6A
:103E600000BF00BF00BF00BF00BF00BF00BF00BF5A
:103E700000BF00BF00BF00BF00BF00BF00BF00BF4A
:103E800000BF00BF00BF00BF00BF00BF00BF00BF3A
:103E900000BF00BF00BF00BF00BF00BF00BF00BF2A
:103EA00000BF00BF00BF00BF00BF00BF00BF00BF1A
:103EB00000BF00BF00BF00BF00BF00BF00BF00BF0A
:103EC00000BF00BF00BF00BF00BF00BF00BF00BFFA
:103ED00000BF00BF00BF00BF00BF00BF00BF00BFEA
:103EE00000BF00BF00BF00BF00BF00BF00BF00BFDA
:103EF00000BF00BF00BF00BF00BF00BF00BF00BFCA
:103F000000BF00BF00BF00BF00BF00BF00BF00BFB9
:103F100000BF00BF00BF00BF00BF00BF00BF00BFA9
:103F200000BF00BF00BF00BF00BF00BF00BF00BF99
:103F300000BF00BF00BF00BF00BF00BF00BF00BF89
:103F400000BF4FF00051916100BF00BF00BF00BF34
:103F500000BF00BF00BF00BF00BF00BF00BF00BF69
:103F600000BF00BF00BF00BF00BF00BF00BF00BF59
:103F700000BF00BF00BF00BF00BF00BF00BF00BF49
:103F800000BF00BF00BF00BF00BF00BF00BF00BF39
:103F900000BF00BF00BF00BF00BF00BF00BF00BF29
:103FA00000BF00BF00BF00BF00BF00BF00BF00BF19
:103FB00000BF00BF00BF00BF00BF00BF00BF00BF09
:103FC00000BF00BF00BF00BF00BF00BF00BF00BFF9
:103FD00000BF00BF00BF00BF00BF00BF00BF00BFE9
:103FE00000BF00BF00BF00BF00BF00BF00BF00BFD9
:103FF00000BF00BF00BF00BF00BF00BF00BF00BFC9
:1040000000BF00BF00BF00BF00BF00BF00BF00BFB8
:1040100000BF00BF00BF00BF00BF00BF00BF00BFA8
:1040200000BF00BF02E000BF0004004800BF00BFA7
:1040300000BF00BF00BF00BF00BF00BF00BF00BF88
:1040400000BF00BF00BF00BF00BF00BF00BF013303
:104050009BB298423FF6E8AE024A136823F04063F1
:104060001360704700040048044A136843F08063FB
:104070001360034B1889002315E100BF00040048BA
:10408000400000207E4A4FF40051916100BF00BF04
:1040900000BF00BF00BF00BF00BF00BF00BF00BF28
:1040A00000BF00BF00BF00BF00BF00BF00BF00BF18
:1040B00000BF00BF00BF00BF00BF00BF00BF00BF08
:1040C00000BF00BF00BF00BF00BF00BF00BF00BFF8
:1040D00000BF00BF00BF00BF00BF00BF00BF00BFE8
:1040E00000BF00BF00BF00BF00BF00BF00BF00BFD8
:1040F00000BF00BF00BF00BF00BF00BF00BF00BFC8
:1041000000BF00BF00BF00BF00BF00BF00BF00BFB7
:1041100000BF00BF00BF00BF00BF00BF00BF00BFA7
:1041200000BF00BF00BF00BF00BF00BF00BF00BF97
:1041300000BF00BF00BF00BF00BF00BF00BF00BF87
:1041400000BF00BF00BF00BF00BF00BF00BF00BF77
:1041500000BF00BF00BF00BF00BF00BF00BF00BF67
:1041600000BF00BF00BF00BF00BF00BF00BF00BF57
:1041700000BF00BF00BF00BF00BF00BF00BF00BF47
:1041800000BF00BF00BF00BF00BF00BF00BF00BF37
:1041900000BF00BF00BF00BF00BF00BF4FF0005115
:1041A000916100BF00BF00BF00BF00BF00BF00BFE4
:1041B00000BF00BF00BF00BF00BF00BF00BF00BF07
:1041C00000BF00BF00BF00BF00BF00BF00BF00BFF7
:1041D00000BF00BF00BF00BF00BF00BF00BF00BFE7
:1041E00000BF00BF00BF00BF00BF00BF00BF00BFD7
:1041F00000BF00BF00BF00BF00BF00BF00BF00BFC7
:1042000000BF00BF00BF00BF00BF00BF00BF00BFB6
:1042100000BF00BF00BF00BF00BF00BF00BF00BFA6
:1042200000BF00BF00BF00BF00BF00BF00BF00BF96
:1042300000BF00BF00BF00BF00BF00BF00BF00BF86
:1042400000BF00BF00BF00BF00BF00BF00BF00BF76
:1042500000BF00BF00BF00BF00BF00BF00BF00BF66
:1042600000BF00BF00BF00BF00BF00BF00BF00BF56
:1042700000BF00BF00BF00BF00BF00BF00BF01E024
:104280000004004800BF00BF00BF00BF00BF00BF68
:1042900000BF00BF00BF00BF00BF00BF00BF00BF26
:1042A00000BF01339BB298423FF6ECAE024A13685E
:1042B00023F040631360704700040048044A136809
:1042C00043F080631360034B1889002314E100BF9F
:1042D00000040048400000207E4A4FF400519161E4
:1042E00000BF00BF00BF00BF00BF00BF00BF00BFD6
:1042F00000BF00BF00BF00BF00BF00BF00BF00BFC6
:1043000000BF00BF00BF00BF00BF00BF00BF00BFB5
:1043100000BF00BF00BF00BF00BF00BF00BF00BFA5
:1043200000BF00BF00BF00BF00BF00BF00BF00BF95
:1043300000BF00BF00BF00BF00BF00BF00BF00BF85
:1043400000BF00BF00BF00BF00BF00BF00BF00BF75
:1043500000BF00BF00BF00BF00BF00BF00BF00BF65
:1043600000BF00BF00BF00BF00BF00BF00BF00BF55
:1043700000BF00BF00BF00BF00BF00BF00BF00BF45
:1043800000BF00BF00BF00BF00BF00BF00BF00BF35
:1043900000BF00BF00BF00BF00BF00BF00BF00BF25
:1043A00000BF00BF00BF00BF00BF00BF00BF00BF15
:1043B00000BF00BF00BF00BF00BF00BF00BF00BF05
:1043C00000BF00BF00BF00BF00BF00BF00BF00BFF5
:1043D00000BF00BF00BF00BF00BF00BF00BF00BFE5
:1043E00000BF00BF00BF00BF00BF00BF00BF4FF055
:1043F0000051916100BF00BF00BF00BF00BF00BF00
:1044000000BF00BF00BF00BF00BF00BF00BF00BFB4
:1044100000BF00BF00BF00BF00BF00BF00BF00BFA4
:1044200000BF00BF00BF00BF00BF00BF00BF00BF94
:1044300000BF00BF00BF00BF00BF00BF00BF00BF84
:1044400000BF00BF00BF00BF00BF00BF00BF00BF74
:1044500000BF00BF00BF00BF00BF00BF00BF00BF64
:1044600000BF00BF00BF00BF00BF00BF00BF00BF54
:1044700000BF00BF00BF00BF00BF00BF00BF00BF44
:1044800000BF00BF00BF00BF00BF00BF00BF00BF34
:1044900000BF00BF00BF00BF00BF00BF00BF00BF24
:1044A00000BF00BF00BF00BF00BF00BF00BF00BF14
:1044B00000BF00BF00BF00BF00BF00BF00BF00BF04
:1044C00000BF00BF00BF00BF00BF00BF00BF00BFF4
:1044D00002E000BF0004004800BF00BF00BF00BFF3
:1044E00000BF00BF00BF00BF00BF00BF00BF00BFD4
:1044F00000BF00BF01339BB298423FF6EDAE034AC6
:10450000136823F040631360704700BF0004004845
:10451000044A136843F080631360034B1889002337
:1045200010E100BF00040048400000207F4A4FF423
:104530000051916100BF00BF00BF00BF00BF00BFBE
:1045400000BF00BF00BF00BF00BF00BF00BF00BF73
:1045500000BF00BF00BF00BF00BF00BF00BF00BF63
:1045600000BF00BF00BF00BF00BF00BF00BF00BF53
:1045700000BF00BF00BF00BF00BF00BF00BF00BF43
:1045800000BF00BF00BF00BF00BF00BF00BF00BF33
:1045900000BF00BF00BF00BF00BF00BF00BF00BF23
:1045A00000BF00BF00BF00BF00BF00BF00BF00BF13
:1045B00000BF00BF00BF00BF00BF00BF00BF00BF03
:1045C00000BF00BF00BF00BF00BF00BF00BF00BFF3
:1045D00000BF00BF00BF00BF00BF00BF00BF00BFE3
:1045E00000BF00BF00BF00BF00BF00BF00BF00BFD3
:1045F00000BF00BF00BF00BF00BF00BF00BF00BFC3
:1046000000BF00BF00BF00BF00BF00BF00BF00BFB2
:1046100000BF00BF00BF00BF00BF00BF00BF00BFA2
:1046200000BF00BF00BF00BF00BF00BF00BF00BF92
:1046300000BF00BF00BF00BF00BF00BF00BF4FF002
:104640000051916100BF00BF00BF00BF00BF00BFAD
:1046500000BF00BF00BF00BF00BF00BF00BF00BF62
:1046600000BF00BF00BF00BF00BF00BF00BF00BF52
:1046700000BF00BF00BF00BF00BF00BF00BF00BF42
:1046800000BF00BF00BF00BF00BF00BF00BF00BF32
:1046900000BF00BF00BF00BF00BF00BF00BF00BF22
:1046A00000BF00BF00BF00BF00BF00BF00BF00BF12
:1046B00000BF00BF00BF00BF00BF00BF00BF00BF02
:1046C00000BF00BF00BF00BF00BF00BF00BF00BFF2
:1046D00000BF00BF00BF00BF00BF00BF00BF00BFE2
:1046E00000BF00BF00BF00BF00BF00BF00BF00BFD2
:1046F00000BF00BF00BF00BF00BF00BF00BF00BFC2
:1047000000BF00BF00BF00BF00BF00BF00BF00BFB1
:1047100000BF00BF00BF00BF00BF00BF00BF00BFA1
:1047200000BF00BF00BF00BF00BF01E000040048A1
:1047300000BF00BF00BF00BF00BF00BF00BF00BF81
:1047400001339BB298423FF6F1AE034A136823F05F
:1047500040631360704700BF00040048044A1368B8
:1047600043F080631360034B188900230FE100BFFF
:1047700000040048400000207F4A4FF4005191613E
:1047800000BF00BF00BF00BF00BF00BF00BF00BF31
:1047900000BF00BF00BF00BF00BF00BF00BF00BF21
:1047A00000BF00BF00BF00BF00BF00BF00BF00BF11
:1047B00000BF00BF00BF00BF00BF00BF00BF00BF01
:1047C00000BF00BF00BF00BF00BF00BF00BF00BFF1
:1047D00000BF00BF00BF00BF00BF00BF00BF00BFE1
:1047E00000BF00BF00BF00BF00BF00BF00BF00BFD1
:1047F00000BF00BF00BF00BF00BF00BF00BF00BFC1
:1048000000BF00BF00BF00BF00BF00BF00BF00BFB0
:1048100000BF00BF00BF00BF00BF00BF00BF00BFA0
:1048200000BF00BF00BF00BF00BF00BF00BF00BF90
:1048300000BF00BF00BF00BF00BF00BF00BF00BF80
:1048400000BF00BF00BF00BF00BF00BF00BF00BF70
:1048500000BF00BF00BF00BF00BF00BF00BF00BF60
:1048600000BF00BF00BF00BF00BF00BF00BF00BF50
:1048700000BF00BF00BF00BF00BF00BF00BF00BF40
:1048800000BF00BF00BF00BF4FF00051916100BFEB
:1048900000BF00BF00BF00BF00BF00BF00BF00BF20
:1048A00000BF00BF00BF00BF00BF00BF00BF00BF10
:1048B00000BF00BF00BF00BF00BF00BF00BF00BF00
:1048C00000BF00BF00BF00BF00BF00BF00BF00BFF0
:1048D00000BF00BF00BF00BF00BF00BF00BF00BFE0
:1048E00000BF00BF00BF00BF00BF00BF00BF00BFD0
:1048F00000BF00BF00BF00BF00BF00BF00BF00BFC0
:1049000000BF00BF00BF00BF00BF00BF00BF00BFAF
:1049100000BF00BF00BF00BF00BF00BF00BF00BF9F
:1049200000BF00BF00BF00BF00BF00BF00BF00BF8F
:1049300000BF00BF00BF00BF00BF00BF00BF00BF7F
:1049400000BF00BF00BF00BF00BF00BF00BF00BF6F
:1049500000BF00BF00BF00BF00BF00BF00BF00BF5F
:1049600000BF00BF00BF00BF00BF00BF00BF00BF4F
:1049700000BF00BF02E000BF0004004800BF00BF4E
:1049800000BF00BF00BF00BF00BF01339BB2984211
:104990003FF6F2AE024A136823F04063136070479B
:1049A00000040048044A136843F080631360034B1B
:1049B000188900230CE100BF0004004840000020DB
:1049C0007E4A4FF40051916100BF00BF00BF00BF9D
:1049D00000BF00BF00BF00BF00BF00BF00BF00BFDF
:1049E00000BF00BF00BF00BF00BF00BF00BF00BFCF
:1049F00000BF00BF00BF00BF00BF00BF00BF00BFBF
:104A000000BF00BF00BF00BF00BF00BF00BF00BFAE
:104A100000BF00BF00BF00BF00BF00BF00BF00BF9E
:104A200000BF00BF00BF00BF00BF00BF00BF00BF8E
:104A300000BF00BF00BF00BF00BF00BF00BF00BF7E
:104A400000BF00BF00BF00BF00BF00BF00BF00BF6E
:104A500000BF00BF00BF00BF00BF00BF00BF00BF5E
:104A600000BF00BF00BF00BF00BF00BF00BF00BF4E
:104A700000BF00BF00BF00BF00BF00BF00BF00BF3E
:104A800000BF00BF00BF00BF00BF00BF00BF00BF2E
:104A900000BF00BF00BF00BF00BF00BF00BF00BF1E
:104AA00000BF00BF00BF00BF00BF00BF00BF00BF0E
:104AB00000BF00BF00BF00BF00BF00BF00BF00BFFE
:104AC00000BF00BF00BF00BF00BF00BF4FF00051DC
:104AD000916100BF00BF00BF00BF00BF00BF00BFAB
:104AE00000BF00BF00BF00BF00BF00BF00BF00BFCE
:104AF00000BF00BF00BF00BF00BF00BF00BF00BFBE
:104B000000BF00BF00BF00BF00BF00BF00BF00BFAD
:104B100000BF00BF00BF00BF00BF00BF00BF00BF9D
:104B200000BF00BF00BF00BF00BF00BF00BF00BF8D
:104B300000BF00BF00BF00BF00BF00BF00BF00BF7D
:104B400000BF00BF00BF00BF00BF00BF00BF00BF6D
:104B500000BF00BF00BF00BF00BF00BF00BF00BF5D
:104B600000BF00BF00BF00BF00BF00BF00BF00BF4D
:104B700000BF00BF00BF00BF00BF00BF00BF00BF3D
:104B800000BF00BF00BF00BF00BF00BF00BF00BF2D
:104B900000BF00BF00BF00BF00BF00BF00BF00BF1D
:104BA00000BF00BF00BF00BF00BF00BF00BF00BF0D
:104BB00000BF00BF00BF00BF02E000BF000400480C
:104BC00000BF00BF00BF00BF00BF00BF01339BB2EA
:104BD00098423FF6F5AE034A136823F04063136032
:104BE000704700BF0004004871EEC11A32EE402A3F
:104BF00061EE821A70EEC00A81EEA00A30EE010A60
:104C0000704710B54FF0000E0FE001339BB28B429E
:104C10000AD230F813C030F81E209445F5D220F89F
:104C20001EC020F81320F0E7A6468E4504D20EF1F0
:104C30000104A4B22346EAE7490830F8110010BD88
:104C400000B5B9B029AB0322052106A8FCF7C3FAC9
:104C50001AAB0522032104A8FCF7BDFA11AB03220D
:104C6000114602A8FCF7B7FA08AB032211466846C2
:104C7000FCF7B1FA244B052203212448FCF7ABFAD8
:104C8000234B012205212348FCF7A5FA224B0122E0
:104C900003212248FCF79FFA00231EE003EB4302A6
:104CA00038A901EB82014FF07E5041F83C0C0133F2
:104CB000511C38A800EB810107EE903AF8EEE77A34
:104CC00041ED0F7A03FB03F107EE901A023200EB7D
:104CD0008202F8EEE77A42ED0F7A042BDEDD04A9BA
:104CE00006A8FCF7B1FB02AA06A904A8FCF772FB10
:104CF000694602A8FCF774FA044A04A96846FCF75E
:104D000069FB39B05DF804FB140700200C07002094
:104D1000E4060020DC06002000070020F806002042
:104D200010B50C4600230BE030F9132007EE902A53
:104D3000F8EEE77A094A02EB8302C2ED007A01330A
:104D4000042BF1DD064A07490748FCF743FB074BF4
:104D500007CB20606160A260204610BDE406002001
:104D6000F8060020DC0600200C07002000070020C9
:104D700038B504460D46880007F072FE2060656075
:104D80000023A3600022E260226107E0226802EBB8
:104D900083024FF0000CC2F800C00133AB42F5DBD8
:104DA00038BDD0ED037A0368826803EB820393ED8C
:104DB000007A77EEC77AC0ED037A83ED000A90EDB2
:104DC000037A37EE007A80ED037A83680133426814
:104DD00093FBF2F102FB1133836007EE902AF8EEA9
:104DE000E77A87EE270A80ED040A704710B501784C
:104DF000002303619FED3B7A00E001338B420DDA23
:104E0000C26802EB8302D2ED007AF4EEC77AF1EECB
:104E100010FAF2DD0361B0EE677AEEE70269002A6C
:104E20004AD10023037713464FF0010CC46804EB0A
:104E3000830EDEED006A04EB820292ED006A04EB61
:104E40008C0494ED005A07EE903AB8EEE77AF0EE53
:104E5000087A66EEA77AF1EE005A66EE255A77EEEA
:104E6000E57A77EE857AF6EE005A67EEA57A36EEA9
:104E7000066A76EEC66A76EE856A87EEA66A77EEF1
:104E8000067AC0ED057A037F022B24D090ED010A4B
:104E900090ED027A37EE407AD0ED057A27EE277A48
:104EA000013907EE901AF8EEE77AC7EE276A30EE7E
:104EB000260A80ED060A10BD01F1FF3C624505D0CF
:104EC00001230377531E02F1010CAFE7022303779E
:104ED0008B1E6246AAE7B7EE007A77EEC77AC0ED7E
:104EE000057AD3E70000C8C200B585B06B4600F173
:104EF0000C022E214FF6664000F006F99DF80E00D8
:104F000005B05DF804FB00B585B06B4600F10C02FE
:104F10000F214FF6684000F0F7F89DF80E0005B03D
:104F20005DF804FB00B585B002466B4610214FF6D4
:104F3000754000F0E9F89DF80E0005B05DF804FB3F
:104F400030B4214BDB6BC3F30D039B0003F1005323
:104F500003F540331A6811681C4B99422DD0136930
:104F600054699569516892684FEA136C80F800C0E3
:104F70004FEA134C80F801C04FEA132C80F802C0AE
:104F8000C3F3031C80F803C003F00F030371230E67
:104F90004371230C8371230AC371047245720B0E93
:104FA00083720B0CC372090A0173130E4373130C43
:104FB0008373C273002030BC704753699469D5690C
:104FC000D1681269D0E700BF00400058B95646A921
:104FD00008B538B9084B1B6803B19847074B002246
:104FE0001A7008BD054B01221A70034B1B68002B79
:104FF000F7D010469847F4E7540700202C02002011
:1050000010B584B004460B4B18600B4806F09AF9B3
:105010000120FFF7DDFF094B01221A70084B1B68C6
:1050200033B10394074A0192074A029201A89847B4
:1050300004B010BD2802002030020020240200200D
:1050400058070020715100084D50000810B5014666
:10505000034C204606F091F92046FCF7ACF810BD51
:105060003002002010B50C464A68054B1A60054B0B
:10507000D861184600F082F82068FFF7C1FF10BD24
:10508000540700205807002000B585B01B4806F0E3
:105090005CF910B91A4B1B784BB9184806F055F952
:1050A00010B9174B1B7823BB05B05DF804FB03A9AF
:1050B000124806F07AF9134BDB698BB1039A02921E
:1050C00001228DF8042001A898479DF804200C4B7C
:1050D0001A700B4B1B783BB1039806F057FBDCE7CB
:1050E000074B01221A70F4E70399044806F039F9D6
:1050F000D3E70248FCF75FF8D6E700BF3002002094
:1051000024020020580700202DE9F04107460C46F4
:1051100016461D460020FFF75BFFDFF85080D8F8E9
:105120000000A0F80970C472224631460C3007F026
:1051300003FE01240B4B1C700B4B1B69002108461E
:10514000984748F2E800FCF741F8D8F800108A7850
:10515000033205F1080007F0EFFD2046FFF738FFA6
:10516000BDE8F081500700205807002028020020E9
:1051700008B50020FCF725F808BD0000024B0360CD
:10518000024B0361704700BFA1B60008DDB60008FE
:105190000023024A1360024A136070477C07002014
:1051A00078070020EFF3108372B641B1012903D1D3
:1051B00006490A6802430A6083F31088704703496E
:1051C0000A6822EA00020A60F6E700BF78070020BA
:1051D000EFF3108C72B6064A136803431360054A56
:1051E00052F83130034342F831308CF31088704765
:1051F0001408002080070020EFF3108172B6044AE3
:10520000136823EA0000106081F31088704700BF24
:1052100078000020EFF3108172B6034A1368184338
:10522000106081F31088704778000020EFF3108140
:1052300072B6034A13681843106081F310887047F0
:10524000100800207047704728B1B0FA80F0C0F114
:105250001F00C0B270472020F9E7000070B5424B34
:105260001C6820401860414B1A68414B1B6841493B
:105270000868414909682FE0013334E03F4D05EBF0
:10528000C30568681040FFF7DFFF3D4E30606A6875
:10529000012303FA00F022EA00026A60EFF31081B2
:1052A00072B6326803FA02F2D643304D286820EA1B
:1052B00002022A60002B2DD181F31088304B1A682E
:1052C000304B53F822309847284B1A68284B1B68FC
:1052D00028490868284909680240234D2D682A4258
:1052E00020D00B401ED1254A52F8332002402A42DA
:1052F000C2D0224951F8332002402A4001EBC301B9
:1053000049681142BAD11D4901EBC3014FF0FF308A
:105310004860B3E7013B194850F83320324040F869
:105320003320C7E7164B4FF0FF321A60FFF78AFFB2
:10533000EFF3108572B60D4B1B680D4A11680D4ACC
:1053400012681340084A1268134203D10A4B1B68C3
:105350000B4206D085F31088FFF775FF024B1C60E7
:1053600070BDFBF727FFF5E774000020140800204C
:1053700010080020780000200C0800208007002082
:10538000080800208807002008B5C043FFF766FF23
:1053900008BD0000F8B50446114B1E68B6F1FF3F8A
:1053A00005D00125B5400F4B1F681C6005E00025A6
:1053B000F9E721462846FFF7E7FF0B4B1B6823421E
:1053C000F7D0074B1E60EFF3108172B6064A1368E0
:1053D00023EA0403136081F31088024B1F60F8BDB9
:1053E000080800200C0800201008002038B51446DA
:1053F000EFF3108572B6FFF727FF034B43F8204009
:1054000085F3108838BD00BF88070020114B1B783A
:105410000BB90120704710B5044602F00FFA0D4B8E
:105420001A784FF47A73B3FBF2F3B0FBF3F000F0A9
:10543000F9FC68B90F2C01D901200AE000222146AD
:105440004FF0FF3000F0D6FC034B1C60002000E062
:10545000012010BD7C0000208000002010B5094A0A
:10546000136843F480731360032000F0B1FC0F2035
:10547000FFF7CCFF10B10124204610BD044600F018
:10548000E9FEF9E700400058034B1B78034A116816
:105490000B441360704700BF7C00002018080020F8
:1054A000014B1868704700BF18080020014B1868AE
:1054B000704700BF80000020014B1878704700BF84
:1054C0007C00002010B430300B0A9B0003F00C036A
:1054D000C45801F01F014FF01F0C0CFA01FC24EA24
:1054E0000C0CC2F384628A404CEA0202C2505DF89E
:1054F000044B704710B414304B0E9B0003F00403B0
:10550000C458C1F304514FF0070C0CFA01FC24EA13
:105510000C0C8A404CEA0202C2505DF8044B704702
:1055200030B583B000230193002800F0D8800446F2
:10553000436D13B323689A6812F0005F05D09A6830
:1055400022F0204222F03F029A602268936813F012
:10555000805F1FD1936823F0104323F03F0343F093
:10556000805393605F4B1B689B095F4AA2FB032338
:105570009B0901335B00019309E000F083FE0023E7
:10558000A36584F85030D5E7019B013B0193019B53
:10559000002BF9D12268936813F0805F78D1636D96
:1055A00043F010036365A36D43F00103A36501207D
:1055B000936813F0040300D00123616D11F0100F04
:1055C00040F08680002B40F08380636D23F481736C
:1055D00043F002036365936813F0010F0BD1434B53
:1055E0009B6813F0010F06D1636841498A6822F471
:1055F0007C1213438B60627E636B43EA4233E26842
:105600001343A268134394F8202043EA0243012A7B
:1056100040D0A26A22B102F47072E16A0A431343D5
:105620002168CD68334A2A401A43CA6021688B68D2
:1056300013F0040300D001238A6812F0080200D09E
:105640000122B3B9AAB9237E94F83020520042EA6D
:105650008332CB6823F4804323F002031343CB60EF
:1056600094F83830012B1AD02268136923F0010313
:1056700013612369012B22D02268136B23F00F03DF
:105680001363636D23F0030343F00103636524E0B8
:1056900000208DE7626A013A43EA4243B9E7216894
:1056A0000B696FF38A03E26B256C2A43656C2A430E
:1056B000A56C2A43134343F001030B61D9E721682A
:1056C0000B6B23F00F03E269013A13430B63D8E736
:1056D000636D43F010036365012003B030BD01200A
:1056E000FBE700BF84000020632D3E05000004504E
:1056F0000003045007C0F0FFF8B504460E464569A4
:10570000082D05D00368DB6813F0010F1ED10425B6
:10571000FFF7C6FE074623681A682A421CD1B6F175
:10572000FF3FF8D0FFF7BCFEC31BB34201D8002EE9
:10573000F1D123681B682B42EDD1636D43F0040364
:105740006365002384F85030032004E0436D43F088
:10575000200343650120F8BD626D42F4007262656A
:10576000DA6812F4406F11D1627E7AB91A6812F0C9
:10577000080F0BD0626D22F480726265626D12F4C4
:10578000805F03D1626D42F001026265082D07D08F
:10579000DA6812F4804F07D10C221A600020DAE791
:1057A00008221A600020D6E70020D4E70368186CAE
:1057B00070470000F0B583B00023019390F850309B
:1057C000012B00F0028204460D46012380F8503080
:1057D0000068836813F0040F09D0636D43F0200361
:1057E00063650120002384F8503003B0F0BD0A68DF
:1057F0004968FFF767FE2068836813F0040300D050
:105800000123826812F0080200D001220BB9002A9D
:105810003AD02268936813F0010F40F0D0812B68D2
:10582000E868D2F8B010C3F3120621EA060100F0CE
:10583000180CA74820FA0CF00340C3F312030B43E3
:10584000C2F8B030EA68A34B9A4200F0A2802B68FD
:10585000A14A134200F0B581A04A926802F0E070BC
:105860009F49896811F0010F40F055819D498B4295
:1058700000F057819C498B4200F07A819B498B4212
:1058800000F08A810020ADE7AA682968FFF732FEA0
:1058900069692268D368C3F3C1035B009940286932
:1058A00004280ED02E68603252F82070904B3B4096
:1058B00006F0F84631430B4343F0004342F82030F2
:1058C000A7E7136E116EC1F384612B68C3F3120056
:1058D00080BBC3F38463994234D021684B6E4A6E17
:1058E000C2F384622B68C3F3120080BBC3F38463EA
:1058F0009A4234D021688B6E8A6EC2F384622B6820
:10590000C3F3120080BBC3F384639A4234D021688E
:10591000CB6ECA6EC2F384622B68C3F3120080BBE5
:10592000C3F384639A427FF474AFCB6E23F00043D9
:10593000CB666EE793FAA3F313B1B3FA83F3CAE726
:105940002023C8E7136E23F000431366C5E793FADC
:10595000A3F313B1B3FA83F3CAE72023C8E74B6E6E
:1059600023F000434B66C5E793FAA3F313B1B3FAF0
:1059700083F3CAE72023C8E78B6E23F000438B66CE
:10598000C5E793FAA3F313B1B3FA83F3CAE720236D
:10599000C8E720682B68C3F312063EBB9A0E01329B
:1059A00002F01F02092A8CBF00220122002A55D0D2
:1059B0005EBB990E0131890601F0F8418EBB4FEABA
:1059C000936C0CF1010C0CF01F0C012202FA0CF28A
:1059D0001143AEBB9B0E013303F01F0303EB4303E4
:1059E0001B051943AA68FFF785FD30E793FAA3F278
:1059F0004AB1B2FA82F2013202F01F02092A8CBFC8
:105A000000220122D2E72022F5E793FAA3F131B177
:105A1000B1FA81F10131890601F0F841CEE7202188
:105A2000F8E793FAA3F24AB1B2FA82F2013202F035
:105A30001F024FF0010C0CFA02F2C9E72022F5E731
:105A400093FAA3F343B1B3FA83F3013303F01F03D3
:105A500003EB43031B05C4E72023F6E7E6B9990EE1
:105A60000131890601F0F84116BB4FEA936C0CF145
:105A7000010C0CF01F0C012202FA0CF21143CEBBF8
:105A80009B0E013303F01F0303EB43031E3B1B0577
:105A900043F000731943A5E793FAA3F131B1B1FACA
:105AA00081F10131890601F0F841DDE72021F8E7B5
:105AB00093FAA3F24AB1B2FA82F2013202F01F0263
:105AC0004FF0010C0CFA02F2D8E72022F5E700BFF4
:105AD000FFFF070000007F40000008800003045023
