:020000040800F2
:10000000000003208DC5000811980008139800080F
:1000100015980008179800081998000800000000BB
:100020000000000000000000000000001B98000815
:100030001D980008000000001F9800082198000883
:10004000E5C50008E5C50008E5C5000829980008D1
:10005000E5C50008E5C50008E5C50008E5C50008D8
:10006000E5C50008E5C50008E5C50008E5C50008C8
:10007000E5C50008E5C50008E5C50008E5C50008B8
:10008000E5C50008E5C50008E5C500083198000889
:1000900041980008E5C50008E5C50008E5C5000869
:1000A000E5C5000851980008E5C50008E5C5000849
:1000B000E5C50008E5C50008E5C50008E5C5000878
:1000C000E5C50008E5C50008E5C50008E5C5000868
:1000D000E5C50008E5C50008E5C50008E5C5000858
:1000E000E5C50008E5C50008E5C50008E5C5000848
:1000F000699800087198000879980008E5C500081B
:10010000E5C50008E5C50008E5C50008E5C5000827
:10011000E5C50008E5C50008E5C50008E5C5000817
:10012000E5C50008E5C50008E5C50008E5C5000807
:0C013000E5C50008E5C50008E5C50008AD
:10014000034613F8012B002AFBD1181A0138704717
:1001500001F0FF01102A2BDB10F0070F08D010F878
:10016000013B013A8B422DD010F0070F42B3F6D17C
:10017000F0B441EA012141EA014122F007047FF095
:1001800000070023F0E80256083C85EA010586EAEC
:10019000010685FA47F5A3FA87F586FA47F6A5FA28
:1001A00087F68EB9EED1F0BC01F0FF0102F0070234
:1001B00032B110F8013B013A83EA010313B1F8D1DF
:1001C0000020704701387047002D06BF35460338C0
:1001D000073815F0010F07D1013015F4807F02BFF9
:1001E000013015F4C03F0130F0BC0138704700BF4A
:1001F00081F0004102E000BF83F0004330B54FEAD8
:1002000041044FEA430594EA050F08BF90EA020F44
:100210001FBF54EA000C55EA020C7FEA645C7FEAD7
:10022000655C00F0E2804FEA5454D4EB5555B8BFFA
:100230006D420CDD2C4480EA020281EA030382EA6B
:10024000000083EA010180EA020281EA0303362DFD
:1002500088BF30BD11F0004F4FEA01314FF4801CD0
:100260004CEA113102D0404261EB410113F0004FE2
:100270004FEA03334CEA133302D0524263EB430399
:1002800094EA050F00F0A780A4F10104D5F1200E37
:100290000DDB02FA0EFC22FA05F2801841F1000192
:1002A00003FA0EF2801843FA05F359410EE0A5F166
:1002B00020050EF1200E012A03FA0EFC28BF4CF097
:1002C000020C43FA05F3C01851EBE37101F000454D
:1002D00007D54FF0000EDCF1000C7EEB00006EEB5A
:1002E0000101B1F5801F1BD3B1F5001F0CD34908E4
:1002F0005FEA30004FEA3C0C04F101044FEA44523B
:1003000012F5800F80F09A80BCF1004F08BF5FEAC1
:10031000500C50F1000041EB045141EA050130BDA1
:100320005FEA4C0C404141EB0101013C28BFB1F5B3
:10033000801FE9D291F0000F04BF01460020B1FAFE
:1003400081F308BF2033A3F10B03B3F120020CDAD1
:100350000C3208DD02F1140CC2F10C0201FA0CF0AF
:1003600021FA02F10CE002F11402D8BFC2F1200C14
:1003700001FA02F120FA0CFCDCBF41EA0C019040CA
:10038000E41AA2BF01EB0451294330BD6FEA040413
:100390001F3C1CDA0C340EDC04F11404C4F12002FE
:1003A00020FA04F001FA02F340EA030021FA04F310
:1003B00045EA030130BDC4F10C04C4F1200220FA67
:1003C00002F001FA04F340EA0300294630BD21FAA5
:1003D00004F0294630BD94F0000F83F4801306BF6B
:1003E00081F480110134013D4EE77FEA645C18BF5F
:1003F0007FEA655C29D094EA050F08BF90EA020FF6
:1004000005D054EA000C04BF1946104630BD91EAED
:10041000030F1EBF0021002030BD5FEA545C05D1F0
:100420004000494128BF41F0004130BD14F580042F
:100430003CBF01F5801130BD01F0004545F0FE41A3
:1004400041F470014FF0000030BD7FEA645C1ABFD8
:10045000194610467FEA655C1CBF0B46024650EA0F
:10046000013406BF52EA033591EA030F41F400213B
:1004700030BD00BF90F0000F04BF0021704730B5C1
:100480004FF4806404F132044FF000054FF0000196
:1004900050E700BF90F0000F04BF0021704730B557
:1004A0004FF4806404F1320410F0004548BF40422C
:1004B0004FF000013EE700BF42004FEAE2014FEA81
:1004C00031014FEA02701FBF12F07F4393F07F4F5C
:1004D00081F06051704732F07F4208BF704793F05F
:1004E0007F4F04BF41F40021704730B54FF4607472
:1004F00001F0004521F000411CE700BF50EA010275
:1005000008BF704730B54FF000050AE050EA01021D
:1005100008BF704730B511F0004502D5404261EB8D
:1005200041014FF4806404F132045FEA915C3FF4CE
:10053000D8AE4FF003025FEADC0C18BF03325FEA6B
:10054000DC0C18BF033202EBDC02C2F1200300FA1C
:1005500003FC20FA02F001FA03FE40EA0E0021FA41
:1005600002F11444BDE600BF70B54FF0FF0C4CF42F
:10057000E06C1CEA11541DBF1CEA135594EA0C0FE1
:1005800095EA0C0F00F0DEF82C4481EA030621EA1C
:100590004C5123EA4C5350EA013518BF52EA033557
:1005A00041F4801143F4801338D0A0FB02CE4FF009
:1005B0000005E1FB02E506F00042E0FB03E54FF039
:1005C0000006E1FB03569CF0000F18BF4EF0010E31
:1005D000A4F1FF04B6F5007F64F5407404D25FEA2D
:1005E0004E0E6D4146EB060642EAC62141EA5551E0
:1005F0004FEAC52040EA5E504FEACE2EB4F1FD0C22
:1006000088BFBCF5E06F1ED8BEF1004F08BF5FEA9F
:10061000500E50F1000041EB045170BD06F0004651
:1006200046EA010140EA020081EA0301B4EB5C04FE
:10063000C2BFD4EB0C0541EA045170BD41F48011F6
:100640004FF0000E013C00F3AB8014F1360FDEBF1B
:10065000002001F0004170BDC4F10004203C35DAF7
:100660000C341BDC04F11404C4F1200500FA05F37A
:1006700020FA04F001FA05F240EA020001F000421B
:1006800021F0004110EBD37021FA04F642EB060191
:100690005EEA430E08BF20EAD37070BDC4F10C04BB
:1006A000C4F1200500FA04F320FA05F001FA04F27F
:1006B00040EA020001F0004110EBD37041F100016B
:1006C0005EEA430E08BF20EAD37070BDC4F1200576
:1006D00000FA05F24EEA020E20FA04F301FA05F2DE
:1006E00043EA020321FA04F001F0004121FA04F286
:1006F00020EA020000EBD3705EEA430E08BF20EA56
:10070000D37070BD94F0000F0FD101F0004640008F
:1007100041EB010111F4801F08BF013CF7D041EA11
:10072000060195F0000F18BF704703F00046520015
:1007300043EB030313F4801F08BF013DF7D043EAE6
:100740000603704794EA0C0F0CEA135518BF95EA9C
:100750000C0F0CD050EA410618BF52EA4306D1D123
:1007600081EA030101F000414FF0000070BD50EA42
:10077000410606BF1046194652EA430619D094EACC
:100780000C0F02D150EA013613D195EA0C0F05D1B6
:1007900052EA03361CBF104619460AD181EA03010A
:1007A00001F0004141F0FE4141F470014FF00000C2
:1007B00070BD41F0FE4141F4780170BD70B54FF05D
:1007C000FF0C4CF4E06C1CEA11541DBF1CEA1355DD
:1007D00094EA0C0F95EA0C0F00F0A7F8A4EB0504BF
:1007E00081EA030E52EA03354FEA013100F08880B6
:1007F0004FEA03334FF0805545EA131343EA12637F
:100800004FEA022245EA111545EA10654FEA002633
:100810000EF000419D4208BF964244F1FD0404F5EC
:10082000407402D25B084FEA3202B61A65EB030548
:100830005B084FEA32024FF480104FF4002CB6EB05
:10084000020E75EB030E22BFB61A754640EA0C0085
:100850005B084FEA3202B6EB020E75EB030E22BFC5
:10086000B61A754640EA5C005B084FEA3202B6EB06
:10087000020E75EB030E22BFB61A754640EA9C00C5
:100880005B084FEA3202B6EB020E75EB030E22BF95
:10089000B61A754640EADC0055EA060E18D04FEA53
:1008A000051545EA16754FEA06164FEAC30343EAF3
:1008B00052734FEAC2025FEA1C1CC0D111F4801FC0
:1008C0000BD141EA00014FF000004FF0004CB6E7B9
:1008D00011F4801F04BF01430020B4F1FD0C88BF58
:1008E000BCF5E06F3FF6AFAEB5EB030C04BFB6EB63
:1008F000020C5FEA500C50F1000041EB045170BD56
:100900000EF0004E4EEA113114EB5C04C2BFD4EB82
:100910000C0541EA045170BD41F480114FF0000E06
:10092000013C90E645EA060E8DE60CEA135594EA82
:100930000C0F08BF95EA0C0F3FF43BAF94EA0C0F85
:100940000AD150EA01347FF434AF95EA0C0F7FF4FA
:1009500025AF104619462CE795EA0C0F06D152EA4E
:1009600003353FF4FDAE1046194622E750EA410632
:1009700018BF52EA43067FF4C5AE50EA41047FF443
:100980000DAF52EA43057FF4EBAE12E74FF0FF3CA8
:1009900006E000BF4FF0010C02E000BF4FF0010C79
:1009A0004DF804CD4FEA410C7FEA6C5C4FEA430CF2
:1009B00018BF7FEA6C5C1BD001B050EA410C0CBF41
:1009C00052EA430C91EA030F02BF90EA020F0020A3
:1009D000704710F1000F91EA030F58BF994208BF0A
:1009E00090422CBFD8176FEAE37040F001007047C7
:1009F0004FEA410C7FEA6C5C02D150EA013C07D11E
:100A00004FEA430C7FEA6C5CD6D152EA033CD3D068
:100A10005DF8040B704700BF8446104662468C4662
:100A20001946634600E000BF01B5FFF7B7FF002895
:100A300048BF10F1000F01BD4DF808EDFFF7F4FFBE
:100A40000CBF012000205DF808FB00BF4DF808ED49
:100A5000FFF7EAFF34BF012000205DF808FB00BF6C
:100A60004DF808EDFFF7E0FF94BF012000205DF88E
:100A700008FB00BF4DF808EDFFF7CEFF94BF012043
:100A800000205DF808FB00BF4DF808EDFFF7C4FF3C
:100A900034BF012000205DF808FB00BF4FEA41028F
:100AA00012F5001215D211D56FF47873B3EB6252C0
:100AB00012D94FEAC12343F0004343EA505311F0E7
:100AC000004F23FA02F018BF404270474FF0000079
:100AD000704750EA013005D111F0004008BF6FF0B7
:100AE000004070474FF00000704700BF4FEA4102DE
:100AF000B2F1E04324BFB3F5001CDCF1FE5C0DD97C
:100B000001F0004C4FEAC0024CEA5070B2F1004FC5
:100B100040EB830008BF20F00100704711F0804FC8
:100B200021D113F13872BCBF01F00040704741F48D
:100B300080114FEA5252C2F11802C2F1200C10FA91
:100B40000CF320FA02F018BF40F001004FEAC12375
:100B50004FEAD32303FA0CFC40EA0C0023FA02F319
:100B60004FEA4303CCE77FEA625307D150EA0133EF
:100B70001EBF4FF0FE4040F44000704701F00040BF
:100B800040F0FE4040F40000704700BF53B94AB93E
:100B9000002908BF00281CBF4FF0FF314FF0FF3085
:100BA00000F00CB8ADF1080C6DE904CE0CF094FC2B
:100BB000DDF804E0DDE9022304B07047704700BFB0
:100BC00008B5064B1A783AB9054A1AB10548AFF389
:100BD0000080024B01221A7008BD00BF10020020E5
:100BE00000000000F8D7000808B5034B1BB103490B
:100BF0000348AFF3008008BD00000000140200208D
:100C0000F8D7000800B587B0002300930193029342
:100C10000393049305931848184A02604360836065
:100C2000C360036104224261037643760122C261FC
:100C300080F820308362C36280F83030436380F8EC
:100C4000383003F0BBFF88B90D4B009306230193A6
:100C5000042302937F2203920493002305936946A1
:100C6000054804F0F7F820B907B000BD02F076F8A7
:100C7000EAE702F073F8F7E72C02002000000450C6
:100C80000800900C00B589B00023039304930593EA
:100C9000069307930268114B9A4201D009B000BD38
:100CA0004FF0B043DA6C42F40052DA64DA6C02F4CA
:100CB00000520292029ADA6C42F00402DA64DB6CAF
:100CC00003F004030193019B042303930323049380
:100CD00003A9034804F0D0FCE0E700BF0000045083
:100CE0000008004808B5064B93F88030052B00D16A
:100CF00008BD00F017FC024B002283F88020F7E7C4
:100D00009402002000B583B0044B0093044B019380
:100D10006946044801F08CF903B000BD28000320A7
:100D2000410D0008290D000810B504464068083040
:100D300009F08CFD10B10123237010BD2070FCE779
:100D400008B528B1012806D1032003F0A7FD02E071
:100D5000032003F095FD08BD08B50F4BD3F880259F
:100D6000B2F1FF3F10D0D3F884350C480270C2F3C3
:100D7000072242708370C3F30722C270C3F3074295
:100D800002711B0E437108BD002002F02BF90028F0
:100D9000F9D10348F7E700BF0070FF1F18030020D8
:100DA0008CD9000870B588B00024ADF8184000F068
:100DB00040FFFFF7D1FF02460621204600F0B5FEB6
:100DC0002B4A1021182000F0B0FE2A4A10210820DA
:100DD00000F0ABFE1821012000F0DBFE00F06AFD00
:100DE0000DF11A03019307AB00930DF11E030822C6
:100DF0002146012000F0A2FC1F4B0093082322464D
:100E0000BDF81C10BDF81E0000F02EFE06AB0093CE
:100E100002232246BDF81A10BDF81E0000F024FE81
:100E200002221146204600F025FF144D01262E70A7
:100E3000304600F0F4FB6E7008232B7110226A71AB
:100E40004FF00001E9700E49A960AC700494039161
:100E5000029401920093234632463146204600F028
:100E600004FCAB780BB908B070BD00F0D8FCFAE711
:100E70007CD900086CD9000894D80008940200209E
:100E800007B2010000B589B00A4B83F8800000204A
:100E90000690059004900390029001900090034604
:100EA000A022802100F060FB0349072000F086FCAF
:100EB00009B000BD940200200800002030B591B0B8
:100EC0000DF1040C1E4C0FCCACE80F000FCCACE8BD
:100ED0000F000FCCACE80F0094E80700ACE803006B
:100EE000ACF80020FFF70EFF0121022003F09EFC6A
:100EF000144A0021022003F0C3FD01A803F03EFBC9
:100F0000D8B9FFF74FFF09F089FC0F4C002584F892
:100F100080504FF6FF73E3820C4A2946012003F00C
:100F2000AFFD062000F05EFE00F0D1FE657625766E
:100F30000120FFF7A7FF11B030BD01F00FFFE0E780
:100F400010D800085520000894020020E50C000885
:100F500008B543783E2B1BD0FF2B35D0052B0FD186
:100F60008288294BDB8A9A420CD00120FFF78AFF46
:100F7000264801230370244BDB8A438000F0A6FE41
:100F8000012008BD204B0022DA8283F88020ECE7A4
:100F9000C378012BF4D11C4B93F88030042B0ED076
:100FA000194B052283F88020B0F80530164AD38209
:100FB000164800220270438000F088FEE0E7124BE2
:100FC000062283F88020EFE7B0F8033040F20942B0
:100FD00093420DD040F60E4293420FD040F20242AF
:100FE0009342CDD10A49084BD88A00F07EFBC7E76F
:100FF0000121054BD88A00F034FCC1E7024BD88AA6
:1010000000F06BFDBCE700BF9402002090020020BE
:1010100007B2010008B50021022003F01DFC08BD45
:1010200008B5012003F046FC08BD08B5012003F017
:10103000FBFC08BD00B589B00DF1040CDFF828E019
:10104000BEE80F00ACE80F009EE80700ACE8030024
:101050002CF8022B120C8CF8002009F013FF01A8C9
:1010600003F09AFA09B000BD4CD80008054BCA221B
:101070005A6253225A629A6822F007029A60FF224B
:101080005A627047002800407047000008B50020F1
:1010900001F0A8FF68B181794FF0B042054BC2F86A
:1010A0009C30D2F89C3023F47C5343EA0123C2F8ED
:1010B0009C3008BDFECAFECA08B54FF0B042936826
:1010C00043F40043936003F0A7FB054AD2F8803055
:1010D00023F0070343F00403C2F8803008BD00BFCB
:1010E0000004005800B589B009F0CAFD0E4A00217D
:1010F000042003F0C5FC0D4B00930D4B0193694692
:101100000C4803F0F7FA0C4B02930C4B03930C4B77
:10111000049340F23C53059302A809F081FE09F0C4
:10112000ABFD09B000BD00BF194700081004032043
:1011300089100008A5110008F8010320040303200A
:101140001C05032000B585B0002300930193029392
:10115000039343685B7B1BB1012B1DD005B000BD21
:10116000FFF768FF0F238DF800307F238DF80230E2
:101170000B4A13681B0CADF80C301368C3F30B0358
:10118000ADF80E30684603F015FAFFF797FE002120
:10119000012003F04BFBE1E700230370DEE700BF13
:1011A000002004E04368B3F80B30B3F5124F00D0D1
:1011B000704710B584B00446684603F009FA20462B
:1011C000FFF7C0FF04B010BD08B5034B4FF4004259
:1011D0001A61FFF75BFF08BD00400058034AD2F8D0
:1011E000903043F05003C2F8903070470008005828
:1011F00008B5FFF7F3FFFFF739FF08BD08B5FFF7A4
:10120000F7FFFFF759FF0349002001F029FBFFF723
:1012100069FF08BD4C05002038B5044603F08CFC7E
:101220000546B4F1FF3F09D003F092FC044405E009
:10123000054A136923F00403136130BF03F07CFCFB
:10124000401BA042F4D338BD00ED00E008B54FF0DC
:10125000FF3003F047FB08BD704708B500210420AC
:1012600003F0FAFA08BD08B5022003F023FB08BD1D
:1012700008B5022003F0D8FB08BD0180428043601E
:10128000704700002DE9F04F83B0D0F804A0D1F8EA
:1012900004B0B0F800E0B0F802C074465B4612E05B
:1012A000002143F8041B013A002AF9D14FF07E5285
:1012B00043F8042B013C224603E0002143F8041BC1
:1012C000013A002AF9D114B1AEEB0402ECE7E14691
:1012D000DFED686AD846019093E0F1EE677AF4EEAC
:1012E000C77AF1EE10FA13DC02EB8C02013373457E
:1012F00011D2D2ED007AF5EEC07AF1EE10FAECDD03
:10130000F4EEC77AF1EE10FAEEDDB0EE677AEBE7B5
:10131000B0EE677AE8E7B5EE407AF1EE10FA00F049
:101320009B80F5EEC06AF1EE10FA13DDF0EE667AFE
:10133000B4EE677AF1EE10FA0FD1F5EE406AF1EEF5
:1013400010FA00F08E80009BD3ED006AACEB04062F
:10135000324611E0F1EE667AEAE7AEEB0403013BB8
:1013600000E0013B002BFCD1E7E793ED007AC7EEEC
:10137000267AE3EC017A013A002AF6D160465B4610
:1013800006E093ED007AC7EE267AE3EC017A0138A5
:101390000028F6D175464246534625E003EB860306
:1013A00002EB8C021CE0D3ED007AB1EC017A27EE5F
:1013B000267A77EEC77AE3EC017A013F002FF2D16B
:1013C000674659460AE0D2ED007AB1EC017A27EE81
:1013D000267A77EEC77AE2EC017A013F002FF2D14C
:1013E00003EB8403013D013035B1A042D6D0D3EDEB
:1013F000006A37460099E1E70AF1040A09F1FF396A
:101400000134B9F1000F0CD00CFB04F30AEB83029A
:10141000009208EB830BD2ED006A23469FED157A0C
:1014200065E70198F5EE406AF1EE10FA1CD14168CB
:101430000CFB0EF34B450BD901EB8902D2ED007A80
:10144000F5EE407AF1EE10FA02D109F10109EFE769
:101450004B450BD0002001E06FF0040003B0BDE865
:10146000F08F6FF00400F9E70020F7E76FF0040059
:10147000F4E700BF000000002DE9F047034688466E
:10148000D0F804C04D68D2F804904888B3F802E060
:101490001F8800261FE0F3EC017AD2ED006A67EEA8
:1014A000A67A37EE277A02EB800201390029F2D1C1
:1014B0005346A3EC017A013C021B05EB82022CB1DE
:1014C0009A46714663469FED087AEFE706440CEBB7
:1014D0008E0C013F05D009EB860AD8F8042004469B
:1014E000EFE72046BDE8F0870000000070B54368D4
:1014F0004E68B0F800C0458864464FF0000E0BE01F
:1015000053F8040B086001EB8C01013A002AF7D173
:101510000EF1010E013C03D006EB8E012A46F5E7E1
:10152000104670BD30B589B000248DF8074002AD7B
:1015300018222146284601F051FD3F23ADF808301E
:101540008123ADF80A300DF10703069301230793B9
:101550002146284600F0BCFDA04203DB9DF80700B1
:1015600009B030BDFF20FBE72DE9F04FCBB09C4622
:101570009DF854619DF85C5106F1080A04AC04EB37
:101580000A0B77190937E31901930DF10F094FF091
:1015900000088DF80F808DF81000ADF81110ADF82F
:1015A00013208DF815C09DF850318DF816308DF848
:1015B00017603246569906A801F00CFD04F80A504F
:1015C00009362A4658990BF1010001F003FD354414
:1015D000BDF86431E353BDF86831019A5380043596
:1015E00044AE18224146304601F0F8FC3F23ADF8E6
:1015F00010318323ADF8123146944795CDF82091F0
:10160000012349934146304600F062FD404504DB2A
:1016100099F800004BB0BDE8F08FFF20FAE7F0B575
:10162000C9B00DF1070600248DF8074002AF8DF810
:10163000080042AD18222146284601F0CFFC3F2386
:10164000ADF808318523ADF80A314497012345935D
:10165000469647932146284600F03AFDA04202DB19
:10166000307849B0F0BDFF20FBE7F0B5C9B00DF10F
:10167000070700258DF8075002AC8DF808008DF89B
:1016800009108DF80A208DF80B309DF838318DF84F
:101690000C309DF83C318DF80D309DF840318DF8BF
:1016A0000E30519BCDF80F309DF848318DF8133036
:1016B00042AE18222946304601F090FC3F23ADF897
:1016C00008318623ADF80A3144940C23459346979C
:1016D000012347932946304600F0FAFCA84202DB7A
:1016E000387849B0F0BDFF20FBE7F0B5C9B00DF187
:1016F000070700248DF8074002ADADF80800CDF8CB
:101700000A1042AE18222146304601F067FC3F2302
:10171000ADF808318823ADF80A3144950623459386
:101720004697012347932146304600F0D1FCA04262
:1017300002DB387849B0F0BDFF20FBE72DE9F0432C
:10174000C9B080460F4615469946072200216846D3
:1017500001F044FC02AC8DF808808DF809708DF81A
:101760000A5042AD18220021284601F037FC3F23E1
:10177000ADF808318A23ADF80A3144940323459328
:10178000CDF818D1072347930021284600F0A0FC8C
:10179000002811DB9DF8000058B9BDF80120A9F818
:1017A0000020BDF80310509A1180BDF80520519B10
:1017B0001A8049B0BDE8F083FF20FAE72DE9F04137
:1017C000C8B004460DF1070700258DF807500DF14C
:1017D00008088DF8080002460DF1090001F0FAFB37
:1017E000013442AE18222946304601F0F7FB3F2370
:1017F000ADF808318E23ADF80A31CDF8108145944B
:101800004697012347932946304600F061FCA842E1
:1018100003DB387848B0BDE8F081FF20FAE730B547
:1018200089B000248DF8074002AD182221462846D1
:1018300001F0D4FB3F23ADF808309223ADF80A3015
:101840000DF107030693012307932146284600F074
:101850003FFCA04203DB9DF8070009B030BDFF202C
:10186000FBE7F0B5C9B00DF1070700248DF807407C
:1018700002ADADF808008DF80A1042AE18222146DC
:10188000304601F0ABFB3F23ADF80831A523ADF89E
:101890000A314495032345934697012347932146F4
:1018A000304600F015FCA04202DB387849B0F0BDAC
:1018B000FF20FBE730B589B000248DF8074002AD6A
:1018C00018222146284601F089FB3F23ADF8083055
:1018D00040F20113ADF80A300DF10703069301231E
:1018E00007932146284600F0F3FBA04203DB9DF856
:1018F000070009B030BDFF20FBE72DE9F043C9B078
:1019000004460F4690469946012813D002280FD06E
:10191000012502AE35440322002101A801F05EFB3F
:101920008DF80840012C07D0022C36D1102404E099
:101930001125EEE70325ECE70224224639460DF196
:10194000090001F047FB85F8008085F80190033419
:1019500042AD18220021284601F040FB3F23ADF89C
:1019600008314FF48173ADF80A3102AB44934594CA
:1019700001AB4693032347930021284600F0A8FBC0
:1019800000280CDB01AB9DF8040018B9B3F8012066
:10199000509B1A8049B0BDE8F0839720FAE7FF20FA
:1019A000F8E72DE9F043C9B007460C469046994642
:1019B000012915D0022911D0032502AE3544032296
:1019C000002101A801F00AFBADF808708DF80A406B
:1019D000012C07D0022C43D1102404E01325ECE79E
:1019E0000525EAE70224224641460DF10B0001F0ED
:1019F000F1FA4B462B809DF84031AB709DF8443195
:101A0000EB709DF848312B719DF84C316B719DF84E
:101A10005031AB710A3442AD18220021284601F042
:101A2000DDFA3F23ADF808314FF48273ADF80A3187
:101A300002AB4493459401AB4693032347930021A3
:101A4000284600F045FB00280CDB01AB9DF80400A4
:101A500018B9B3F80120559B1A8049B0BDE8F0834E
:101A60009720FAE7FF20F8E72DE9F041C8B01C46BF
:101A70000DF1070800268DF8076002ADADF80800EB
:101A8000ADF80A108DF80C208DF80D301A464E99DD
:101A90000DF10E0001F09EFA063442AF18223146D5
:101AA000384601F09BFA3F23ADF808314FF48373B9
:101AB000ADF80A3144954594CDF818810123479338
:101AC0003146384600F004FBB04204DB98F80000D1
:101AD00048B0BDE8F081FF20FAE7F0B5C9B00DF1DC
:101AE000070600248DF8074002AFADF8080042ADAC
:101AF00018222146284601F071FA3F23ADF808313B
:101B000040F22513ADF80A314497022345934696D7
:101B1000012347932146284600F0DAFAA04202DB6F
:101B2000307849B0F0BDFF20FBE72DE9F041C8B0A7
:101B30000C4611460DF1070800258DF8075002AE3E
:101B40008DF808008DF8094022460DF10A0001F0D9
:101B500041FA023442AF18222946384601F03EFAD3
:101B60003F23ADF808310C23ADF80A314496459473
:101B7000CDF81881012347932946384600F0A8FA8A
:101B8000A84204DB98F8000048B0BDE8F081FF20CF
:101B9000FAE7F0B5C9B00DF1070700248DF807404A
:101BA00002AD8DF808008DF8091042AE18222146CA
:101BB000304601F013FA3F23ADF808310F23ADF89A
:101BC0000A314495022345934697012347932146C2
:101BD000304600F07DFAA04202DB387849B0F0BD13
:101BE000FF20FBE7F0B5C9B00DF1070600248DF822
:101BF000074002AFADF8080042AD18222146284642
:101C000001F0ECF93F23ADF808311823ADF80A31A3
:101C1000449702234593469601234793214628463D
:101C200000F056FAA04202DB307849B0F0BDFF2048
:101C3000FBE730B589B000248DF8074002AD1822CB
:101C40002146284601F0CAF90323ADF80830ADF863
:101C50000A300DF107030693012307932146284616
:101C600000F036FAA04203DB9DF8070009B030BD52
:101C7000FF20FBE7F0B5C9B00DF1070700258DF88F
:101C8000075002AC8DF808008DF809108DF80A2075
:101C900042AE18222946304601F0A0F90823ADF8DB
:101CA00008313123ADF80A31449403234593469714
:101CB000012347932946304600F00AFAA84202DB86
:101CC000387849B0F0BDFF20FBE770477047704798
:101CD0004378FF2B01D000207047B0F8033040F666
:101CE0001342934210D040F61B42934215D040F667
:101CF0000142934220D1B0F80720124B5B88013398
:101D00009A421BD000207047B0F807200D4B5B882B
:101D100001339A4214D00020704700B587B00123E8
:101D20008DF80430B0F80530ADF8143001A8FFF795
:101D3000CCFF002007B000BD002070470120704795
:101D4000012070472003002030B58BB03B4808F0DD
:101D500073FD8F238DF81830E5238DF81930B323E8
:101D60008DF81A30D5238DF81B302E238DF81C30BA
:101D70007F238DF81D304A238DF81E3098238DF86F
:101D80001F302A238DF8203048238DF821307A2304
:101D90008DF82230CC238DF8233000248DF8244098
:101DA0008DF825408DF826408DF8274006AD244B50
:101DB00000930323012229460220FFF79EFD1923E9
:101DC0008DF81830ED238DF8193082228DF81A2005
:101DD000AE228DF81B208DF81C3021238DF81D308C
:101DE0004C238DF81E309D238DF81F3041238DF834
:101DF000203045238DF8213022238DF822308E2388
:101E00008DF823308DF824408DF825408DF826403C
:101E10008DF827400A4B33F8020B059304941023E6
:101E2000039307230293019408230093054B1B8817
:101E30002A460221FFF7B5FD0BB030BDD11C0008CA
:101E400020030020100000202DE9F0438BB005ADE9
:101E50000024059406940794089409944FF0B04325
:101E6000DA6C42F00402DA64DA6C02F004020492E2
:101E7000049ADA6C42F08002DA64DA6C02F08002D2
:101E80000392039ADA6C42F00202DA64DA6C02F02E
:101E900002020292029ADA6C42F00102DA64DA6C0F
:101EA00002F001020192019ADA6C42F00802DA644F
:101EB000DB6C03F008030093009B22464CF2010107
:101EC0004FF0904003F0B2FC2E4F22464FF4A05149
:101ED000384603F0ABFCDFF8B490224603214846B5
:101EE00003F0A4FCDFF8A88022463821404603F026
:101EF0009DFC4FF4005305930694079429463846F9
:101F000003F0BAFB082305930694079429461E485C
:101F100003F0B2FB4CF201030593012606960794E9
:101F2000089429464FF0904003F0A6FB0623059342
:101F30000223069307940894099629464FF090408F
:101F400003F09AFB4FF4A053059306960794089468
:101F50002946384603F090FB032305930696079421
:101F600008942946484603F087FB382305930696D4
:101F7000079408942946404603F07EFB0BB0BDE869
:101F8000F08300BF00080048001C0048000C004817
:101F90000004004808B520B9054B1B6803B19847F9
:101FA00008BD034B1B68002BFAD001209847F7E7C8
:101FB0002803002010B584B004460A4808F0B8FB96
:101FC000094B1C60094808F0B3FB094B01221A7049
:101FD000084B1B6823B10294074A00926846984751
:101FE00004B010BD2C030020C8010020CC0100204B
:101FF000C4010020340300207D21000808B50B46F1
:102000001146094AD2F800C0ACF809008CF80B3030
:102010001A460CF10C000AF0FFFB044B1B6900216F
:102020000846984708BD00BFC801002034030020BF
:1020300010B50C464A68054B1A60054BD861184626
:1020400000F0B6F82068FFF7B5FF10BD28030020A8
:102050003403002000B585B01A4808F06CFB10B9B5
:10206000194B1B7843B9174808F065FB10B9164B9C
:102070001B781BBB05B000BD03A9124808F08BFB01
:10208000124BDB698BB1039A029201228DF8042076
:1020900001A898479DF804200B4B1A700A4B1B7837
:1020A0003BB1039808F0E0FEDDE7074B01221A7010
:1020B000F4E70399034808F04AFBD4E70148FEF728
:1020C000A9FFD7E7CC010020C40100203403002081
:1020D000F0B583B007460020FFF75CFF7D883B88A2
:1020E000C5F3090545EA8325ADB2224B01221A70DA
:1020F000BA68397B2846FFF781FF0026002E33D1CE
:1021000048F2E800FEF791FF05E0B4F80D30AB426D
:1021100016D0237B33BB184808F00DFB0028EDD107
:1021200001A9154808F037FB019C637A0F2BECD00E
:10213000A389AB4208D0E37A002BECD00126EAE772
:102140003B69E27A1A70E4E7A27A033AD2B27B6979
:102150009A42A8BF1A467A6104F10E0138690AF062
:102160005BFBE8E70126D6E70120FFF713FF00201D
:1021700003B0F0BD240300202C03002008B5014665
:10218000437A0E3BDBB2012B06D9074808F0EBFA85
:102190000548FEF73FFF08BD044808F0E4FA0020B8
:1021A000FEF73EFFF7E700BFCC0100202C03002024
:1021B000024B0360024B0361704700BFE1AC0008B3
:1021C00029AD000810B5EFF3108272B6064C6368B3
:1021D00043F40023636082F31088044B1B68984724
:1021E0004FF40023A36010BD000C005854030020DE
:1021F00082B04FF0B043D3F8502142F48012C3F8BC
:102200005021D3F8503103F480130193019B0A4B02
:102210001A6A42F400721A62D3F8D42042F40072AF
:10222000C3F8D42040BF20BF044AD36843F400431E
:10223000D36002B0704700BF000800580004005887
:1022400000B583B04FF0B0431A6D42F480121A65A6
:102250001B6D03F480130193019B084B1A6842F035
:1022600001021A601A6842F480321A602C2003F0CE
:10227000CBF92D2003F0C8F903B000BD000C0058C5
:10228000EFF3108172B6044A536823F001035360E0
:1022900081F31088704700BF000C0058024B4FF4C8
:1022A00080329A60704700BF000C005808B5EFF309
:1022B000108172B6044A536843F40013536081F3EB
:1022C000108808F055FD08BD000C005808B508F04E
:1022D00039FD024B01229A6008BD00BF000C005876
:1022E000EFF3108172B6044A536823F0020353607F
:1022F00081F31088704700BF000C0058064B4FF464
:1023000000329A60EFF3108172B65A6822F40032FC
:102310005A6081F310887047000C005808B5EFF33D
:10232000108172B6044A536843F40033536081F35A
:10233000108808F051FD08BD000C005808B5144B7A
:10234000DB6813F0020F04D1114B5B6813F4003FFC
:1023500014D00F4BDB6813F0080F04D10C4B5B68F3
:1023600013F4002F0DD00A4BDB6813F0200F04D1BB
:10237000074B5B6813F4001F06D008BDFFF7CEFFC4
:10238000FBE7FFF71FFFF8E7FFF790FFF5E700BF58
:10239000000C005808B508F02DFD024B02229A608F
:1023A00008BD00BF000C005808B50C4BDB6813F0EB
:1023B000080F05D18047094B4FF400229A6008BDF1
:1023C000074B1860EFF3108172B6044A536823F488
:1023D0000023536081F31088F1E700BF000C005820
:1023E00054030020EFF3108172B6044A536823F0BF
:1023F0000803536081F31088704700BF000C005839
:1024000008B508F051FD024B08229A6008BD00BFD4
:10241000000C005808B5144BDB6913F0020F0AD109
:10242000114BDB6913F0010F0DD10F4BDB6913F07A
:10243000080F10D108BD0C4B5B6813F0020FEFD1F1
:10244000FFF7A8FFF6E7084B5B6813F0010FECD12C
:10245000FFF73CFFEEE7044B5B6813F0080FE9D190
:10246000FFF7CEFFE6E700BF000C0058064A936A6C
:102470009BB2906A80B203E0034B9A6A034690B223
:102480008342F9D1704700BF0028004001EB4102B0
:102490000F4B03EBC2035B7D5FFA83FC062B05D079
:1024A0000CEB4C020A4B03EBC2031875084B00EB14
:1024B000400203EBC20282F815C000EB400203EBBE
:1024C000C202117501EB410103EBC103587570475E
:1024D00068030020164B1B788B421DD0154B01EB77
:1024E000410203EBC202127D5FFA82FC02EB420260
:1024F00003EBC202507500EB400203EBC2025175C0
:1025000000EB400203EBC20282F814C001EB410170
:1025100003EBC10318757047064B00EB400203EB59
:10252000C202517501EB410103EBC10318757047FD
:10253000650300206803002010B50C46214B1B7872
:1025400083422AD0204A00EB400302EBC30393F8F6
:1025500014C0597D5FFA81FE5B7DDBB20CEB4C0C45
:1025600002EBCC02537506290BD0174B00EB40024F
:1025700003EBC202127DD2B20EEB4E0E03EBCE0382
:102580001A7500EB4000104B03EBC00301221A73D5
:102590000C4B1B78062B0ED010BD0A490B78DBB212
:1025A0000A4A137000EB4002074B03EBC2035B7D4A
:1025B000DBB20B70E5E7002CEED1054B4FF0FF329C
:1025C0001A60E9E765030020680300206403002027
:1025D0006003002008B5104B1B68B3F1FF3F02D128
:1025E000002080B208BDFFF741FF0B4B1B68834200
:1025F0000AD3094B1B681B1A084A107803FB00F02A
:10260000074B1B78D840ECE7064B1A88121A024B8E
:102610001B681344F0E700BF600300205C03002048
:102620005D0300205A03002070B50446314B1B782F
:10263000062B14D12F4A1378DBB22F490B70107080
:1026400000EB40042D4B03EBC404062363752C4BB5
:102650004FF0FF321A6000231E46304670BDFFF770
:10266000B9FF0646254B04EB440203EBC202916816
:102670000144916004EB440203EBC20290681D4ADE
:10268000127802EB420203EBC2039B68834225D817
:10269000184B1B78D9B203EB4303184A02EBC30370
:1026A0005B7DDBB20CE0154A01EB410102EBC1019D
:1026B0004B7DD9B203EB430302EBC302537DDBB284
:1026C000062B07D003EB43030C4A02EBC3039B68C2
:1026D0008342E8D92046FFF7D9FEBEE7054D2978A9
:1026E0002046FFF7F7FE2B78DBB2034A13702C70FD
:1026F000B3E700BF650300206403002068030020E7
:102700006003002010B548B3044601282ED9013CCF
:10271000A4B2194B1B68DA6812F0040FF9D0DA681A
:10272000D2B262F49062DA60144B4FF40022DA60A5
:10273000032002F093FF124A53696FF30F031C4307
:102740005461FFF793FE0F4B18600B4B1A689368A8
:1027500043F480639360AFF3008010BDFFF786FE03
:10276000084B1860032002F06BFFF6E7064B1B785E
:10277000012BCCD1CDE700BF4C050020000800584C
:1027800000280040600300205D03002038B52E4B78
:102790009B6813F4806F05D02C4B1B68DB6813F02B
:1027A000040FF9D1294B1A68936823F4806393606E
:1027B000274B1B78DCB203EB4303264A02EBC3032F
:1027C0009D68FFF707FF8446A84204D9224B0122E7
:1027D0001A70002024E0214B1B8810FA83F3AB42CF
:1027E00006D21E4B188880B21B4B00221A7017E0CD
:1027F000A8B2A0EB0C0080B2174B01221A700FE0B8
:1028000004EB4404134A02EBC404A268A2EB0C02DA
:10281000A26003EB43030F4A02EBC3035C7DE4B207
:10282000062C0ED0234604EB44010A4A02EBC102F7
:1028300092689445E4D9074A02EBC1040022A260E1
:10284000E7E7FFF75FFF38BD002800404C05002098
:1028500065030020680300205E0300205803002069
:1028600010B5494B1B68CA225A6253225A62474B21
:102870009A6842F020029A609A6802F00702C2F158
:102880000402D2B242490A701B6903F4FE034FF4FA
:10289000FE0191FAA1F1002933D0B1FA81F1CB40C8
:1028A000DBB20133DBB23B490B7038490969C1F334
:1028B0000E010131DFF8F8C0ACF80010013901FB5E
:1028C00003F3A3F5A073D3404FF6FE7293421AD9D7
:1028D000314B4FF6FF721A80304B1A6842F40022D7
:1028E0001A60D3F8802042F40022C3F88020002828
:1028F0003FD12B4B01221A702A4B4FF0FF321A6046
:102900000EE02021CBE79BB2234A1380E4E700EBE3
:102910004002254B03EBC20300221A730130C0B200
:102920000528F4D9214B06221A70174C22689368A7
:1029300023F480639360D368DBB263F49063D36065
:10294000164B4FF40022DA60032002F087FE226863
:10295000936843F4804393600B4B1B68FF225A62D9
:1029600000220321084602F03FFE032002F04CFE45
:1029700010BD054B1B68DB6813F4806FECD003209F
:1029800002F05EFEE8E700BF4C0500200028004092
:102990005D0300205C03002058030020000800585D
:1029A0005E03002060030020680300206503002010
:1029B0005A03002038B50446EFF310831D4672B663
:1029C000032002F025FE254B1B68CA225A625322BF
:1029D0005A6204EB4402224B03EBC2031B7B022B23
:1029E00009D01E4B1B68FF225A62032002F00CFE26
:1029F00085F3108838BD00212046FFF79DFD194B57
:102A00001B78DAB2062B06D0174B1B789342E8D01E
:102A1000FFF7BCFEE5E7154B9B6813F4806F05D00C
:102A20000E4B1B68DB6813F0040FF9D10B4B1A68CF
:102A3000936823F480639360D36813F0040FFBD092
:102A4000D368DBB263F49063D360094B4FF4002288
:102A5000DA60032002F002FEC3E700BF4C0500204D
:102A60006803002065030020640300200028004064
:102A70000008005870B504460D4600EB4002204B9C
:102A800003EBC2031B7B022B34D0EFF310831E46F3
:102A900072B6032002F0BCFD1A4B1B68CA225A62B0
:102AA00053225A6204EB4402154B03EBC203022289
:102AB0001A739D605D602046FFF7B6FD124B1B78D0
:102AC000124A12789A4218D10D4B04EB440203EBE0
:102AD000C2029268121A04EB440403EBC4039A6026
:102AE000084B1B68FF225A62032002F08DFD86F31B
:102AF000108870BDFFF75EFFC7E7FFF747FEEFE7FF
:102B0000680300204C0500206503002064030020BA
:102B100008B5904708BD0000F8B5EFF310831D46D7
:102B200072B6354B1B68CA225A6253225A629A689F
:102B300022F480629A60314A1278D4B202EB4202E7
:102B40002F4901EBC202127B022A13D0DA6812F07D
:102B5000040FFBD0DA68D2B262F49062DA60294BDB
:102B60004FF40022DA6085F31088234B1B68FF22A4
:102B70005A62F8BD0A4604EB4403D90002EBC303D2
:102B8000525816461B691F461F4B1B7873B304EB44
:102B900044021B4B03EBC2035B7B012B10D085F37C
:102BA00010882046FFF706FF134B1B68CA225A62A3
:102BB00053225A62324621463846FFF7A9FFD4E72E
:102BC00001212046FFF7B8FC85F3108804EB44028E
:102BD0000B4B03EBC20359682046FFF74BFF064B34
:102BE0001B68CA225A6253225A62E3E7FFF7CEFDFE
:102BF00085F31088B9E700BF4C050020650300206D
:102C000068030020000800585E03002008B5124841
:102C1000124B0360124B4360002383600122C260A9
:102C2000036143618361C361036202F013FE50B923
:102C30000021094802F072FE40B90021064802F066
:102C40009AFE30B908BD00F089F8F1E700F086F887
:102C5000F3E700F083F8F5E7F803002000540040A4
:102C6000B57DB11010B59CB00446002117911891A4
:102C700019911A911B91502203A809F089FD22682D
:102C8000194B9A4201D01CB010BD042303934FF49A
:102C900040330B9303A804F0BCFD10BB4FF0B044CD
:102CA000E36C43F00203E364E36C03F0020302937A
:102CB000029B4FF440731793122318930023199328
:102CC0001A9304231B9317A9084802F0D5FCA36D9F
:102CD00043F40013A365A36D03F400130193019B58
:102CE000D1E700F03BF8D9E7005400400004004869
:102CF00008B50548054B036002F086FE00B908BD23
:102D000000F02CF8FBE700BF4C040020000C00583A
:102D10000268114B9A4200D0704700B583B04FF063
:102D2000B0431A6D42F480121A651B6D03F48013D0
:102D30000193019B002211462C2002F055FC2C200F
:102D400002F062FC002211462D2002F04DFC2D20E5
:102D500002F05AFC03B000BD000C005872B6FEE74A
:102D600030B59BB008AD48220021284609F010FD7F
:102D70000024019402940394049405940694079407
:102D800003F06EFE4FF0B042D2F8903023F01803FB
:102D900043F01003C2F8903002F58062136823F408
:102DA000C06343F400731360136803F4C0630093BB
:102DB000009B2F2308934FF48033099301230A9338
:102DC0004FF480720B920F9340220C921094602269
:102DD000119205220D92022213921493159420232E
:102DE00016934FF4003317934FF0005319934FF09D
:102DF00000731893284603F043FF88B96F230193AB
:102E0000032102910390049005908022069207907E
:102E100001A804F0C3FA28B904F07DFE1BB030BD50
:102E2000FFF79CFFFFF79AFF10B594B050220021E6
:102E3000684609F0ADFC4FF45453009318230193F6
:102E40004FF4003302934FF0007303934FF000539D
:102E500004934FF0885305934FF080630D934FF028
:102E600080530F934FF440431193102313936846FC
:102E700004F0CFFC20B9034BD3F8943014B010BD4C
:102E8000FFF76CFF0014005870B596B001F030FEEB
:102E9000FEF79AF9FFF764FFFFF7C6FFFFF728FF79
:102EA000FEF7D2FFFDF7AEFE414C7F21204602F037
:102EB000E3FAFFF7ABFE07F0E1FD07F067FE08F06D
:102EC00007F801F0FDFA08F08FF801F0F7FA08F0C2
:102ED0008BF84FF47A70FEF79FF90D21354808F012
:102EE0004FFB0F21344808F04BFB00F0E9F80020BD
:102EF00000F02CFA4FF47A70FEF78EF92F4B1B6816
:102F000032221A6314212E4808F03AFB4FF47A70EB
:102F1000FEF782F914212B4808F032FB00230093BE
:102F200001930293039304930593274B0093062385
:102F3000019302937F23039304230493694620465D
:102F400001F088FF204602F011FA4FF0FF312046D1
:102F500001F022FF204601F079FF06461B4B00934B
:102F60006946204601F076FF204602F0FFF94FF057
:102F7000FF31204601F010FF204601F067FF06AC4C
:102F800083B2B2B21249204609F0E0FB2046FDF7B9
:102F9000D7F881B2204608F0F3FA4FF4FA70FEF742
:102FA0003BF9FEF72BF9FEF751F900F0D5F9FAE7F6
:102FB0002C020020A0D80008B0D800084407002048
:102FC000C0D80008D8D80008010000800800900C84
:102FD000F0D8000808B509F01FFC08BD08B509F0D5
:102FE000D7FB08BD01460748C3798B4204D0064A87
:102FF000904201D00838F7E78B4200D1704700209B
:10300000FCE700BFF873FF1F0070FF1F2DE9F041C0
:103010008EB080460F4615461E463BB11C23012D3F
:1030200006DD9A1EAA4204DCDD1E02E01223F6E74A
:103030000225002417E0A81E3146204400F0A0F924
:10304000394686F0010000F0ADFB07EE900AF8EE7D
:10305000677A9FED1A7A77EEC77A0EAB03EB84039B
:1030600043ED057A0134042CE5DD01AC202200217A
:10307000204609F08DFB05238DF804304FF0814385
:10308000039309AB0493204601F09AF907EE905A96
:10309000F8EEE77A77EE807AB0EE007A77EEC77ACC
:1030A000059B2B44023BC8F80030C8ED017A88F834
:1030B000086040460EB0BDE8F08100BF0000C84285
:1030C00008B50121002000F05BF900F0F5FA01F0ED
:1030D0009FF80321014801F035F908BDC404002020
:1030E000F0B52DED028B8DB0734E744F0123326815
:1030F00039786846FFF78AFF9DE8070086E80700F1
:103100006F4D00232A6839786846FFF77FFF9DE8F6
:10311000070085E80700D6ED017AB0EE678AD5EDA5
:10312000017AF0EE678A0024254600E00134072C7E
:1031300011DC0121604B186800F022F9E1B2002097
:1031400000F030FB5F4B23F81400A842EED95B4B34
:103150001C600546EAE7962D40F2A78000F08CFB44
:103160000F21594808F00CFA544C236803F100432E
:10317000023B05A9534800EB430001F0BBF8DDED2D
:10318000077A77EEA77ADDED066A86EEA77AD4EDA8
:10319000007AF8EEE77A77EEC77AB2EE067A77EE43
:1031A000677A17EE900AFDF787F941EC100B09F0EA
:1031B000D7FE51EC100BFDF799FC00EE100ADFED85
:1031C000437AB4EEE70AF1EE10FA67D4404B1B786D
:1031D00033B93F4B01221A703E4B1A683E4B1A60BE
:1031E000B0EE482ADFED3D1A9FED3D1AF2EE050ADA
:1031F000B6EE000A00F0E0FF10EE100AFDF75CF9F1
:1032000041EC100B09F008FF51EC100BFDF746FCE8
:103210000446B0EE682ADFED321A9FED321AF1EE65
:103220000E0AB6EE000A00F0C7FF10EE100AFDF716
:1032300043F941EC100B09F0EFFE51EC100BFDF7D8
:103240002DFC0146234B93ED007A234BD3ED007AFE
:1032500037EE677ADFED246AC7EE267A67EEA77A43
:10326000B0EE677ABEEECA7A17EE103AB3F5805F19
:1032700001DB40F6FF7308A80022089242608260DA
:10328000C260ADF82040ADF822109B00ADF82A30A6
:1032900000F0F4FA0DB0BDEC028BF0BD134801F064
:1032A0006AF80C4B83ED000A90E7094B00221A7074
:1032B00000F0E3FAEEE700BF9404002014000020C1
:1032C00088040020A804002004D900080000FA4463
:1032D000A4040020BC040020A00400200000FA4642
:1032E0000000000000409C46CD4C6BC4C40400208C
:1032F00010B5002408E00121204600F041F800212B
:10330000084600F04FFA01341B2CF4D9002301E0E9
:1033100000BF01334CF24F329342F9DD10BD10B5BE
:10332000002408E00021204600F02AF800210120B6
:1033300000F038FA0134112CF4D9002301E000BF69
:1033400001334CF24F329342F9DD10BD014B18703E
:10335000704700BFC004002008B5084B1B78012B44
:1033600005D0022B06D00BB9FFF7BAFE08BDFFF758
:10337000BFFFFBE7FFF7D3FFF8E700BFC004002063
:1033800010B582B0002306E003F108026A4401246C
:1033900002F8084C2344052BF6D9002900F0D5800B
:1033A0001B2800F280810E2800F09E8036DC072862
:1033B00000F0828019DC03286FD00ADC012862D07B
:1033C000022865D0002840F06E818DF800000124AD
:1033D00011E1052866D0062869D0042840F06381F1
:1033E00000238DF80030072405E10B2872D00BDC98
:1033F000092865D00A2868D0082840F054810023A5
:103400008DF801300124F6E00C2868D00D2840F03A
:103410004A8100238DF801300524ECE015287CD08A
:103420000FDD192800F0878023DC17287AD01828B0
:103430007CD0162840F0378100238DF80330032418
:10344000D9E012285FD00ADC102852D0112855D0BC
:103450000F2840F0288100248DF80240CBE013288B
:1034600056D0142840F01F8100238DF80230072425
:10347000C1E01A2864D01B2840F0158100238DF884
:1034800003300624B7E000238DF800300224B2E0B8
:1034900000238DF800300424ADE000238DF80030C7
:1034A0000624A8E000238DF800300524A3E00023C3
:1034B0008DF8013003249EE000248DF801409AE04D
:1034C00000238DF80130022495E000238DF80130AF
:1034D000042490E000238DF8013006248BE00023C3
:1034E0008DF80130072486E000238DF80230032494
:1034F00081E000238DF8023001247CE000238DF868
:103500000230022477E000238DF80230042472E0B8
:1035100000238DF8023006246DE000238DF8023080
:10352000052468E000248DF8034064E000238DF852
:10353000033001245FE000238DF8033002245AE0B9
:1035400000238DF80330042455E0112800F2AB80ED
:1035500009287CD02BDC04286AD013DC022862D036
:1035600008DC002844D0012840F09D8000248DF81C
:10357000044040E0032840F0968000238DF804309A
:10358000022438E007285DD009DC052855D006283C
:1035900040F0898000238DF8043007242BE00828B0
:1035A00040F0818000238DF80530032423E00E28AD
:1035B0005BD012DC0C2853D008DC0A284BD00B2837
:1035C00071D100238DF80530022414E00D286AD152
:1035D00000238DF8053006240DE010284AD011286C
:1035E0004DD00F285FD100238DF80530052402E06F
:1035F0008DF80400032404F001024FF480612B488D
:1036000002F014F9C4F340024FF400414FF090402F
:1036100002F00CF9A2084FF480414FF0904002F004
:1036200005F900243DE000238DF804300124E2E791
:1036300000238DF804300424DDE700238DF80430E6
:103640000624D8E700238DF804300524D3E70024AE
:103650008DF80540CFE700238DF805300124CAE737
:1036600000238DF805300424C5E700238DF80530CC
:103670000724C0E700238DF800300324BBE70024B3
:103680008DF80040B7E704F108036B4413F8082CE9
:10369000074B33F81410074B53F8240002F0C6F818
:1036A0000134052CEFD902B010BD00BF000800485E
:1036B000180000202400002030B587B001A90024A4
:1036C00001944C608C60CC600C610625019501234F
:1036D00002934FF0904001F0CFFF224629464FF071
:1036E000904002F0A3F8144D2B68FF22DA6280228A
:1036F0005A63DA632146284604F09EFF08212846D3
:1037000004F09AFF2146284605F032F808212846A1
:1037100005F02EF8094D2146284605F029F8084BFA
:10372000084A1A602B687C22DA623E225A633C22E5
:103730001A6307B030BD00BF900700204407002087
:103740003C0700200077FB4830B585B000241DE021
:10375000124D284601F00AFE4FF0FF31284601F0D5
:103760001BFB284601F072FB04AB03EB440323F878
:10377000080C82B20A49684608F0E8FF6846FCF780
:10378000DFFC81B2684607F0FBFE0134022CDFD972
:10379000032102A800F01DFD05B030BD2C02002061
:1037A00014D9000838B5044672B6304B1B6953F87B
:1037B0002130984794B9234601E000BF0133B12B73
:1037C000FBDD002201214FF0904002F02FF8002392
:1037D00008E000BF01332B2BFBDDF2E70023FAE703
:1037E00000BF013340F6AD029342F9DDFFF7ACFFB5
:1037F0000546012211464FF0904002F017F80023D1
:1038000001E000BF01332B2BFBDD002201214FF033
:10381000904002F00BF8002301E000BF0133582B69
:10382000FBDD134C204601F0A1FD4FF0FF31204697
:1038300001F0B2FA204601F009FB044662B601220B
:1038400011464FF0904001F0F1FFA3B2EB1A07EEE2
:10385000903AF8EEE77A9FED077A77EE877AFCEEFA
:10386000E77A17EE903A98B238BD00BF3C000020CE
:103870002C0200200000C8427047704730B58BB062
:10388000044609210C4807F07BFEB4F90A3002AD6A
:103890000093B4F90230B4F900200849284608F032
:1038A00055FF2846FCF74CFC81B2284607F068FE1D
:1038B00001200BB030BD00BF18D9000824D9000882
:1038C0004F4A136843F4805313604E4B188900230A
:1038D0008CE04B4A4021916100BF00BF00BF00BF98
:1038E00000BF00BF00BF00BF00BF00BF00BF00BFE0
:1038F00000BF00BF00BF00BF00BF00BF00BF00BFD0
:1039000000BF00BF00BF00BF00BF00BF00BF00BFBF
:1039100000BF00BF00BF00BF00BF00BF00BF00BFAF
:1039200000BF00BF00BF00BF00BF00BF00BF00BF9F
:1039300000BF00BF00BF00BF00BF00BF00BF00BF8F
:1039400000BF00BF00BF00BF00BF00BF00BF00BF7F
:1039500000BF00BF00BF00BF00BF00BF4FF4800129
:10396000916100BF00BF00BF00BF00BF00BF00BF2C
:1039700000BF00BF00BF00BF00BF00BF00BF00BF4F
:1039800000BF00BF00BF00BF00BF00BF00BF00BF3F
:1039900000BF00BF00BF00BF00BF00BF00BF00BF2F
:1039A00000BF00BF00BF00BF00BF00BF00BF00BF1F
:1039B00000BF00BF00BF00BF00BF00BF00BF00BF0F
:1039C00000BF00BF00BF00BF00BF00BF00BF00BFFF
:1039D00000BF00BF00BF00BF00BF00BF00BF00BFEF
:1039E00000BF00BF00BF00BF01339BB298423FF64B
:1039F00070AF034A136823F440531360704700BF4D
:103A0000000400483C0000204E4A136843F48053F1
:103A100013604D4B188900238AE04A4A4021916186
:103A200000BF00BF00BF00BF00BF00BF00BF00BF9E
:103A300000BF00BF00BF00BF00BF00BF00BF00BF8E
:103A400000BF00BF00BF00BF00BF00BF00BF00BF7E
:103A500000BF00BF00BF00BF00BF00BF00BF00BF6E
:103A600000BF00BF00BF00BF00BF00BF00BF00BF5E
:103A700000BF00BF00BF00BF00BF00BF00BF00BF4E
:103A800000BF00BF00BF00BF00BF00BF00BF00BF3E
:103A900000BF00BF00BF00BF00BF00BF00BF00BF2E
:103AA00000BF4FF48001916100BF00BF00BF00BFA5
:103AB00000BF00BF00BF00BF00BF00BF00BF00BF0E
:103AC00000BF00BF00BF00BF00BF00BF00BF00BFFE
:103AD00000BF00BF00BF00BF00BF00BF00BF00BFEE
:103AE00000BF00BF00BF00BF00BF00BF00BF00BFDE
:103AF00000BF00BF00BF00BF00BF00BF00BF00BFCE
:103B000000BF00BF00BF00BF00BF00BF00BF00BFBD
:103B100000BF00BF00BF00BF00BF00BF00BF00BFAD
:103B200000BF00BF00BF00BF00BF00BF01339BB29A
:103B300098423FF672AF034A136823F44053136070
:103B4000704700BF000400483C000020444A13684E
:103B500043F480531360434B1889002378E0404AB4
:103B60004021916100BF00BF00BF00BF00BF00BF88
:103B700000BF00BF00BF00BF00BF00BF00BF00BF4D
:103B800000BF00BF00BF00BF00BF00BF00BF00BF3D
:103B900000BF00BF00BF00BF00BF00BF00BF00BF2D
:103BA00000BF00BF00BF00BF00BF00BF00BF00BF1D
:103BB00000BF00BF00BF00BF00BF00BF00BF00BF0D
:103BC00000BF00BF00BF00BF00BF00BF00BF00BFFD
:103BD00000BF00BF00BF00BF00BF00BF00BF00BFED
:103BE0004FF48001916100BF00BF00BF00BF00BF64
:103BF00000BF00BF00BF00BF00BF00BF00BF00BFCD
:103C000000BF00BF00BF00BF00BF00BF00BF00BFBC
:103C100000BF00BF00BF00BF00BF00BF00BF00BFAC
:103C200000BF00BF00BF00BF00BF00BF00BF00BF9C
:103C300000BF00BF00BF00BF00BF00BF00BF00BF8C
:103C400000BF00BF00BF00BF00BF00BF01339BB279
:103C5000984284D8024A136823F440531360704793
:103C6000000400483C000020434A136843F480539A
:103C70001360424B1889002375E03F4A402191614F
:103C800000BF00BF00BF00BF00BF00BF00BF00BF3C
:103C900000BF00BF00BF00BF00BF00BF00BF00BF2C
:103CA00000BF00BF00BF00BF00BF00BF00BF00BF1C
:103CB00000BF00BF00BF00BF00BF00BF00BF00BF0C
:103CC00000BF00BF00BF00BF00BF00BF00BF00BFFC
:103CD00000BF00BF00BF00BF00BF00BF00BF00BFEC
:103CE00000BF00BF00BF00BF00BF00BF00BF00BFDC
:103CF00000BF00BF00BF00BF4FF48001916100BF53
:103D000000BF00BF00BF00BF00BF00BF00BF00BFBB
:103D100000BF00BF00BF00BF00BF00BF00BF00BFAB
:103D200000BF00BF00BF00BF00BF00BF00BF00BF9B
:103D300000BF00BF00BF00BF00BF00BF00BF00BF8B
:103D400000BF00BF00BF00BF00BF00BF00BF00BF7B
:103D500000BF00BF00BF00BF00BF00BF00BF00BF6B
:103D600000BF01339BB2984287D8034A136823F4FB
:103D700040531360704700BF000400483C0000201F
:103D8000414A136843F480531360404B1889002361
:103D900072E03D4A4021916100BF00BF00BF00BFFB
:103DA00000BF00BF00BF00BF00BF00BF00BF00BF1B
:103DB00000BF00BF00BF00BF00BF00BF00BF00BF0B
:103DC00000BF00BF00BF00BF00BF00BF00BF00BFFB
:103DD00000BF00BF00BF00BF00BF00BF00BF00BFEB
:103DE00000BF00BF00BF00BF00BF00BF00BF00BFDB
:103DF00000BF00BF00BF00BF00BF00BF00BF00BFCB
:103E000000BF00BF00BF00BF00BF00BF00BF4FF436
:103E10008001916100BF00BF00BF00BF00BF00BFB5
:103E200000BF00BF00BF00BF00BF00BF00BF00BF9A
:103E300000BF00BF00BF00BF00BF00BF00BF00BF8A
:103E400000BF00BF00BF00BF00BF00BF00BF00BF7A
:103E500000BF00BF00BF00BF00BF00BF00BF00BF6A
:103E600000BF00BF00BF00BF00BF00BF00BF00BF5A
:103E700000BF00BF01339BB298428AD8024A136840
:103E800023F4405313607047000400483C000020B6
:103E9000414A136843F480531360404B1889002350
:103EA00071E03D4A4021916100BF00BF00BF00BFEB
:103EB00000BF00BF00BF00BF00BF00BF00BF00BF0A
:103EC00000BF00BF00BF00BF00BF00BF00BF00BFFA
:103ED00000BF00BF00BF00BF00BF00BF00BF00BFEA
:103EE00000BF00BF00BF00BF00BF00BF00BF00BFDA
:103EF00000BF00BF00BF00BF00BF00BF00BF00BFCA
:103F000000BF00BF00BF00BF00BF00BF00BF00BFB9
:103F100000BF00BF00BF00BF00BF00BF4FF4800163
:103F2000916100BF00BF00BF00BF00BF00BF00BF66
:103F300000BF00BF00BF00BF00BF00BF00BF00BF89
:103F400000BF00BF00BF00BF00BF00BF00BF00BF79
:103F500000BF00BF00BF00BF00BF00BF00BF00BF69
:103F600000BF00BF00BF00BF00BF00BF00BF00BF59
:103F700000BF00BF00BF00BF00BF00BF00BF00BF49
:103F800000BF01339BB298428BD8034A136823F4D5
:103F900040531360704700BF000400483C000020FD
:103FA000404A136843F4805313603F4B1889002341
:103FB00070E03C4A4021916100BF00BF00BF00BFDC
:103FC00000BF00BF00BF00BF00BF00BF00BF00BFF9
:103FD00000BF00BF00BF00BF00BF00BF00BF00BFE9
:103FE00000BF00BF00BF00BF00BF00BF00BF00BFD9
:103FF00000BF00BF00BF00BF00BF00BF00BF00BFC9
:1040000000BF00BF00BF00BF00BF00BF00BF00BFB8
:1040100000BF00BF00BF00BF00BF00BF00BF00BFA8
:1040200000BF00BF00BF00BF00BF00BF4FF4800152
:10403000916100BF00BF00BF00BF00BF00BF00BF55
:1040400000BF00BF00BF00BF00BF00BF00BF00BF78
:1040500000BF00BF00BF00BF00BF00BF00BF00BF68
:1040600000BF00BF00BF00BF00BF00BF00BF00BF58
:1040700000BF00BF00BF00BF00BF00BF00BF00BF48
:1040800000BF00BF00BF00BF00BF00BF00BF00BF38
:1040900001339BB298428CD8024A136823F44053F0
:1040A00013607047000400483C000020404A136839
:1040B00043F4805313603F4B188900236FE03C4A60
:1040C0004021916100BF00BF00BF00BF00BF00BF23
:1040D00000BF00BF00BF00BF00BF00BF00BF00BFE8
:1040E00000BF00BF00BF00BF00BF00BF00BF00BFD8
:1040F00000BF00BF00BF00BF00BF00BF00BF00BFC8
:1041000000BF00BF00BF00BF00BF00BF00BF00BFB7
:1041100000BF00BF00BF00BF00BF00BF00BF00BFA7
:1041200000BF00BF00BF00BF00BF00BF00BF00BF97
:1041300000BF00BF00BF4FF48001916100BF00BF0E
:1041400000BF00BF00BF00BF00BF00BF00BF00BF77
:1041500000BF00BF00BF00BF00BF00BF00BF00BF67
:1041600000BF00BF00BF00BF00BF00BF00BF00BF57
:1041700000BF00BF00BF00BF00BF00BF00BF00BF47
:1041800000BF00BF00BF00BF00BF00BF00BF00BF37
:1041900000BF00BF00BF00BF00BF01339BB2984209
:1041A0008DD8034A136823F440531360704700BF4F
:1041B000000400483C00002071EEC11A32EE402A93
:1041C00061EE821A70EEC00A81EEA00A30EE010A9A
:1041D000704710B54FF0000E0FE001339BB28B42D9
:1041E0000AD230F813C030F81E209445F5D220F8DA
:1041F0001EC020F81320F0E7A6468E4504D20EF12B
:104200000104A4B22346EAE7490830F8110010BDC2
:1042100070B5B8B029AB0322052106A8FDF72DF82B
:104220001AAB0522032104A8FDF727F811AB0322DE
:10423000114602A8FDF721F808AB03221146684693
:10424000FDF71BF8254B052203212548FDF715F83E
:10425000244B012205212448FDF70FF8234B0122AE
:1042600003212348FDF709F800231EE003EB430276
:1042700038A901EB82014FF07E5041F83C0C01332C
:10428000511C38A800EB810107EE903AF8EEE77A6E
:1042900041ED0F7A03FB03F107EE901A023200EBB7
:1042A0008202F8EEE77A42ED0F7A042BDEDD04ACF1
:1042B00006AD21462846FDF719F902AE32462946D9
:1042C0002046FDF7D9F869463046FCF7DBFF044A83
:1042D00021466846FDF7D0F838B070BD10050020C3
:1042E00008050020E0040020D8040020FC04002081
:1042F000F404002010B50C4600230BE030F9132025
:1043000007EE902AF8EEE77A094A02EB8302C2ED43
:10431000007A0133042BF1DD064A07490748FDF70F
:10432000ABF8074B07CB20606160A260204610BD50
:10433000E0040020F4040020D80400200805002038
:10434000FC04002038B504460D46880008F04CF9FE
:10435000206065600023A3600022E260226107E024
:10436000226802EB83024FF0000CC2F800C0013358
:10437000AB42F5DB38BDD0ED037A0368826803EB0E
:10438000820393ED007A77EEC77AC0ED037A83ED6E
:10439000000A90ED037A37EE007A80ED037A8368A5
:1043A0000133426893FBF2F102FB1133836007EEA5
:1043B000902AF8EEE77A87EE270A80ED040A704724
:1043C00010B50178002303619FED3B7A00E00133D3
:1043D0008B420DDAC26802EB8302D2ED007AF4EE72
:1043E000C77AF1EE10FAF2DD0361B0EE677AEEE71C
:1043F0000269002A4AD1134602774FF0010ED0F825
:104400000CC00CEB8304D4ED006A0CEB820292ED3D
:10441000006A0CEB8E0C9CED005A07EE903AB8EE59
:10442000E77AF0EE087A66EEA77AF1EE005A66EEC9
:10443000255A77EEE57A77EE857AF6EE005A67EE42
:10444000A57A36EE066A76EEC66A76EE856A87EE5D
:10445000A66A77EE067AC0ED057A037F022B24D098
:1044600090ED010A90ED027A37EE407AD0ED057AB0
:1044700027EE277A013907EE901AF8EEE77AC7EEB1
:10448000276A30EE260A80ED060A10BD01F1FF3ED4
:10449000724505D001230377531E02F1010EAEE7EA
:1044A000022303778B1E7246A9E7B7EE007A77EEF8
:1044B000C77AC0ED057AD3E70000C8C27047000094
:1044C00008B50F480F4B0360002343600F22826042
:1044D00047F6FF72C26003618361C361436103F009
:1044E00075FB30B900221146054803F0C5FB18B929
:1044F00008BDFEF733FCF5E7FEF730FCF8E700BF38
:104500004C0500200028004010B596B0044650220B
:10451000002102A808F03CF92268174B9A4201D00A
:1045200016B010BD02F09CFA4FF4006302934FF4F2
:104530000073129302A803F06CF9C8B94FF0B043AE
:10454000D3F8902042F40042C3F890209A6D42F4D0
:1045500080629A659B6D03F480630193019B002246
:104560001146032001F040F8032001F04DF8D7E791
:10457000FEF7F4FBE2E700BF0028004000B585B07D
:104580006B4600F10C022E214FF6664000F002F956
:104590009DF80E0005B000BD00B585B06B4600F17A
:1045A0000C020F214FF6684000F0F4F89DF80E0061
:1045B00005B000BD00B585B002466B4610214FF630
:1045C000754000F0E7F89DF80E0005B000BD000052
:1045D00010B5214BDB6BC3F30D039B0003F10053BC
:1045E00003F540331A6811681C4B99422CD01369AB
:1045F000D2F814C0D2F818E0516892681C0E04700A
:104600001C0C44701C0A8470C3F30314C47003F0C0
:104610000F0303714FEA1C6343714FEA1C4383711C
:104620004FEA1C23C37180F808C080F809E00B0E24
:1046300083720B0CC372090A0173130E4373130CBC
:104640008373C273002010BD5369D2F818C0D2F82A
:104650001CE0D1681269D1E700400058B95646A95C
:1046600008B538B9084B1B6803B19847074B0022BF
:104670001A7008BD054B01221A70034B1B68002BF2
:10468000F7D010469847F4E7740500200402002094
:1046900010B584B004460B4B18600B4806F048F880
:1046A0000120FFF7DDFF094B01221A70084B1B6840
:1046B00033B10394074A0192074A029201A898472E
:1046C00004B010BD0002002008020020FC01002000
:1046D00078050020F9470008DD46000810B50146BE
:1046E000034C204606F03FF82046FCF7B6FD10BD0F
:1046F0000802002010B50C464A68054B1A60054BAD
:10470000D861184600F07EF82068FFF7C1FF10BDA1
:10471000740500207805002000B585B01A4806F021
:104720000AF810B9194B1B7843B9174806F003F87B
:1047300010B9164B1B781BBB05B000BD03A912486E
:1047400006F029F8124BDB698BB1039A0292012221
:104750008DF8042001A898479DF804200B4B1A708F
:104760000A4B1B783BB1039806F07EFBDDE7074B55
:1047700001221A70F4E70399034805F0E8FFD4E733
:104780000148FCF76AFDD7E708020020FC01002081
:10479000780500202DE9F04180460C4617461E465C
:1047A0000020FFF75DFF114D2868A0F80980C47252
:1047B000224639460C3008F02FF801240C4B1C70AF
:1047C0000C4B1B6900210846984748F2E800FCF7AB
:1047D0004FFD29688A7803323046083008F01CF80B
:1047E0002046FFF73DFFBDE8F08100BF000200203A
:1047F000700500207805002008B50020FCF733FD87
:1048000008BD0000024B0360024B0361704700BF0C
:1048100081AD0008BDAD00080023024A1360024AC2
:10482000136070479C05002098050020EFF310836B
:1048300072B641B1012903D106490A6802430A60F0
:1048400083F31088704703490A6822EA00020A606D
:10485000F6E700BF98050020EFF3108C72B6064A09
:10486000136803431360054A52F83130034342F89A
:1048700031308CF31088704734060020A0050020EA
:10488000EFF3108172B6044A136823EA0000106047
:1048900081F31088704700BF74000020EFF310818F
:1048A00072B6034A13681843106081F3108870478A
:1048B00074000020EFF3108172B6034A13681843A6
:1048C000106081F3108870473006002070477047F1
:1048D00028B1B0FA80F0C0F11F00C0B270472020AC
:1048E000F9E7000038B5454B1C6820401860444B80
:1048F0001A68444B1B68444908684449096833E016
:10490000013338E0424D05EBC30568681040FFF7FE
:10491000DFFFDFF800C1CCF800006A68012303FA6A
:1049200000F022EA00026A60EFF3108172B6DCF850
:10493000002003FA02F26FEA020C314D286820EAE7
:1049400002022A60002B2DD181F31088314B1A68A6
:10495000314B53F822309847294B1A68294B1B6872
:1049600029490868294909680240244D2D682A42CE
:1049700021D00B401FD1264A52F8332002402A4250
:10498000BED0234951F8332002402A4001EBC30135
:1049900049681142B6D11E4901EBC3014FF0FF3007
:1049A0004860AFE7013B1A4850F833200CEA020296
:1049B00040F83320C6E7174B4FF0FF321A60FFF77D
:1049C00085FFEFF3108572B60D4B1B680D4A116819
:1049D0000D4A12681340094A1268134203D10B4B67
:1049E0001B680B4206D085F31088FFF770FF034B5E
:1049F0001C6038BDFCF730FCF5E700BF70000020FC
:104A00003406002030060020740000202C06002010
:104A1000A005002028060020A805002008B5C043F6
:104A2000FFF760FF08BD0000F8B50446114B1E6893
:104A3000B6F1FF3F05D00125B5400F4B1F681C6044
:104A400005E00025F9E721462846FFF7E7FF0B4B75
:104A50001B682342F7D0074B1E60EFF3108172B63C
:104A6000064A136823EA0403136081F31088024B9B
:104A70001F60F8BD280600202C060020300600200C
:104A800038B51546EFF3108472B6FFF721FF034BDC
:104A900043F8205084F3108838BD00BFA8050020DB
:104AA000114B1B780BB90120704710B5044602F07A
:104AB000D7F80D4B1A784FF47A73B3FBF2F3B0FBCF
:104AC000F3F000F0A9FD68B90F2C01D901200AE02C
:104AD000024621464FF0FF3000F086FD034B1C607C
:104AE000002000E0012010BD780000207C000020A4
:104AF00010B50A4A136843F480731360032000F072
:104B000061FD0F20FFF7CCFF18B101231C462046A2
:104B100010BD044600F096FFF9E700BF00400058C2
:104B2000034B1B78034A11680B441360704700BFA6
:104B30007800002038060020014B1868704700BF3D
:104B400038060020014B1868704700BF7C00002029
:104B5000014B1878704700BF7800002000B500F1C5
:104B6000300E0B0A9B0003F00C035EF8030001F00B
:104B70001F014FF01F0C0CFA01FC20EA0C0CC2F3D1
:104B800084628A404CEA02024EF8032000BD00B560
:104B900000F1140E4B0E9B0003F004035EF80300BB
:104BA000C1F304514FF0070C0CFA01FC20EA0C0C85
:104BB0008A404CEA02024EF8032000BD30B583B0B3
:104BC00000230193002800F0DA800446436D13B3FC
:104BD00023689A6812F0005F05D09A6822F020429C
:104BE00022F03F029A602268936813F0805F1FD121
:104BF000936823F0104323F03F0343F08053936006
:104C0000604B1B689B09604AA2FB03239B0901338D
:104C10005B00019309E0FCF735F80023A36584F8F5
:104C20005030D5E7019B013B0193019B002BF9D14B
:104C30002268936813F0805F7AD1636D43F01003AC
:104C40006365A36D43F00103A3650120936813F02E
:104C5000040300D00123616D11F0100F40F0888033
:104C6000002B40F08580636D23F4817343F00203D1
:104C70006365936813F0010F0BD1444B9B6813F0ED
:104C8000010F06D1636842498A6822F47C121343FB
:104C90008B60627E636B43EA4233E2681343A2682F
:104CA000134394F8202043EA0243012A42D0A26A27
:104CB00022B102F47072E16A0A4313432168D1F809
:104CC0000CC0344A0CEA02021A43CA6021688B689D
:104CD00013F0040300D001238A6812F0080200D008
:104CE0000122B3B9AAB9237E94F83020520042EAD7
:104CF0008332CB6823F4804323F002031343CB6059
:104D000094F83830012B1AD02268136923F001037C
:104D100013612369012B22D02268136B23F00F0348
:104D20001363636D23F0030343F00103636524E021
:104D300000208BE7626A013A43EA4243B7E7216801
:104D40000B696FF38A03E26B256C2A43656C2A4377
:104D5000A56C2A43134343F001030B61D9E7216893
:104D60000B6B23F00F03E269013A13430B63D8E79F
:104D7000636D43F010036365012003B030BD012073
:104D8000FBE700BF80000020632D3E0500000450BB
:104D90000003045007C0F0FFF8B504460E4645690D
:104DA000082D05D00368DB6813F0010F1ED1042520
:104DB000FFF7C2FE074623681A682A421CD1B6F1E3
:104DC000FF3FF8D0FFF7B8FEC31BB34201D8002E57
:104DD000F1D123681B682B42EDD1636D43F00403CE
:104DE0006365002384F85030032004E0436D43F0F2
:104DF000200343650120F8BD626D42F400726265D4
:104E0000DA6812F4406F11D1627E7AB91A6812F032
:104E1000080F0BD0626D22F480726265626D12F42D
:104E2000805F03D1626D42F001026265082D07D0F8
:104E3000DA6812F4804F07D10C221A600020DAE7FA
:104E400008221A600020D6E70020D4E70368186C17
:104E50007047000070B582B00023019390F8503085
:104E6000012B00F0118204460D46012380F85030DA
:104E70000068836813F0040F09D0636D43F02003CA
:104E800063650120002384F8503002B070BD0A68C9
:104E90004968FFF763FE2068836813F0040300D0BD
:104EA0000123826812F0080200D001220BB9002A07
:104EB0003AD02268936813F0010F40F0DF812B682D
:104EC000E868D2F8B010C3F3120C21EA0C0100F02C
:104ED000180CA74820FA0CF00340C3F312030B434D
:104EE000C2F8B030EA68A34B9A4200F0A4802B6865
:104EF000A14A134200F0C481A04A926802F0E07017
:104F00009F49896811F0010F40F064819D498B42EF
:104F100000F066819C498B4200F089819B498B425D
:104F200000F099810020ADE7AA682968FFF72FFEFD
:104F300069692268D368C3F3C1035B00994028699B
:104F4000042810D0603252F820C0914B0CEA0303C1
:104F50002E6806F0F84C41EA0C010B4343F0004385
:104F600042F82030A5E7136E116EC1F384612B68FF
:104F7000C3F3120080BBC3F38463994234D0216829
:104F80004B6E4A6EC2F384622B68C3F3120080BB7F
:104F9000C3F384639A4234D021688B6E8A6EC2F365
:104FA00084622B68C3F3120080BBC3F384639A420C
:104FB00034D02168CB6ECA6EC2F384622B68C3F30F
:104FC000120080BBC3F384639A427FF472AFCB6E4E
:104FD00023F00043CB666CE793FAA3F313B1B3FA63
:104FE00083F3CAE72023C8E7136E23F00043136658
:104FF000C5E793FAA3F313B1B3FA83F3CAE7202307
:10500000C8E74B6E23F000434B66C5E793FAA3F362
:1050100013B1B3FA83F3CAE72023C8E78B6E23F0FA
:1050200000438B66C5E793FAA3F313B1B3FA83F396
:10503000CAE72023C8E720682B68C3F3120CBCF131
:10504000000F2DD19A0E013202F01F02092A8CBFE7
:1050500000220122002A5BD0BCF1000F2FD1990E53
:105060000131890601F0F841BCF1000F33D14FEA5C
:10507000936E0EF1010E0EF01F0E012202FA0EF2D7
:105080001143BCF1000F35D19B0E013303F01F0318
:1050900003EB43031B051943AA68FFF778FD26E7D6
:1050A00093FAA3F24AB1B2FA82F2013202F01F027D
:1050B000092A8CBF00220122CCE72022F5E793FACF
:1050C000A3F131B1B1FA81F10131890601F0F84162
:1050D000CAE72021F8E793FAA3F24AB1B2FA82F2C2
:1050E000013202F01F024FF0010E0EFA02F2C7E782
:1050F0002022F5E793FAA3F343B1B3FA83F3013324
:1051000003F01F0303EB43031B05C4E72023F6E76B
:10511000BCF1000F20D1990E0131890601F0F84150
:10512000BCF1000F36D14FEA936E0EF1010E0EF076
:105130001F0E012202FA0EF21143BCF1000F38D10A
:105140009B0E013303F01F030A3B03EB43031B05D4
:1051500043F0007319439FE793FAA3F131B1B1FA19
:1051600081F10131890601F0F841D9E72021F8E702
:10517000FFFF070000007F4000000880000304508C
:1051800000000450000052C7000084CB01000080E2
:1051900000F0FF0393FAA3F24AB1B2FA82F20132AD
:1051A00002F01F024FF0010E0EFA02F2C4E72022B5
:1051B000F5E793FAA3F35BB1B3FA83F3013303F09A
:1051C0001F030A3B03EB43031B0543F00073C1E7D6
:1051D0002023F3E7636D43F020036365012051E66C
:1051E00012F4000F7FF496AE2268284B9A4201D049
:1051F000002047E640F4000325498A6822F0E07267
:1052000013438B60234B1B689B09234AA2FB032398
:105210009B09013303EB43039B00019302E0019BD5
:10522000013B0193019B002BF9D118462AE612F0AD
:10523000807F7FF473AE2268144B9A4201D0002025
:1052400020E640F0807312498A6822F0E07213432E
:105250008B60002016E612F4800F13D122680B4BEE
:105260009A4201D000200DE640F4800308498A6884
:1052700022F0E07213438B60002003E6002001E679
:105280000020FFE50020FDE50220FEE500000450BF
:105290000003045080000020632D3E0530B583B02C
:1052A0000023019303689A6812F0010F52D104465B
:1052B00099682A4A114216D19A6822F0004222F0D7
:1052C0003F0242F001029A60254B9B6813F4000FE5
:1052D00019D0244B1B689B09234AA2FB03239B097B
:1052E000013301930CE0436D43F010034365836D7C
:1052F00043F00103836501202DE0019B013B0193F5
:10530000019B002BF9D1FFF717FC054604E0FFF7DE
:1053100013FC431B022B11D823681A6812F0010FEB
:1053200016D19A6812F0010FF1D19A6822F000426A
:1053300022F03F0242F001029A60E8E7636D43F019
:1053400010036365A36D43F00103A365012002E030
:10535000002000E0002003B030BD00BF3F0000800F
:105360000003045080000020632D3E0503689B6805
:1053700013F0040F32D110B5044690F85030012BD1
:105380002ED0012380F85030FFF788FF10BB636DEB
:1053900023F4706323F0010343F480736365636D4A
:1053A00013F4805F13D0A36D23F00603A365236875
:1053B0001C221A60002384F850302268936823F07E
:1053C000004323F03F0343F00403936010BD002328
:1053D000A365ECE7002384F85030F7E7022070471C
:1053E0000220F3E738B504460268936813F002031D
:1053F00000D00123916811F0010F39D0002B39D171
:10540000936803F00D03012B09D0636D43F0100383
:105410006365A36D43F00103A365012029E0936850
:1054200023F0004323F03F0343F00203936023681B
:1054300003221A60FFF780FB054623689B6813F080
:10544000010F13D0FFF778FB401B0228F5D9236822
:105450009B6813F0010FF0D0636D43F01003636598
:10546000A36D43F00103A365012002E0002000E0EA
:10547000002038BD0020FCE730B583B00023019345
:1054800090F85030012B41D004460D46012380F89E
:105490005030FFF7A7FF80BB636D23F4885323F0E0
:1054A000020343F00203636521688B6823F04043E5
:1054B00023F03F0305F08042134343F000438B6029
:1054C00023689B68002B06DB636D23F0030343F026
:1054D0000103636515E0019B01330193019A0C4BB5
:1054E0009A42EDD9636D23F0120343F01003636514
:1054F000002384F85030012006E0636D43F0100370
:105500006365002384F8503003B030BD0220FBE710
:10551000AA6A0200002807DB00F01F0240090123ED
:105520009340024A42F82030704700BF00E100E09B
:1055300000280CDB00F01F024009012393402030BB
:10554000034A42F82030BFF34F8FBFF36F8F70478D
:1055500000E100E0002808DB0901C9B200F1604069
:1055600000F5614080F80013704700F00F0009015A
:10557000C9B2014B1954704714ED00E000B500F0BA
:105580000700A0F1030CBCF1040F07D8C0F1070E0F
:105590000430062806D84FF0000C03E04FF0040E4C
:1055A0004FF0000C4FF0FF3303FA0EF021EA000138
:1055B00001FA0CF103FA0CF322EA030241EA0200B9
:1055C00000BD0000074AD36823F4E0631B041B0CF2
:1055D000000200F4E060034343F0BF6343F4003390
:1055E000D360704700ED00E010B50446054BD86865
:1055F000C0F30220FFF7C2FF01462046FFF7AAFFD3
:1056000010BD00BF00ED00E008B5FFF783FF08BD47
:1056100008B5FFF78DFF08BD0138B0F1807F0BD2D0
:105620004FF0E0235861054AF02182F82310002052
:10563000986107221A6170470120704700ED00E071
:10564000002808DB00F01F0240090123934040308E
:10565000014A42F82030704700E100E0002808DBF2
:1056600000F01F024009012393406030014A42F8D4
:105670002030704700E100E070B58646002367E007
:10568000DEF808405D000320A84024EA0004C86852
:10569000A8402043CEF80800DEF8044024EA0C04B9
:1056A0004868C0F3001098402043CEF8040060E042
:1056B000DC0808345EF8240003F00705AD004FF065
:1056C0000F0C0CFA05FC20EA0C0C0869A84040EA13
:1056D0000C004EF8240062E0042000E0002000FAF4
:1056E0000CF0284302344E4D45F824004D48046820
:1056F000D04324EA02054E6816F4801F01D042EA26
:105700000405484C2560646800EA04054E6816F4F8
:10571000001F01D042EA0405424C6560D4F8804085
:1057200000EA04054E6816F4803F01D042EA040501
:105730003C4CC4F88050D4F8844020404D6815F4A7
:10574000003F01D042EA0400364AC2F88400013327
:105750000A6832FA03F061D04FF0010C0CFA03FC36
:105760001CEA0202F3D0486800F003000138012867
:1057700086D9486800F0030003280BD0DEF80C40FF
:105780005D000320A84024EA00048868A840204364
:10579000CEF80C00486800F00300022888D0DEF83C
:1057A00000005C004FF0030C0CFA04FC20EA0C0C27
:1057B000486800F00300A04040EA0C00CEF800006A
:1057C000486810F4403FC2D09C08A51C144850F80B
:1057D000255003F0030C4FEA8C0C0F2000FA0CF05C
:1057E00025EA0005BEF1904F3FF478AF0E4886459C
:1057F0000ED000F5806086450CD000F580608645AF
:105800000AD000F5806086453FF466AF072066E762
:10581000012064E7022062E7032060E770BD00BF5B
:105820000000014000080058000400480AB18161EE
:10583000704781627047704708B5054BD8681A6891
:1058400022EA00021A605860FFF7F5FF08BD00BFAA
:105850000015005800285FD010B5044690F841307C
:10586000002B48D0242384F841302268136823F0A9
:10587000010313606368226823F070631361226878
:10588000936823F400439360E368012B38D0A36846
:10589000226843F404439360E368022B36D0226805
:1058A000536823F4006353602268536843F0007325
:1058B00043F4004353602268D36823F40043D36069
:1058C000236962691343A169226843EA0123D36013
:1058D000E369216A22680B4313602268136843F06E
:1058E0000103136000206064202384F841302063AA
:1058F00084F8420010BD80F84030FDF7B3F9B1E7FD
:10590000A368226843F400439360C5E722685368A4
:1059100043F400635360C7E701207047034690F8E3
:105920004120202A23D190F84020012A21D00122B1
:1059300080F84020242280F841200068026822F08C
:10594000010202601868026822F48052026018683E
:1059500002680A43026019680A6842F001020A609C
:10596000202283F84120002083F840007047022065
:10597000704702207047034690F84120202A21D129
:1059800090F84020012A1FD0012280F840202422D4
:1059900080F841200068026822F001020260186865
:1059A000026822F4706242EA0122026019680A6801
:1059B00042F001020A60202283F84120002083F88F
:1059C00040007047022070470220704770477047C0
:1059D000002309E000EB8302054951609A1D00EBAA
:1059E0008202044951600133052BF3D9704700BF8F
:1059F000CD590008CF590008002303604FF03F1332
:105A000043603F2383607047C0B138B5044690F8C7
:105A1000383083B10A4D2846FFF7EEFF2B6843F07C
:105A200001132B602046FFF7D3FF002060630123A2
:105A300084F8383038BDFDF76BF9EBE7012070478B
:105A4000000C005800B583B04FF0B0431A6D42F41B
:105A500000221A651B6D03F400230193019B0022B1
:105A600011462E20FFF7C0FD2E20FFF7CDFD03B01D
:105A700000BD10B512F4804F45D00468B4F8503022
:105A800091F800C04FEACC0E1EFA83F32344B3F81A
:105A90000244C4F309048B69A3422AD31B1B8B6104
:105AA0008B6983B9D0F800E03EF82C309BB223F428
:105AB000804323F0700383F4005343F4004343F026
:105AC00080032EF82C3012F0400F0FD0026891F8AE
:105AD00000C032F82C309BB223F4E04323F0700373
