:020000040800F2
:1000000000000320318F00084B6B00084D6B000887
:100010004F6B0008516B0008536B00080000000094
:10002000000000000000000000000000556B000808
:10003000576B000800000000596B00085B6B00085C
:10004000898F0008898F0008898F0008898F000830
:10005000898F0008898F0008898F0008898F000820
:10006000898F0008898F0008898F0008898F000810
:10007000898F0008898F0008898F0008898F000800
:10008000898F0008898F0008898F0008898F0008F0
:10009000656B0008898F0008898F0008898F000828
:1000A000898F0008756B0008898F0008898F000808
:1000B000898F0008898F0008898F0008898F0008C0
:1000C000898F0008898F0008898F0008898F0008B0
:1000D000898F0008898F0008898F0008898F0008A0
:1000E000898F0008898F0008898F0008898F000890
:1000F000898F0008898F00088D6B0008898F0008A0
:10010000898F0008898F0008898F0008898F00086F
:10011000898F0008898F0008898F0008898F00085F
:10012000898F0008898F0008898F0008898F00084F
:0C013000898F0008898F0008898F000863
:10013C0053B94AB9002908BF00281CBF4FF0FF3142
:10014C004FF0FF3000F00CB8ADF1080C6DE904CEA7
:10015C0008F050FFDDF804E0DDE9022304B070473D
:10016C00704700BF0348044B834202D0034B03B1DA
:10017C00184770474001002040010020000000009B
:10018C000548064B1B1AD90F01EBA301491002D0ED
:10019C00034B03B118477047400100204001002079
:1001AC000000000010B5064C237843B9FFF7DAFFC6
:1001BC00044B13B10448AFF300800123237010BD2E
:1001CC009401002000000000BC92000808B5054B0B
:1001DC001BB105490548AFF30080BDE80840FFF7A7
:1001EC00CFBF00BF0000000098010020BC920008A7
:1001FC00704708B50021012002F0DAF908BD0000B3
:10020C0008B5064B93F88030052B00D108BD00F0E3
:10021C0002FB024B002283F88020F7E7B801002094
:10022C0000B583B0054B0093054B01936946054817
:10023C0000F0D8FE03B05DF804FB00BF28000320DB
:10024C006F0200085502000810B5044640680830DB
:10025C0007F038FC10B10123237010BD002323706C
:10026C00FBE708B528B1012806D1032002F0C2F93A
:10027C0002E0032002F0B0F908BD000008B50F4BF6
:10028C00D3F88025B2F1FF3F10D0D3F884350C4859
:10029C000270C2F3072242708370C3F30722C2704C
:1002AC00C3F3074202711B0E437108BD002001F01D
:1002BC00E5FE0028F9D10348F7E700BF0070FF1FE7
:1002CC003C020020D093000870B588B00024ADF833
:1002DC00184000F0BDFDFFF7D1FF05460246062190
:1002EC00204600F035FD6A79304B1A722A795A7221
:1002FC00EA789A72AA78DA726A781A732A785A7338
:10030C002B4A1021182000F023FD2A4A1021082026
:10031C0000F01EFD1821012000F04AFD00F0E9FB61
:10032C000DF11A03019307AB00930DF11E03052287
:10033C002146012000F050FB1F4B00930523224661
:10034C00BDF81C10BDF81E0000F0A5FC06AB009318
:10035C0002232246BDF81A10BDF81E0000F09BFCCB
:10036C0002221146204600F0C5FD144D01262E70C8
:10037C00304600F0CBFA6E7008232B7110226A7194
:10038C00EC700F49A960AE70049403910294019231
:10039C000093234632463146304600F0DDFAAB7806
:1003AC000BB908B070BD00F083FBFAE70800002021
:1003BC00C0930008B093000858930008B8010020BF
:1003CC0007B2010070B588B00446012828D04FF45C
:1003DC007A664FF4C8651D4B93F8810001F052FA10
:1003EC00022C22D0194B83F88040002006900590F7
:1003FC0003F1190204921B7E0393154B02930623FF
:10040C000193009003463246294600F025FA114923
:10041C000E2000F020FB08B9012C10D008B070BDE4
:10042C000D4B1D880D4B1E88D5E7084B93F880307B
:10043C00013BDBB2012BD5D800F0EDF9D2E708492E
:10044C00024B93F8810001F07DFAE7E7B801002038
:10045C00A893000808000020B6010020B401002079
:10046C0046E0010030B591B00DF1040C284C0FCCD6
:10047C00ACE80F000FCCACE80F000FCCACE80F00D1
:10048C0094E80700ACE80300ACF80020FFF7C8FEC6
:10049C000121022002F076F81E4A0021022002F00F
:1004AC0095F901A801F010FF78BBFFF70DFF07F0DD
:1004BC00F1FA194D002485F880404FF6FF73EB825A
:1004CC00164A2146012002F081F9062000F099FC21
:1004DC0001F0EAFD124B224605F18101204601F0A4
:1004EC0099F9104B224605F18201204601F092F950
:1004FC006C762C760C4B80221A800C4BA0221A8026
:10050C000120FFF75FFF11B030BD01F003FBCCE71A
:10051C00D492000815100008B80100200D02000844
:10052C00FF010008FD010008B6010020B401002005
:10053C0030B583B0044643783E2B1CD0FF2B44D0FF
:10054C00052B0FD18288264BDB8A9A420DD00120D5
:10055C00FFF738FF234801230370214BDB8A4380CC
:10056C0001F0A1FD012003B030BD1D4B0022DA8249
:10057C0083F88020EBE7C378012B0AD00C2BF1D148
:10058C000DF106020DF10701154BD88A00F080FC25
:10059C00E8E7134D95F8810001F074F995F8803077
:1005AC00042B0ED00E4B052283F88020B4F80530B6
:1005BC000B4AD3820B4800220270438001F073FD7A
:1005CC00D0E7062285F88020F0E7B0F8032040F64B
:1005DC000E439A42C6D1024BD88A00F091FBC1E778
:1005EC00B8010020B001002008B50021022001F064
:1005FC00DFFF08BD08B5012002F008F808BD08B5FA
:10060C00012002F0B7F808BD10B588B00DF1040C4C
:10061C00094C0FCCACE80F0094E80700ACE80300E1
:10062C002CF8022B120C8CF8002007F085FB01A88B
:10063C0001F059FE08B010BD10930008054BCA22FA
:10064C005A6253225A629A6822F007029A60FF2279
:10065C005A627047002800407047000008B500201F
:10066C0001F00CFD68B181794FF0B042054BC2F836
:10067C009C30D2F89C3023F47C5343EA0123C2F81B
:10068C009C3008BDFECAFECA08B54FF0B042936854
:10069C0043F40043936001F06BFF054AD2F88030BD
:1006AC0023F0070343F00403C2F8803008BD00BFF9
:1006BC000004005800B589B007F07EFA0E4A0021FC
:1006CC00042002F083F80D4B00930D4B0193694607
:1006DC000C4801F0B7FE0C4B02930C4B03930C4BE4
:1006EC00049340F23C53059302A807F0F3FA07F089
:1006FC005FFA09B05DF804FB7524000810040320B0
:10070C006506000881070008F80103200403032094
:10071C001C05032000B585B00023009301930293C0
:10072C00039343685B7B23B1012B1ED005B05DF8AE
:10073C0004FBFFF769FF0F238DF800307F238DF842
:10074C0002300B4A13681B0CADF80C301368C3F362
:10075C000B03ADF80E30684601F0D4FDFFF782FEB6
:10076C000021012001F00EFFE0E700230370DDE71C
:10077C00002004E04368B3F80B30B3F5124F00D0FF
:10078C00704710B584B00446684601F0C9FD204698
:10079C00FFF7C0FF04B010BD08B5034B4FF4004287
:1007AC001A61FFF75BFF08BD00400058034AD2F8FE
:1007BC00903043F05003C2F8903070470008005856
:1007CC0008B5FFF7F3FFFFF739FF08BD08B5FFF7D2
:1007DC00F7FFFFF759FF0349002000F073FFFFF705
:1007EC0069FF08BD8C04002008B54FF0FF3001F004
:1007FC0025FF08BD704708B50021042001F0D8FE84
:10080C0008BD08B5022001F001FF08BD08B50220A3
:10081C0001F0B0FF08BD10B588B000248DF807407A
:10082C001822214602A801F025FC3F23ADF8083020
:10083C008123ADF80A300DF10703069301230793CA
:10084C00214602A800F020FCA04203DB9DF8070023
:10085C0008B010BDFF20FBE72DE9F04FCBB09C4654
:10086C009DF854619DF85C5106F1080A04AC04EB48
:10087C000A0B77190937E31901930DF10F094FF0A2
:10088C0000088DF80F808DF81000ADF81110ADF840
:10089C0013208DF815C09DF850318DF816308DF859
:1008AC0017603246569906A801F0E0FB04F80A508E
:1008BC0009362A4658990BF1010001F0D7FB354453
:1008CC00BDF86431E353BDF86831019A53800435A7
:1008DC001822414644A801F0CDFB3F23ADF810315E
:1008EC008323ADF8123146944795CDF8209101231E
:1008FC004993414644A800F0C7FB404504DB9DF8F2
:10090C000F004BB0BDE8F08FFF20FAE770B5C8B010
:10091C000DF1070500248DF8074002AE8DF8080094
:10092C001822214642A801F0A5FB3F23ADF808315F
:10093C008523ADF80A314496012345934695479398
:10094C00214642A800F0A0FBA04203DB9DF8070063
:10095C0048B070BDFF20FBE770B5C8B00DF10706BD
:10096C0000258DF8075002AC8DF808008DF80910A1
:10097C008DF80A208DF80B309DF830318DF80C3045
:10098C009DF834318DF80D309DF838318DF80E30DE
:10099C004F9BCDF80F309DF840318DF81330182255
:1009AC00294642A801F066FB3F23ADF808318623A7
:1009BC00ADF80A3144940C23459346960123479392
:1009CC00294642A800F060FBA84203DB9DF8070013
:1009DC0048B070BDFF20FBE72DE9F041C8B00746D9
:1009EC000E461546984607220021684601F042FB48
:1009FC0002AC8DF808708DF809608DF80A50182239
:100A0C00002142A801F036FB3F23ADF808318A23C0
:100A1C00ADF80A31449403234593CDF818D107233C
:100A2C004793002142A800F02FFB002811DB9DF812
:100A3C00000058B9BDF80130A8F80030BDF803200B
:100A4C004E9B1A80BDF805204F9B1A8048B0BDE81C
:100A5C00F081FF20FAE7F0B5C9B004460DF10706A6
:100A6C0000258DF8075002AF8DF8080002460DF1F5
:100A7C00090001F0FBFA01341822294642A801F0C2
:100A8C00F9FA3F23ADF808318E23ADF80A314497BB
:100A9C004594469601234793294642A800F0F4FA60
:100AAC00A84203DB9DF8070049B0F0BDFF20FBE72F
:100ABC0010B588B000248DF807401822214602A8F2
:100ACC0001F0D8FA3F23ADF808309223ADF80A3084
:100ADC000DF10703069301230793214602A800F0AA
:100AEC00D3FAA04203DB9DF8070008B010BDFF202D
:100AFC00FBE710B588B000248DF80740182221467A
:100B0C0002A801F0B7FA3F23ADF8083040F2011308
:100B1C00ADF80A300DF10703069301230793214624
:100B2C0002A800F0B1FAA04203DB9DF8070008B060
:100B3C0010BDFF20FBE72DE9F041C8B00446884604
:100B4C0017461E46012813D002280FD0012502ABF0
:100B5C001D440322002101A801F08CFA8DF80840F5
:100B6C00012C07D0022C32D1102404E01125EEE721
:100B7C000325ECE70224224641460DF1090001F061
:100B8C0075FA2F706E7003341822002142A801F000
:100B9C0071FA3F23ADF808314FF48173ADF80A3187
:100BAC0002AB4493459401AB469303234793002136
:100BBC0042A800F069FA00280BDB9DF8040018B974
:100BCC00BDF805204E9B1A8048B0BDE8F0819720F7
:100BDC00FAE7FF20F8E72DE9F041C8B006460C46CD
:100BEC0090461F46012915D0022911D0032502ABCE
:100BFC001D440322002101A801F03CFAADF8086065
:100C0C008DF80A40012C07D0022C40D1102404E0AE
:100C1C001325ECE70525EAE70224224641460DF1AF
:100C2C000B0001F023FA2F809DF83831AB709DF842
:100C3C003C31EB709DF840312B719DF844316B7158
:100C4C009DF84831AB710A341822002142A801F0FA
:100C5C0011FA3F23ADF808314FF48273ADF80A3125
:100C6C0002AB4493459401AB469303234793002175
:100C7C0042A800F009FA00280BDB9DF8040018B913
:100C8C00BDF80520539B1A8048B0BDE8F081972031
:100C9C00FAE7FF20F8E7F0B5C9B01C460DF10707DD
:100CAC0000268DF8076002ADADF80800ADF80A100B
:100CBC008DF80C208DF80D301A464E990DF10E0062
:100CCC0001F0D4F906341822314642A801F0D2F9C9
:100CDC003F23ADF808314FF48373ADF80A314495D6
:100CEC004594469701234793314642A800F0CCF92E
:100CFC00B04203DB9DF8070049B0F0BDFF20FBE7D5
:100D0C0070B5C8B00DF1070500248DF8074002AE90
:100D1C00ADF808001822214642A801F0ABF93F2398
:100D2C00ADF8083140F22513ADF80A314496022390
:100D3C004593469501234793214642A800F0A4F918
:100D4C00A04203DB9DF8070048B070BDFF20FBE715
:100D5C00F0B5C9B00C4611460DF1070700258DF80A
:100D6C00075002AE8DF808008DF8094022460DF1AF
:100D7C000A0001F07BF902341822294642A801F03E
:100D8C0079F93F23ADF808310C23ADF80A314496BC
:100D9C004594469701234793294642A800F074F9DD
:100DAC00A84203DB9DF8070049B0F0BDFF20FBE72C
:100DBC0070B5C8B00DF1070600248DF8074002ADE0
:100DCC008DF808008DF809101822214642A801F070
:100DDC0051F93F23ADF808310F23ADF80A31449592
:100DEC0002234593469601234793214642A800F0DF
:100DFC004BF9A04203DB9DF8070048B070BDFF2003
:100E0C00FBE770B5C8B00DF1070500248DF807405D
:100E1C0002AEADF808001822214642A801F02AF9CA
:100E2C003F23ADF808311823ADF80A31449602235C
:100E3C004593469501234793214642A800F024F997
:100E4C00A04203DB9DF8070048B070BDFF20FBE714
:100E5C0010B588B000248DF807401822214602A84E
:100E6C0001F008F90323ADF80830ADF80A300DF1A4
:100E7C000703069301230793214602A800F004F907
:100E8C00A04203DB9DF8070008B010BDFF20FBE774
:100E9C00F0B5C9B004460E46154605220021684639
:100EAC0001F0E8F802AFADF808401822002142A882
:100EBC0001F0E0F80823ADF808313023ADF80A3121
:100ECC00449702234593CDF818D10523479300216D
:100EDC0042A800F0D9F800280ADB9DF8000028B9D8
:100EEC009DF8033033709DF804302B7049B0F0BD81
:100EFC00FF20FBE770B5C8B00DF1070600258DF893
:100F0C00075002AC8DF808008DF809108DF80A20F6
:100F1C001822294642A801F0ADF80823ADF8083193
:100F2C003123ADF80A3144940323459346960123AB
:100F3C004793294642A800F0A7F8A84203DB9DF886
:100F4C00070048B070BDFF20FBE7000008B520B9D2
:100F5C00054B1B6803B1984708BD034B1B68002B5E
:100F6C00FAD001209847F7E74402002010B584B06E
:100F7C0004460A4806F018FD094B1C60094806F0A7
:100F8C0013FD094B01221A70084B1B6823B1029404
:100F9C00074A00926846984704B010BD48020020EA
:100FAC004401002048010020400100205002002094
:100FBC004111000810B50B461146084A1468A4F8F4
:100FCC000900E3721A4604F10C0008F005F8044B12
:100FDC001B6900210846984710BD00BF4401002042
:100FEC005002002010B50C464A68054B1A60054BA0
:100FFC00D861184600F0B8F82068FFF7B7FF10BDAD
:10100C00440200205002002000B585B01B4806F0B9
:10101C00CEFC10B91A4B1B784BB9184806F0C7FC1C
:10102C0010B9174B1B7823BB05B05DF804FB03A963
:10103C00124806F0ECFC134BDB698BB1039A02925D
:10104C0001228DF8042001A898479DF804200C4B30
:10105C001A700B4B1B783BB1039806F05FFEDCE774
:10106C00074B01221A70F4E70399044806F0ABFC15
:10107C00D3E70248FFF7B8FAD6E700BF48010020D3
:10108C004001002050020020F0B583B0074600203C
:10109C00FFF75CFF7D883B88C5F3090545EA83258E
:1010AC00ADB2224B01221A70BA68397B2846FFF781
:1010BC0081FF0026002E33D148F2E800FFF79FFA9B
:1010CC0005E0B4F80D30AB4216D0237B33BB184887
:1010DC0006F06DFC0028EDD101A9154806F097FC2F
:1010EC00019C637A0F2BECD0A389AB4208D0E37A36
:1010FC00002BECD00126EAE73B69E27A1A70E4E7B0
:10110C00A27A033AD2B27B699A42A8BF1A467A6194
:10111C0004F10E01386907F05FFFE8E70126D6E716
:10112C000120FFF713FF002003B0F0BD42020020A6
:10113C004802002010B50146437A0E3BDBB2012B6E
:10114C0007D9074C204606F04AFC2046FFF74CFA1C
:10115C0010BD044806F043FC0020FFF74BFAF7E7FC
:10116C004801002048020020024B0360024B03613F
:10117C00704700BF257C00086D7C000882B04FF0E2
:10118C00B043D3F8502142F48012C3F85021D3F865
:10119C00503103F480130193019B0A4B1A6A42F4F9
:1011AC0000721A62D3F8D42042F40072C3F8D4202F
:1011BC0040BF20BF044AD36843F40043D36002B05D
:1011CC00704700BF000800580004005800B583B0F9
:1011DC004FF0B0431A6D42F480121A651B6D03F484
:1011EC0080130193019B094B1A6842F001021A60AB
:1011FC001A6842F480321A602C2001F0F3FE2D2084
:10120C0001F0F0FE03B05DF804FB00BF000C0058C9
:10121C00EFF3108172B6044A536823F00103536054
:10122C0081F31088704700BF000C0058024B4FF43C
:10123C0080329A60704700BF000C0058EFF31081A9
:10124C0072B6044A536823F00203536081F310888A
:10125C00704700BF000C0058064B4FF400329A60E8
:10126C00EFF3108172B65A6822F400325A6081F39F
:10127C0010887047000C005808B50C4BDB6813F055
:10128C00080F05D18047094B4FF400229A6008BD26
:10129C00074B1860EFF3108172B6044A536823F4BD
:1012AC000023536081F31088F1E700BF000C005855
:1012BC0070020020EFF3108172B6044A536823F0D9
:1012CC000803536081F31088704700BF000C00586E
:1012DC00064A936A9BB2906A80B203E0034B9A6A07
:1012EC00034690B28342F9D1704700BF00280040FA
:1012FC0001EB41020D4B03EBC2035B7DDBB2062B12
:10130C0005D003EB430C094A02EBCC021075074ADB
:10131C0000EB400C02EBCC0C8CF815308CF8141054
:10132C0001EB410102EBC1025075704784020020B1
:10133C00174B1B78DBB28B421DD0164B01EB4102D5
:10134C0003EBC202127D5FFA82FC02EB420203EB5A
:10135C00C202507500EB400203EBC202517500EB68
:10136C00400203EBC20282F814C001EB410103EB13
:10137C00C10318757047074B00EB400203EBC20228
:10138C00517501EB410103EBC1031875704700BFA8
:10139C00810200208402002010B4234B1B78DBB2A6
:1013AC0083422CD0214C00EB400204EBC20292F899
:1013BC0014C0537DDBB2527DD2B20CEB4C0C04EB5F
:1013CC00CC046275062B0BD0184A00EB400402EBE0
:1013DC00C404247DE4B203EB430302EBC302147593
:1013EC0000EB4000114B03EBC00301221A730E4BB0
:1013FC001B78DBB2062B10D05DF8044B70470A4CFF
:10140C002378DBB20A4A137000EB4002074B03EB64
:10141C00C2035B7DDBB22370E2E70029ECD1054B04
:10142C004FF0FF321A60E7E78102002084020020AF
:10143C00800200207C02002008B5104B1B68B3F121
:10144C00FF3F02D1002080B208BDFFF741FF0B4BDC
:10145C001B6883420AD3094B1B681B1A084A107875
:10146C0003FB00F0074B1B78D840ECE7064B1A88BF
:10147C00121A024B1B681344F0E700BF7C020020D9
:10148C0078020020790200207602002070B5044614
:10149C00314B1B78DBB2062B13D12F4A1378DBB2FE
:1014AC002E490B70107000EB40042D4B03EBC40461
:1014BC00062363752B4B4FF0FF321A60002528462C
:1014CC0070BDFFF7B9FF0546254B04EB440203EB57
:1014DC00C20291680144916004EB440203EBC20226
:1014EC0090681D4A127802EB420203EBC2039B6820
:1014FC00834225D8184B1B78D9B203EB4303184A07
:10150C0002EBC3035B7DDBB20CE0154A01EB41013E
:10151C0002EBC1014B7DD9B203EB430302EBC302D7
:10152C00537DDBB2062B07D003EB43030C4A02EBD3
:10153C00C3039B688342E8D92046FFF7D9FEBEE778
:10154C00054E31782046FFF7F3FE3378DBB2034AC1
:10155C0013703470B3E700BF8102002080020020BA
:10156C00840200207C02002010B548B304460128F8
:10157C002ED9013CA4B2194B1B68DA6812F0040F87
:10158C00F9D0DA68D2B262F49062DA60144B4FF49C
:10159C000022DA60032001F04FFD124A53696FF309
:1015AC000F031C435461FFF793FE0F4B18600B4B5A
:1015BC001A68936843F480639360AFF3008010BDA6
:1015CC00FFF786FE084B1860032001F027FDF6E7B5
:1015DC00064B1B78012BCCD1CDE700BF8C0400202F
:1015EC0000080058002800407C02002079020020EE
:1015FC0038B52E4B9B6813F4806F05D02C4B1B68B1
:10160C00DB6813F0040FF9D1294B1A68936823F4A3
:10161C0080639360274B1B78DCB203EB4303264AB1
:10162C0002EBC3039D68FFF707FF8446A84204D969
:10163C00224B01221A70002024E0214B1B8810FA47
:10164C0083F3AB4206D21E4B188880B21B4B002290
:10165C001A7017E0A8B2A0EB0C0080B2174B012255
:10166C001A700FE004EB4404134A02EBC404A268A2
:10167C00A2EB0C02A26003EB43030F4A02EBC30381
:10168C005C7DE4B2062C0ED0234604EB44010A4ADE
:10169C0002EBC10292689445E4D9074A02EBC104FB
:1016AC000022A260E7E7FFF75FFF38BD002800408B
:1016BC008C04002081020020840200207A02002089
:1016CC007402002010B5484B1B68CA225A62532280
:1016DC005A62464B9A6842F020029A609A6802F06D
:1016EC000702C2F10402D2B241490A701B6903F429
:1016FC00FE034FF4FE0191FAA1F1002931D0B1FAA9
:10170C0081F1CB40DBB20133DBB23A490B70374984
:10171C000969C1F30E010131374C2180013901FBFC
:10172C0003F3A3F5A073D3404FF6FE7293421AD97C
:10173C00324B4FF6FF721A80314B1A6842F400227A
:10174C001A60D3F8802042F40022C3F880200028CD
:10175C003FD12C4B01221A702B4B4FF0FF321A60E9
:10176C000EE02021CDE79BB2244A1380E4E700EB86
:10177C004002264B03EBC20300221A730130C0B2A5
:10178C000528F4D9224B06221A70174C226893684C
:10179C0023F480639360D368DBB263F49063D3600B
:1017AC00174B4FF40022DA60032001F045FC22684D
:1017BC00936843F4804393600B4B1B68FF225A627F
:1017CC0000220321084601F0FDFB032001F00AFC76
:1017DC0010BD054B1B68DB6813F4806FECD0032045
:1017EC0001F01CFCE8E700BF8C040020002800403E
:1017FC00790200207802002076020020740200207A
:10180C00000800587A0200207C020020840200208C
:10181C0081020020F0B5EFF3108572B64FF0000C8A
:10182C00BCF1050F0CD80CEB4C0E154C04EBCE0E8A
:10183C009EF80C4024B10CF1010C5FFA8CFCEFE724
:10184C00BCF1060F17D00E4E4FEA4C040CEB4C0EAD
:10185C0006EBCE0E01278EF80C7085F31088CEF8AF
:10186C0010008EF80D2004EB0C02D200B35081F85E
:10187C0000C00020F0BD85F310880120FAE700BFFE
:10188C008402002038B50446EFF3108572B60320AD
:10189C0001F0ACFB254B1B68CA225A6253225A62D8
:1018AC0004EB4402224B03EBC2031B7BDBB2022B87
:1018BC0009D01E4B1B68FF225A62032001F092FBD9
:1018CC0085F3108838BD00212046FFF765FD194BC4
:1018DC001B78DBB2062B07D0174A1278D2B29A4289
:1018EC00E7D0FFF785FEE4E7144B9B6813F4806F99
:1018FC0005D00E4B1B68DB6813F0040FF9D10B4BB2
:10190C001A68936823F480639360D36813F0040F10
:10191C00FBD0D368DBB263F49063D360084B4FF415
:10192C000022DA60032001F087FBC2E78C04002060
:10193C008402002081020020800200200028004048
:10194C000008005870B504460D4600EB4002214BD0
:10195C0003EBC2031B7BDBB2022B35D0EFF31086FB
:10196C0072B6032001F042FB1B4B1B68CA225A6261
:10197C0053225A6204EB4402164B03EBC2030222BD
:10198C001A739D605D602046FFF780FD134B1B783A
:10199C00DBB2134A1278D2B29A4218D10D4B04EB37
:1019AC00440203EBC2029268121A04EB440403EBE8
:1019BC00C4039A60084B1B68FF225A62032001F093
:1019CC0011FB86F3108870BDFFF75CFFC6E7FFF7CD
:1019DC000FFEEFE7840200208C040020810200201F
:1019EC00800200202DE9F0418AB000240594069471
:1019FC000794089409944FF0B043DA6C42F0040257
:101A0C00DA64DA6C02F004020492049ADA6C42F0A2
:101A1C008002DA64DA6C02F080020392039ADA6CC8
:101A2C0042F00202DA64DA6C02F002020292029ACA
:101A3C00DA6C42F00102DA64DA6C02F00102019213
:101A4C00019ADA6C42F00802DA64DB6C03F00803EA
:101A5C000093009B22464FF440414FF0904001F020
:101A6C00D3FB284E22464FF4A051304601F0CCFB5C
:101A7C00DFF89C8022460321404601F0C5FB224F33
:101A8C0022463821384601F0BFFB4FF40053059332
:101A9C000694079405A9304601F0DCFA0823059357
:101AAC000694079405A9194801F0D4FA4FF4404361
:101ABC000593012506950794089405A94FF09040CD
:101ACC0001F0C8FA4FF4A0530593069507940894B7
:101ADC0005A9304601F0BEFA032305930695079439
:101AEC00089405A9404601F0B5FA382305930695EC
:101AFC000794089405A9384601F0ACFA0AB0BDE881
:101B0C00F08100BF0008004800040048001C004899
:101B1C00000C004872B6FEE708B50448044B03609D
:101B2C0001F062FC00B908BDFFF7F4FFB00400201F
:101B3C00000C005800B587B000230093019302936A
:101B4C000393049305931848184A0260436083601A
:101B5C00C360036104224261037643760122C261B1
:101B6C0080F820308362C36280F83030436380F8A1
:101B7C00383000F0BFFE90B90D4B00930623019353
:101B8C00002302937F220392042204920593694658
:101B9C00054800F09BFF20B907B05DF804FBFFF788
:101BAC00B9FFFFF7B7FF00BF40050020000004504D
:101BBC000800900C08B51148114B0360114B4360A1
:101BCC00002383600122C260036143618361C361AE
:101BDC00036201F02DFB50B90021084801F08CFB89
:101BEC0038B90021054801F0B5FB20B908BDFFF755
:101BFC0091FFFFF78FFFFFF78DFF00BFEC04002074
:101C0C0000540040B57DB11010B59CB00024189460
:101C1C0019941A941B941594169417940E940F946B
:101C2C00109411941294139414943422214601A804
:101C3C0007F0A5F93748384B0360446084604FF6D1
:101C4C00FF73C36004614461846104F061F900288E
:101C5C004FD14FF48053189318A92E4804F038FB39
:101C6C00002848D12B4804F0B3F9002845D1294865
:101C7C0004F07EF9002842D1002315931693179394
:101C8C0015A9244804F0A4FB00283AD160230E9334
:101C9C0000220F92109211921292139214920EA98A
:101CAC001C4804F06AFA00282DD100230E93082258
:101CBC000EA9184804F024FA38BB002301930293B0
:101CCC000393049305934FF40052069207930893E1
:101CDC0009934FF000720A920B930C930D9301A988
:101CEC000C4804F0A9FB90B90A4801F0BDFC1CB0EB
:101CFC0010BDFFF70FFFFFF70DFFFFF70BFFFFF70F
:101D0C0009FFFFF707FFFFF705FFFFF703FFFFF7DB
:101D1C0001FF00BF40040020002C014010B594B01E
:101D2C0000240D940E940F94109411941294139407
:101D3C0034222146684607F022F92248224B0360E0
:101D4C00446084604FF6FF73C36004614461846136
:101D5C0004F0DEF800282BD11A4804F039F948BBFE
:101D6C000821184804F064F930BB60230D9300225D
:101D7C000E920F9210921192129213920DA9114879
:101D8C0004F0FBF9D0B90023009301930293039361
:101D9C0004934FF40052059206930C93694609483C
:101DAC0004F04AFB60B9074801F05EFC14B010BDAA
:101DBC00FFF7B0FEFFF7AEFEFFF7ACFEFFF7AAFE93
:101DCC00FFF7A8FEA80300200044014008B5154801
:101DDC00154B03604FF4E133436000238360C36011
:101DEC0003610C2242618361C361036243628362BB
:101DFC0004F0E3FD70B900210A4804F056FE58B90E
:101E0C000021084804F076FE40B9064804F02EFE86
:101E1C0030B908BDFFF77EFEFFF77CFEFFF77AFEB8
:101E2C00FFF778FE140300200038014000B58BB09A
:101E3C000023079308930993009301930293039350
:101E4C000493059306931E484FF080420260436052
:101E5C0083604FF0FF32C2600361836104F0B8F815
:101E6C0020BB00230793099307A9154804F0B0FA87
:101E7C00F0B9602300930022019202920492694609
:101E8C000F4804F07AF9A8B9042269460C4804F00A
:101E9C0074F988B908226946094804F06EF968B9E2
:101EAC00074801F0E1FB0BB05DF804FBFFF732FED5
:101EBC00FFF730FEFFF72EFEFFF72CFEFFF72AFE92
:101ECC00F403002008B50E480E4B0360002343605A
:101EDC000F22826047F6FF72C26003618361C361A7
:101EEC00436103F021FD30B900221146044803F090
:101EFC0070FD10B908BDFFF70DFEFFF70BFE00BF1C
:101F0C008C0400200028004010B59AB04822002113
:101F1C0008A807F034F80024019402940394049464
:101F2C0005940694079402F055FC4FF0B042D2F899
:101F3C00903023F0180343F01003C2F8903002F5F0
:101F4C008062136823F4C06343F400731360136856
:101F5C0003F4C0630093009B2F2308934FF480334A
:101F6C00099301230A934FF480720B920F93402232
:101F7C000C9210946022119205220D92022213925F
:101F8C0014931594202316934FF4003317934FF0AA
:101F9C00005319934FF00073189308A802F028FD12
:101FAC0090B96F23019303210291002303930493AF
:101FBC00059380220692079301A803F0A5F828B98F
:101FCC0003F056FC1AB010BDFFF7A4FDFFF7A2FDFD
:101FDC0000B595B050220021684606F0D0FF4FF4B2
:101FEC0054530093182301934FF4003302934FF092
:101FFC00007303934FF0005304934FF088530593F1
:10200C004FF080630D934FF080530F934FF4404388
:10201C00119310231393684603F0B1FA10B915B05D
:10202C005DF804FBFFF776FD08B500F007FCFEF742
:10203C00B3FBFFF769FFFFF7CBFFFFF76DFDFFF772
:10204C00D1FCFFF777FDFFF7B5FDFFF7DDFDFFF7DF
:10205C0065FEFFF7BBFE05F07FFEFFF7E7FEFFF71F
:10206C0031FFFEF7B3FBFEF7BFFBFCE708B506F04C
:10207C00B3FF08BD08B506F082FF08BD014607484E
:10208C00C3798B4204D0064A904201D00838F7E756
:10209C008B4200D170470020FCE700BFF873FF1F94
:1020AC000070FF1F70477047704700004378FF2B8C
:1020BC0001D000207047B0F8032040F601439A424B
:1020CC0001D00020704710B584B0B0F80720174B32
:1020DC009B8802339A4207D0144B5B8801339A4297
:1020EC0016D0002004B010BD437B13F0010F07D0B5
:1020FC0000238DF800306846FFF7D4FF0120F1E78C
:10210C0001248DF800406846FFF7CCFF2046E9E734
:10211C0003238DF80030B0F80B308DF808300D30FB
:10212C0001906846FFF7BEFF0020DBE7540100205A
:10213C002DE9F04F8BB0624805F0BAFC8F238DF877
:10214C001830E5238DF81930B3238DF81A30D523C8
:10215C008DF81B302E238DF81C307F238DF81D300D
:10216C004A238DF81E3098238DF81F302A238DF8C2
:10217C00203048238DF821307A238DF82230CC235F
:10218C008DF8233040238DF82430FE278DF82570F0
:10219C0000248DF826408DF827404A4B00930623E7
:1021AC00012206A90220FEF7C6FC4FF0190B8DF890
:1021BC0018B0ED268DF819604FF0820A8DF81AA030
:1021CC006FF051038DF81B308DF81C604FF021021D
:1021DC008DF81D204FF04C018DF81E106FF0620031
:1021EC008DF81F004FF041088DF820804FF0450509
:1021FC008DF821504FF0220C8DF822C04FF08E0933
:10220C008DF823908DF824808DF825708DF826405C
:10221C008DF827402B4B33F8020B059301250495C1
:10222C004FF00A0ECDF80CE00295019406230093B2
:10223C0002230DF1180E72461946FEF7CCFC8DF8F0
:10224C0018B08DF819608DF81AA06FF051038DF845
:10225C001B308DF81C604FF021028DF81D204FF0C3
:10226C004C018DF81E106FF062008DF81F008DF878
:10227C0020804FF045038DF821304FF0220C8DF863
:10228C0022C08DF8239042238DF824308DF82570D0
:10229C008DF826408DF827400A4B33F8040B059334
:1022AC0004950A23039302950194102300930223AF
:1022BC0006AA1946FEF78FFC0BB0BDE8F08F00BFE5
:1022CC00B92000085401002000B585B06B4600F120
:1022DC000C022E214FF6664000F006F99DF80E0018
:1022EC0005B05DF804FB00B585B06B4600F10C023F
:1022FC000F214FF6684000F0F7F89DF80E0005B07E
:10230C005DF804FB00B585B002466B4610214FF614
:10231C00754000F0E9F89DF80E0005B05DF804FB7F
:10232C0030B4214BDB6BC3F30D039B0003F1005363
:10233C0003F540331A6811681C4B99422DD0136970
:10234C0054699569516892684FEA136C80F800C023
:10235C004FEA134C80F801C04FEA132C80F802C0EE
:10236C00C3F3031C80F803C003F00F030371230EA7
:10237C004371230C8371230AC371047245720B0ED3
:10238C0083720B0CC372090A0173130E4373130C83
:10239C008373C273002030BC704753699469D5694C
:1023AC00D1681269D0E700BF00400058B95646A961
:1023BC0008B538B9084B1B6803B19847074B002286
:1023CC001A7008BD054B01221A70034B1B68002BB9
:1023DC00F7D010469847F4E7A805002088010020A4
:1023EC0010B584B004460B4B18600B4805F0DCFAB2
:1023FC000120FFF7DDFF094B01221A70084B1B6807
:10240C0033B10394074A0192074A029201A89847F4
:10241C0004B010BD840100208C010020800100203C
:10242C00AC0500205D2500083924000810B50146D4
:10243C00034C204605F0D3FA2046FEF7DCF910BD1C
:10244C008C01002010B50C464A68054B1A60054BF0
:10245C00D861184600F082F82068FFF7C1FF10BD64
:10246C00A8050020AC05002000B585B01B4805F080
:10247C009EFA10B91A4B1B784BB9184805F097FA0D
:10248C0010B9174B1B7823BB05B05DF804FB03A9EF
:10249C00124805F0BCFA134BDB698BB1039A02921C
:1024AC0001228DF8042001A898479DF804200C4BBC
:1024BC001A700B4B1B783BB1039805F02FFCDCE733
:1024CC00074B01221A70F4E70399044805F07BFAD4
:1024DC00D3E70248FEF78FF9D6E700BF8C01002046
:1024EC0080010020AC0500202DE9F04107460C4688
:1024FC0016461D460020FFF75BFFDFF85080D8F82A
:10250C000000A0F80970C472224631460C3006F067
:10251C0063FD01240B4B1C700B4B1B6900210846FF
:10252C00984748F2E800FEF771F9D8F800108A785D
:10253C00033205F1080006F04FFD2046FFF738FF87
:10254C00BDE8F081A4050020AC050020840100202A
:10255C0008B50020FEF755F908BD0000024B0360DA
:10256C00024B0361704700BF897C0008C57C0008E2
:10257C000023024A1360024A13607047D005002002
:10258C00CC050020EFF3108372B641B1012903D1C1
:10259C0006490A6802430A6083F3108870470349AE
:1025AC000A6822EA00020A60F6E700BFCC050020A8
:1025BC00EFF3108C72B6064A136803431360054A96
:1025CC0052F83130034342F831308CF310887047A5
:1025DC0068060020D4050020EFF3108172B6044A7F
:1025EC00136823EA0000106081F31088704700BF65
:1025FC001C000020EFF3108172B6034A13681843D5
:10260C00106081F3108870471C000020EFF31081DC
:10261C0072B6034A13681843106081F31088704730
:10262C00640600207047704728B1B0FA80F0C0F102
:10263C001F00C0B270472020F9E7000070B5424B74
:10264C001C6820401860414B1A68414B1B6841497B
:10265C000868414909682FE0013334E03F4D05EB30
:10266C00C30568681040FFF7DFFF3D4E30606A68B5
:10267C00012303FA00F022EA00026A60EFF31081F2
:10268C0072B6326803FA02F2D643304D286820EA5B
:10269C0002022A60002B2DD181F31088304B1A686E
:1026AC00304B53F822309847284B1A68284B1B683C
:1026BC0028490868284909680240234D2D682A4298
:1026CC0020D00B401ED1254A52F8332002402A421A
:1026DC00C2D0224951F8332002402A4001EBC301F9
:1026EC0049681142BAD11D4901EBC3014FF0FF30CB
:1026FC004860B3E7013B194850F83320324040F8AA
:10270C003320C7E7164B4FF0FF321A60FFF78AFFF2
:10271C00EFF3108572B60D4B1B680D4A11680D4A0C
:10272C0012681340084A1268134203D10A4B1B6803
:10273C000B4206D085F31088FFF775FF024B1C6027
:10274C0070BDFEF757F8F5E718000020680600206A
:10275C00640600201C00002060060020D405002028
:10276C005C060020DC05002008B5C043FFF766FFBF
:10277C0008BD0000F8B50446114B1E68B6F1FF3FCA
:10278C0005D00125B5400F4B1F681C6005E00025E6
:10279C00F9E721462846FFF7E7FF0B4B1B6823425E
:1027AC00F7D0074B1E60EFF3108172B6064A136820
:1027BC0023EA0403136081F31088024B1F60F8BDF9
:1027CC005C060020600600206406002038B5144624
:1027DC00EFF3108572B6FFF727FF034B43F8204049
:1027EC0085F3108838BD00BFDC050020114B1B7829
:1027FC000BB90120704710B5044602F0E9F80D4BF7
:10280C001A784FF47A73B3FBF2F3B0FBF3F000F0E9
:10281C00F1FB68B90F2C01D901200AE000222146F6
:10282C004FF0FF3000F0CEFB034B1C60002000E0AB
:10283C00012010BD200000202400002010B5094A02
:10284C00136843F480731360032000F0A9FB0F207E
:10285C00FFF7CCFF10B10124204610BD044600F058
:10286C00E1FDF9E700400058034B1B78034A11685F
:10287C000B441360704700BF200000206C06002042
:10288C00014B1868704700BF6C060020014B18689C
:10289C00704700BF2400002010B430300B0A9B009E
:1028AC0003F00C03C45801F01F014FF01F0C0CFA7D
:1028BC0001FC24EA0C0CC2F384628A404CEA02024A
:1028CC00C2505DF8044B704710B414304B0E9B0093
:1028DC0003F00403C458C1F304514FF0070C0CFA75
:1028EC0001FC24EA0C0C8A404CEA0202C2505DF84E
:1028FC00044B704730B583B000230193002800F0DF
:10290C00D8800446436D13B323689A6812F0005FB5
:10291C0005D09A6822F0204222F03F029A60226889
:10292C00936813F0805F1FD1936823F0104323F05A
:10293C003F0343F0805393605F4B1B689B095F4AD6
:10294C00A2FB03239B0901335B00019309E000F018
:10295C0081FD0023A36584F85030D5E7019B013B32
:10296C000193019B002BF9D12268936813F0805FCF
:10297C0078D1636D43F010036365A36D43F00103DD
:10298C00A3650120936813F0040300D00123616D4B
:10299C0011F0100F40F08680002B40F08380636DA7
:1029AC0023F4817343F002036365936813F0010F02
:1029BC000BD1434B9B6813F0010F06D1636841495F
:1029CC008A6822F47C1213438B60627E636B43EA49
:1029DC004233E2681343A268134394F8202043EA7D
:1029EC000243012A40D0A26A22B102F47072E16A59
:1029FC000A4313432168CD68334A2A401A43CA60FC
:102A0C0021688B6813F0040300D001238A6812F04C
:102A1C00080200D00122B3B9AAB9237E94F8302061
:102A2C00520042EA8332CB6823F4804323F0020342
:102A3C001343CB6094F83830012B1AD022681369F9
:102A4C0023F0010313612369012B22D02268136B3D
:102A5C0023F00F031363636D23F0030343F00103AF
:102A6C00636524E000208DE7626A013A43EA424341
:102A7C00B9E721680B696FF38A03E26B256C2A4373
:102A8C00656C2A43A56C2A43134343F001030B6185
:102A9C00D9E721680B6B23F00F03E269013A13436A
:102AAC000B63D8E7636D43F010036365012003B03B
:102ABC0030BD0120FBE700BF28000020632D3E0540
:102ACC00000004500003045007C0F0FFF0B583B0C1
:102ADC000023019390F85030012B00F00282044641
:102AEC000D46012380F850300068836813F0040F02
:102AFC0009D0636D43F0200363650120002384F843
:102B0C00503003B0F0BD0A684968FFF7C5FE206875
:102B1C00836813F0040300D00123826812F00802CA
:102B2C0000D001220BB9002A3AD02268936813F026
:102B3C00010F40F0D0812B68E868D2F8B010C3F3D5
:102B4C00120621EA060100F0180CA74820FA0CF036
:102B5C000340C3F312030B43C2F8B030EA68A34B33
:102B6C009A4200F0A2802B68A14A134200F0B58172
:102B7C00A04A926802F0E0709F49896811F0010F39
:102B8C0040F055819D498B4200F057819C498B4206
:102B9C0000F07A819B498B4200F08A810020ADE7DE
:102BAC00AA682968FFF790FE69692268D368C3F3A5
:102BBC00C1035B009940286904280ED02E6860324E
:102BCC0052F82070904B3B4006F0F84631430B43D3
:102BDC0043F0004342F82030A7E7136E116EC1F3A7
:102BEC0084612B68C3F3120080BBC3F384639942E6
:102BFC0034D021684B6E4A6EC2F384622B68C3F3E7
:102C0C00120080BBC3F384639A4234D021688B6E6C
:102C1C008A6EC2F384622B68C3F3120080BBC3F3C9
:102C2C0084639A4234D02168CB6ECA6EC2F384623C
:102C3C002B68C3F3120080BBC3F384639A427FF406
:102C4C0074AFCB6E23F00043CB666EE793FAA3F31D
:102C5C0013B1B3FA83F3CAE72023C8E7136E23F04A
:102C6C0000431366C5E793FAA3F313B1B3FA83F3E6
:102C7C00CAE72023C8E74B6E23F000434B66C5E739
:102C8C0093FAA3F313B1B3FA83F3CAE72023C8E78B
:102C9C008B6E23F000438B66C5E793FAA3F313B155
:102CAC00B3FA83F3CAE72023C8E720682B68C3F381
:102CBC0012063EBB9A0E013202F01F02092A8CBF8B
:102CCC0000220122002A55D05EBB990E01318906E3
:102CDC0001F0F8418EBB4FEA936C0CF1010C0CF037
:102CEC001F0C012202FA0CF21143AEBB9B0E0133F6
:102CFC0003F01F0303EB43031B051943AA68FFF7FB
:102D0C00E3FD30E793FAA3F24AB1B2FA82F2013250
:102D1C0002F01F02092A8CBF00220122D2E72022D6
:102D2C00F5E793FAA3F131B1B1FA81F101318906DA
:102D3C0001F0F841CEE72021F8E793FAA3F24AB16B
:102D4C00B2FA82F2013202F01F024FF0010C0CFABF
:102D5C0002F2C9E72022F5E793FAA3F343B1B3FAE1
:102D6C0083F3013303F01F0303EB43031B05C4E799
:102D7C002023F6E7E6B9990E0131890601F0F841F6
:102D8C0016BB4FEA936C0CF1010C0CF01F0C0122DA
:102D9C0002FA0CF21143CEBB9B0E013303F01F035E
:102DAC0003EB43031E3B1B0543F000731943A5E7DC
:102DBC0093FAA3F131B1B1FA81F10131890601F035
:102DCC00F841DDE72021F8E793FAA3F24AB1B2FA11
:102DDC0082F2013202F01F024FF0010C0CFA02F2E7
:102DEC00D8E72022F5E700BFFFFF070000007F4077
:102DFC00000008800003045000000450000052C77B
:102E0C00000084CB0100008000F0FF0393FAA3F3D1
:102E1C005BB1B3FA83F3013303F01F0303EB4303FA
:102E2C001E3B1B0543F00073C0E72023F3E7636DE3
:102E3C0043F020036365012060E612F4000F7FF479
:102E4C00A5AE2268284B9A4201D0002056E640F4E9
:102E5C00000326498A6822F0E07213438B60244BEE
:102E6C001B689B09234AA2FB03239B09013303EB39
:102E7C0043039B00019302E0019B013B0193019BE7
:102E8C00002BF9D1002039E612F0807F7FF482AE5E
:102E9C002268154B9A4201D000202FE640F0807337
:102EAC0012498A6822F0E07213438B60002025E6F9
:102EBC0012F4800F13D122680B4B9A4201D00020E0
:102ECC001CE640F4800309498A6822F0E07213433F
:102EDC008B60002012E6002010E600200EE6002099
:102EEC000CE602200DE600BF000004500003045065
:102EFC0028000020632D3E05002807DB00F01F0290
:102F0C00400901239340024A42F82030704700BF29
:102F1C0000E100E000280CDB00F01F024009012357
:102F2C0093402030034A42F82030BFF34F8FBFF359
:102F3C006F8F704700E100E0002808DB0901C9B27F
:102F4C0000F1604000F5614080F80013704700F01C
:102F5C000F000901C9B2014B1954704714ED00E080
:102F6C0000B500F00700C0F1070CBCF1040F28BF3E
:102F7C004FF0040C031D062B0FD9C31E4FF0FF3E60
:102F8C000EFA0CF021EA000199400EFA03FE22EA37
:102F9C000E0241EA02005DF804FB0023EEE700009C
:102FAC00074AD36823F4E0631B041B0C000200F4F3
:102FBC00E060034343F0BF6343F40033D3607047D6
:102FCC0000ED00E010B50446054BD868C0F30220B4
:102FDC00FFF7C6FF01462046FFF7AEFF10BD00BF4E
:102FEC0000ED00E008B5FFF787FF08BD08B5FFF757
:102FFC0091FF08BD0138B0F1807F0BD24FF0E02378
:10300C005861054AF02182F82310002098610722AC
:10301C001A6170470120704700ED00E0002808DBC2
:10302C0000F01F024009012393404030014A42F84E
:10303C002030704700E100E0002808DB00F01F02A0
:10304C004009012393406030014A42F82030704718
:10305C0000E100E0F0B5002366E085685E00032423
:10306C00B44025EA0405CC68B4402C438460456820
:10307C0025EA0C054C68C4F300149C402C434460B6
:10308C0063E0DD08083550F8254003F0070C4FEAE3
:10309C008C0C4FF00F0E0EFA0CFE24EA0E0E0C697F
:1030AC0004FA0CF444EA0E0440F8254064E00424CD
:1030BC0000E0002404FA0EF42C430CF1020C4F4DEA
:1030CC0045F82C404E4C2568D44325EA02064F683F
:1030DC0017F4801F01D042EA0506494D2E606D6839
:1030EC0004EA05064F6817F4001F01D042EA0506F2
:1030FC00434D6E60D5F8805004EA05064F6817F40E
:10310C00803F01D042EA05063D4DC5F88060D5F8F8
:10311C0084502C404E6816F4003F01D042EA05045E
:10312C00374AC2F8844001330A6832FA03F464D097
:10313C004FF0010C0CFA03FC1CEA0202F3D04C68B1
:10314C0004F00304013C012C87D94C6804F00304FF
:10315C00032C0CD0C4685D004FF0030C0CFA05FC7A
:10316C0024EA0C0C8C68AC4044EA0C04C4604C6837
:10317C0004F00304022C84D004684FEA430E4FF091
:10318C00030C0CFA0EFC24EA0C0C4C6804F003043F
:10319C0004FA0EF444EA0C0404604C6814F4403F46
:1031AC00C1D04FEA930C0CF10205144C54F8255085
:1031BC0003F0030E4FEA8E0E0F2404FA0EF425EAE8
:1031CC000405B0F1904F3FF474AF0E4CA0420ED0FA
:1031DC0004F58064A0420CD004F58064A0420AD0AF
:1031EC0004F58064A0423FF462AF072462E7012437
:1031FC0060E702245EE703245CE7F0BD00000140B9
:10320C0000080058000400480AB1816170478162CF
:10321C007047704708B5054BD8681A6822EA000257
:10322C001A605860FFF7F5FF08BD00BF0015005885
:10323C0000285FD010B5044690F84130002B48D0E0
:10324C00242384F841302268136823F001031360AF
:10325C006368226823F0706313612268936823F417
:10326C0000439360E368012B38D0A368226843F4D1
:10327C0004439360E368022B36D02268536823F42E
:10328C00006353602268536843F0007343F40043B7
:10329C0053602268D36823F40043D36023696269C6
:1032AC001343A169226843EA0123D360E369216ACD
:1032BC0022680B4313602268136843F00103136008
:1032CC0000206064202384F84130206384F842009D
:1032DC0010BD80F8403000F0EDF8B1E7A36822682B
:1032EC0043F400439360C5E72268536843F40063DA
:1032FC005360C7E701207047034690F84120D2B2D3
:10330C00202A23D190F84020012A21D0012280F8D4
:10331C004020242280F841200068026822F001023B
:10332C0002601868026822F4805202601868026811
:10333C001143016019680A6842F001020A602022F8
:10334C0083F84120002083F840007047022070472A
:10335C0002207047034690F84120D2B2202A21D196
:10336C0090F84020012A1FD0012280F8402024220E
:10337C0080F841200068026822F00102026018689F
:10338C00026822F4706242EA0122026019680A683B
:10339C0042F001020A60202283F84120002083F8C9
:1033AC0040007047022070470220704770477047FA
:1033BC00002309E000EB8302054951609A1D00EBE4
:1033CC008202044951600133052BF3D9704700BFC9
:1033DC00B9330008BB330008002303604FF03F13E0
:1033EC0043603F2383607047C0B138B5044690F802
:1033FC00383083B10A4D2846FFF7EEFF2B6843F0B7
:10340C0001132B602046FFF7D3FF002060630123DC
:10341C0084F8383038BD00F093F8EBE701207047A2
:10342C00000C005800B583B04FF0B0431A6D42F455
:10343C0000221A651B6D03F400230193019B0022EB
:10344C0011462E20FFF7BEFD2E20FFF7CBFD03B05B
:10345C005DF804FB00B589B0002303930493059336
:10346C00069307930268114B9A4202D009B05DF89B
:10347C0004FB4FF0B043DA6C42F40052DA64DA6CBD
:10348C0002F400520292029ADA6C42F00402DA64FC
:10349C00DB6C03F004030193019B042303930323CC
:1034AC00049303A90248FFF7D5FDDFE700000450A1
:1034BC000008004810B59CB00446002117911891E3
:1034CC0019911A911B91502203A805F058FD2268FE
:1034DC00194B9A4201D01CB010BD042303934FF436
:1034EC0040330B9303A802F04AF810BB4FF0B044E2
:1034FC00E36C43F00203E364E36C03F00203029316
:10350C00029B4FF4407317931223189300231993C3
:10351C001A9304231B9317A90848FFF79BFDA36D6F
:10352C0043F40013A365A36D03F400130193019BF3
:10353C00D1E7FEF7EFFAD9E7005400400004004849
:10354C000268094B9A4200D0704782B04FF0B043EA
:10355C001A6D42F480121A651B6D03F480130193EB
:10356C00019B02B0704700BF000C005810B596B01C
:10357C0004465022002102A805F001FD2268134BDD
:10358C009A4201D016B010BD01F024F94FF400633B
:10359C0002934FF40073129302A801F0F0FF88B964
:1035AC004FF0B043D3F8902042F40042C3F890207F
:1035BC009A6D42F480629A659B6D03F4806301936B
:1035CC00019BDFE7FEF7A6FAEAE700BF0028004000
:1035DC0000B583B00368184A934205D0174A93424A
:1035EC0016D003B05DF804FB4FF0B0431A6E42F4F2
:1035FC0000621A661B6E03F400630093009B0022AA
:10360C0011461920FFF7DEFC1920FFF7EBFCE8E769
:10361C004FF0B0431A6E42F400321A661B6E03F47C
:10362C0000330193019B002211461920FFF7CAFCBD
:10363C001920FFF7D7FCD4E7002C014000440140CF
:10364C000368B3F1804F00D0704782B04FF0B043A5
:10365C009A6D42F001029A659B6D03F00103019390
:10366C00019B02B07047000030B58BB0002305936E
:10367C0006930793089309930368324A934207D041
:10368C00B3F1804F31D0304A934245D00BB030BDAE
:10369C004FF0B043DA6C42F00102DA64DA6C02F0FB
:1036AC0001020292029ADA6C42F00202DA64DB6CDA
:1036BC0003F002030193019B4FF4B06305930225C1
:1036CC0006950124099405A94FF09040FFF7C2FC20
:1036DC004FF4004305930695002307930893099430
:1036EC0005A91A48FFF7B6FCD0E74FF0B043DA6CE7
:1036FC0042F00102DA64DB6C03F001030393039BD9
:10370C0007230593022306930123099305A94FF080
:10371C009040FFF79FFCB9E74FF0B043DA6C42F0F2
:10372C000202DA64DB6C03F002030493049B402373
:10373C000593022306930E23099305A90348FFF76B
:10374C0089FCA3E7002C0140004401400004004820
:10375C0070B59CB0044600211791189119911A91DB
:10376C001B91502203A805F00AFC2268224B9A42B6
:10377C0001D01CB070BD0123039303A801F0FFFE20
:10378C00002836D14FF0B0431A6E42F480421A66CC
:10379C001A6E02F480420292029ADA6C42F0010232
:1037AC00DA64DA6C02F001020192019ADA6C42F0EE
:1037BC000202DA64DB6C03F002030093009B4FF40B
:1037CC000073179302261896002419941A9407254F
:1037DC001B9517A94FF09040FFF73CFC80231793E3
:1037EC00189619941A941B9517A90448FFF732FCE4
:1037FC00BFE7FEF78FF9C5E7003801400004004829
:10380C0038B512F4804F43D00468B4F8503091F8B6
:10381C0000C04FEACC0E1EFA83F32344B3F80244E3
:10382C00C4F309048B69A34228D31B1B8B618B69DE
:10383C007BB9056835F82C309BB223F4804323F018
:10384C00700383F4005343F4004343F0800325F8E2
:10385C002C3012F0400F0ED002680D7832F8253063
:10386C009BB223F4E04323F0700343F4004343F092
:10387C00C00322F8253024B9204638BD00238B61C3
:10388C00D5E723460A894969006804F075F8F3E71F
:10389C000468B4F8503091F800C04FEACC0E1EFA10
:1038AC0083F32344B3F80644C4F309048B69A3429D
:1038BC002FD31B1B8B618B697BB9056835F82C30BA
:1038CC009BB223F4804323F0700383F4005343F43E
:1038DC00004343F0800325F82C3012F0400F0FD139
:1038EC00026891F800C032F82C309BB223F4E0430C
:1038FC0023F0700343F4004343F0C00322F82C3050
:10390C00002CB9D023464A894969006804F034F880
:10391C00B2E700238B61CEE7002856D010B50446E1
:10392C0090F891323BB1032384F89132206803F074
:10393C0034F9002315E080F8903204F03BFAF2E7FA
:10394C0003EB830204EBC2020121517413740021B6
:10395C00D17411625162013303EB8302D200A15086
:10396C00DBB220799842EBD8002316E003EB8302FC
:10397C0004EBC202002182F8511182F8503182F816
:10398C005311C2F86011C2F8641103EB830204EB0B
:10399C00C202C2F868110133DBB29842E6D8234662
:1039AC0053F8040B93E8060003F001F9002323738A
:1039BC00012384F89132A37A012B01D0002010BD91
:1039CC00204600F0F0FE0020F9E70120704790F847
:1039DC009032012B0ED010B50446012380F89032A2
:1039EC00006803F0D1F8206803F0E3FC002084F8B1
:1039FC00900210BD0220704770B505460C46164665
:103A0C0012F0400F00F020810268B2F850300978B3
:103A1C004FEAC10C1CFA83F31344B3F80224C2F32B
:103A2C000902A36993422CD99B1AA361A06958B3CC
:103A3C0016F4804F0DD0286830F821309BB223F457
:103A4C00E04323F0700343F4404343F0800320F839
:103A5C00213094F82430012B00F08D802A682178D5
:103A6C0032F821309BB223F4E04323F0400383F07F
:103A7C00300343F4004343F0800322F8213000204C
:103A8C0070BD0023A361D1E76378002B48D12A686D
:103A9C00B2F8503012FA83F36344B3F80224C2F341
:103AAC000902A3F80224B3F802246FEA42426FEA37
:103ABC00524292B2A3F802242A686378002B3BD1BD
:103ACC00B2F8503012FA83F3227803EBC203B3F846
:103ADC000624C2F30902A3F80624B3F806246FEAFD
:103AEC0042426FEA524292B2A3F80624E378022BC8
:103AFC002FD02178284604F0ABF916F4804FBED0B5
:103B0C002A68217832F821309BB223F4E04323F069
:103B1C00700343F4404343F0800322F82130AEE7B6
:103B2C00012BC9D12A68B2F8503012FA83F36344DE
:103B3C000022A3F80224BFE7012BD7D1B2F85030F2
:103B4C0012FA83F3227803EBC2030022A3F80624B3
:103B5C00CCE72A68217832F821309BB223F4E04379
:103B6C0023F0400383F0200343F4004343F080032D
:103B7C0022F82130BDE7636913446361E3691344A0
:103B8C00E361216A236999421DD3C91A21626278C3
:103B9C00002A44D12968B1F8502011FA82F2217818
:103BAC0002EBC102B2F80214C1F30901A2F802142B
:103BBC00ABB9B2F802146FEA41416FEA514189B2D4
:103BCC00A2F802142DE021B9002384F82430134606
:103BDC00DDE7002384F8243023620B46D7E73E2B25
:103BEC000DD8590813F0010F00D00131B2F80204BE
:103BFC0080B2890289B20143A2F8021411E058097B
:103C0C0013F01F0F00D10138B2F8021489B28002F0
:103C1C0080B2014341F40041A2F8021401E0012AF0
:103C2C0006D09BB222896169286803F0D1FB15E7A5
:103C3C002968B1F8502011FA82F2217802EBC10206
:103C4C0099B2A2F80214ECE70268B2F85030097885
:103C5C00C80010FA83F31344B3F80624C2F3090224
:103C6C00A369934246D39B1AA361A369002B44D04A
:103C7C0016F4804F0DD1286830F821309BB223F414
:103C8C00E04323F0700343F4404343F0800320F8F7
:103C9C00213094F82430012B7FF4E0AE6369134497
:103CAC006361E3691344E361216A23699942C0F0BB
:103CBC009C80C91A216229686278002A40F0C18070
:103CCC00B1F8502011FA82F2217802EBC102B2F85D
:103CDC000614C1F30901A2F80614002B40F09180E0
:103CEC00B2F806146FEA41416FEA514189B2A2F869
:103CFC000614A8E00023A361B7E76378002B49D131
:103D0C002A68B2F8503012FA83F30344B3F8022451
:103D1C00C2F30902A3F80224B3F802246FEA424268
:103D2C006FEA524292B2A3F802242A686378002BFD
:103D3C003CD1B2F8503012FA83F3227803EBC20371
:103D4C00B3F80624C2F30902A3F80624B3F8062438
:103D5C006FEA42426FEA524292B2A3F80624E37829
:103D6C00022B30D02178284604F072F816F4804FDC
:103D7C007FF485AE2A68217832F821309BB223F487
:103D8C00E04323F0700343F4404343F0800322F8F4
:103D9C00213074E6012BC8D12A68B2F8503012FADF
:103DAC0083F303440022A3F80224BEE7012BD6D1EF
:103DBC00B2F8503012FA83F3227803EBC2030022DC
:103DCC00A3F80624CBE72A68217832F821309BB27D
:103DDC0023F4E04323F0400383F0200343F4004337
:103DEC0043F0800322F82130BCE721B9002384F88A
:103DFC00243013465FE70023236284F824300B46FB
:103E0C0059E73E2B0DD8590813F0010F00D00131A2
:103E1C00B2F8060480B2890289B20143A2F80614F2
:103E2C0011E0580913F01F0F00D10138B2F8061435
:103E3C0089B2800280B2014341F40041A2F8061419
:103E4C0001E0012A06D09BB262896169286803F0FF
:103E5C00BFFA03E6B1F8502011FA82F2217802EB96
:103E6C00C10299B2A2F80614EDE72DE9F04105461E
:103E7C002868B0F8443013F4004F00F05582B0F8C5
:103E8C004440A3B214F00F0440F09F8013F0100FC5
:103E9C004AD003889AB213F4006F75D112F4004F14
:103EAC00E6D0038823F070031B051B0D43F0800341
:103EBC0003802868B0F8503095F85021D20012FADF
:103ECC0083F30344B3F80634C3F30903C5F86C3128
:103EDC008BB1D5F8641171B1B5F8562103F04CFDD6
:103EEC00D5F86431D5F86C211344C5F86431002140
:103EFC00284603F0A1FF2A68138899B213F4006FC7
:103F0C00B6D101F44051B1F5405FB1D013889BB2EA
:103F1C0023F4804323F0700383F4405343F40043B1
:103F2C0043F080031380A3E703889BB223F4E1439F
:103F3C0023F070036FEA43436FEA53439BB2038051
:103F4C002968B1F850302A7CD20012FA83F30B4462
:103F5C00B3F80234C3F30903EB626A6A1A446A6267
:103F6C000021284603F074FF2B7B002B80D0AB6A1A
:103F7C00002B7FF47DAF2B7B2A6843F08003A2F8E3
:103F8C004C3000232B7373E7B0F8503095F8502168
:103F9C00D20012FA83F30344B3F80634C3F30903D3
:103FAC00C5F86C31B5F8562105F5267103F0E4FC23
:103FBC002A68138823F070031B051B0D43F0800344
:103FCC001380284603F030FF52E730F824309EB2BD
:103FDC0013F4004F4ED116F0800F3FF449AF04EBB1
:103FEC008401C900103129442A6832F824309BB26C
:103FFC0023F4E14323F070036FEA43436FEA534326
:10400C009BB222F8243004EB840305EBC303DB7C66
:10401C00012B00F0E98016F4807F40F08081286845
:10402C00B0F8503004EB840205EBC202167CF200AF
:10403C0012FA83F30344B3F80234C3F30903621C8A
:10404C0002EB820255F832209A4240F24B81671CF7
:10405C0007EB8707D21A45F83720621C02EB820265
:10406C0055F83220002A40F044813146284603F0AE
:10407C00EFFEFDE630F8243023F070031B051B0D1A
:10408C0043F0800320F8243004EB8401C90001F5CF
:10409C00A87105EB010804EB840305EBC30393F84B
:1040AC005C31002B40D12868B0F8503004EB84020E
:1040BC0005EBC20292F85021D20012FA83F30344AA
:1040CC00B3F80674C7F3090717BB04EB840305EBBD
:1040DC00C303D3F86C213A44C3F86C21D3F86421A0
:1040EC003A44C3F86421D3F868313BB104EB840340
:1040FC0005EBC303D3F860319F4270D204EB840309
:10410C0005EBC30393F85011284603F095FE62E7C4
:10411C0004EB840105EBC1013B46B1F85621D1F803
:10412C00641103F029FCD0E704EB840305EBC30313
:10413C0093F85331022B33D0296804EB840205EB3E
:10414C00C20292F8500131F820309BB223F4E043C4
:10415C0023F0700343F4004343F0C00321F82030F4
:10416C00286892F8503130F8232012F4804F1ED07A
:10417C00B0F85020DB0013FA82F30344B3F8027456
:10418C00C7F30907002FA0D004EB840105EBC10194
:10419C003B46B1F85821D1F8641103F0EDFB94E7DC
:1041AC00324641462846FFF72BFB07468DE7B0F811
:1041BC005020DB0013FA82F30344B3F80674C7F300
:1041CC000907002F81D004EB840105EBC1013B46AC
:1041DC00B1F85A21D1F8641103F0CEFB75E74146D2
:1041EC00286803F007F9F6E6631C03EB8303DB0096
:1041FC000022EA5004EB840305EBC3031B7F1BB3C3
:10420C0016F0400F3BD004EB840305EBC3035B7C3F
:10421C001BBB2A68B2F8503012FA83F304EB840209
:10422C0005EBC202127C03EBC203B3F80224C2F307
:10423C000902A3F80224B3F802246FEA42426FEA9F
:10424C00524292B2A3F8022404EB840405EBC4049A
:10425C00217C284603F0FCFD0AE6012BF4D12A68E8
:10426C00B2F8503012FA83F304EB840205EBC2026D
:10427C00127C03EBC2030022A3F80224E4E72A68B1
:10428C0004EB840305EBC3035B7CD3B9B2F8503069
:10429C0012FA83F304EB840205EBC202127C03EBEB
:1042AC00C203B3F80624C2F30902A3F80624B3F838
:1042BC0006246FEA42426FEA524292B2A3F80624F5
:1042CC00C2E7012BC0D1B2F8503012FA83F304EBE1
:1042DC00840205EBC202127C03EBC2030022A3F89A
:1042EC000624B1E7621C02EB8202D2000027AF5019
:1042FC00B3E604EB840205EBC202566A1E44566216
:10430C00013404EB840205EBC202526804EB840412
:10431C0005EBC4041344636003F06CF8A8E5324663
:10432C002846FFF769FBA3E50020BDE8F08190F873
:10433C009032012B0CD010B50446012380F890323A
:10434C000173006803F02FF8002084F8900210BD70
:10435C000220704710B50446006803F035F810F4DD
:10436C00004F23D110F4806F24D110F4804F32D140
:10437C0010F4005F39D110F4805F40D110F4006F5D
:10438C0067D110F0800F40F0818010F4007F40F076
:10439C00AD8010F4807F27D02268B2F844309BB2F5
:1043AC0023F480739BB2A2F844301DE02046FFF743
:1043BC005CFD19E02268B2F844309BB223F48063B0
:1043CC009BB2A2F84430204603F053FD0021204656
:1043DC00FFF7ADFF08E02268B2F844309BB223F43B
:1043EC0080439BB2A2F8443010BD2268B2F844302E
:1043FC009BB223F400539BB2A2F84430F4E722683A
:10440C00B2F840309BB223F004039BB2A2F84030C8
:10441C002268B2F840309BB223F008039BB2A2F89A
:10442C00403094F8C832012B0CD0204603F044FDE8
:10443C002268B2F844309BB223F480539BB2A2F8AA
:10444C004430D1E7002184F8C812204603F0DAFD8D
:10445C00EBE72268B2F840309BB243F00803A2F8B5
:10446C0040302268B2F844309BB223F400639BB214
:10447C00A2F844302268B2F840309BB243F00403F7
:10448C00A2F84030204603F007FDADE72268B2F8F1
:10449C0044309BB223F080039BB2A2F8443094F8D2
:1044AC00C832FBB92268B2F840309BB243F0040327
:1044BC00A2F840302268B2F840309BB243F00803B7
:1044CC00A2F84030012184F8C8122368B3F85430A4
:1044DC00C3F38D0303F03C03C4F8CC32204603F045
:1044EC0091FD81E7204603F0D7FC7DE72268B2F806
:1044FC0044309BB223F400739BB2A2F844302046A4
:10450C0003F0B1FC70E710B50446084611F0800FBB
:10451C0027D101F0070C0CEB8C01C90001F5A87E2A
:10452C0004EB0E010CEB8C0C04EBCC0C4FF0000EDE
:10453C008CF851E100F007000870C2F30A020A611E
:10454C00CB70022B1DD094F89032012B1CD0012380
:10455C0084F89032206802F03BFB002084F8900233
:10456C0010BD01F0070C0CEB8C01C900103121447B
:10457C000CEB8C0C04EBCC0C4FF0010E8CF811E016
:10458C00D8E700230B71DEE70220E9E710B50446FB
:10459C000A4611F0800F1FD101F0070000EB8003D9
:1045AC00DB0003F5A873E11800EB800004EBC000FE
:1045BC00002380F8513102F007020A7094F890320F
:1045CC00012B17D0012384F89032206802F08DFD66
:1045DC00002084F8900210BD01F0070000EB80036E
:1045EC00DB001033E11800EB800004EBC00001236A
:1045FC004374E0E70220EEE710B501F0070C0CEB7A
:10460C008C01C90001F5A8710CEB8C0E00EBCE0EE1
:10461C00CEF86421CEF868310024CEF86C418EF8C7
:10462C0051418EF850C10144006802F0E3FE20466F
:10463C0010BD38B501F0070C0CEB8C01C900103122
:10464C000CEB8C0E00EBCE0ECEF824200CF10102FC
:10465C0002EB820440F8343001258EF83450CEF849
:10466C00303000EBC402002454608EF811508EF8E8
:10467C0010C00144006802F0BDFE204638BD0B4658
:10468C0001F00702017991422ED310B5044613F0C4
:10469C00800F1DD103EB8301C90001F5A871014402
:1046AC0003EB830300EBC303002083F851010123C8
:1046BC008B700A7094F89032012B17D0012384F878
:1046CC009032206802F0FCFD002084F8900210BDAE
:1046DC0002EB8201C9001031014402EB820300EBB2
:1046EC00C30301205874E2E7012070470220EEE773
:1046FC000B46017903F00F02914234D310B50446F6
:10470C0013F0800F21D103F0070202EB8201C900E4
:10471C0001F5A871014402EB820200EBC2020020F9
:10472C0082F8510100228A7003F007030B7094F891
:10473C009032012B19D0012384F89032206802F0BA
:10474C00E4FD002084F8900210BD03F0070202EB98
:10475C008201C9001031014402EB820200EBC2025B
:10476C0001205074DEE7012070470220ECE711F0C5
:10477C00800F0BD001F0070101EB8101C900103152
:10478C00084452B90273C3800020704701EB8101C9
:10479C00C90001F5A8710844F3E7012202730381F3
:1047AC001B0C4381F0E7034602680121C0F8D012CC
:1047BC00002083F8C802B2F854309BB20B43A2F825
:1047CC005430B2F854309BB243F00203A2F8543088
:1047DC0070470000024A136843F4807313607047FB
:1047EC0000040058024B186800F4C060704700BF0A
:1047FC0000040058024A536843F4806353607047C6
:10480C000004005830B58DB005468E462B4C94E80C
:10481C000F000DF1300C0CE90F0005AB04F1100288
:10482C0007CA83E807000DF1040C1C3494E80F0050
:10483C008CE80F00BEF5007F07D0002314E00CAA13
:10484C0002EB830353F82C5C1EE00023032B08D8E7
:10485C000CAA02EB830252F8102CAA42EFD20133BD
:10486C00F4E7002510E00133022B0CD80CAA02EB64
:10487C00830252F81C2CAA42F5D30CAA02EB830338
:10488C0053F82C5C00E000250D4A136823F0070355
:10489C002B431360FDF7F4FF0446094B1B6803F030
:1048AC000703AB4206D0FDF7EBFF001B0228F4D93F
:1048BC00032000E000200DB030BD00BF2C93000899
:1048CC000040005810B5B02816D90E4BDC6A4FF0DA
:1048DC00B043D3F8083103F00F030B4A52F82330DE
:1048EC00B4FBF3F4FFF77EFF0146084BA3FB043443
:1048FC00A00CFFF787FF10BDC0F30310014B53F85A
:10490C002040E4E7309500089095000883DE1B43B7
:10491C004FF0B0439B6813F00C030DD14FF0B04334
:10492C001B6803F0F003B02B04D81B09254A52F87E
:10493C0023007047B023F8E7042B3ED0082B10D08F
:10494C004FF0B043DB6803F00303022B31D0032B91
:10495C000FD14FF0B0431B6813F4801F2BD11A48B2
:10496C0012E04FF0B0431B6813F4801F27D0174898
:10497C0070474FF0B0431B6803F0F003B02B16D810
:10498C001B09104A52F823004FF0B042D368C3F30E
:10499C00062303FB00F0D368C3F302130133B0FB0F
:1049AC00F3F0D3685B0F0133B0FBF3F07047B02327
:1049BC00E6E70648E8E70548E6E70448704702489A
:1049CC00704700BF309500080048E8010024F4004F
:1049DC0008B5FFF79DFF4FF0B0439B68C3F303137B
:1049EC00024A52F82330B0FBF3F008BD9095000852
:1049FC00002800F0728338B50446036813F0200FCA
:104A0C002DD04FF0B0429368D26802F0030213F03D
:104A1C000C0358D00C2B54D0E369002B00F0A08071
:104A2C004FF0B042136843F001031360FDF728FF09
:104A3C0005464FF0B0431B6813F0020F00F088805E
:104A4C00636A4FF0B042116821F0F0010B43136020
:104A5C00216A536823F47F4343EA0123536023689C
:104A6C0013F0010F00F09A804FF0B042936803F0FE
:104A7C000C03D26802F00302082B00F08B800C2B85
:104A8C0000F085806368B3F5803F00F0B0804FF094
:104A9C00B042136823F4803313606368002B00F07A
:104AAC00AD80FDF7EDFE05464FF0B0431B6813F4E7
:104ABC00003F73D1FDF7E4FE401B6428F4D90320BA
:104ACC0016E3012AA8D1E369002B00F00883606A81
:104ADC004FF0B0431B6803F0F003B02B21D8984281
:104AEC0021D9FFF7EFFE002840F0FB82636A4FF0FC
:104AFC00B042116821F0F0010B431360216A536836
:104B0C0023F47F4343EA01235360FFF761FFBF4B5C
:104B1C001860BF4B1868FDF769FE00289FD0012074
:104B2C00E6E2B023DBE74FF0B042136823F0F0036A
:104B3C0018431060216A536823F47F4343EA01232E
:104B4C005360606AFFF7BEFE0028DED00120CFE282
:104B5C00FDF796FE401B02287FF66BAF0320C7E2E1
:104B6C004FF0B042136823F001031360FDF788FE89
:104B7C0005464FF0B0431B6813F0020F3FF46FAFC4
:104B8C00FDF77EFE401B0228F3D90320B0E2032A76
:104B9C007FF478AF6368002B00F0A582236813F0D4
:104BAC00020F54D04FF0B042936803F00C03D2685C
:104BBC0002F00302042B33D00C2B2FD0E368002B14
:104BCC0071D04FF0B042136843F480731360FDF75B
:104BDC0057FE05464FF0B0431B6813F4806F2DD180
:104BEC00FDF74EFE401B0228F4D9032080E24FF063
:104BFC00B042136843F4803313604EE7FDF740FE78
:104C0C0005464FF0B0431B6813F4003FC6D0FDF7C8
:104C1C0037FE401B6428F4D9032069E2022ACDD167
:104C2C00E368002B00F0618221694FF0B0425368B9
:104C3C0023F0FE4343EA0163536008E021694FF01F
:104C4C00B042536823F0FE4343EA01635360236888
:104C5C0013F0180F00F0DE806269002A00F0A380C8
:104C6C0013F0100F70D04FF0B043D3F8943013F012
:104C7C00020F2ED14FF0B042D2F8943043F0010322
:104C8C00C2F89430FDF7FCFD05464FF0B043D3F865
:104C9C00943013F0020F1CD1FDF7F2FD401B0228DB
:104CAC00F3D9032024E24FF0B042136823F480734D
:104CBC001360FDF7E5FD05464FF0B0431B6813F498
:104CCC00806FC4D0FDF7DCFD401B0228F4D9032013
:104CDC000EE24FF0B042D2F8943043F00403C2F825
:104CEC009430FDF7CDFD05464FF0B043D3F894302A
:104CFC0013F0080F06D1FDF7C3FD401B0328F3D9B1
:104D0C000320F5E1A1694FF0B042D2F8943023F4BE
:104D1C00706343EA0123C2F89430D2F8943023F044
:104D2C000103C2F89430FDF7ABFD05464FF0B043DC
:104D3C00D3F8943013F0020F6CD0FDF7A1FD401B9B
:104D4C000228F3D90320D3E14FF0B042D2F89430CB
:104D5C0043F00103C2F89430FDF792FD05464FF085
:104D6C00B043D3F8943013F0020F06D1FDF788FD51
:104D7C00401B0228F3D90320BAE14FF0B042D2F81D
:104D8C00943023F00403C2F894304FF0B043D3F8BE
:104D9C00943013F0080F3DD0FDF772FD401B032833
:104DAC00F3D90320A4E14FF0B042D2F8943023F0B1
:104DBC000403C2F89430FDF763FD05464FF0B04391
:104DCC00D3F8943013F0080F18D14FF0B042D2F84A
:104DDC00943023F00103C2F89430FDF751FD0546E1
:104DEC004FF0B043D3F8943013F0020F12D0FDF70C
:104DFC0047FD401B0228F3D9032079E1FDF740FD64
:104E0C00401B0328DAD9032072E100BF28000020E0
:104E1C0024000020236813F0040F68D0B74B1B68E4
:104E2C0013F4807F27D0A368012B35D0052B3CD001
:104E3C004FF0B043D3F8902022F00102C3F8902039
:104E4C00D3F8902022F00402C3F89020A368DBB3BF
:104E5C00FDF716FD05464FF0B043D3F8903013F034
:104E6C00020F44D1FDF70CFD401B41F288339842F0
:104E7C00F1D903203CE1FFF7ADFCFDF701FD054640
:104E8C009E4B1B6813F4807FCDD1FDF7F9FC401BC2
:104E9C000228F5D903202BE14FF0B042D2F8903024
:104EAC0043F00103C2F89030D0E74FF0B043D3F891
:104EBC00902042F00402C3F89020D3F8902042F0E6
:104ECC000102C3F89020C1E7FDF7DAFC05464FF06C
:104EDC00B043D3F8903013F0020F08D0FDF7D0FC9C
:104EEC00401B41F288339842F1D9032000E123683A
:104EFC0013F0400F33D0A36AC3B14FF0B042D2F8D5
:104F0C00983043F00103C2F89830FDF7B9FC054620
:104F1C004FF0B043D3F8983013F0020F1FD1FDF7C8
:104F2C00AFFC401B0228F3D90320E1E04FF0B04264
:104F3C00D2F8983023F00103C2F89830FDF7A0FCAA
:104F4C0005464FF0B043D3F8983013F0020F06D05B
:104F5C00FDF796FC401B0228F3D90320C8E0E36A56
:104F6C00002B00F0C4804FF0B042916801F00C01AE
:104F7C00D268022B19D00C2900F0BD804FF0B04242
:104F8C00136823F080731360FDF77AFC04464FF02E
:104F9C00B0431B6813F0007F00F09780FDF770FCA6
:104FAC00001B0228F3D90320A2E002F00303206BBC
:104FBC0083420AD00C2900F09C804FF0B0431B6850
:104FCC0013F0806F22D0012092E002F07003606B2E
:104FDC008342EFD1C2F30623A06B8342EAD102F4E1
:104FEC007813E06B8342E5D102F06063206C83425E
:104FFC00E0D102F06042636C9A42DBD14FF0B043D7
:10500C001B6813F0007F44D0002071E04FF0B042D9
:10501C00136823F080731360FDF732FC05464FF0E4
:10502C00B0431B6813F0007F06D0FDF729FC401B32
:10503C000228F4D903205BE04FF0B042D36830492A
:10504C001940236B606B0343A06B43EA0023E06BB6
:10505C000343206C0343606C03431943D160136812
:10506C0043F080731360D36843F08053D360FDF733
:10507C0007FC04464FF0B0431B6813F0007F06D1C9
:10508C00FDF7FEFB001B0228F4D9032030E00020C2
:10509C002EE04FF0B0431A6842F080721A60DA6862
:1050AC0042F08052DA60FDF7EBFB04464FF0B04360
:1050BC001B6813F0007F06D1FDF7E2FB031B022BEC
:1050CC00F4D9032014E0002012E04FF0B042D16874
:1050DC000C4B0B40D36000200AE0012070470120EC
:1050EC0006E0012004E0012002E0012000E00020A5
:1050FC0038BD0120FCE70120FAE700BF000400588E
:10510C008C80C111FCFFFEEE002800F0278170B5E9
:10511C000C460546934B1B6803F007038B422DD3BB
:10512C002B6813F0020F3FD12B6813F0200F53D1D3
:10513C002B6813F0400F6AD12B6813F0040F40F06A
:10514C0083802B6813F0080F40F097802B6813F0C6
:10515C00010F00F0DE806B68022B00F0A880032B9F
:10516C0000F0AD80002B40F0B2804FF0B0421268DE
:10517C0012F0020F40F0B1800120EEE0794A136882
:10518C0023F007030B431360FDF77AFB0646754BC0
:10519C001B6803F00703A342C2D0FDF771FB801B11
:1051AC000228F4D90320D8E0AB684FF0B0418A68EC
:1051BC0022F0F00213438B60FDF762FB06464FF0C2
:1051CC00B0439B6813F4803FAED1FDF759FB801BB5
:1051DC000228F4D90320C0E06B694FF0B041D1F83C
:1051EC00082122F0F0021343C1F80831FDF748FB07
:1051FC0006464FF0B043D3F8083113F4003F97D173
:10520C00FDF73EFB801B0228F3D90320A5E0A9691A
:10521C004FF0B042D2F8083123F00F0343EA1113D8
:10522C00C2F80831FDF72CFB06464FF0B043D3F81B
:10523C00083113F4803F7FF47FAFFDF721FB801B17
:10524C000228F2D9032088E0EB684FF0B0418A685D
:10525C0022F4E06213438B60FDF712FB06464FF01D
:10526C00B0439B6813F4003F7FF46BAFFDF708FB72
:10527C00801B0228F3D903206FE029694FF0B0425C
:10528C00936823F4605343EAC1039360FDF7F8FA83
:10529C0006464FF0B0439B6813F4802F7FF456AF53
:1052AC00FDF7EEFA801B0228F3D9032055E04FF0EE
:1052BC00B042126812F4003F0FD101204DE04FF0C4
:1052CC00B042126812F0007F07D1012045E04FF088
:1052DC00B042126812F4806F42D04FF0B0418A682D
:1052EC0022F0030213438B60FDF7CAFA06464FF017
:1052FC00B0439B6803F00C036A68B3EB820F08D0D1
:10530C00FDF7BEFA801B41F288339842EFD9032097
:10531C0023E0144B1B6803F00703A34215D9114A71
:10532C00136823F0070323431360FDF7A9FA05461E
:10533C000C4B1B6803F00703A34206D0FDF7A0FA41
:10534C00401B0228F4D9032007E0FFF741FB064B72
:10535C001860FDF79BFAFDF749FA70BD0120704704
:10536C000120FAE7004000582800002008B5FFF79C
:10537C002FFB4FF0B0439B68C3F30223034A52F850
:10538C00233003F01F03D84008BD00BF7095000800
:10539C0008B5FFF71DFB4FF0B0439B68C3F3C22366
:1053AC00034A52F8233003F01F03D84008BD00BF56
:1053BC00709500084FF0B041D1F88830020902F422
:1053CC007F2223EA0203000100F47F200343C1F88B
:1053DC008830704770B505464FF0B042136823F023
:1053EC0080631360FDF74CFA04464FF0B0431B6822
:1053FC0013F0006F06D0FDF743FA001B0228F4D916
:10540C00032400E000240CB1204670BD4FF0B043E3
:10541C001A6922F4FE42296842EA01221A611A69C9
:10542C0022F4781269680A431A611A6842F08062A1
:10543C001A60FDF725FA06464FF0B0431B6813F0CF
:10544C00006F05D1FDF71CFA801B0228F4D9032448
:10545C00002CD9D14FF0B042136929690B43136169
:10546C00D2E770B505464FF0B042136823F0806365
:10547C001360FDF705FA04464FF0B0431B6813F0B8
:10548C00006F06D0FDF7FCF9001B0228F4D90324A9
:10549C0000E000240CB1204670BD4FF0B0431A69F7
:1054AC0022F4FE42296842EA01221A611A6922F0AA
:1054BC006062A9680A431A611A6842F080621A6035
:1054CC00FDF7DEF906464FF0B0431B6813F0006F92
:1054DC0005D1FDF7D5F9801B0228F4D90324002C43
:1054EC00D9D14FF0B042136929690B431361D2E74C
:1054FC0070B505464FF0B042136823F0806313601B
:10550C00FDF7BEF904464FF0B0431B6813F0006F73
:10551C0006D0FDF7B5F9001B0228F4D9032400E0EE
:10552C0000240CB1204670BD4FF0B0431A6922F430
:10553C00FE42296842EA01221A611A6922F060428D
:10554C00E9680A431A611A6842F080621A60FDF732
:10555C0097F906464FF0B0431B6813F0006F05D166
:10556C00FDF78EF9801B0228F4D90324002CD9D125
:10557C004FF0B042136929690B431361D2E770B540
:10558C000446036813F0400F2FD0036BB3F5800F64
:10559C0014D00AD833B90430FFF71CFF0646A0B16B
:1055AC00054624E001252E4621E0B3F5000F18D066
:1055BC00B3F5400F17D001252E4618E04FF0B0423E
:1055CC00D36843F48033D3600026236B4FF0B04193
:1055DC00D1F8882022F440021343C1F8883000250A
:1055EC0005E00026F1E70026EFE700252E462368AC
:1055FC0013F4006F0AD04FF0B043D3F8905005F479
:10560C004075236CAB4240F0B7803546236813F0ED
:10561C00010F09D0A3694FF0B041D1F8882022F0D6
:10562C0003021343C1F88830236813F0020F09D02A
:10563C00E3694FF0B041D1F8882022F44062134363
:10564C00C1F88830236813F0100F0CD0A16A4FF00A
:10565C00B042D2F88830080C000423EA000343EA75
:10566C000143C2F88830236813F0200F0CD0E16A94
:10567C004FF0B042D2F88830080C000423EA000343
:10568C0043EA0143C2F88830236813F0040F40F05A
:10569C00B480236813F0080F40F0B380236813F430
:1056AC00807F13D0636B4FF0B041D1F8882022F08B
:1056BC0040621343C1F88830636BB3F1006F00F0A4
:1056CC00A480636BB3F1806F00F0A480236813F4A3
:1056DC00007F17D0A36BB3F1804F05D0B3F1004F0F
:1056EC0002D0002B40F09E804FF0B041D1F88820C2
:1056FC0022F040421343C1F88830A36BB3F1C05F72
:10570C0000F0A280236813F4806F13D0E36B4FF08A
:10571C00B041D1F8882022F040521343C1F88830B0
:10572C00E36BB3F1005F00F09680E36BB3F1805F45
:10573C0000F09680236813F4805F09D0636C4FF0FF
:10574C00B041D1F8942022F440421343C1F8943074
:10575C00236813F4005F0DD0E26C4FF0B043596A2C
:10576C0021F030010A435A62A26C596A21F00301FC
:10577C000A435A62284670BDFFF72CF85DB9236CBA
:10578C004FF0B041D1F8902022F440721343C1F88D
:10579C00903035463AE74FF0B043D3F89020D3F829
:1057AC00901041F48031C3F89010D3F8901021F48C
:1057BC008031C3F8901022F44072216C0A43C3F874
:1057CC009020D3F8903013F0010F12D0FDF758F859
:1057DC0005464FF0B043D3F8903013F0020F0AD1C6
:1057EC00FDF74EF8401B41F288339842F1D903255E
:1057FC000CE735460AE7354608E7206AFFF7DAFD7D
:10580C0047E7606AFFF7D6FD48E7CB6843F0807343
:10581C00CB6056E7201DFFF724FE00283FF456AF5F
:10582C00054653E723F080534FF0B042D2F888106E
:10583C0021F04041C2F88810D2F8881021F0406164
:10584C000B43C2F8883058E74FF0B042D36843F0AE
:10585C008073D36056E7CB6843F48033CB6064E746
:10586C00201DFFF745FE00283FF464AF054661E7B5
:10587C004FF0B042136843F004031360704700000C
:10588C0038B5044603680A4ADA60FCF7F9FF0546A6
:10589C002368DB6813F0200F07D1FCF7F1FF401BE6
:1058AC00B0F57A7FF4D9032000E0002038BD00BFAA
:1058BC005FFF010070B50368DA6812F0400F02D088
:1058CC000025284670BD0446DA6842F08002DA6092
:1058DC00FCF7D6FF064600252368DB6813F0400F63
:1058EC00EFD1002DEDD1FCF7CBFF831BB3F57A7F05
:1058FC00F2D9042384F821300125EDE70268D3683E
:10590C0023F08003D36003689B6813F0200F01D051
:10591C000020704710B50446FFF7B2FF18B10423FE
:10592C0084F82130012010BD002850D038B5044631
:10593C0090F8213063B1022384F821302368DA68AF
:10594C0012F0100F09D00020012384F8213038BD4B
:10595C0080F82030FDF70AFEEDE7CA225A62236870
:10596C0053225A622046FFF7A5FF28B12368FF2275
:10597C005A620028EBD1E7E72268936823F4E0032E
:10598C0023F04003936021688A68636820690343AD
:10599C00A069034313438B602368E2681A61226891
:1059AC001369A16843EA014313612046FFF7A6FF80
:1059BC000028DBD12268D36C23F00303D364216865
:1059CC00CB6CE26965692A431343CB64CEE70120B3
:1059DC007047F8B590F82030012B67D004460D467F
:1059EC001646012380F82030022380F8213003680A
:1059FC00CA225A62036853225A6203689B6813F4E2
:105A0C00806F17D0FCF73CFF07462368DB6813F068
:105A1C00040F0FD0FCF734FFC01BB0F57A7FF4D91C
:105A2C002368FF225A62032084F82100002384F8A3
:105A3C0020303AE02268936823F4806393602268F4
:105A4C00D368DBB263F49063D360FCF719FF0746AD
:105A5C002368DA6812F0040F0FD1FCF711FFC01B9A
:105A6C00B0F57A7FF4D92368FF225A62032084F8B8
:105A7C002100002384F8203017E09A6822F00702F6
:105A8C009A60226893683343936023685D6122684F
:105A9C00936843F4806393602368FF225A62012366
:105AAC0084F82130002084F82000F8BD0220FCE7A7
:105ABC0030B4026A036A23F0010303624468836909
:105ACC0023F4803323F073030D681D4322F002028C
